{
  "_format": "hh-sol-artifact-1",
  "contractName": "SimpleNFT",
  "sourceName": "contracts/SimpleNFT.sol",
  "abi": [
    {
      "inputs": [
        {
          "internalType": "address",
          "name": "initialOwner",
          "type": "address"
        }
      ],
      "stateMutability": "nonpayable",
      "type": "constructor"
    },
    {
      "anonymous": false,
      "inputs": [
        {
          "indexed": true,
          "internalType": "address",
          "name": "owner",
          "type": "address"
        },
        {
          "indexed": true,
          "internalType": "address",
          "name": "approved",
          "type": "address"
        },
        {
          "indexed": true,
          "internalType": "uint256",
          "name": "tokenId",
          "type": "uint256"
        }
      ],
      "name": "Approval",
      "type": "event"
    },
    {
      "anonymous": false,
      "inputs": [
        {
          "indexed": true,
          "internalType": "address",
          "name": "owner",
          "type": "address"
        },
        {
          "indexed": true,
          "internalType": "address",
          "name": "operator",
          "type": "address"
        },
        {
          "indexed": false,
          "internalType": "bool",
          "name": "approved",
          "type": "bool"
        }
      ],
      "name": "ApprovalForAll",
      "type": "event"
    },
    {
      "anonymous": false,
      "inputs": [
        {
          "indexed": false,
          "internalType": "uint256",
          "name": "_fromTokenId",
          "type": "uint256"
        },
        {
          "indexed": false,
          "internalType": "uint256",
          "name": "_toTokenId",
          "type": "uint256"
        }
      ],
      "name": "BatchMetadataUpdate",
      "type": "event"
    },
    {
      "anonymous": false,
      "inputs": [
        {
          "indexed": false,
          "internalType": "uint256",
          "name": "_tokenId",
          "type": "uint256"
        }
      ],
      "name": "MetadataUpdate",
      "type": "event"
    },
    {
      "anonymous": false,
      "inputs": [
        {
          "indexed": true,
          "internalType": "address",
          "name": "previousOwner",
          "type": "address"
        },
        {
          "indexed": true,
          "internalType": "address",
          "name": "newOwner",
          "type": "address"
        }
      ],
      "name": "OwnershipTransferred",
      "type": "event"
    },
    {
      "anonymous": false,
      "inputs": [
        {
          "indexed": true,
          "internalType": "address",
          "name": "from",
          "type": "address"
        },
        {
          "indexed": true,
          "internalType": "address",
          "name": "to",
          "type": "address"
        },
        {
          "indexed": true,
          "internalType": "uint256",
          "name": "tokenId",
          "type": "uint256"
        }
      ],
      "name": "Transfer",
      "type": "event"
    },
    {
      "inputs": [
        {
          "internalType": "address",
          "name": "to",
          "type": "address"
        },
        {
          "internalType": "uint256",
          "name": "tokenId",
          "type": "uint256"
        }
      ],
      "name": "approve",
      "outputs": [],
      "stateMutability": "nonpayable",
      "type": "function"
    },
    {
      "inputs": [
        {
          "internalType": "address",
          "name": "owner",
          "type": "address"
        }
      ],
      "name": "balanceOf",
      "outputs": [
        {
          "internalType": "uint256",
          "name": "",
          "type": "uint256"
        }
      ],
      "stateMutability": "view",
      "type": "function"
    },
    {
      "inputs": [
        {
          "internalType": "uint256",
          "name": "tokenId",
          "type": "uint256"
        }
      ],
      "name": "getApproved",
      "outputs": [
        {
          "internalType": "address",
          "name": "",
          "type": "address"
        }
      ],
      "stateMutability": "view",
      "type": "function"
    },
    {
      "inputs": [
        {
          "internalType": "address",
          "name": "owner",
          "type": "address"
        },
        {
          "internalType": "address",
          "name": "operator",
          "type": "address"
        }
      ],
      "name": "isApprovedForAll",
      "outputs": [
        {
          "internalType": "bool",
          "name": "",
          "type": "bool"
        }
      ],
      "stateMutability": "view",
      "type": "function"
    },
    {
      "inputs": [
        {
          "internalType": "address",
          "name": "recipient",
          "type": "address"
        },
        {
          "internalType": "string",
          "name": "tokenURI",
          "type": "string"
        }
      ],
      "name": "mintNFT",
      "outputs": [
        {
          "internalType": "uint256",
          "name": "",
          "type": "uint256"
        }
      ],
      "stateMutability": "nonpayable",
      "type": "function"
    },
    {
      "inputs": [],
      "name": "name",
      "outputs": [
        {
          "internalType": "string",
          "name": "",
          "type": "string"
        }
      ],
      "stateMutability": "view",
      "type": "function"
    },
    {
      "inputs": [],
      "name": "owner",
      "outputs": [
        {
          "internalType": "address",
          "name": "",
          "type": "address"
        }
      ],
      "stateMutability": "view",
      "type": "function"
    },
    {
      "inputs": [
        {
          "internalType": "uint256",
          "name": "tokenId",
          "type": "uint256"
        }
      ],
      "name": "ownerOf",
      "outputs": [
        {
          "internalType": "address",
          "name": "",
          "type": "address"
        }
      ],
      "stateMutability": "view",
      "type": "function"
    },
    {
      "inputs": [],
      "name": "renounceOwnership",
      "outputs": [],
      "stateMutability": "nonpayable",
      "type": "function"
    },
    {
      "inputs": [
        {
          "internalType": "address",
          "name": "from",
          "type": "address"
        },
        {
          "internalType": "address",
          "name": "to",
          "type": "address"
        },
        {
          "internalType": "uint256",
          "name": "tokenId",
          "type": "uint256"
        }
      ],
      "name": "safeTransferFrom",
      "outputs": [],
      "stateMutability": "nonpayable",
      "type": "function"
    },
    {
      "inputs": [
        {
          "internalType": "address",
          "name": "from",
          "type": "address"
        },
        {
          "internalType": "address",
          "name": "to",
          "type": "address"
        },
        {
          "internalType": "uint256",
          "name": "tokenId",
          "type": "uint256"
        },
        {
          "internalType": "bytes",
          "name": "data",
          "type": "bytes"
        }
      ],
      "name": "safeTransferFrom",
      "outputs": [],
      "stateMutability": "nonpayable",
      "type": "function"
    },
    {
      "inputs": [
        {
          "internalType": "address",
          "name": "operator",
          "type": "address"
        },
        {
          "internalType": "bool",
          "name": "approved",
          "type": "bool"
        }
      ],
      "name": "setApprovalForAll",
      "outputs": [],
      "stateMutability": "nonpayable",
      "type": "function"
    },
    {
      "inputs": [
        {
          "internalType": "bytes4",
          "name": "interfaceId",
          "type": "bytes4"
        }
      ],
      "name": "supportsInterface",
      "outputs": [
        {
          "internalType": "bool",
          "name": "",
          "type": "bool"
        }
      ],
      "stateMutability": "view",
      "type": "function"
    },
    {
      "inputs": [],
      "name": "symbol",
      "outputs": [
        {
          "internalType": "string",
          "name": "",
          "type": "string"
        }
      ],
      "stateMutability": "view",
      "type": "function"
    },
    {
      "inputs": [
        {
          "internalType": "uint256",
          "name": "tokenId",
          "type": "uint256"
        }
      ],
      "name": "tokenURI",
      "outputs": [
        {
          "internalType": "string",
          "name": "",
          "type": "string"
        }
      ],
      "stateMutability": "view",
      "type": "function"
    },
    {
      "inputs": [],
      "name": "totalSupply",
      "outputs": [
        {
          "internalType": "uint256",
          "name": "",
          "type": "uint256"
        }
      ],
      "stateMutability": "view",
      "type": "function"
    },
    {
      "inputs": [
        {
          "internalType": "address",
          "name": "from",
          "type": "address"
        },
        {
          "internalType": "address",
          "name": "to",
          "type": "address"
        },
        {
          "internalType": "uint256",
          "name": "tokenId",
          "type": "uint256"
        }
      ],
      "name": "transferFrom",
      "outputs": [],
      "stateMutability": "nonpayable",
      "type": "function"
    },
    {
      "inputs": [
        {
          "internalType": "address",
          "name": "newOwner",
          "type": "address"
        }
      ],
      "name": "transferOwnership",
      "outputs": [],
      "stateMutability": "nonpayable",
      "type": "function"
    }
  ],
  "bytecode": "0x60806040523480156200001157600080fd5b5060405162001add38038062001add833981016040819052620000349162000118565b6040518060400160405280600981526020016814da5b5c1b1953919560ba1b8152506040518060400160405280600481526020016314d3919560e21b8152508160009081620000849190620001ef565b506001620000938282620001ef565b505050620000b0620000aa620000c260201b60201c565b620000c6565b620000bb81620000c6565b50620002bb565b3390565b600780546001600160a01b038381166001600160a01b0319831681179093556040519116919082907f8be0079c531659141344cd1fd0a4f28419497f9722a3daafe3b4186f6b6457e090600090a35050565b6000602082840312156200012b57600080fd5b81516001600160a01b03811681146200014357600080fd5b9392505050565b634e487b7160e01b600052604160045260246000fd5b600181811c908216806200017557607f821691505b6020821081036200019657634e487b7160e01b600052602260045260246000fd5b50919050565b601f821115620001ea57600081815260208120601f850160051c81016020861015620001c55750805b601f850160051c820191505b81811015620001e657828155600101620001d1565b5050505b505050565b81516001600160401b038111156200020b576200020b6200014a565b62000223816200021c845462000160565b846200019c565b602080601f8311600181146200025b5760008415620002425750858301515b600019600386901b1c1916600185901b178555620001e6565b600085815260208120601f198616915b828110156200028c578886015182559484019460019091019084016200026b565b5085821015620002ab5787850151600019600388901b60f8161c191681555b5050505050600190811b01905550565b61181280620002cb6000396000f3fe608060405234801561001057600080fd5b50600436106101165760003560e01c8063715018a6116100a2578063b88d4fde11610071578063b88d4fde1461022e578063c87b56dd14610241578063e985e9c514610254578063eacabe1414610290578063f2fde38b146102a357600080fd5b8063715018a6146101fa5780638da5cb5b1461020257806395d89b4114610213578063a22cb4651461021b57600080fd5b806318160ddd116100e957806318160ddd1461019857806323b872dd146101ae57806342842e0e146101c15780636352211e146101d457806370a08231146101e757600080fd5b806301ffc9a71461011b57806306fdde0314610143578063081812fc14610158578063095ea7b314610183575b600080fd5b61012e610129366004611218565b6102b6565b60405190151581526020015b60405180910390f35b61014b6102e1565b60405161013a9190611285565b61016b610166366004611298565b610373565b6040516001600160a01b03909116815260200161013a565b6101966101913660046112cd565b61039a565b005b6101a06104b4565b60405190815260200161013a565b6101966101bc3660046112f7565b6104c4565b6101966101cf3660046112f7565b6104f5565b61016b6101e2366004611298565b610510565b6101a06101f5366004611333565b610570565b6101966105f6565b6007546001600160a01b031661016b565b61014b61060a565b61019661022936600461134e565b610619565b61019661023c366004611416565b610628565b61014b61024f366004611298565b610660565b61012e610262366004611492565b6001600160a01b03918216600090815260056020908152604080832093909416825291909152205460ff1690565b6101a061029e3660046114c5565b610770565b6101966102b1366004611333565b6107a8565b60006001600160e01b03198216632483248360e11b14806102db57506102db82610821565b92915050565b6060600080546102f090611527565b80601f016020809104026020016040519081016040528092919081815260200182805461031c90611527565b80156103695780601f1061033e57610100808354040283529160200191610369565b820191906000526020600020905b81548152906001019060200180831161034c57829003601f168201915b5050505050905090565b600061037e82610871565b506000908152600460205260409020546001600160a01b031690565b60006103a582610510565b9050806001600160a01b0316836001600160a01b0316036104175760405162461bcd60e51b815260206004820152602160248201527f4552433732313a20617070726f76616c20746f2063757272656e74206f776e656044820152603960f91b60648201526084015b60405180910390fd5b336001600160a01b038216148061043357506104338133610262565b6104a55760405162461bcd60e51b815260206004820152603d60248201527f4552433732313a20617070726f76652063616c6c6572206973206e6f7420746f60448201527f6b656e206f776e6572206f7220617070726f76656420666f7220616c6c000000606482015260840161040e565b6104af83836108d0565b505050565b60006104bf60085490565b905090565b6104ce338261093e565b6104ea5760405162461bcd60e51b815260040161040e90611561565b6104af8383836109bc565b6104af83838360405180602001604052806000815250610628565b6000818152600260205260408120546001600160a01b0316806102db5760405162461bcd60e51b8152602060048201526018602482015277115490cdcc8c4e881a5b9d985b1a59081d1bdad95b88125160421b604482015260640161040e565b60006001600160a01b0382166105da5760405162461bcd60e51b815260206004820152602960248201527f4552433732313a2061646472657373207a65726f206973206e6f7420612076616044820152683634b21037bbb732b960b91b606482015260840161040e565b506001600160a01b031660009081526003602052604090205490565b6105fe610b20565b6106086000610b7a565b565b6060600180546102f090611527565b610624338383610bcc565b5050565b610632338361093e565b61064e5760405162461bcd60e51b815260040161040e90611561565b61065a84848484610c9a565b50505050565b606061066b82610871565b6000828152600660205260408120805461068490611527565b80601f01602080910402602001604051908101604052809291908181526020018280546106b090611527565b80156106fd5780601f106106d2576101008083540402835291602001916106fd565b820191906000526020600020905b8154815290600101906020018083116106e057829003601f168201915b50505050509050600061071b60408051602081019091526000815290565b9050805160000361072d575092915050565b81511561075f5780826040516020016107479291906115ae565b60405160208183030381529060405292505050919050565b61076884610ccd565b949350505050565b6000610780600880546001019055565b600061078b60085490565b90506107978482610d40565b6107a18184610ecb565b9392505050565b6107b0610b20565b6001600160a01b0381166108155760405162461bcd60e51b815260206004820152602660248201527f4f776e61626c653a206e6577206f776e657220697320746865207a65726f206160448201526564647265737360d01b606482015260840161040e565b61081e81610b7a565b50565b60006001600160e01b031982166380ac58cd60e01b148061085257506001600160e01b03198216635b5e139f60e01b145b806102db57506301ffc9a760e01b6001600160e01b03198316146102db565b6000818152600260205260409020546001600160a01b031661081e5760405162461bcd60e51b8152602060048201526018602482015277115490cdcc8c4e881a5b9d985b1a59081d1bdad95b88125160421b604482015260640161040e565b600081815260046020526040902080546001600160a01b0319166001600160a01b038416908117909155819061090582610510565b6001600160a01b03167f8c5be1e5ebec7d5bd14f71427d1e84f3dd0314c0f7b2291e5b200ac8c7c3b92560405160405180910390a45050565b60008061094a83610510565b9050806001600160a01b0316846001600160a01b0316148061099157506001600160a01b0380821660009081526005602090815260408083209388168352929052205460ff165b806107685750836001600160a01b03166109aa84610373565b6001600160a01b031614949350505050565b826001600160a01b03166109cf82610510565b6001600160a01b0316146109f55760405162461bcd60e51b815260040161040e906115dd565b6001600160a01b038216610a575760405162461bcd60e51b8152602060048201526024808201527f4552433732313a207472616e7366657220746f20746865207a65726f206164646044820152637265737360e01b606482015260840161040e565b826001600160a01b0316610a6a82610510565b6001600160a01b031614610a905760405162461bcd60e51b815260040161040e906115dd565b600081815260046020908152604080832080546001600160a01b03199081169091556001600160a01b0387811680865260038552838620805460001901905590871680865283862080546001019055868652600290945282852080549092168417909155905184937fddf252ad1be2c89b69c2b068fc378daa952ba7f163c4a11628f55a4df523b3ef91a4505050565b6007546001600160a01b031633146106085760405162461bcd60e51b815260206004820181905260248201527f4f776e61626c653a2063616c6c6572206973206e6f7420746865206f776e6572604482015260640161040e565b600780546001600160a01b038381166001600160a01b0319831681179093556040519116919082907f8be0079c531659141344cd1fd0a4f28419497f9722a3daafe3b4186f6b6457e090600090a35050565b816001600160a01b0316836001600160a01b031603610c2d5760405162461bcd60e51b815260206004820152601960248201527f4552433732313a20617070726f766520746f2063616c6c657200000000000000604482015260640161040e565b6001600160a01b03838116600081815260056020908152604080832094871680845294825291829020805460ff191686151590811790915591519182527f17307eab39ab6107e8899845ad3d59bd9653f200f220920489ca2b5937696c31910160405180910390a3505050565b610ca58484846109bc565b610cb184848484610f96565b61065a5760405162461bcd60e51b815260040161040e90611622565b6060610cd882610871565b6000610cef60408051602081019091526000815290565b90506000815111610d0f57604051806020016040528060008152506107a1565b80610d1984611097565b604051602001610d2a9291906115ae565b6040516020818303038152906040529392505050565b6001600160a01b038216610d965760405162461bcd60e51b815260206004820181905260248201527f4552433732313a206d696e7420746f20746865207a65726f2061646472657373604482015260640161040e565b6000818152600260205260409020546001600160a01b031615610dfb5760405162461bcd60e51b815260206004820152601c60248201527f4552433732313a20746f6b656e20616c7265616479206d696e74656400000000604482015260640161040e565b6000818152600260205260409020546001600160a01b031615610e605760405162461bcd60e51b815260206004820152601c60248201527f4552433732313a20746f6b656e20616c7265616479206d696e74656400000000604482015260640161040e565b6001600160a01b038216600081815260036020908152604080832080546001019055848352600290915280822080546001600160a01b0319168417905551839291907fddf252ad1be2c89b69c2b068fc378daa952ba7f163c4a11628f55a4df523b3ef908290a45050565b6000828152600260205260409020546001600160a01b0316610f465760405162461bcd60e51b815260206004820152602e60248201527f45524337323155524953746f726167653a2055524920736574206f66206e6f6e60448201526d32bc34b9ba32b73a103a37b5b2b760911b606482015260840161040e565b6000828152600660205260409020610f5e82826116c2565b506040518281527ff8e1a15aba9398e019f0b49df1a4fde98ee17ae345cb5f6b5e2c27f5033e8ce79060200160405180910390a15050565b60006001600160a01b0384163b1561108c57604051630a85bd0160e11b81526001600160a01b0385169063150b7a0290610fda903390899088908890600401611782565b6020604051808303816000875af1925050508015611015575060408051601f3d908101601f19168201909252611012918101906117bf565b60015b611072573d808015611043576040519150601f19603f3d011682016040523d82523d6000602084013e611048565b606091505b50805160000361106a5760405162461bcd60e51b815260040161040e90611622565b805181602001fd5b6001600160e01b031916630a85bd0160e11b149050610768565b506001949350505050565b606060006110a48361112a565b600101905060008167ffffffffffffffff8111156110c4576110c461138a565b6040519080825280601f01601f1916602001820160405280156110ee576020820181803683370190505b5090508181016020015b600019016f181899199a1a9b1b9c1cb0b131b232b360811b600a86061a8153600a85049450846110f857509392505050565b60008072184f03e93ff9f4daa797ed6e38ed64bf6a1f0160401b83106111695772184f03e93ff9f4daa797ed6e38ed64bf6a1f0160401b830492506040015b6d04ee2d6d415b85acef81000000008310611195576d04ee2d6d415b85acef8100000000830492506020015b662386f26fc1000083106111b357662386f26fc10000830492506010015b6305f5e10083106111cb576305f5e100830492506008015b61271083106111df57612710830492506004015b606483106111f1576064830492506002015b600a83106102db5760010192915050565b6001600160e01b03198116811461081e57600080fd5b60006020828403121561122a57600080fd5b81356107a181611202565b60005b83811015611250578181015183820152602001611238565b50506000910152565b60008151808452611271816020860160208601611235565b601f01601f19169290920160200192915050565b6020815260006107a16020830184611259565b6000602082840312156112aa57600080fd5b5035919050565b80356001600160a01b03811681146112c857600080fd5b919050565b600080604083850312156112e057600080fd5b6112e9836112b1565b946020939093013593505050565b60008060006060848603121561130c57600080fd5b611315846112b1565b9250611323602085016112b1565b9150604084013590509250925092565b60006020828403121561134557600080fd5b6107a1826112b1565b6000806040838503121561136157600080fd5b61136a836112b1565b91506020830135801515811461137f57600080fd5b809150509250929050565b634e487b7160e01b600052604160045260246000fd5b600067ffffffffffffffff808411156113bb576113bb61138a565b604051601f8501601f19908116603f011681019082821181831017156113e3576113e361138a565b816040528093508581528686860111156113fc57600080fd5b858560208301376000602087830101525050509392505050565b6000806000806080858703121561142c57600080fd5b611435856112b1565b9350611443602086016112b1565b925060408501359150606085013567ffffffffffffffff81111561146657600080fd5b8501601f8101871361147757600080fd5b611486878235602084016113a0565b91505092959194509250565b600080604083850312156114a557600080fd5b6114ae836112b1565b91506114bc602084016112b1565b90509250929050565b600080604083850312156114d857600080fd5b6114e1836112b1565b9150602083013567ffffffffffffffff8111156114fd57600080fd5b8301601f8101851361150e57600080fd5b61151d858235602084016113a0565b9150509250929050565b600181811c9082168061153b57607f821691505b60208210810361155b57634e487b7160e01b600052602260045260246000fd5b50919050565b6020808252602d908201527f4552433732313a2063616c6c6572206973206e6f7420746f6b656e206f776e6560408201526c1c881bdc88185c1c1c9bdd9959609a1b606082015260800190565b600083516115c0818460208801611235565b8351908301906115d4818360208801611235565b01949350505050565b60208082526025908201527f4552433732313a207472616e736665722066726f6d20696e636f72726563742060408201526437bbb732b960d91b606082015260800190565b60208082526032908201527f4552433732313a207472616e7366657220746f206e6f6e20455243373231526560408201527131b2b4bb32b91034b6b83632b6b2b73a32b960711b606082015260800190565b601f8211156104af57600081815260208120601f850160051c8101602086101561169b5750805b601f850160051c820191505b818110156116ba578281556001016116a7565b505050505050565b815167ffffffffffffffff8111156116dc576116dc61138a565b6116f0816116ea8454611527565b84611674565b602080601f831160018114611725576000841561170d5750858301515b600019600386901b1c1916600185901b1785556116ba565b600085815260208120601f198616915b8281101561175457888601518255948401946001909101908401611735565b50858210156117725787850151600019600388901b60f8161c191681555b5050505050600190811b01905550565b6001600160a01b03858116825284166020820152604081018390526080606082018190526000906117b590830184611259565b9695505050505050565b6000602082840312156117d157600080fd5b81516107a18161120256fea2646970667358221220e736c77130d2b304d0dfbedea680f1992e344aaf2cca17a0cf77b5d3c098592564736f6c63430008110033",
  "linkReferences": {},
  "deployedLinkReferences": {}
}