{"contracts/CorporateRecoveryAccountFactory.sol":{"CorporateRecoveryAccountFactory":{"abi":[{"inputs":[{"internalType":"contract IEntryPoint","name":"entryPoint","type":"address"}],"stateMutability":"nonpayable","type":"constructor"},{"anonymous":false,"inputs":[{"indexed":true,"internalType":"address","name":"account","type":"address"},{"indexed":false,"internalType":"address[]","name":"initialSigners","type":"address[]"},{"indexed":false,"internalType":"uint256","name":"threshold","type":"uint256"}],"name":"AccountCreated","type":"event"},{"inputs":[],"name":"accountImplementation","outputs":[{"internalType":"contract CorporateRecoveryAccount","name":"","type":"address"}],"stateMutability":"view","type":"function"},{"inputs":[{"internalType":"address[]","name":"initialSigners","type":"address[]"},{"internalType":"uint256","name":"threshold","type":"uint256"},{"internalType":"uint256","name":"salt","type":"uint256"}],"name":"createAccount","outputs":[{"internalType":"address","name":"","type":"address"}],"stateMutability":"nonpayable","type":"function"},{"inputs":[{"internalType":"address[]","name":"initialSigners","type":"address[]"},{"internalType":"uint256","name":"threshold","type":"uint256"},{"internalType":"uint256","name":"salt","type":"uint256"}],"name":"getAddress","outputs":[{"internalType":"address","name":"","type":"address"}],"stateMutability":"view","type":"function"}],"evm":{"bytecode":{"linkReferences":{},"object":"60a060405234801561001057600080fd5b5060405161436038038061436083398101604081905261002f91610088565b8060405161003c9061007b565b6001600160a01b039091168152602001604051809103906000f080158015610068573d6000803e3d6000fd5b506001600160a01b0316608052506100b8565b61360580610d5b83390190565b60006020828403121561009a57600080fd5b81516001600160a01b03811681146100b157600080fd5b9392505050565b608051610c7b6100e06000396000818160510152818161013201526102290152610c7b6000f3fe60806040523480156200001157600080fd5b5060043610620000465760003560e01c806311464fbe146200004b5780637afc12ff146200008f578063bdbce80714620000a6575b600080fd5b620000737f000000000000000000000000000000000000000000000000000000000000000081565b6040516001600160a01b03909116815260200160405180910390f35b62000073620000a03660046200034b565b620000bd565b62000073620000b73660046200034b565b620001b0565b6000808484604051602401620000d59291906200042e565b60408051601f19818403018152918152602080830180516001600160e01b03166360b5bb3f60e01b179052905191925060009190620001169082016200030a565b601f1982820381018352601f9091011660408190526200015d907f0000000000000000000000000000000000000000000000000000000000000000908590602001620004a7565b60408051601f19818403018152908290526200017d9291602001620004eb565b60408051601f1981840301815291905280516020820120909150620001a38582620002d7565b93505050505b9392505050565b600080620001c0858585620000bd565b90506001600160a01b0381163b8015620001dd57509050620001a9565b60008686604051602401620001f49291906200042e565b60408051601f198184030181529181526020820180516001600160e01b03166360b5bb3f60e01b1790525190915060009086907f000000000000000000000000000000000000000000000000000000000000000090849062000256906200030a565b62000263929190620004a7565b8190604051809103906000f590508015801562000284573d6000803e3d6000fd5b509050806001600160a01b03167fc6febf30dea1b6923811420eaa588cd391c80285987752f5cdf1e501e59889918989604051620002c49291906200042e565b60405180910390a2979650505050505050565b6000620001a98383306000604051836040820152846020820152828152600b8101905060ff815360559020949350505050565b610727806200051f83390190565b634e487b7160e01b600052604160045260246000fd5b80356001600160a01b03811681146200034657600080fd5b919050565b6000806000606084860312156200036157600080fd5b833567ffffffffffffffff808211156200037a57600080fd5b818601915086601f8301126200038f57600080fd5b8135602082821115620003a657620003a662000318565b8160051b604051601f19603f83011681018181108682111715620003ce57620003ce62000318565b60405292835281830193508481018201928a841115620003ed57600080fd5b948201945b83861015620004165762000406866200032e565b85529482019493820193620003f2565b9a918901359950506040909701359695505050505050565b604080825283519082018190526000906020906060840190828701845b82811015620004725781516001600160a01b0316845292840192908401906001016200044b565b50505092019290925292915050565b60005b838110156200049e57818101518382015260200162000484565b50506000910152565b60018060a01b03831681526040602082015260008251806040840152620004d681606085016020870162000481565b601f01601f1916919091016060019392505050565b60008351620004ff81846020880162000481565b8351908301906200051581836020880162000481565b0194935050505056fe608060405260405161072738038061072783398101604081905261002291610319565b61002e82826000610035565b5050610436565b61003e8361006b565b60008251118061004b5750805b156100665761006483836100ab60201b6100291760201c565b505b505050565b610074816100d7565b6040516001600160a01b038216907fbc7cd75a20ee27fd9adebab32041f755214dbc6bffa90cc0225b39da2e5c2d3b90600090a250565b60606100d08383604051806060016040528060278152602001610700602791396101a9565b9392505050565b6100ea8161022260201b6100551760201c565b6101515760405162461bcd60e51b815260206004820152602d60248201527f455243313936373a206e657720696d706c656d656e746174696f6e206973206e60448201526c1bdd08184818dbdb9d1c9858dd609a1b60648201526084015b60405180910390fd5b806101887f360894a13ba1a3210667c828492db98dca3e2076cc3735a920a3ca505d382bbc60001b61023160201b6100641760201c565b80546001600160a01b0319166001600160a01b039290921691909117905550565b6060600080856001600160a01b0316856040516101c691906103e7565b600060405180830381855af49150503d8060008114610201576040519150601f19603f3d011682016040523d82523d6000602084013e610206565b606091505b50909250905061021886838387610234565b9695505050505050565b6001600160a01b03163b151590565b90565b606083156102a357825160000361029c576001600160a01b0385163b61029c5760405162461bcd60e51b815260206004820152601d60248201527f416464726573733a2063616c6c20746f206e6f6e2d636f6e74726163740000006044820152606401610148565b50816102ad565b6102ad83836102b5565b949350505050565b8151156102c55781518083602001fd5b8060405162461bcd60e51b81526004016101489190610403565b634e487b7160e01b600052604160045260246000fd5b60005b838110156103105781810151838201526020016102f8565b50506000910152565b6000806040838503121561032c57600080fd5b82516001600160a01b038116811461034357600080fd5b60208401519092506001600160401b038082111561036057600080fd5b818501915085601f83011261037457600080fd5b815181811115610386576103866102df565b604051601f8201601f19908116603f011681019083821181831017156103ae576103ae6102df565b816040528281528860208487010111156103c757600080fd5b6103d88360208301602088016102f5565b80955050505050509250929050565b600082516103f98184602087016102f5565b9190910192915050565b60208152600082518060208401526104228160408501602087016102f5565b601f01601f19169190910160400192915050565b6102bb806104456000396000f3fe60806040523661001357610011610017565b005b6100115b610027610022610067565b61009f565b565b606061004e838360405180606001604052806027815260200161025f602791396100c3565b9392505050565b6001600160a01b03163b151590565b90565b600061009a7f360894a13ba1a3210667c828492db98dca3e2076cc3735a920a3ca505d382bbc546001600160a01b031690565b905090565b3660008037600080366000845af43d6000803e8080156100be573d6000f35b3d6000fd5b6060600080856001600160a01b0316856040516100e0919061020f565b600060405180830381855af49150503d806000811461011b576040519150601f19603f3d011682016040523d82523d6000602084013e610120565b606091505b50915091506101318683838761013b565b9695505050505050565b606083156101af5782516000036101a8576001600160a01b0385163b6101a85760405162461bcd60e51b815260206004820152601d60248201527f416464726573733a2063616c6c20746f206e6f6e2d636f6e747261637400000060448201526064015b60405180910390fd5b50816101b9565b6101b983836101c1565b949350505050565b8151156101d15781518083602001fd5b8060405162461bcd60e51b815260040161019f919061022b565b60005b838110156102065781810151838201526020016101ee565b50506000910152565b600082516102218184602087016101eb565b9190910192915050565b602081526000825180602084015261024a8160408501602087016101eb565b601f01601f1916919091016040019291505056fe416464726573733a206c6f772d6c6576656c2064656c65676174652063616c6c206661696c6564a26469706673582212203d912d0abbe116b83dfa1d3a82e612e3256de4ef536ea1a35d0e77601b02b17764736f6c63430008110033416464726573733a206c6f772d6c6576656c2064656c65676174652063616c6c206661696c6564a26469706673582212207cd2277646add69f3b7d3c610e4676cb159fe39686121efa9d25c8cb727a9a5364736f6c6343000811003360c06040523060805262093a80600a553480156200001c57600080fd5b5060405162003605380380620036058339810160408190526200003f916200011e565b6001600160a01b03811660a052620000566200005d565b5062000150565b600054610100900460ff1615620000ca5760405162461bcd60e51b815260206004820152602760248201527f496e697469616c697a61626c653a20636f6e747261637420697320696e697469604482015266616c697a696e6760c81b606482015260840160405180910390fd5b60005460ff908116146200011c576000805460ff191660ff9081179091556040519081527f7f26b83ff96e1f2b6a682f133852f6798a09c465da95921460cefb38474024989060200160405180910390a15b565b6000602082840312156200013157600080fd5b81516001600160a01b03811681146200014957600080fd5b9392505050565b60805160a051613457620001ae600039600081816104a5015281816114480152818161199601528181611fc001526122360152600081816109130152818161095301528181610a1801528181610a580152610aeb01526134576000f3fe6080604052600436106101d15760003560e01c806394cf795e116100f7578063c01a8c8411610095578063eb12d61e11610064578063eb12d61e14610570578063ee22610b14610590578063fbdd9990146105b0578063fcae8d38146105e957600080fd5b8063c01a8c8414610505578063d087d28814610525578063d920d35a1461053a578063e6a13b951461055a57600080fd5b8063a82f2e26116100d1578063a82f2e2614610475578063b0d691fe1461048b578063b61d27f6146104cf578063b77bf600146104ef57600080fd5b806394cf795e1461040c5780639ace38c21461042e578063a0c1deb41461046057600080fd5b806352d1902d1161016f5780635e90852d1161013e5780635e90852d1461038c57806360b5bb3f146103ac578063694e80c3146103cc5780637df73e27146103ec57600080fd5b806352d1902d146102fa57806357bb26701461030f57806357fe4e541461032f57806359c781a31461034457600080fd5b80633411c81c116101ab5780633411c81c1461024e5780633659cfe6146102995780633a871cdd146102b95780634f1ef286146102e757600080fd5b80630e316ab7146101dd578063124f8d9c146101ff57806318dfb3c71461022e57600080fd5b366101d857005b600080fd5b3480156101e957600080fd5b506101fd6101f8366004612a6b565b6105fe565b005b34801561020b57600080fd5b5061021461071a565b604051610225959493929190612aca565b60405180910390f35b34801561023a57600080fd5b506101fd610249366004612b48565b610804565b34801561025a57600080fd5b50610289610269366004612bb4565b600c60209081526000928352604080842090915290825290205460ff1681565b6040519015158152602001610225565b3480156102a557600080fd5b506101fd6102b4366004612a6b565b610909565b3480156102c557600080fd5b506102d96102d4366004612be0565b6109e8565b604051908152602001610225565b6101fd6102f5366004612c7b565b610a0e565b34801561030657600080fd5b506102d9610ade565b34801561031b57600080fd5b506101fd61032a366004612d21565b610b91565b34801561033b57600080fd5b506101fd610db4565b34801561035057600080fd5b5060055460065460085460095461036a9392919060ff1684565b6040805194855260208501939093529183015215156060820152608001610225565b34801561039857600080fd5b506102d96103a7366004612d63565b61105b565b3480156103b857600080fd5b506101fd6103c7366004612dea565b6111fe565b3480156103d857600080fd5b506101fd6103e7366004612e9d565b6114f4565b3480156103f857600080fd5b50610289610407366004612a6b565b611607565b34801561041857600080fd5b5061042161161a565b6040516102259190612eb6565b34801561043a57600080fd5b5061044e610449366004612e9d565b6116ca565b60405161022596959493929190612f19565b34801561046c57600080fd5b506102d9611797565b34801561048157600080fd5b506102d960035481565b34801561049757600080fd5b506040516001600160a01b037f0000000000000000000000000000000000000000000000000000000000000000168152602001610225565b3480156104db57600080fd5b506101fd6104ea366004612d63565b6117a8565b3480156104fb57600080fd5b506102d9600d5481565b34801561051157600080fd5b506101fd610520366004612e9d565b6117f7565b34801561053157600080fd5b506102d9611992565b34801561054657600080fd5b506101fd610555366004612e9d565b611a26565b34801561056657600080fd5b506102d9600a5481565b34801561057c57600080fd5b506101fd61058b366004612a6b565b611b20565b34801561059c57600080fd5b506101fd6105ab366004612e9d565b611bf5565b3480156105bc57600080fd5b506102896105cb366004612a6b565b6001600160a01b031660009081526007602052604090205460ff1690565b3480156105f557600080fd5b506101fd611e09565b3330146106265760405162461bcd60e51b815260040161061d90612f5e565b60405180910390fd5b610631600182611f75565b6106735760405162461bcd60e51b81526020600482015260136024820152726e616f206520756d207369676e61746172696f60681b604482015260640161061d565b6003546106806001611f96565b116106d75760405162461bcd60e51b815260206004820152602160248201527f6e616f20706f646520726564757a69722061626169786f20646f206c696d69746044820152606560f81b606482015260840161061d565b6106e2600182611fa0565b506040516001600160a01b038216907f3525e22824a8a7df2c9a6029941c824cf95b6447f1e13d5128fd3826d35afe8b90600090a250565b6060600080600080600460000180548060200260200160405190810160405280929190818152602001828054801561077b57602002820191906000526020600020905b81546001600160a01b0316815260019091019060200180831161075d575b50506005546006549499509750610798939250879150612fab9050565b4210156107c15760065460055442916107b091612fab565b6107ba9190612fbe565b92506107c6565b600092505b600854600554909250158015906107e0575060095460ff16155b80156107fb57506006546005546107f79190612fab565b4210155b90509091929394565b61080c611fb5565b82811461085b5760405162461bcd60e51b815260206004820181905260248201527f74616d616e686f732064652061727261797320696e636f6d7061746976656973604482015260640161061d565b60005b83811015610902576108f085858381811061087b5761087b612fd1565b90506020020160208101906108909190612a6b565b60008585858181106108a4576108a4612fd1565b90506020028101906108b69190612fe7565b8080601f01602080910402602001604051908101604052809392919081815260200183838082843760009201919091525061203192505050565b806108fa8161302e565b91505061085e565b5050505050565b6001600160a01b037f00000000000000000000000000000000000000000000000000000000000000001630036109515760405162461bcd60e51b815260040161061d90613047565b7f00000000000000000000000000000000000000000000000000000000000000006001600160a01b031661099a6000805160206133db833981519152546001600160a01b031690565b6001600160a01b0316146109c05760405162461bcd60e51b815260040161061d90613093565b6109c9816120a1565b604080516000808252602082019092526109e5918391906120c0565b50565b60006109f261222b565b6109fc84846122a3565b9050610a078261234a565b9392505050565b6001600160a01b037f0000000000000000000000000000000000000000000000000000000000000000163003610a565760405162461bcd60e51b815260040161061d90613047565b7f00000000000000000000000000000000000000000000000000000000000000006001600160a01b0316610a9f6000805160206133db833981519152546001600160a01b031690565b6001600160a01b031614610ac55760405162461bcd60e51b815260040161061d90613093565b610ace826120a1565b610ada828260016120c0565b5050565b6000306001600160a01b037f00000000000000000000000000000000000000000000000000000000000000001614610b7e5760405162461bcd60e51b815260206004820152603860248201527f555550535570677261646561626c653a206d757374206e6f742062652063616c60448201527f6c6564207468726f7567682064656c656761746563616c6c0000000000000000606482015260840161061d565b506000805160206133db83398151915290565b610b9c600133611f75565b610bb85760405162461bcd60e51b815260040161061d906130df565b6003811015610c005760405162461bcd60e51b81526020600482015260146024820152734d696e696d6f2033207369676e61746172696f7360601b604482015260640161061d565b60005b81811015610d30576000838383818110610c1f57610c1f612fd1565b9050602002016020810190610c349190612a6b565b6001600160a01b031603610c5a5760405162461bcd60e51b815260040161061d90613105565b60005b81811015610d1d57838382818110610c7757610c77612fd1565b9050602002016020810190610c8c9190612a6b565b6001600160a01b0316848484818110610ca757610ca7612fd1565b9050602002016020810190610cbc9190612a6b565b6001600160a01b031603610d0b5760405162461bcd60e51b81526020600482015260166024820152757369676e61746172696f73206475706c696361646f7360501b604482015260640161061d565b80610d158161302e565b915050610c5d565b5080610d288161302e565b915050610c03565b50610d3d600483836129d7565b5042600555600a54600655600160088190553360008181526007602052604090819020805460ff1990811690941790556009805490931690925590517f4a0c66b15d636546207e51120a329e156b391fceb4d48875feb228fd7bf2052990610da8908590859061314a565b60405180910390a25050565b610dbf600133611f75565b610ddb5760405162461bcd60e51b815260040161061d906130df565b600554610e2a5760405162461bcd60e51b815260206004820152601c60248201527f6e656e68756d6120736f6c696369746163616f2070656e64656e746500000000604482015260640161061d565b60095460ff1615610e785760405162461bcd60e51b8152602060048201526018602482015277726563757065726163616f206a612065786563757461646160401b604482015260640161061d565b600654600554610e889190612fab565b421015610ec85760405162461bcd60e51b815260206004820152600e60248201526d416775617264652037206469617360901b604482015260640161061d565b6000610ed46001611f96565b67ffffffffffffffff811115610eec57610eec612c34565b604051908082528060200260200182016040528015610f15578160200160208202803683370190505b50905060005b8151811015610f6b57610f2f600182612397565b828281518110610f4157610f41612fd1565b6001600160a01b039092166020928302919091019091015280610f638161302e565b915050610f1b565b5060005b8151811015610fb857610fa5828281518110610f8d57610f8d612fd1565b60200260200101516001611fa090919063ffffffff16565b5080610fb08161302e565b915050610f6f565b5060005b60045481101561100f57610ffc60046000018281548110610fdf57610fdf612fd1565b6000918252602090912001546001906001600160a01b03166123a3565b50806110078161302e565b915050610fbc565b506009805460ff191660011790556040517fd70eb9e4e82eb370424e94afd7309d4f9880a65d9a5c3c07acb6373d2aabb9d490611050908390600490613196565b60405180910390a150565b6000611068600133611f75565b6110845760405162461bcd60e51b815260040161061d906130df565b600d5490506040518060c00160405280866001600160a01b0316815260200185815260200184848080601f016020809104026020016040519081016040528093929190818152602001838380828437600092018290525093855250505060208083018290526001604080850182905242606090950194909452858352600b825291839020845181546001600160a01b0319166001600160a01b0390911617815590840151918101919091559082015160028201906111429082613284565b50606082015160038201805491151560ff199283161790556080830151600483015560a0909201516005909101556000828152600c6020908152604080832033845290915281208054909216600117909155600d8054916111a28361302e565b9190505550846001600160a01b0316336001600160a01b0316827f08754d66a328b07857be590cc17e0bb798e0ec9cb30ac8e5af7afd3481d1c6bd876040516111ed91815260200190565b60405180910390a45b949350505050565b600054610100900460ff161580801561121e5750600054600160ff909116105b806112385750303b158015611238575060005460ff166001145b61129b5760405162461bcd60e51b815260206004820152602e60248201527f496e697469616c697a61626c653a20636f6e747261637420697320616c72656160448201526d191e481a5b9a5d1a585b1a5e995960921b606482015260840161061d565b6000805460ff1916600117905580156112be576000805461ff0019166101001790555b600083511161130f5760405162461bcd60e51b815260206004820152601860248201527f70656c6f206d656e6f7320756d207369676e61746172696f0000000000000000604482015260640161061d565b600082118015611320575082518211155b61135e5760405162461bcd60e51b815260206004820152600f60248201526e6c696d69746520696e76616c69646f60881b604482015260640161061d565b60005b835181101561143e57600084828151811061137e5761137e612fd1565b6020026020010151905060006001600160a01b0316816001600160a01b0316036113ba5760405162461bcd60e51b815260040161061d90613105565b6113c5600182611f75565b1561141e5760405162461bcd60e51b8152602060048201526024808201527f7369676e61746172696f73206e616f20706f64656d20736572206475706c696360448201526361646f7360e01b606482015260840161061d565b6114296001826123a3565b505080806114369061302e565b915050611361565b50816003819055507f00000000000000000000000000000000000000000000000000000000000000006001600160a01b03167f0a6ed6ef682ea7527c36a1e889be89152499d204536c76182fc3f413c5a4d83684846040516114a1929190613344565b60405180910390a280156114ef576000805461ff0019169055604051600181527f7f26b83ff96e1f2b6a682f133852f6798a09c465da95921460cefb38474024989060200160405180910390a15b505050565b3330146115135760405162461bcd60e51b815260040161061d90612f5e565b600081116115635760405162461bcd60e51b815260206004820152601860248201527f6c696d69746520646576652073657220706f73697469766f0000000000000000604482015260640161061d565b61156d6001611f96565b8111156115d25760405162461bcd60e51b815260206004820152602d60248201527f6c696d697465206e616f20706f64652065786365646572206e756d65726f206460448201526c65207369676e61746172696f7360981b606482015260840161061d565b60038190556040518181527f6c4ce60fd690e1216286a10b875c5662555f10774484e58142cedd7a90781baa90602001611050565b6000611614600183611f75565b92915050565b606060006116286001611f96565b905060008167ffffffffffffffff81111561164557611645612c34565b60405190808252806020026020018201604052801561166e578160200160208202803683370190505b50905060005b828110156116c357611687600182612397565b82828151811061169957611699612fd1565b6001600160a01b0390921660209283029190910190910152806116bb8161302e565b915050611674565b5092915050565b600b602052600090815260409020805460018201546002830180546001600160a01b039093169391926116fc906131fc565b80601f0160208091040260200160405190810160405280929190818152602001828054611728906131fc565b80156117755780601f1061174a57610100808354040283529160200191611775565b820191906000526020600020905b81548152906001019060200180831161175857829003601f168201915b5050505060038301546004840154600590940154929360ff9091169290915086565b60006117a36001611f96565b905090565b6117b0611fb5565b6117f1848484848080601f01602080910402602001604051908101604052809392919081815260200183838082843760009201919091525061203192505050565b50505050565b611802600133611f75565b61181e5760405162461bcd60e51b815260040161061d906130df565b80600d5481106118645760405162461bcd60e51b81526020600482015260116024820152701d1e08191bd95cc81b9bdd08195e1a5cdd607a1b604482015260640161061d565b6000828152600b6020526040902060030154829060ff16156118ba5760405162461bcd60e51b815260206004820152600f60248201526e7478206a612065786563757461646160881b604482015260640161061d565b6000838152600c60209081526040808320338452909152902054839060ff16156119195760405162461bcd60e51b815260206004820152601060248201526f7478206a6120636f6e6669726d61646160801b604482015260640161061d565b6000848152600b6020526040812060048101805491926119388361302e565b90915550506000858152600c60209081526040808320338085529252808320805460ff1916600117905551909187917f15c2f311c9e0f53b50388279894aeff029a3457884a6601e924fca879e12adcc9190a35050505050565b60007f0000000000000000000000000000000000000000000000000000000000000000604051631aab3f0d60e11b8152306004820152600060248201526001600160a01b0391909116906335567e1a90604401602060405180830381865afa158015611a02573d6000803e3d6000fd5b505050506040513d601f19601f820116820180604052508101906117a39190613366565b333014611a455760405162461bcd60e51b815260040161061d90612f5e565b62015180811015611a985760405162461bcd60e51b815260206004820152601760248201527f706572696f646f206d696e696d6f206465203120646961000000000000000000604482015260640161061d565b62278d00811115611aeb5760405162461bcd60e51b815260206004820152601960248201527f706572696f646f206d6178696d6f206465203330206469617300000000000000604482015260640161061d565b600a8190556040518181527f473838a0dc7c7e33f7ff6bb6e35c20fd06a63b39ce5cfcbe486da54dd9b088be90602001611050565b333014611b3f5760405162461bcd60e51b815260040161061d90612f5e565b6001600160a01b038116611b655760405162461bcd60e51b815260040161061d90613105565b611b70600182611f75565b15611bb25760405162461bcd60e51b81526020600482015260126024820152716a61206520756d207369676e61746172696f60701b604482015260640161061d565b611bbd6001826123a3565b506040516001600160a01b038216907f47d1c22a25bb3a5d4e481b9b1e6944c2eade3181a0a20b495ed61d35b5323f2490600090a250565b611c00600133611f75565b611c1c5760405162461bcd60e51b815260040161061d906130df565b80600d548110611c625760405162461bcd60e51b81526020600482015260116024820152701d1e08191bd95cc81b9bdd08195e1a5cdd607a1b604482015260640161061d565b6000828152600b6020526040902060030154829060ff1615611cb85760405162461bcd60e51b815260206004820152600f60248201526e7478206a612065786563757461646160881b604482015260640161061d565b6000838152600b6020526040902060035460048201541015611d1c5760405162461bcd60e51b815260206004820152601a60248201527f636f6e6669726d61636f657320696e737566696369656e746573000000000000604482015260640161061d565b60038101805460ff19166001908117909155815490820154600283018054611dd6936001600160a01b0316929190611d53906131fc565b80601f0160208091040260200160405190810160405280929190818152602001828054611d7f906131fc565b8015611dcc5780601f10611da157610100808354040283529160200191611dcc565b820191906000526020600020905b815481529060010190602001808311611daf57829003601f168201915b5050505050612031565b604051339085907fefc13bdcf58f184ea7cae26b499fb33b539e01d0197cea456f3ada289b8cf19b90600090a350505050565b611e14600133611f75565b611e305760405162461bcd60e51b815260040161061d906130df565b600554611e7f5760405162461bcd60e51b815260206004820152601c60248201527f6e656e68756d6120736f6c696369746163616f2070656e64656e746500000000604482015260640161061d565b3360009081526007602052604090205460ff1615611ecd5760405162461bcd60e51b815260206004820152600b60248201526a6a61206170726f7661646f60a81b604482015260640161061d565b60095460ff1615611f1b5760405162461bcd60e51b8152602060048201526018602482015277726563757065726163616f206a612065786563757461646160401b604482015260640161061d565b336000908152600760205260408120805460ff191660011790556008805491611f438361302e565b909155505060405133907f47032c9dbd3001ab3b46aa359314884f3f192d251eda3b26f0be4cffd76d39c590600090a2565b6001600160a01b031660009081526001919091016020526040902054151590565b6000611614825490565b6000610a07836001600160a01b0384166123b8565b336001600160a01b037f0000000000000000000000000000000000000000000000000000000000000000161480611feb57503330145b61202f5760405162461bcd60e51b8152602060048201526015602482015274636f6e74613a206e616f206175746f72697a61646f60581b604482015260640161061d565b565b600080846001600160a01b0316848460405161204d919061337f565b60006040518083038185875af1925050503d806000811461208a576040519150601f19603f3d011682016040523d82523d6000602084013e61208f565b606091505b50915091508161090257805160208201fd5b3330146109e55760405162461bcd60e51b815260040161061d90612f5e565b7f4910fdfa16fed3260ed0e7147f7cc6da11a60208b5b9406d12a635614ffd91435460ff16156120f3576114ef836124ab565b826001600160a01b03166352d1902d6040518163ffffffff1660e01b8152600401602060405180830381865afa92505050801561214d575060408051601f3d908101601f1916820190925261214a91810190613366565b60015b6121b05760405162461bcd60e51b815260206004820152602e60248201527f45524331393637557067726164653a206e657720696d706c656d656e7461746960448201526d6f6e206973206e6f74205555505360901b606482015260840161061d565b6000805160206133db833981519152811461221f5760405162461bcd60e51b815260206004820152602960248201527f45524331393637557067726164653a20756e737570706f727465642070726f786044820152681a58589b195555525160ba1b606482015260840161061d565b506114ef838383612547565b336001600160a01b037f0000000000000000000000000000000000000000000000000000000000000000161461202f5760405162461bcd60e51b815260206004820152601c60248201527f6163636f756e743a206e6f742066726f6d20456e747279506f696e7400000000604482015260640161061d565b7f19457468657265756d205369676e6564204d6573736167653a0a3332000000006000908152601c829052603c812060006123226122e5610140870187612fe7565b8080601f016020809104026020016040519081016040528093929190818152602001838380828437600092019190915250869392505061256c9050565b905061232f600182611f75565b1561233f57600092505050611614565b506001949350505050565b80156109e557604051600090339060001990849084818181858888f193505050503d8060008114610902576040519150601f19603f3d011682016040523d82523d6000602084013e610902565b6000610a078383612590565b6000610a07836001600160a01b0384166125ba565b600081815260018301602052604081205480156124a15760006123dc600183612fbe565b85549091506000906123f090600190612fbe565b905081811461245557600086600001828154811061241057612410612fd1565b906000526020600020015490508087600001848154811061243357612433612fd1565b6000918252602080832090910192909255918252600188019052604090208390555b85548690806124665761246661339b565b600190038181906000526020600020016000905590558560010160008681526020019081526020016000206000905560019350505050611614565b6000915050611614565b6001600160a01b0381163b6125185760405162461bcd60e51b815260206004820152602d60248201527f455243313936373a206e657720696d706c656d656e746174696f6e206973206e60448201526c1bdd08184818dbdb9d1c9858dd609a1b606482015260840161061d565b6000805160206133db83398151915280546001600160a01b0319166001600160a01b0392909216919091179055565b61255083612609565b60008251118061255d5750805b156114ef576117f18383612649565b600080600061257b858561266e565b91509150612588816126b3565b509392505050565b60008260000182815481106125a7576125a7612fd1565b9060005260206000200154905092915050565b600081815260018301602052604081205461260157508154600181810184556000848152602080822090930184905584548482528286019093526040902091909155611614565b506000611614565b612612816124ab565b6040516001600160a01b038216907fbc7cd75a20ee27fd9adebab32041f755214dbc6bffa90cc0225b39da2e5c2d3b90600090a250565b6060610a0783836040518060600160405280602781526020016133fb602791396127fd565b60008082516041036126a45760208301516040840151606085015160001a61269887828585612875565b945094505050506126ac565b506000905060025b9250929050565b60008160048111156126c7576126c76133b1565b036126cf5750565b60018160048111156126e3576126e36133b1565b036127305760405162461bcd60e51b815260206004820152601860248201527f45434453413a20696e76616c6964207369676e61747572650000000000000000604482015260640161061d565b6002816004811115612744576127446133b1565b036127915760405162461bcd60e51b815260206004820152601f60248201527f45434453413a20696e76616c6964207369676e6174757265206c656e67746800604482015260640161061d565b60038160048111156127a5576127a56133b1565b036109e55760405162461bcd60e51b815260206004820152602260248201527f45434453413a20696e76616c6964207369676e6174757265202773272076616c604482015261756560f01b606482015260840161061d565b6060600080856001600160a01b03168560405161281a919061337f565b600060405180830381855af49150503d8060008114612855576040519150601f19603f3d011682016040523d82523d6000602084013e61285a565b606091505b509150915061286b86838387612939565b9695505050505050565b6000807f7fffffffffffffffffffffffffffffff5d576e7357a4501ddfe92f46681b20a08311156128ac5750600090506003612930565b6040805160008082526020820180845289905260ff881692820192909252606081018690526080810185905260019060a0016020604051602081039080840390855afa158015612900573d6000803e3d6000fd5b5050604051601f1901519150506001600160a01b03811661292957600060019250925050612930565b9150600090505b94509492505050565b606083156129a85782516000036129a1576001600160a01b0385163b6129a15760405162461bcd60e51b815260206004820152601d60248201527f416464726573733a2063616c6c20746f206e6f6e2d636f6e7472616374000000604482015260640161061d565b50816111f6565b6111f683838151156129bd5781518083602001fd5b8060405162461bcd60e51b815260040161061d91906133c7565b828054828255906000526020600020908101928215612a2a579160200282015b82811115612a2a5781546001600160a01b0319166001600160a01b038435161782556020909201916001909101906129f7565b50612a36929150612a3a565b5090565b5b80821115612a365760008155600101612a3b565b80356001600160a01b0381168114612a6657600080fd5b919050565b600060208284031215612a7d57600080fd5b610a0782612a4f565b600081518084526020808501945080840160005b83811015612abf5781516001600160a01b031687529582019590820190600101612a9a565b509495945050505050565b60a081526000612add60a0830188612a86565b905085602083015284604083015283606083015282151560808301529695505050505050565b60008083601f840112612b1557600080fd5b50813567ffffffffffffffff811115612b2d57600080fd5b6020830191508360208260051b85010111156126ac57600080fd5b60008060008060408587031215612b5e57600080fd5b843567ffffffffffffffff80821115612b7657600080fd5b612b8288838901612b03565b90965094506020870135915080821115612b9b57600080fd5b50612ba887828801612b03565b95989497509550505050565b60008060408385031215612bc757600080fd5b82359150612bd760208401612a4f565b90509250929050565b600080600060608486031215612bf557600080fd5b833567ffffffffffffffff811115612c0c57600080fd5b84016101608187031215612c1f57600080fd5b95602085013595506040909401359392505050565b634e487b7160e01b600052604160045260246000fd5b604051601f8201601f1916810167ffffffffffffffff81118282101715612c7357612c73612c34565b604052919050565b60008060408385031215612c8e57600080fd5b612c9783612a4f565b915060208084013567ffffffffffffffff80821115612cb557600080fd5b818601915086601f830112612cc957600080fd5b813581811115612cdb57612cdb612c34565b612ced601f8201601f19168501612c4a565b91508082528784828501011115612d0357600080fd5b80848401858401376000848284010152508093505050509250929050565b60008060208385031215612d3457600080fd5b823567ffffffffffffffff811115612d4b57600080fd5b612d5785828601612b03565b90969095509350505050565b60008060008060608587031215612d7957600080fd5b612d8285612a4f565b935060208501359250604085013567ffffffffffffffff80821115612da657600080fd5b818701915087601f830112612dba57600080fd5b813581811115612dc957600080fd5b886020828501011115612ddb57600080fd5b95989497505060200194505050565b60008060408385031215612dfd57600080fd5b823567ffffffffffffffff80821115612e1557600080fd5b818501915085601f830112612e2957600080fd5b8135602082821115612e3d57612e3d612c34565b8160051b9250612e4e818401612c4a565b8281529284018101928181019089851115612e6857600080fd5b948201945b84861015612e8d57612e7e86612a4f565b82529482019490820190612e6d565b9997909101359750505050505050565b600060208284031215612eaf57600080fd5b5035919050565b602081526000610a076020830184612a86565b60005b83811015612ee4578181015183820152602001612ecc565b50506000910152565b60008151808452612f05816020860160208601612ec9565b601f01601f19169290920160200192915050565b60018060a01b038716815285602082015260c060408201526000612f4060c0830187612eed565b941515606083015250608081019290925260a0909101529392505050565b60208082526017908201527f6f6e6c7920746865206163636f756e7420697473656c66000000000000000000604082015260600190565b634e487b7160e01b600052601160045260246000fd5b8082018082111561161457611614612f95565b8181038181111561161457611614612f95565b634e487b7160e01b600052603260045260246000fd5b6000808335601e19843603018112612ffe57600080fd5b83018035915067ffffffffffffffff82111561301957600080fd5b6020019150368190038213156126ac57600080fd5b60006001820161304057613040612f95565b5060010190565b6020808252602c908201527f46756e6374696f6e206d7573742062652063616c6c6564207468726f7567682060408201526b19195b1959d85d1958d85b1b60a21b606082015260800190565b6020808252602c908201527f46756e6374696f6e206d7573742062652063616c6c6564207468726f7567682060408201526b6163746976652070726f787960a01b606082015260800190565b6020808252600c908201526b3737ba10309039b4b3b732b960a11b604082015260600190565b60208082526025908201527f7369676e61746172696f206e616f20706f64652073657220656e64657265636f604082015264207a65726f60d81b606082015260800190565b60208082528181018390526000908460408401835b8681101561318b576001600160a01b0361317884612a4f565b168252918301919083019060010161315f565b509695505050505050565b6040815260006131a96040830185612a86565b60208382038185015281855480845282840191508660005282600020935060005b818110156131ef5784546001600160a01b0316835260019485019492840192016131ca565b5090979650505050505050565b600181811c9082168061321057607f821691505b60208210810361323057634e487b7160e01b600052602260045260246000fd5b50919050565b601f8211156114ef57600081815260208120601f850160051c8101602086101561325d5750805b601f850160051c820191505b8181101561327c57828155600101613269565b505050505050565b815167ffffffffffffffff81111561329e5761329e612c34565b6132b2816132ac84546131fc565b84613236565b602080601f8311600181146132e757600084156132cf5750858301515b600019600386901b1c1916600185901b17855561327c565b600085815260208120601f198616915b82811015613316578886015182559484019460019091019084016132f7565b50858210156133345787850151600019600388901b60f8161c191681555b5050505050600190811b01905550565b6040815260006133576040830185612a86565b90508260208301529392505050565b60006020828403121561337857600080fd5b5051919050565b60008251613391818460208701612ec9565b9190910192915050565b634e487b7160e01b600052603160045260246000fd5b634e487b7160e01b600052602160045260246000fd5b602081526000610a076020830184612eed56fe360894a13ba1a3210667c828492db98dca3e2076cc3735a920a3ca505d382bbc416464726573733a206c6f772d6c6576656c2064656c65676174652063616c6c206661696c6564a2646970667358221220b74ab09b726e7d01392274efaba9d44f9336ea04578d61037f97550e02f237ff64736f6c63430008110033","opcodes":"PUSH1 0xA0 PUSH1 0x40 MSTORE CALLVALUE DUP1 ISZERO PUSH2 0x10 JUMPI PUSH1 0x0 DUP1 REVERT JUMPDEST POP PUSH1 0x40 MLOAD PUSH2 0x4360 CODESIZE SUB DUP1 PUSH2 0x4360 DUP4 CODECOPY DUP2 ADD PUSH1 0x40 DUP2 SWAP1 MSTORE PUSH2 0x2F SWAP2 PUSH2 0x88 JUMP JUMPDEST DUP1 PUSH1 0x40 MLOAD PUSH2 0x3C SWAP1 PUSH2 0x7B JUMP JUMPDEST PUSH1 0x1 PUSH1 0x1 PUSH1 0xA0 SHL SUB SWAP1 SWAP2 AND DUP2 MSTORE PUSH1 0x20 ADD PUSH1 0x40 MLOAD DUP1 SWAP2 SUB SWAP1 PUSH1 0x0 CREATE DUP1 ISZERO DUP1 ISZERO PUSH2 0x68 JUMPI RETURNDATASIZE PUSH1 0x0 DUP1 RETURNDATACOPY RETURNDATASIZE PUSH1 0x0 REVERT JUMPDEST POP PUSH1 0x1 PUSH1 0x1 PUSH1 0xA0 SHL SUB AND PUSH1 0x80 MSTORE POP PUSH2 0xB8 JUMP JUMPDEST PUSH2 0x3605 DUP1 PUSH2 0xD5B DUP4 CODECOPY ADD SWAP1 JUMP JUMPDEST PUSH1 0x0 PUSH1 0x20 DUP3 DUP5 SUB SLT ISZERO PUSH2 0x9A JUMPI PUSH1 0x0 DUP1 REVERT JUMPDEST DUP2 MLOAD PUSH1 0x1 PUSH1 0x1 PUSH1 0xA0 SHL SUB DUP2 AND DUP2 EQ PUSH2 0xB1 JUMPI PUSH1 0x0 DUP1 REVERT JUMPDEST SWAP4 SWAP3 POP POP POP JUMP JUMPDEST PUSH1 0x80 MLOAD PUSH2 0xC7B PUSH2 0xE0 PUSH1 0x0 CODECOPY PUSH1 0x0 DUP2 DUP2 PUSH1 0x51 ADD MSTORE DUP2 DUP2 PUSH2 0x132 ADD MSTORE PUSH2 0x229 ADD MSTORE PUSH2 0xC7B PUSH1 0x0 RETURN INVALID PUSH1 0x80 PUSH1 0x40 MSTORE CALLVALUE DUP1 ISZERO PUSH3 0x11 JUMPI PUSH1 0x0 DUP1 REVERT JUMPDEST POP PUSH1 0x4 CALLDATASIZE LT PUSH3 0x46 JUMPI PUSH1 0x0 CALLDATALOAD PUSH1 0xE0 SHR DUP1 PUSH4 0x11464FBE EQ PUSH3 0x4B JUMPI DUP1 PUSH4 0x7AFC12FF EQ PUSH3 0x8F JUMPI DUP1 PUSH4 0xBDBCE807 EQ PUSH3 0xA6 JUMPI JUMPDEST PUSH1 0x0 DUP1 REVERT JUMPDEST PUSH3 0x73 PUSH32 0x0 DUP2 JUMP JUMPDEST PUSH1 0x40 MLOAD PUSH1 0x1 PUSH1 0x1 PUSH1 0xA0 SHL SUB SWAP1 SWAP2 AND DUP2 MSTORE PUSH1 0x20 ADD PUSH1 0x40 MLOAD DUP1 SWAP2 SUB SWAP1 RETURN JUMPDEST PUSH3 0x73 PUSH3 0xA0 CALLDATASIZE PUSH1 0x4 PUSH3 0x34B JUMP JUMPDEST PUSH3 0xBD JUMP JUMPDEST PUSH3 0x73 PUSH3 0xB7 CALLDATASIZE PUSH1 0x4 PUSH3 0x34B JUMP JUMPDEST PUSH3 0x1B0 JUMP JUMPDEST PUSH1 0x0 DUP1 DUP5 DUP5 PUSH1 0x40 MLOAD PUSH1 0x24 ADD PUSH3 0xD5 SWAP3 SWAP2 SWAP1 PUSH3 0x42E JUMP JUMPDEST PUSH1 0x40 DUP1 MLOAD PUSH1 0x1F NOT DUP2 DUP5 SUB ADD DUP2 MSTORE SWAP2 DUP2 MSTORE PUSH1 0x20 DUP1 DUP4 ADD DUP1 MLOAD PUSH1 0x1 PUSH1 0x1 PUSH1 0xE0 SHL SUB AND PUSH4 0x60B5BB3F PUSH1 0xE0 SHL OR SWAP1 MSTORE SWAP1 MLOAD SWAP2 SWAP3 POP PUSH1 0x0 SWAP2 SWAP1 PUSH3 0x116 SWAP1 DUP3 ADD PUSH3 0x30A JUMP JUMPDEST PUSH1 0x1F NOT DUP3 DUP3 SUB DUP2 ADD DUP4 MSTORE PUSH1 0x1F SWAP1 SWAP2 ADD AND PUSH1 0x40 DUP2 SWAP1 MSTORE PUSH3 0x15D SWAP1 PUSH32 0x0 SWAP1 DUP6 SWAP1 PUSH1 0x20 ADD PUSH3 0x4A7 JUMP JUMPDEST PUSH1 0x40 DUP1 MLOAD PUSH1 0x1F NOT DUP2 DUP5 SUB ADD DUP2 MSTORE SWAP1 DUP3 SWAP1 MSTORE PUSH3 0x17D SWAP3 SWAP2 PUSH1 0x20 ADD PUSH3 0x4EB JUMP JUMPDEST PUSH1 0x40 DUP1 MLOAD PUSH1 0x1F NOT DUP2 DUP5 SUB ADD DUP2 MSTORE SWAP2 SWAP1 MSTORE DUP1 MLOAD PUSH1 0x20 DUP3 ADD KECCAK256 SWAP1 SWAP2 POP PUSH3 0x1A3 DUP6 DUP3 PUSH3 0x2D7 JUMP JUMPDEST SWAP4 POP POP POP POP JUMPDEST SWAP4 SWAP3 POP POP POP JUMP JUMPDEST PUSH1 0x0 DUP1 PUSH3 0x1C0 DUP6 DUP6 DUP6 PUSH3 0xBD JUMP JUMPDEST SWAP1 POP PUSH1 0x1 PUSH1 0x1 PUSH1 0xA0 SHL SUB DUP2 AND EXTCODESIZE DUP1 ISZERO PUSH3 0x1DD JUMPI POP SWAP1 POP PUSH3 0x1A9 JUMP JUMPDEST PUSH1 0x0 DUP7 DUP7 PUSH1 0x40 MLOAD PUSH1 0x24 ADD PUSH3 0x1F4 SWAP3 SWAP2 SWAP1 PUSH3 0x42E JUMP JUMPDEST PUSH1 0x40 DUP1 MLOAD PUSH1 0x1F NOT DUP2 DUP5 SUB ADD DUP2 MSTORE SWAP2 DUP2 MSTORE PUSH1 0x20 DUP3 ADD DUP1 MLOAD PUSH1 0x1 PUSH1 0x1 PUSH1 0xE0 SHL SUB AND PUSH4 0x60B5BB3F PUSH1 0xE0 SHL OR SWAP1 MSTORE MLOAD SWAP1 SWAP2 POP PUSH1 0x0 SWAP1 DUP7 SWAP1 PUSH32 0x0 SWAP1 DUP5 SWAP1 PUSH3 0x256 SWAP1 PUSH3 0x30A JUMP JUMPDEST PUSH3 0x263 SWAP3 SWAP2 SWAP1 PUSH3 0x4A7 JUMP JUMPDEST DUP2 SWAP1 PUSH1 0x40 MLOAD DUP1 SWAP2 SUB SWAP1 PUSH1 0x0 CREATE2 SWAP1 POP DUP1 ISZERO DUP1 ISZERO PUSH3 0x284 JUMPI RETURNDATASIZE PUSH1 0x0 DUP1 RETURNDATACOPY RETURNDATASIZE PUSH1 0x0 REVERT JUMPDEST POP SWAP1 POP DUP1 PUSH1 0x1 PUSH1 0x1 PUSH1 0xA0 SHL SUB AND PUSH32 0xC6FEBF30DEA1B6923811420EAA588CD391C80285987752F5CDF1E501E5988991 DUP10 DUP10 PUSH1 0x40 MLOAD PUSH3 0x2C4 SWAP3 SWAP2 SWAP1 PUSH3 0x42E JUMP JUMPDEST PUSH1 0x40 MLOAD DUP1 SWAP2 SUB SWAP1 LOG2 SWAP8 SWAP7 POP POP POP POP POP POP POP JUMP JUMPDEST PUSH1 0x0 PUSH3 0x1A9 DUP4 DUP4 ADDRESS PUSH1 0x0 PUSH1 0x40 MLOAD DUP4 PUSH1 0x40 DUP3 ADD MSTORE DUP5 PUSH1 0x20 DUP3 ADD MSTORE DUP3 DUP2 MSTORE PUSH1 0xB DUP2 ADD SWAP1 POP PUSH1 0xFF DUP2 MSTORE8 PUSH1 0x55 SWAP1 KECCAK256 SWAP5 SWAP4 POP POP POP POP JUMP JUMPDEST PUSH2 0x727 DUP1 PUSH3 0x51F DUP4 CODECOPY ADD SWAP1 JUMP JUMPDEST PUSH4 0x4E487B71 PUSH1 0xE0 SHL PUSH1 0x0 MSTORE PUSH1 0x41 PUSH1 0x4 MSTORE PUSH1 0x24 PUSH1 0x0 REVERT JUMPDEST DUP1 CALLDATALOAD PUSH1 0x1 PUSH1 0x1 PUSH1 0xA0 SHL SUB DUP2 AND DUP2 EQ PUSH3 0x346 JUMPI PUSH1 0x0 DUP1 REVERT JUMPDEST SWAP2 SWAP1 POP JUMP JUMPDEST PUSH1 0x0 DUP1 PUSH1 0x0 PUSH1 0x60 DUP5 DUP7 SUB SLT ISZERO PUSH3 0x361 JUMPI PUSH1 0x0 DUP1 REVERT JUMPDEST DUP4 CALLDATALOAD PUSH8 0xFFFFFFFFFFFFFFFF DUP1 DUP3 GT ISZERO PUSH3 0x37A JUMPI PUSH1 0x0 DUP1 REVERT JUMPDEST DUP2 DUP7 ADD SWAP2 POP DUP7 PUSH1 0x1F DUP4 ADD SLT PUSH3 0x38F JUMPI PUSH1 0x0 DUP1 REVERT JUMPDEST DUP2 CALLDATALOAD PUSH1 0x20 DUP3 DUP3 GT ISZERO PUSH3 0x3A6 JUMPI PUSH3 0x3A6 PUSH3 0x318 JUMP JUMPDEST DUP2 PUSH1 0x5 SHL PUSH1 0x40 MLOAD PUSH1 0x1F NOT PUSH1 0x3F DUP4 ADD AND DUP2 ADD DUP2 DUP2 LT DUP7 DUP3 GT OR ISZERO PUSH3 0x3CE JUMPI PUSH3 0x3CE PUSH3 0x318 JUMP JUMPDEST PUSH1 0x40 MSTORE SWAP3 DUP4 MSTORE DUP2 DUP4 ADD SWAP4 POP DUP5 DUP2 ADD DUP3 ADD SWAP3 DUP11 DUP5 GT ISZERO PUSH3 0x3ED JUMPI PUSH1 0x0 DUP1 REVERT JUMPDEST SWAP5 DUP3 ADD SWAP5 JUMPDEST DUP4 DUP7 LT ISZERO PUSH3 0x416 JUMPI PUSH3 0x406 DUP7 PUSH3 0x32E JUMP JUMPDEST DUP6 MSTORE SWAP5 DUP3 ADD SWAP5 SWAP4 DUP3 ADD SWAP4 PUSH3 0x3F2 JUMP JUMPDEST SWAP11 SWAP2 DUP10 ADD CALLDATALOAD SWAP10 POP POP PUSH1 0x40 SWAP1 SWAP8 ADD CALLDATALOAD SWAP7 SWAP6 POP POP POP POP POP POP JUMP JUMPDEST PUSH1 0x40 DUP1 DUP3 MSTORE DUP4 MLOAD SWAP1 DUP3 ADD DUP2 SWAP1 MSTORE PUSH1 0x0 SWAP1 PUSH1 0x20 SWAP1 PUSH1 0x60 DUP5 ADD SWAP1 DUP3 DUP8 ADD DUP5 JUMPDEST DUP3 DUP2 LT ISZERO PUSH3 0x472 JUMPI DUP2 MLOAD PUSH1 0x1 PUSH1 0x1 PUSH1 0xA0 SHL SUB AND DUP5 MSTORE SWAP3 DUP5 ADD SWAP3 SWAP1 DUP5 ADD SWAP1 PUSH1 0x1 ADD PUSH3 0x44B JUMP JUMPDEST POP POP POP SWAP3 ADD SWAP3 SWAP1 SWAP3 MSTORE SWAP3 SWAP2 POP POP JUMP JUMPDEST PUSH1 0x0 JUMPDEST DUP4 DUP2 LT ISZERO PUSH3 0x49E JUMPI DUP2 DUP2 ADD MLOAD DUP4 DUP3 ADD MSTORE PUSH1 0x20 ADD PUSH3 0x484 JUMP JUMPDEST POP POP PUSH1 0x0 SWAP2 ADD MSTORE JUMP JUMPDEST PUSH1 0x1 DUP1 PUSH1 0xA0 SHL SUB DUP4 AND DUP2 MSTORE PUSH1 0x40 PUSH1 0x20 DUP3 ADD MSTORE PUSH1 0x0 DUP3 MLOAD DUP1 PUSH1 0x40 DUP5 ADD MSTORE PUSH3 0x4D6 DUP2 PUSH1 0x60 DUP6 ADD PUSH1 0x20 DUP8 ADD PUSH3 0x481 JUMP JUMPDEST PUSH1 0x1F ADD PUSH1 0x1F NOT AND SWAP2 SWAP1 SWAP2 ADD PUSH1 0x60 ADD SWAP4 SWAP3 POP POP POP JUMP JUMPDEST PUSH1 0x0 DUP4 MLOAD PUSH3 0x4FF DUP2 DUP5 PUSH1 0x20 DUP9 ADD PUSH3 0x481 JUMP JUMPDEST DUP4 MLOAD SWAP1 DUP4 ADD SWAP1 PUSH3 0x515 DUP2 DUP4 PUSH1 0x20 DUP9 ADD PUSH3 0x481 JUMP JUMPDEST ADD SWAP5 SWAP4 POP POP POP POP JUMP INVALID PUSH1 0x80 PUSH1 0x40 MSTORE PUSH1 0x40 MLOAD PUSH2 0x727 CODESIZE SUB DUP1 PUSH2 0x727 DUP4 CODECOPY DUP2 ADD PUSH1 0x40 DUP2 SWAP1 MSTORE PUSH2 0x22 SWAP2 PUSH2 0x319 JUMP JUMPDEST PUSH2 0x2E DUP3 DUP3 PUSH1 0x0 PUSH2 0x35 JUMP JUMPDEST POP POP PUSH2 0x436 JUMP JUMPDEST PUSH2 0x3E DUP4 PUSH2 0x6B JUMP JUMPDEST PUSH1 0x0 DUP3 MLOAD GT DUP1 PUSH2 0x4B JUMPI POP DUP1 JUMPDEST ISZERO PUSH2 0x66 JUMPI PUSH2 0x64 DUP4 DUP4 PUSH2 0xAB PUSH1 0x20 SHL PUSH2 0x29 OR PUSH1 0x20 SHR JUMP JUMPDEST POP JUMPDEST POP POP POP JUMP JUMPDEST PUSH2 0x74 DUP2 PUSH2 0xD7 JUMP JUMPDEST PUSH1 0x40 MLOAD PUSH1 0x1 PUSH1 0x1 PUSH1 0xA0 SHL SUB DUP3 AND SWAP1 PUSH32 0xBC7CD75A20EE27FD9ADEBAB32041F755214DBC6BFFA90CC0225B39DA2E5C2D3B SWAP1 PUSH1 0x0 SWAP1 LOG2 POP JUMP JUMPDEST PUSH1 0x60 PUSH2 0xD0 DUP4 DUP4 PUSH1 0x40 MLOAD DUP1 PUSH1 0x60 ADD PUSH1 0x40 MSTORE DUP1 PUSH1 0x27 DUP2 MSTORE PUSH1 0x20 ADD PUSH2 0x700 PUSH1 0x27 SWAP2 CODECOPY PUSH2 0x1A9 JUMP JUMPDEST SWAP4 SWAP3 POP POP POP JUMP JUMPDEST PUSH2 0xEA DUP2 PUSH2 0x222 PUSH1 0x20 SHL PUSH2 0x55 OR PUSH1 0x20 SHR JUMP JUMPDEST PUSH2 0x151 JUMPI PUSH1 0x40 MLOAD PUSH3 0x461BCD PUSH1 0xE5 SHL DUP2 MSTORE PUSH1 0x20 PUSH1 0x4 DUP3 ADD MSTORE PUSH1 0x2D PUSH1 0x24 DUP3 ADD MSTORE PUSH32 0x455243313936373A206E657720696D706C656D656E746174696F6E206973206E PUSH1 0x44 DUP3 ADD MSTORE PUSH13 0x1BDD08184818DBDB9D1C9858DD PUSH1 0x9A SHL PUSH1 0x64 DUP3 ADD MSTORE PUSH1 0x84 ADD JUMPDEST PUSH1 0x40 MLOAD DUP1 SWAP2 SUB SWAP1 REVERT JUMPDEST DUP1 PUSH2 0x188 PUSH32 0x360894A13BA1A3210667C828492DB98DCA3E2076CC3735A920A3CA505D382BBC PUSH1 0x0 SHL PUSH2 0x231 PUSH1 0x20 SHL PUSH2 0x64 OR PUSH1 0x20 SHR JUMP JUMPDEST DUP1 SLOAD PUSH1 0x1 PUSH1 0x1 PUSH1 0xA0 SHL SUB NOT AND PUSH1 0x1 PUSH1 0x1 PUSH1 0xA0 SHL SUB SWAP3 SWAP1 SWAP3 AND SWAP2 SWAP1 SWAP2 OR SWAP1 SSTORE POP JUMP JUMPDEST PUSH1 0x60 PUSH1 0x0 DUP1 DUP6 PUSH1 0x1 PUSH1 0x1 PUSH1 0xA0 SHL SUB AND DUP6 PUSH1 0x40 MLOAD PUSH2 0x1C6 SWAP2 SWAP1 PUSH2 0x3E7 JUMP JUMPDEST PUSH1 0x0 PUSH1 0x40 MLOAD DUP1 DUP4 SUB DUP2 DUP6 GAS DELEGATECALL SWAP2 POP POP RETURNDATASIZE DUP1 PUSH1 0x0 DUP2 EQ PUSH2 0x201 JUMPI PUSH1 0x40 MLOAD SWAP2 POP PUSH1 0x1F NOT PUSH1 0x3F RETURNDATASIZE ADD AND DUP3 ADD PUSH1 0x40 MSTORE RETURNDATASIZE DUP3 MSTORE RETURNDATASIZE PUSH1 0x0 PUSH1 0x20 DUP5 ADD RETURNDATACOPY PUSH2 0x206 JUMP JUMPDEST PUSH1 0x60 SWAP2 POP JUMPDEST POP SWAP1 SWAP3 POP SWAP1 POP PUSH2 0x218 DUP7 DUP4 DUP4 DUP8 PUSH2 0x234 JUMP JUMPDEST SWAP7 SWAP6 POP POP POP POP POP POP JUMP JUMPDEST PUSH1 0x1 PUSH1 0x1 PUSH1 0xA0 SHL SUB AND EXTCODESIZE ISZERO ISZERO SWAP1 JUMP JUMPDEST SWAP1 JUMP JUMPDEST PUSH1 0x60 DUP4 ISZERO PUSH2 0x2A3 JUMPI DUP3 MLOAD PUSH1 0x0 SUB PUSH2 0x29C JUMPI PUSH1 0x1 PUSH1 0x1 PUSH1 0xA0 SHL SUB DUP6 AND EXTCODESIZE PUSH2 0x29C JUMPI PUSH1 0x40 MLOAD PUSH3 0x461BCD PUSH1 0xE5 SHL DUP2 MSTORE PUSH1 0x20 PUSH1 0x4 DUP3 ADD MSTORE PUSH1 0x1D PUSH1 0x24 DUP3 ADD MSTORE PUSH32 0x416464726573733A2063616C6C20746F206E6F6E2D636F6E7472616374000000 PUSH1 0x44 DUP3 ADD MSTORE PUSH1 0x64 ADD PUSH2 0x148 JUMP JUMPDEST POP DUP2 PUSH2 0x2AD JUMP JUMPDEST PUSH2 0x2AD DUP4 DUP4 PUSH2 0x2B5 JUMP JUMPDEST SWAP5 SWAP4 POP POP POP POP JUMP JUMPDEST DUP2 MLOAD ISZERO PUSH2 0x2C5 JUMPI DUP2 MLOAD DUP1 DUP4 PUSH1 0x20 ADD REVERT JUMPDEST DUP1 PUSH1 0x40 MLOAD PUSH3 0x461BCD PUSH1 0xE5 SHL DUP2 MSTORE PUSH1 0x4 ADD PUSH2 0x148 SWAP2 SWAP1 PUSH2 0x403 JUMP JUMPDEST PUSH4 0x4E487B71 PUSH1 0xE0 SHL PUSH1 0x0 MSTORE PUSH1 0x41 PUSH1 0x4 MSTORE PUSH1 0x24 PUSH1 0x0 REVERT JUMPDEST PUSH1 0x0 JUMPDEST DUP4 DUP2 LT ISZERO PUSH2 0x310 JUMPI DUP2 DUP2 ADD MLOAD DUP4 DUP3 ADD MSTORE PUSH1 0x20 ADD PUSH2 0x2F8 JUMP JUMPDEST POP POP PUSH1 0x0 SWAP2 ADD MSTORE JUMP JUMPDEST PUSH1 0x0 DUP1 PUSH1 0x40 DUP4 DUP6 SUB SLT ISZERO PUSH2 0x32C JUMPI PUSH1 0x0 DUP1 REVERT JUMPDEST DUP3 MLOAD PUSH1 0x1 PUSH1 0x1 PUSH1 0xA0 SHL SUB DUP2 AND DUP2 EQ PUSH2 0x343 JUMPI PUSH1 0x0 DUP1 REVERT JUMPDEST PUSH1 0x20 DUP5 ADD MLOAD SWAP1 SWAP3 POP PUSH1 0x1 PUSH1 0x1 PUSH1 0x40 SHL SUB DUP1 DUP3 GT ISZERO PUSH2 0x360 JUMPI PUSH1 0x0 DUP1 REVERT JUMPDEST DUP2 DUP6 ADD SWAP2 POP DUP6 PUSH1 0x1F DUP4 ADD SLT PUSH2 0x374 JUMPI PUSH1 0x0 DUP1 REVERT JUMPDEST DUP2 MLOAD DUP2 DUP2 GT ISZERO PUSH2 0x386 JUMPI PUSH2 0x386 PUSH2 0x2DF JUMP JUMPDEST PUSH1 0x40 MLOAD PUSH1 0x1F DUP3 ADD PUSH1 0x1F NOT SWAP1 DUP2 AND PUSH1 0x3F ADD AND DUP2 ADD SWAP1 DUP4 DUP3 GT DUP2 DUP4 LT OR ISZERO PUSH2 0x3AE JUMPI PUSH2 0x3AE PUSH2 0x2DF JUMP JUMPDEST DUP2 PUSH1 0x40 MSTORE DUP3 DUP2 MSTORE DUP9 PUSH1 0x20 DUP5 DUP8 ADD ADD GT ISZERO PUSH2 0x3C7 JUMPI PUSH1 0x0 DUP1 REVERT JUMPDEST PUSH2 0x3D8 DUP4 PUSH1 0x20 DUP4 ADD PUSH1 0x20 DUP9 ADD PUSH2 0x2F5 JUMP JUMPDEST DUP1 SWAP6 POP POP POP POP POP POP SWAP3 POP SWAP3 SWAP1 POP JUMP JUMPDEST PUSH1 0x0 DUP3 MLOAD PUSH2 0x3F9 DUP2 DUP5 PUSH1 0x20 DUP8 ADD PUSH2 0x2F5 JUMP JUMPDEST SWAP2 SWAP1 SWAP2 ADD SWAP3 SWAP2 POP POP JUMP JUMPDEST PUSH1 0x20 DUP2 MSTORE PUSH1 0x0 DUP3 MLOAD DUP1 PUSH1 0x20 DUP5 ADD MSTORE PUSH2 0x422 DUP2 PUSH1 0x40 DUP6 ADD PUSH1 0x20 DUP8 ADD PUSH2 0x2F5 JUMP JUMPDEST PUSH1 0x1F ADD PUSH1 0x1F NOT AND SWAP2 SWAP1 SWAP2 ADD PUSH1 0x40 ADD SWAP3 SWAP2 POP POP JUMP JUMPDEST PUSH2 0x2BB DUP1 PUSH2 0x445 PUSH1 0x0 CODECOPY PUSH1 0x0 RETURN INVALID PUSH1 0x80 PUSH1 0x40 MSTORE CALLDATASIZE PUSH2 0x13 JUMPI PUSH2 0x11 PUSH2 0x17 JUMP JUMPDEST STOP JUMPDEST PUSH2 0x11 JUMPDEST PUSH2 0x27 PUSH2 0x22 PUSH2 0x67 JUMP JUMPDEST PUSH2 0x9F JUMP JUMPDEST JUMP JUMPDEST PUSH1 0x60 PUSH2 0x4E DUP4 DUP4 PUSH1 0x40 MLOAD DUP1 PUSH1 0x60 ADD PUSH1 0x40 MSTORE DUP1 PUSH1 0x27 DUP2 MSTORE PUSH1 0x20 ADD PUSH2 0x25F PUSH1 0x27 SWAP2 CODECOPY PUSH2 0xC3 JUMP JUMPDEST SWAP4 SWAP3 POP POP POP JUMP JUMPDEST PUSH1 0x1 PUSH1 0x1 PUSH1 0xA0 SHL SUB AND EXTCODESIZE ISZERO ISZERO SWAP1 JUMP JUMPDEST SWAP1 JUMP JUMPDEST PUSH1 0x0 PUSH2 0x9A PUSH32 0x360894A13BA1A3210667C828492DB98DCA3E2076CC3735A920A3CA505D382BBC SLOAD PUSH1 0x1 PUSH1 0x1 PUSH1 0xA0 SHL SUB AND SWAP1 JUMP JUMPDEST SWAP1 POP SWAP1 JUMP JUMPDEST CALLDATASIZE PUSH1 0x0 DUP1 CALLDATACOPY PUSH1 0x0 DUP1 CALLDATASIZE PUSH1 0x0 DUP5 GAS DELEGATECALL RETURNDATASIZE PUSH1 0x0 DUP1 RETURNDATACOPY DUP1 DUP1 ISZERO PUSH2 0xBE JUMPI RETURNDATASIZE PUSH1 0x0 RETURN JUMPDEST RETURNDATASIZE PUSH1 0x0 REVERT JUMPDEST PUSH1 0x60 PUSH1 0x0 DUP1 DUP6 PUSH1 0x1 PUSH1 0x1 PUSH1 0xA0 SHL SUB AND DUP6 PUSH1 0x40 MLOAD PUSH2 0xE0 SWAP2 SWAP1 PUSH2 0x20F JUMP JUMPDEST PUSH1 0x0 PUSH1 0x40 MLOAD DUP1 DUP4 SUB DUP2 DUP6 GAS DELEGATECALL SWAP2 POP POP RETURNDATASIZE DUP1 PUSH1 0x0 DUP2 EQ PUSH2 0x11B JUMPI PUSH1 0x40 MLOAD SWAP2 POP PUSH1 0x1F NOT PUSH1 0x3F RETURNDATASIZE ADD AND DUP3 ADD PUSH1 0x40 MSTORE RETURNDATASIZE DUP3 MSTORE RETURNDATASIZE PUSH1 0x0 PUSH1 0x20 DUP5 ADD RETURNDATACOPY PUSH2 0x120 JUMP JUMPDEST PUSH1 0x60 SWAP2 POP JUMPDEST POP SWAP2 POP SWAP2 POP PUSH2 0x131 DUP7 DUP4 DUP4 DUP8 PUSH2 0x13B JUMP JUMPDEST SWAP7 SWAP6 POP POP POP POP POP POP JUMP JUMPDEST PUSH1 0x60 DUP4 ISZERO PUSH2 0x1AF JUMPI DUP3 MLOAD PUSH1 0x0 SUB PUSH2 0x1A8 JUMPI PUSH1 0x1 PUSH1 0x1 PUSH1 0xA0 SHL SUB DUP6 AND EXTCODESIZE PUSH2 0x1A8 JUMPI PUSH1 0x40 MLOAD PUSH3 0x461BCD PUSH1 0xE5 SHL DUP2 MSTORE PUSH1 0x20 PUSH1 0x4 DUP3 ADD MSTORE PUSH1 0x1D PUSH1 0x24 DUP3 ADD MSTORE PUSH32 0x416464726573733A2063616C6C20746F206E6F6E2D636F6E7472616374000000 PUSH1 0x44 DUP3 ADD MSTORE PUSH1 0x64 ADD JUMPDEST PUSH1 0x40 MLOAD DUP1 SWAP2 SUB SWAP1 REVERT JUMPDEST POP DUP2 PUSH2 0x1B9 JUMP JUMPDEST PUSH2 0x1B9 DUP4 DUP4 PUSH2 0x1C1 JUMP JUMPDEST SWAP5 SWAP4 POP POP POP POP JUMP JUMPDEST DUP2 MLOAD ISZERO PUSH2 0x1D1 JUMPI DUP2 MLOAD DUP1 DUP4 PUSH1 0x20 ADD REVERT JUMPDEST DUP1 PUSH1 0x40 MLOAD PUSH3 0x461BCD PUSH1 0xE5 SHL DUP2 MSTORE PUSH1 0x4 ADD PUSH2 0x19F SWAP2 SWAP1 PUSH2 0x22B JUMP JUMPDEST PUSH1 0x0 JUMPDEST DUP4 DUP2 LT ISZERO PUSH2 0x206 JUMPI DUP2 DUP2 ADD MLOAD DUP4 DUP3 ADD MSTORE PUSH1 0x20 ADD PUSH2 0x1EE JUMP JUMPDEST POP POP PUSH1 0x0 SWAP2 ADD MSTORE JUMP JUMPDEST PUSH1 0x0 DUP3 MLOAD PUSH2 0x221 DUP2 DUP5 PUSH1 0x20 DUP8 ADD PUSH2 0x1EB JUMP JUMPDEST SWAP2 SWAP1 SWAP2 ADD SWAP3 SWAP2 POP POP JUMP JUMPDEST PUSH1 0x20 DUP2 MSTORE PUSH1 0x0 DUP3 MLOAD DUP1 PUSH1 0x20 DUP5 ADD MSTORE PUSH2 0x24A DUP2 PUSH1 0x40 DUP6 ADD PUSH1 0x20 DUP8 ADD PUSH2 0x1EB JUMP JUMPDEST PUSH1 0x1F ADD PUSH1 0x1F NOT AND SWAP2 SWAP1 SWAP2 ADD PUSH1 0x40 ADD SWAP3 SWAP2 POP POP JUMP INVALID COINBASE PUSH5 0x6472657373 GASPRICE KECCAK256 PUSH13 0x6F772D6C6576656C2064656C65 PUSH8 0x6174652063616C6C KECCAK256 PUSH7 0x61696C6564A264 PUSH10 0x706673582212203D912D EXP 0xBB 0xE1 AND 0xB8 RETURNDATASIZE STATICCALL SAR GASPRICE DUP3 0xE6 SLT 0xE3 0x25 PUSH14 0xE4EF536EA1A35D0E77601B02B177 PUSH5 0x736F6C6343 STOP ADDMOD GT STOP CALLER COINBASE PUSH5 0x6472657373 GASPRICE KECCAK256 PUSH13 0x6F772D6C6576656C2064656C65 PUSH8 0x6174652063616C6C KECCAK256 PUSH7 0x61696C6564A264 PUSH10 0x706673582212207CD227 PUSH23 0x46ADD69F3B7D3C610E4676CB159FE39686121EFA9D25C8 0xCB PUSH19 0x7A9A5364736F6C6343000811003360C0604052 ADDRESS PUSH1 0x80 MSTORE PUSH3 0x93A80 PUSH1 0xA SSTORE CALLVALUE DUP1 ISZERO PUSH3 0x1C JUMPI PUSH1 0x0 DUP1 REVERT JUMPDEST POP PUSH1 0x40 MLOAD PUSH3 0x3605 CODESIZE SUB DUP1 PUSH3 0x3605 DUP4 CODECOPY DUP2 ADD PUSH1 0x40 DUP2 SWAP1 MSTORE PUSH3 0x3F SWAP2 PUSH3 0x11E JUMP JUMPDEST PUSH1 0x1 PUSH1 0x1 PUSH1 0xA0 SHL SUB DUP2 AND PUSH1 0xA0 MSTORE PUSH3 0x56 PUSH3 0x5D JUMP JUMPDEST POP PUSH3 0x150 JUMP JUMPDEST PUSH1 0x0 SLOAD PUSH2 0x100 SWAP1 DIV PUSH1 0xFF AND ISZERO PUSH3 0xCA JUMPI PUSH1 0x40 MLOAD PUSH3 0x461BCD PUSH1 0xE5 SHL DUP2 MSTORE PUSH1 0x20 PUSH1 0x4 DUP3 ADD MSTORE PUSH1 0x27 PUSH1 0x24 DUP3 ADD MSTORE PUSH32 0x496E697469616C697A61626C653A20636F6E747261637420697320696E697469 PUSH1 0x44 DUP3 ADD MSTORE PUSH7 0x616C697A696E67 PUSH1 0xC8 SHL PUSH1 0x64 DUP3 ADD MSTORE PUSH1 0x84 ADD PUSH1 0x40 MLOAD DUP1 SWAP2 SUB SWAP1 REVERT JUMPDEST PUSH1 0x0 SLOAD PUSH1 0xFF SWAP1 DUP2 AND EQ PUSH3 0x11C JUMPI PUSH1 0x0 DUP1 SLOAD PUSH1 0xFF NOT AND PUSH1 0xFF SWAP1 DUP2 OR SWAP1 SWAP2 SSTORE PUSH1 0x40 MLOAD SWAP1 DUP2 MSTORE PUSH32 0x7F26B83FF96E1F2B6A682F133852F6798A09C465DA95921460CEFB3847402498 SWAP1 PUSH1 0x20 ADD PUSH1 0x40 MLOAD DUP1 SWAP2 SUB SWAP1 LOG1 JUMPDEST JUMP JUMPDEST PUSH1 0x0 PUSH1 0x20 DUP3 DUP5 SUB SLT ISZERO PUSH3 0x131 JUMPI PUSH1 0x0 DUP1 REVERT JUMPDEST DUP2 MLOAD PUSH1 0x1 PUSH1 0x1 PUSH1 0xA0 SHL SUB DUP2 AND DUP2 EQ PUSH3 0x149 JUMPI PUSH1 0x0 DUP1 REVERT JUMPDEST SWAP4 SWAP3 POP POP POP JUMP JUMPDEST PUSH1 0x80 MLOAD PUSH1 0xA0 MLOAD PUSH2 0x3457 PUSH3 0x1AE PUSH1 0x0 CODECOPY PUSH1 0x0 DUP2 DUP2 PUSH2 0x4A5 ADD MSTORE DUP2 DUP2 PUSH2 0x1448 ADD MSTORE DUP2 DUP2 PUSH2 0x1996 ADD MSTORE DUP2 DUP2 PUSH2 0x1FC0 ADD MSTORE PUSH2 0x2236 ADD MSTORE PUSH1 0x0 DUP2 DUP2 PUSH2 0x913 ADD MSTORE DUP2 DUP2 PUSH2 0x953 ADD MSTORE DUP2 DUP2 PUSH2 0xA18 ADD MSTORE DUP2 DUP2 PUSH2 0xA58 ADD MSTORE PUSH2 0xAEB ADD MSTORE PUSH2 0x3457 PUSH1 0x0 RETURN INVALID PUSH1 0x80 PUSH1 0x40 MSTORE PUSH1 0x4 CALLDATASIZE LT PUSH2 0x1D1 JUMPI PUSH1 0x0 CALLDATALOAD PUSH1 0xE0 SHR DUP1 PUSH4 0x94CF795E GT PUSH2 0xF7 JUMPI DUP1 PUSH4 0xC01A8C84 GT PUSH2 0x95 JUMPI DUP1 PUSH4 0xEB12D61E GT PUSH2 0x64 JUMPI DUP1 PUSH4 0xEB12D61E EQ PUSH2 0x570 JUMPI DUP1 PUSH4 0xEE22610B EQ PUSH2 0x590 JUMPI DUP1 PUSH4 0xFBDD9990 EQ PUSH2 0x5B0 JUMPI DUP1 PUSH4 0xFCAE8D38 EQ PUSH2 0x5E9 JUMPI PUSH1 0x0 DUP1 REVERT JUMPDEST DUP1 PUSH4 0xC01A8C84 EQ PUSH2 0x505 JUMPI DUP1 PUSH4 0xD087D288 EQ PUSH2 0x525 JUMPI DUP1 PUSH4 0xD920D35A EQ PUSH2 0x53A JUMPI DUP1 PUSH4 0xE6A13B95 EQ PUSH2 0x55A JUMPI PUSH1 0x0 DUP1 REVERT JUMPDEST DUP1 PUSH4 0xA82F2E26 GT PUSH2 0xD1 JUMPI DUP1 PUSH4 0xA82F2E26 EQ PUSH2 0x475 JUMPI DUP1 PUSH4 0xB0D691FE EQ PUSH2 0x48B JUMPI DUP1 PUSH4 0xB61D27F6 EQ PUSH2 0x4CF JUMPI DUP1 PUSH4 0xB77BF600 EQ PUSH2 0x4EF JUMPI PUSH1 0x0 DUP1 REVERT JUMPDEST DUP1 PUSH4 0x94CF795E EQ PUSH2 0x40C JUMPI DUP1 PUSH4 0x9ACE38C2 EQ PUSH2 0x42E JUMPI DUP1 PUSH4 0xA0C1DEB4 EQ PUSH2 0x460 JUMPI PUSH1 0x0 DUP1 REVERT JUMPDEST DUP1 PUSH4 0x52D1902D GT PUSH2 0x16F JUMPI DUP1 PUSH4 0x5E90852D GT PUSH2 0x13E JUMPI DUP1 PUSH4 0x5E90852D EQ PUSH2 0x38C JUMPI DUP1 PUSH4 0x60B5BB3F EQ PUSH2 0x3AC JUMPI DUP1 PUSH4 0x694E80C3 EQ PUSH2 0x3CC JUMPI DUP1 PUSH4 0x7DF73E27 EQ PUSH2 0x3EC JUMPI PUSH1 0x0 DUP1 REVERT JUMPDEST DUP1 PUSH4 0x52D1902D EQ PUSH2 0x2FA JUMPI DUP1 PUSH4 0x57BB2670 EQ PUSH2 0x30F JUMPI DUP1 PUSH4 0x57FE4E54 EQ PUSH2 0x32F JUMPI DUP1 PUSH4 0x59C781A3 EQ PUSH2 0x344 JUMPI PUSH1 0x0 DUP1 REVERT JUMPDEST DUP1 PUSH4 0x3411C81C GT PUSH2 0x1AB JUMPI DUP1 PUSH4 0x3411C81C EQ PUSH2 0x24E JUMPI DUP1 PUSH4 0x3659CFE6 EQ PUSH2 0x299 JUMPI DUP1 PUSH4 0x3A871CDD EQ PUSH2 0x2B9 JUMPI DUP1 PUSH4 0x4F1EF286 EQ PUSH2 0x2E7 JUMPI PUSH1 0x0 DUP1 REVERT JUMPDEST DUP1 PUSH4 0xE316AB7 EQ PUSH2 0x1DD JUMPI DUP1 PUSH4 0x124F8D9C EQ PUSH2 0x1FF JUMPI DUP1 PUSH4 0x18DFB3C7 EQ PUSH2 0x22E JUMPI PUSH1 0x0 DUP1 REVERT JUMPDEST CALLDATASIZE PUSH2 0x1D8 JUMPI STOP JUMPDEST PUSH1 0x0 DUP1 REVERT JUMPDEST CALLVALUE DUP1 ISZERO PUSH2 0x1E9 JUMPI PUSH1 0x0 DUP1 REVERT JUMPDEST POP PUSH2 0x1FD PUSH2 0x1F8 CALLDATASIZE PUSH1 0x4 PUSH2 0x2A6B JUMP JUMPDEST PUSH2 0x5FE JUMP JUMPDEST STOP JUMPDEST CALLVALUE DUP1 ISZERO PUSH2 0x20B JUMPI PUSH1 0x0 DUP1 REVERT JUMPDEST POP PUSH2 0x214 PUSH2 0x71A JUMP JUMPDEST PUSH1 0x40 MLOAD PUSH2 0x225 SWAP6 SWAP5 SWAP4 SWAP3 SWAP2 SWAP1 PUSH2 0x2ACA JUMP JUMPDEST PUSH1 0x40 MLOAD DUP1 SWAP2 SUB SWAP1 RETURN JUMPDEST CALLVALUE DUP1 ISZERO PUSH2 0x23A JUMPI PUSH1 0x0 DUP1 REVERT JUMPDEST POP PUSH2 0x1FD PUSH2 0x249 CALLDATASIZE PUSH1 0x4 PUSH2 0x2B48 JUMP JUMPDEST PUSH2 0x804 JUMP JUMPDEST CALLVALUE DUP1 ISZERO PUSH2 0x25A JUMPI PUSH1 0x0 DUP1 REVERT JUMPDEST POP PUSH2 0x289 PUSH2 0x269 CALLDATASIZE PUSH1 0x4 PUSH2 0x2BB4 JUMP JUMPDEST PUSH1 0xC PUSH1 0x20 SWAP1 DUP2 MSTORE PUSH1 0x0 SWAP3 DUP4 MSTORE PUSH1 0x40 DUP1 DUP5 KECCAK256 SWAP1 SWAP2 MSTORE SWAP1 DUP3 MSTORE SWAP1 KECCAK256 SLOAD PUSH1 0xFF AND DUP2 JUMP JUMPDEST PUSH1 0x40 MLOAD SWAP1 ISZERO ISZERO DUP2 MSTORE PUSH1 0x20 ADD PUSH2 0x225 JUMP JUMPDEST CALLVALUE DUP1 ISZERO PUSH2 0x2A5 JUMPI PUSH1 0x0 DUP1 REVERT JUMPDEST POP PUSH2 0x1FD PUSH2 0x2B4 CALLDATASIZE PUSH1 0x4 PUSH2 0x2A6B JUMP JUMPDEST PUSH2 0x909 JUMP JUMPDEST CALLVALUE DUP1 ISZERO PUSH2 0x2C5 JUMPI PUSH1 0x0 DUP1 REVERT JUMPDEST POP PUSH2 0x2D9 PUSH2 0x2D4 CALLDATASIZE PUSH1 0x4 PUSH2 0x2BE0 JUMP JUMPDEST PUSH2 0x9E8 JUMP JUMPDEST PUSH1 0x40 MLOAD SWAP1 DUP2 MSTORE PUSH1 0x20 ADD PUSH2 0x225 JUMP JUMPDEST PUSH2 0x1FD PUSH2 0x2F5 CALLDATASIZE PUSH1 0x4 PUSH2 0x2C7B JUMP JUMPDEST PUSH2 0xA0E JUMP JUMPDEST CALLVALUE DUP1 ISZERO PUSH2 0x306 JUMPI PUSH1 0x0 DUP1 REVERT JUMPDEST POP PUSH2 0x2D9 PUSH2 0xADE JUMP JUMPDEST CALLVALUE DUP1 ISZERO PUSH2 0x31B JUMPI PUSH1 0x0 DUP1 REVERT JUMPDEST POP PUSH2 0x1FD PUSH2 0x32A CALLDATASIZE PUSH1 0x4 PUSH2 0x2D21 JUMP JUMPDEST PUSH2 0xB91 JUMP JUMPDEST CALLVALUE DUP1 ISZERO PUSH2 0x33B JUMPI PUSH1 0x0 DUP1 REVERT JUMPDEST POP PUSH2 0x1FD PUSH2 0xDB4 JUMP JUMPDEST CALLVALUE DUP1 ISZERO PUSH2 0x350 JUMPI PUSH1 0x0 DUP1 REVERT JUMPDEST POP PUSH1 0x5 SLOAD PUSH1 0x6 SLOAD PUSH1 0x8 SLOAD PUSH1 0x9 SLOAD PUSH2 0x36A SWAP4 SWAP3 SWAP2 SWAP1 PUSH1 0xFF AND DUP5 JUMP JUMPDEST PUSH1 0x40 DUP1 MLOAD SWAP5 DUP6 MSTORE PUSH1 0x20 DUP6 ADD SWAP4 SWAP1 SWAP4 MSTORE SWAP2 DUP4 ADD MSTORE ISZERO ISZERO PUSH1 0x60 DUP3 ADD MSTORE PUSH1 0x80 ADD PUSH2 0x225 JUMP JUMPDEST CALLVALUE DUP1 ISZERO PUSH2 0x398 JUMPI PUSH1 0x0 DUP1 REVERT JUMPDEST POP PUSH2 0x2D9 PUSH2 0x3A7 CALLDATASIZE PUSH1 0x4 PUSH2 0x2D63 JUMP JUMPDEST PUSH2 0x105B JUMP JUMPDEST CALLVALUE DUP1 ISZERO PUSH2 0x3B8 JUMPI PUSH1 0x0 DUP1 REVERT JUMPDEST POP PUSH2 0x1FD PUSH2 0x3C7 CALLDATASIZE PUSH1 0x4 PUSH2 0x2DEA JUMP JUMPDEST PUSH2 0x11FE JUMP JUMPDEST CALLVALUE DUP1 ISZERO PUSH2 0x3D8 JUMPI PUSH1 0x0 DUP1 REVERT JUMPDEST POP PUSH2 0x1FD PUSH2 0x3E7 CALLDATASIZE PUSH1 0x4 PUSH2 0x2E9D JUMP JUMPDEST PUSH2 0x14F4 JUMP JUMPDEST CALLVALUE DUP1 ISZERO PUSH2 0x3F8 JUMPI PUSH1 0x0 DUP1 REVERT JUMPDEST POP PUSH2 0x289 PUSH2 0x407 CALLDATASIZE PUSH1 0x4 PUSH2 0x2A6B JUMP JUMPDEST PUSH2 0x1607 JUMP JUMPDEST CALLVALUE DUP1 ISZERO PUSH2 0x418 JUMPI PUSH1 0x0 DUP1 REVERT JUMPDEST POP PUSH2 0x421 PUSH2 0x161A JUMP JUMPDEST PUSH1 0x40 MLOAD PUSH2 0x225 SWAP2 SWAP1 PUSH2 0x2EB6 JUMP JUMPDEST CALLVALUE DUP1 ISZERO PUSH2 0x43A JUMPI PUSH1 0x0 DUP1 REVERT JUMPDEST POP PUSH2 0x44E PUSH2 0x449 CALLDATASIZE PUSH1 0x4 PUSH2 0x2E9D JUMP JUMPDEST PUSH2 0x16CA JUMP JUMPDEST PUSH1 0x40 MLOAD PUSH2 0x225 SWAP7 SWAP6 SWAP5 SWAP4 SWAP3 SWAP2 SWAP1 PUSH2 0x2F19 JUMP JUMPDEST CALLVALUE DUP1 ISZERO PUSH2 0x46C JUMPI PUSH1 0x0 DUP1 REVERT JUMPDEST POP PUSH2 0x2D9 PUSH2 0x1797 JUMP JUMPDEST CALLVALUE DUP1 ISZERO PUSH2 0x481 JUMPI PUSH1 0x0 DUP1 REVERT JUMPDEST POP PUSH2 0x2D9 PUSH1 0x3 SLOAD DUP2 JUMP JUMPDEST CALLVALUE DUP1 ISZERO PUSH2 0x497 JUMPI PUSH1 0x0 DUP1 REVERT JUMPDEST POP PUSH1 0x40 MLOAD PUSH1 0x1 PUSH1 0x1 PUSH1 0xA0 SHL SUB PUSH32 0x0 AND DUP2 MSTORE PUSH1 0x20 ADD PUSH2 0x225 JUMP JUMPDEST CALLVALUE DUP1 ISZERO PUSH2 0x4DB JUMPI PUSH1 0x0 DUP1 REVERT JUMPDEST POP PUSH2 0x1FD PUSH2 0x4EA CALLDATASIZE PUSH1 0x4 PUSH2 0x2D63 JUMP JUMPDEST PUSH2 0x17A8 JUMP JUMPDEST CALLVALUE DUP1 ISZERO PUSH2 0x4FB JUMPI PUSH1 0x0 DUP1 REVERT JUMPDEST POP PUSH2 0x2D9 PUSH1 0xD SLOAD DUP2 JUMP JUMPDEST CALLVALUE DUP1 ISZERO PUSH2 0x511 JUMPI PUSH1 0x0 DUP1 REVERT JUMPDEST POP PUSH2 0x1FD PUSH2 0x520 CALLDATASIZE PUSH1 0x4 PUSH2 0x2E9D JUMP JUMPDEST PUSH2 0x17F7 JUMP JUMPDEST CALLVALUE DUP1 ISZERO PUSH2 0x531 JUMPI PUSH1 0x0 DUP1 REVERT JUMPDEST POP PUSH2 0x2D9 PUSH2 0x1992 JUMP JUMPDEST CALLVALUE DUP1 ISZERO PUSH2 0x546 JUMPI PUSH1 0x0 DUP1 REVERT JUMPDEST POP PUSH2 0x1FD PUSH2 0x555 CALLDATASIZE PUSH1 0x4 PUSH2 0x2E9D JUMP JUMPDEST PUSH2 0x1A26 JUMP JUMPDEST CALLVALUE DUP1 ISZERO PUSH2 0x566 JUMPI PUSH1 0x0 DUP1 REVERT JUMPDEST POP PUSH2 0x2D9 PUSH1 0xA SLOAD DUP2 JUMP JUMPDEST CALLVALUE DUP1 ISZERO PUSH2 0x57C JUMPI PUSH1 0x0 DUP1 REVERT JUMPDEST POP PUSH2 0x1FD PUSH2 0x58B CALLDATASIZE PUSH1 0x4 PUSH2 0x2A6B JUMP JUMPDEST PUSH2 0x1B20 JUMP JUMPDEST CALLVALUE DUP1 ISZERO PUSH2 0x59C JUMPI PUSH1 0x0 DUP1 REVERT JUMPDEST POP PUSH2 0x1FD PUSH2 0x5AB CALLDATASIZE PUSH1 0x4 PUSH2 0x2E9D JUMP JUMPDEST PUSH2 0x1BF5 JUMP JUMPDEST CALLVALUE DUP1 ISZERO PUSH2 0x5BC JUMPI PUSH1 0x0 DUP1 REVERT JUMPDEST POP PUSH2 0x289 PUSH2 0x5CB CALLDATASIZE PUSH1 0x4 PUSH2 0x2A6B JUMP JUMPDEST PUSH1 0x1 PUSH1 0x1 PUSH1 0xA0 SHL SUB AND PUSH1 0x0 SWAP1 DUP2 MSTORE PUSH1 0x7 PUSH1 0x20 MSTORE PUSH1 0x40 SWAP1 KECCAK256 SLOAD PUSH1 0xFF AND SWAP1 JUMP JUMPDEST CALLVALUE DUP1 ISZERO PUSH2 0x5F5 JUMPI PUSH1 0x0 DUP1 REVERT JUMPDEST POP PUSH2 0x1FD PUSH2 0x1E09 JUMP JUMPDEST CALLER ADDRESS EQ PUSH2 0x626 JUMPI PUSH1 0x40 MLOAD PUSH3 0x461BCD PUSH1 0xE5 SHL DUP2 MSTORE PUSH1 0x4 ADD PUSH2 0x61D SWAP1 PUSH2 0x2F5E JUMP JUMPDEST PUSH1 0x40 MLOAD DUP1 SWAP2 SUB SWAP1 REVERT JUMPDEST PUSH2 0x631 PUSH1 0x1 DUP3 PUSH2 0x1F75 JUMP JUMPDEST PUSH2 0x673 JUMPI PUSH1 0x40 MLOAD PUSH3 0x461BCD PUSH1 0xE5 SHL DUP2 MSTORE PUSH1 0x20 PUSH1 0x4 DUP3 ADD MSTORE PUSH1 0x13 PUSH1 0x24 DUP3 ADD MSTORE PUSH19 0x6E616F206520756D207369676E61746172696F PUSH1 0x68 SHL PUSH1 0x44 DUP3 ADD MSTORE PUSH1 0x64 ADD PUSH2 0x61D JUMP JUMPDEST PUSH1 0x3 SLOAD PUSH2 0x680 PUSH1 0x1 PUSH2 0x1F96 JUMP JUMPDEST GT PUSH2 0x6D7 JUMPI PUSH1 0x40 MLOAD PUSH3 0x461BCD PUSH1 0xE5 SHL DUP2 MSTORE PUSH1 0x20 PUSH1 0x4 DUP3 ADD MSTORE PUSH1 0x21 PUSH1 0x24 DUP3 ADD MSTORE PUSH32 0x6E616F20706F646520726564757A69722061626169786F20646F206C696D6974 PUSH1 0x44 DUP3 ADD MSTORE PUSH1 0x65 PUSH1 0xF8 SHL PUSH1 0x64 DUP3 ADD MSTORE PUSH1 0x84 ADD PUSH2 0x61D JUMP JUMPDEST PUSH2 0x6E2 PUSH1 0x1 DUP3 PUSH2 0x1FA0 JUMP JUMPDEST POP PUSH1 0x40 MLOAD PUSH1 0x1 PUSH1 0x1 PUSH1 0xA0 SHL SUB DUP3 AND SWAP1 PUSH32 0x3525E22824A8A7DF2C9A6029941C824CF95B6447F1E13D5128FD3826D35AFE8B SWAP1 PUSH1 0x0 SWAP1 LOG2 POP JUMP JUMPDEST PUSH1 0x60 PUSH1 0x0 DUP1 PUSH1 0x0 DUP1 PUSH1 0x4 PUSH1 0x0 ADD DUP1 SLOAD DUP1 PUSH1 0x20 MUL PUSH1 0x20 ADD PUSH1 0x40 MLOAD SWAP1 DUP2 ADD PUSH1 0x40 MSTORE DUP1 SWAP3 SWAP2 SWAP1 DUP2 DUP2 MSTORE PUSH1 0x20 ADD DUP3 DUP1 SLOAD DUP1 ISZERO PUSH2 0x77B JUMPI PUSH1 0x20 MUL DUP3 ADD SWAP2 SWAP1 PUSH1 0x0 MSTORE PUSH1 0x20 PUSH1 0x0 KECCAK256 SWAP1 JUMPDEST DUP2 SLOAD PUSH1 0x1 PUSH1 0x1 PUSH1 0xA0 SHL SUB AND DUP2 MSTORE PUSH1 0x1 SWAP1 SWAP2 ADD SWAP1 PUSH1 0x20 ADD DUP1 DUP4 GT PUSH2 0x75D JUMPI JUMPDEST POP POP PUSH1 0x5 SLOAD PUSH1 0x6 SLOAD SWAP5 SWAP10 POP SWAP8 POP PUSH2 0x798 SWAP4 SWAP3 POP DUP8 SWAP2 POP PUSH2 0x2FAB SWAP1 POP JUMP JUMPDEST TIMESTAMP LT ISZERO PUSH2 0x7C1 JUMPI PUSH1 0x6 SLOAD PUSH1 0x5 SLOAD TIMESTAMP SWAP2 PUSH2 0x7B0 SWAP2 PUSH2 0x2FAB JUMP JUMPDEST PUSH2 0x7BA SWAP2 SWAP1 PUSH2 0x2FBE JUMP JUMPDEST SWAP3 POP PUSH2 0x7C6 JUMP JUMPDEST PUSH1 0x0 SWAP3 POP JUMPDEST PUSH1 0x8 SLOAD PUSH1 0x5 SLOAD SWAP1 SWAP3 POP ISZERO DUP1 ISZERO SWAP1 PUSH2 0x7E0 JUMPI POP PUSH1 0x9 SLOAD PUSH1 0xFF AND ISZERO JUMPDEST DUP1 ISZERO PUSH2 0x7FB JUMPI POP PUSH1 0x6 SLOAD PUSH1 0x5 SLOAD PUSH2 0x7F7 SWAP2 SWAP1 PUSH2 0x2FAB JUMP JUMPDEST TIMESTAMP LT ISZERO JUMPDEST SWAP1 POP SWAP1 SWAP2 SWAP3 SWAP4 SWAP5 JUMP JUMPDEST PUSH2 0x80C PUSH2 0x1FB5 JUMP JUMPDEST DUP3 DUP2 EQ PUSH2 0x85B JUMPI PUSH1 0x40 MLOAD PUSH3 0x461BCD PUSH1 0xE5 SHL DUP2 MSTORE PUSH1 0x20 PUSH1 0x4 DUP3 ADD DUP2 SWAP1 MSTORE PUSH1 0x24 DUP3 ADD MSTORE PUSH32 0x74616D616E686F732064652061727261797320696E636F6D7061746976656973 PUSH1 0x44 DUP3 ADD MSTORE PUSH1 0x64 ADD PUSH2 0x61D JUMP JUMPDEST PUSH1 0x0 JUMPDEST DUP4 DUP2 LT ISZERO PUSH2 0x902 JUMPI PUSH2 0x8F0 DUP6 DUP6 DUP4 DUP2 DUP2 LT PUSH2 0x87B JUMPI PUSH2 0x87B PUSH2 0x2FD1 JUMP JUMPDEST SWAP1 POP PUSH1 0x20 MUL ADD PUSH1 0x20 DUP2 ADD SWAP1 PUSH2 0x890 SWAP2 SWAP1 PUSH2 0x2A6B JUMP JUMPDEST PUSH1 0x0 DUP6 DUP6 DUP6 DUP2 DUP2 LT PUSH2 0x8A4 JUMPI PUSH2 0x8A4 PUSH2 0x2FD1 JUMP JUMPDEST SWAP1 POP PUSH1 0x20 MUL DUP2 ADD SWAP1 PUSH2 0x8B6 SWAP2 SWAP1 PUSH2 0x2FE7 JUMP JUMPDEST DUP1 DUP1 PUSH1 0x1F ADD PUSH1 0x20 DUP1 SWAP2 DIV MUL PUSH1 0x20 ADD PUSH1 0x40 MLOAD SWAP1 DUP2 ADD PUSH1 0x40 MSTORE DUP1 SWAP4 SWAP3 SWAP2 SWAP1 DUP2 DUP2 MSTORE PUSH1 0x20 ADD DUP4 DUP4 DUP1 DUP3 DUP5 CALLDATACOPY PUSH1 0x0 SWAP3 ADD SWAP2 SWAP1 SWAP2 MSTORE POP PUSH2 0x2031 SWAP3 POP POP POP JUMP JUMPDEST DUP1 PUSH2 0x8FA DUP2 PUSH2 0x302E JUMP JUMPDEST SWAP2 POP POP PUSH2 0x85E JUMP JUMPDEST POP POP POP POP POP JUMP JUMPDEST PUSH1 0x1 PUSH1 0x1 PUSH1 0xA0 SHL SUB PUSH32 0x0 AND ADDRESS SUB PUSH2 0x951 JUMPI PUSH1 0x40 MLOAD PUSH3 0x461BCD PUSH1 0xE5 SHL DUP2 MSTORE PUSH1 0x4 ADD PUSH2 0x61D SWAP1 PUSH2 0x3047 JUMP JUMPDEST PUSH32 0x0 PUSH1 0x1 PUSH1 0x1 PUSH1 0xA0 SHL SUB AND PUSH2 0x99A PUSH1 0x0 DUP1 MLOAD PUSH1 0x20 PUSH2 0x33DB DUP4 CODECOPY DUP2 MLOAD SWAP2 MSTORE SLOAD PUSH1 0x1 PUSH1 0x1 PUSH1 0xA0 SHL SUB AND SWAP1 JUMP JUMPDEST PUSH1 0x1 PUSH1 0x1 PUSH1 0xA0 SHL SUB AND EQ PUSH2 0x9C0 JUMPI PUSH1 0x40 MLOAD PUSH3 0x461BCD PUSH1 0xE5 SHL DUP2 MSTORE PUSH1 0x4 ADD PUSH2 0x61D SWAP1 PUSH2 0x3093 JUMP JUMPDEST PUSH2 0x9C9 DUP2 PUSH2 0x20A1 JUMP JUMPDEST PUSH1 0x40 DUP1 MLOAD PUSH1 0x0 DUP1 DUP3 MSTORE PUSH1 0x20 DUP3 ADD SWAP1 SWAP3 MSTORE PUSH2 0x9E5 SWAP2 DUP4 SWAP2 SWAP1 PUSH2 0x20C0 JUMP JUMPDEST POP JUMP JUMPDEST PUSH1 0x0 PUSH2 0x9F2 PUSH2 0x222B JUMP JUMPDEST PUSH2 0x9FC DUP5 DUP5 PUSH2 0x22A3 JUMP JUMPDEST SWAP1 POP PUSH2 0xA07 DUP3 PUSH2 0x234A JUMP JUMPDEST SWAP4 SWAP3 POP POP POP JUMP JUMPDEST PUSH1 0x1 PUSH1 0x1 PUSH1 0xA0 SHL SUB PUSH32 0x0 AND ADDRESS SUB PUSH2 0xA56 JUMPI PUSH1 0x40 MLOAD PUSH3 0x461BCD PUSH1 0xE5 SHL DUP2 MSTORE PUSH1 0x4 ADD PUSH2 0x61D SWAP1 PUSH2 0x3047 JUMP JUMPDEST PUSH32 0x0 PUSH1 0x1 PUSH1 0x1 PUSH1 0xA0 SHL SUB AND PUSH2 0xA9F PUSH1 0x0 DUP1 MLOAD PUSH1 0x20 PUSH2 0x33DB DUP4 CODECOPY DUP2 MLOAD SWAP2 MSTORE SLOAD PUSH1 0x1 PUSH1 0x1 PUSH1 0xA0 SHL SUB AND SWAP1 JUMP JUMPDEST PUSH1 0x1 PUSH1 0x1 PUSH1 0xA0 SHL SUB AND EQ PUSH2 0xAC5 JUMPI PUSH1 0x40 MLOAD PUSH3 0x461BCD PUSH1 0xE5 SHL DUP2 MSTORE PUSH1 0x4 ADD PUSH2 0x61D SWAP1 PUSH2 0x3093 JUMP JUMPDEST PUSH2 0xACE DUP3 PUSH2 0x20A1 JUMP JUMPDEST PUSH2 0xADA DUP3 DUP3 PUSH1 0x1 PUSH2 0x20C0 JUMP JUMPDEST POP POP JUMP JUMPDEST PUSH1 0x0 ADDRESS PUSH1 0x1 PUSH1 0x1 PUSH1 0xA0 SHL SUB PUSH32 0x0 AND EQ PUSH2 0xB7E JUMPI PUSH1 0x40 MLOAD PUSH3 0x461BCD PUSH1 0xE5 SHL DUP2 MSTORE PUSH1 0x20 PUSH1 0x4 DUP3 ADD MSTORE PUSH1 0x38 PUSH1 0x24 DUP3 ADD MSTORE PUSH32 0x555550535570677261646561626C653A206D757374206E6F742062652063616C PUSH1 0x44 DUP3 ADD MSTORE PUSH32 0x6C6564207468726F7567682064656C656761746563616C6C0000000000000000 PUSH1 0x64 DUP3 ADD MSTORE PUSH1 0x84 ADD PUSH2 0x61D JUMP JUMPDEST POP PUSH1 0x0 DUP1 MLOAD PUSH1 0x20 PUSH2 0x33DB DUP4 CODECOPY DUP2 MLOAD SWAP2 MSTORE SWAP1 JUMP JUMPDEST PUSH2 0xB9C PUSH1 0x1 CALLER PUSH2 0x1F75 JUMP JUMPDEST PUSH2 0xBB8 JUMPI PUSH1 0x40 MLOAD PUSH3 0x461BCD PUSH1 0xE5 SHL DUP2 MSTORE PUSH1 0x4 ADD PUSH2 0x61D SWAP1 PUSH2 0x30DF JUMP JUMPDEST PUSH1 0x3 DUP2 LT ISZERO PUSH2 0xC00 JUMPI PUSH1 0x40 MLOAD PUSH3 0x461BCD PUSH1 0xE5 SHL DUP2 MSTORE PUSH1 0x20 PUSH1 0x4 DUP3 ADD MSTORE PUSH1 0x14 PUSH1 0x24 DUP3 ADD MSTORE PUSH20 0x4D696E696D6F2033207369676E61746172696F73 PUSH1 0x60 SHL PUSH1 0x44 DUP3 ADD MSTORE PUSH1 0x64 ADD PUSH2 0x61D JUMP JUMPDEST PUSH1 0x0 JUMPDEST DUP2 DUP2 LT ISZERO PUSH2 0xD30 JUMPI PUSH1 0x0 DUP4 DUP4 DUP4 DUP2 DUP2 LT PUSH2 0xC1F JUMPI PUSH2 0xC1F PUSH2 0x2FD1 JUMP JUMPDEST SWAP1 POP PUSH1 0x20 MUL ADD PUSH1 0x20 DUP2 ADD SWAP1 PUSH2 0xC34 SWAP2 SWAP1 PUSH2 0x2A6B JUMP JUMPDEST PUSH1 0x1 PUSH1 0x1 PUSH1 0xA0 SHL SUB AND SUB PUSH2 0xC5A JUMPI PUSH1 0x40 MLOAD PUSH3 0x461BCD PUSH1 0xE5 SHL DUP2 MSTORE PUSH1 0x4 ADD PUSH2 0x61D SWAP1 PUSH2 0x3105 JUMP JUMPDEST PUSH1 0x0 JUMPDEST DUP2 DUP2 LT ISZERO PUSH2 0xD1D JUMPI DUP4 DUP4 DUP3 DUP2 DUP2 LT PUSH2 0xC77 JUMPI PUSH2 0xC77 PUSH2 0x2FD1 JUMP JUMPDEST SWAP1 POP PUSH1 0x20 MUL ADD PUSH1 0x20 DUP2 ADD SWAP1 PUSH2 0xC8C SWAP2 SWAP1 PUSH2 0x2A6B JUMP JUMPDEST PUSH1 0x1 PUSH1 0x1 PUSH1 0xA0 SHL SUB AND DUP5 DUP5 DUP5 DUP2 DUP2 LT PUSH2 0xCA7 JUMPI PUSH2 0xCA7 PUSH2 0x2FD1 JUMP JUMPDEST SWAP1 POP PUSH1 0x20 MUL ADD PUSH1 0x20 DUP2 ADD SWAP1 PUSH2 0xCBC SWAP2 SWAP1 PUSH2 0x2A6B JUMP JUMPDEST PUSH1 0x1 PUSH1 0x1 PUSH1 0xA0 SHL SUB AND SUB PUSH2 0xD0B JUMPI PUSH1 0x40 MLOAD PUSH3 0x461BCD PUSH1 0xE5 SHL DUP2 MSTORE PUSH1 0x20 PUSH1 0x4 DUP3 ADD MSTORE PUSH1 0x16 PUSH1 0x24 DUP3 ADD MSTORE PUSH22 0x7369676E61746172696F73206475706C696361646F73 PUSH1 0x50 SHL PUSH1 0x44 DUP3 ADD MSTORE PUSH1 0x64 ADD PUSH2 0x61D JUMP JUMPDEST DUP1 PUSH2 0xD15 DUP2 PUSH2 0x302E JUMP JUMPDEST SWAP2 POP POP PUSH2 0xC5D JUMP JUMPDEST POP DUP1 PUSH2 0xD28 DUP2 PUSH2 0x302E JUMP JUMPDEST SWAP2 POP POP PUSH2 0xC03 JUMP JUMPDEST POP PUSH2 0xD3D PUSH1 0x4 DUP4 DUP4 PUSH2 0x29D7 JUMP JUMPDEST POP TIMESTAMP PUSH1 0x5 SSTORE PUSH1 0xA SLOAD PUSH1 0x6 SSTORE PUSH1 0x1 PUSH1 0x8 DUP2 SWAP1 SSTORE CALLER PUSH1 0x0 DUP2 DUP2 MSTORE PUSH1 0x7 PUSH1 0x20 MSTORE PUSH1 0x40 SWAP1 DUP2 SWAP1 KECCAK256 DUP1 SLOAD PUSH1 0xFF NOT SWAP1 DUP2 AND SWAP1 SWAP5 OR SWAP1 SSTORE PUSH1 0x9 DUP1 SLOAD SWAP1 SWAP4 AND SWAP1 SWAP3 SSTORE SWAP1 MLOAD PUSH32 0x4A0C66B15D636546207E51120A329E156B391FCEB4D48875FEB228FD7BF20529 SWAP1 PUSH2 0xDA8 SWAP1 DUP6 SWAP1 DUP6 SWAP1 PUSH2 0x314A JUMP JUMPDEST PUSH1 0x40 MLOAD DUP1 SWAP2 SUB SWAP1 LOG2 POP POP JUMP JUMPDEST PUSH2 0xDBF PUSH1 0x1 CALLER PUSH2 0x1F75 JUMP JUMPDEST PUSH2 0xDDB JUMPI PUSH1 0x40 MLOAD PUSH3 0x461BCD PUSH1 0xE5 SHL DUP2 MSTORE PUSH1 0x4 ADD PUSH2 0x61D SWAP1 PUSH2 0x30DF JUMP JUMPDEST PUSH1 0x5 SLOAD PUSH2 0xE2A JUMPI PUSH1 0x40 MLOAD PUSH3 0x461BCD PUSH1 0xE5 SHL DUP2 MSTORE PUSH1 0x20 PUSH1 0x4 DUP3 ADD MSTORE PUSH1 0x1C PUSH1 0x24 DUP3 ADD MSTORE PUSH32 0x6E656E68756D6120736F6C696369746163616F2070656E64656E746500000000 PUSH1 0x44 DUP3 ADD MSTORE PUSH1 0x64 ADD PUSH2 0x61D JUMP JUMPDEST PUSH1 0x9 SLOAD PUSH1 0xFF AND ISZERO PUSH2 0xE78 JUMPI PUSH1 0x40 MLOAD PUSH3 0x461BCD PUSH1 0xE5 SHL DUP2 MSTORE PUSH1 0x20 PUSH1 0x4 DUP3 ADD MSTORE PUSH1 0x18 PUSH1 0x24 DUP3 ADD MSTORE PUSH24 0x726563757065726163616F206A6120657865637574616461 PUSH1 0x40 SHL PUSH1 0x44 DUP3 ADD MSTORE PUSH1 0x64 ADD PUSH2 0x61D JUMP JUMPDEST PUSH1 0x6 SLOAD PUSH1 0x5 SLOAD PUSH2 0xE88 SWAP2 SWAP1 PUSH2 0x2FAB JUMP JUMPDEST TIMESTAMP LT ISZERO PUSH2 0xEC8 JUMPI PUSH1 0x40 MLOAD PUSH3 0x461BCD PUSH1 0xE5 SHL DUP2 MSTORE PUSH1 0x20 PUSH1 0x4 DUP3 ADD MSTORE PUSH1 0xE PUSH1 0x24 DUP3 ADD MSTORE PUSH14 0x4167756172646520372064696173 PUSH1 0x90 SHL PUSH1 0x44 DUP3 ADD MSTORE PUSH1 0x64 ADD PUSH2 0x61D JUMP JUMPDEST PUSH1 0x0 PUSH2 0xED4 PUSH1 0x1 PUSH2 0x1F96 JUMP JUMPDEST PUSH8 0xFFFFFFFFFFFFFFFF DUP2 GT ISZERO PUSH2 0xEEC JUMPI PUSH2 0xEEC PUSH2 0x2C34 JUMP JUMPDEST PUSH1 0x40 MLOAD SWAP1 DUP1 DUP3 MSTORE DUP1 PUSH1 0x20 MUL PUSH1 0x20 ADD DUP3 ADD PUSH1 0x40 MSTORE DUP1 ISZERO PUSH2 0xF15 JUMPI DUP2 PUSH1 0x20 ADD PUSH1 0x20 DUP3 MUL DUP1 CALLDATASIZE DUP4 CALLDATACOPY ADD SWAP1 POP JUMPDEST POP SWAP1 POP PUSH1 0x0 JUMPDEST DUP2 MLOAD DUP2 LT ISZERO PUSH2 0xF6B JUMPI PUSH2 0xF2F PUSH1 0x1 DUP3 PUSH2 0x2397 JUMP JUMPDEST DUP3 DUP3 DUP2 MLOAD DUP2 LT PUSH2 0xF41 JUMPI PUSH2 0xF41 PUSH2 0x2FD1 JUMP JUMPDEST PUSH1 0x1 PUSH1 0x1 PUSH1 0xA0 SHL SUB SWAP1 SWAP3 AND PUSH1 0x20 SWAP3 DUP4 MUL SWAP2 SWAP1 SWAP2 ADD SWAP1 SWAP2 ADD MSTORE DUP1 PUSH2 0xF63 DUP2 PUSH2 0x302E JUMP JUMPDEST SWAP2 POP POP PUSH2 0xF1B JUMP JUMPDEST POP PUSH1 0x0 JUMPDEST DUP2 MLOAD DUP2 LT ISZERO PUSH2 0xFB8 JUMPI PUSH2 0xFA5 DUP3 DUP3 DUP2 MLOAD DUP2 LT PUSH2 0xF8D JUMPI PUSH2 0xF8D PUSH2 0x2FD1 JUMP JUMPDEST PUSH1 0x20 MUL PUSH1 0x20 ADD ADD MLOAD PUSH1 0x1 PUSH2 0x1FA0 SWAP1 SWAP2 SWAP1 PUSH4 0xFFFFFFFF AND JUMP JUMPDEST POP DUP1 PUSH2 0xFB0 DUP2 PUSH2 0x302E JUMP JUMPDEST SWAP2 POP POP PUSH2 0xF6F JUMP JUMPDEST POP PUSH1 0x0 JUMPDEST PUSH1 0x4 SLOAD DUP2 LT ISZERO PUSH2 0x100F JUMPI PUSH2 0xFFC PUSH1 0x4 PUSH1 0x0 ADD DUP3 DUP2 SLOAD DUP2 LT PUSH2 0xFDF JUMPI PUSH2 0xFDF PUSH2 0x2FD1 JUMP JUMPDEST PUSH1 0x0 SWAP2 DUP3 MSTORE PUSH1 0x20 SWAP1 SWAP2 KECCAK256 ADD SLOAD PUSH1 0x1 SWAP1 PUSH1 0x1 PUSH1 0x1 PUSH1 0xA0 SHL SUB AND PUSH2 0x23A3 JUMP JUMPDEST POP DUP1 PUSH2 0x1007 DUP2 PUSH2 0x302E JUMP JUMPDEST SWAP2 POP POP PUSH2 0xFBC JUMP JUMPDEST POP PUSH1 0x9 DUP1 SLOAD PUSH1 0xFF NOT AND PUSH1 0x1 OR SWAP1 SSTORE PUSH1 0x40 MLOAD PUSH32 0xD70EB9E4E82EB370424E94AFD7309D4F9880A65D9A5C3C07ACB6373D2AABB9D4 SWAP1 PUSH2 0x1050 SWAP1 DUP4 SWAP1 PUSH1 0x4 SWAP1 PUSH2 0x3196 JUMP JUMPDEST PUSH1 0x40 MLOAD DUP1 SWAP2 SUB SWAP1 LOG1 POP JUMP JUMPDEST PUSH1 0x0 PUSH2 0x1068 PUSH1 0x1 CALLER PUSH2 0x1F75 JUMP JUMPDEST PUSH2 0x1084 JUMPI PUSH1 0x40 MLOAD PUSH3 0x461BCD PUSH1 0xE5 SHL DUP2 MSTORE PUSH1 0x4 ADD PUSH2 0x61D SWAP1 PUSH2 0x30DF JUMP JUMPDEST PUSH1 0xD SLOAD SWAP1 POP PUSH1 0x40 MLOAD DUP1 PUSH1 0xC0 ADD PUSH1 0x40 MSTORE DUP1 DUP7 PUSH1 0x1 PUSH1 0x1 PUSH1 0xA0 SHL SUB AND DUP2 MSTORE PUSH1 0x20 ADD DUP6 DUP2 MSTORE PUSH1 0x20 ADD DUP5 DUP5 DUP1 DUP1 PUSH1 0x1F ADD PUSH1 0x20 DUP1 SWAP2 DIV MUL PUSH1 0x20 ADD PUSH1 0x40 MLOAD SWAP1 DUP2 ADD PUSH1 0x40 MSTORE DUP1 SWAP4 SWAP3 SWAP2 SWAP1 DUP2 DUP2 MSTORE PUSH1 0x20 ADD DUP4 DUP4 DUP1 DUP3 DUP5 CALLDATACOPY PUSH1 0x0 SWAP3 ADD DUP3 SWAP1 MSTORE POP SWAP4 DUP6 MSTORE POP POP POP PUSH1 0x20 DUP1 DUP4 ADD DUP3 SWAP1 MSTORE PUSH1 0x1 PUSH1 0x40 DUP1 DUP6 ADD DUP3 SWAP1 MSTORE TIMESTAMP PUSH1 0x60 SWAP1 SWAP6 ADD SWAP5 SWAP1 SWAP5 MSTORE DUP6 DUP4 MSTORE PUSH1 0xB DUP3 MSTORE SWAP2 DUP4 SWAP1 KECCAK256 DUP5 MLOAD DUP2 SLOAD PUSH1 0x1 PUSH1 0x1 PUSH1 0xA0 SHL SUB NOT AND PUSH1 0x1 PUSH1 0x1 PUSH1 0xA0 SHL SUB SWAP1 SWAP2 AND OR DUP2 SSTORE SWAP1 DUP5 ADD MLOAD SWAP2 DUP2 ADD SWAP2 SWAP1 SWAP2 SSTORE SWAP1 DUP3 ADD MLOAD PUSH1 0x2 DUP3 ADD SWAP1 PUSH2 0x1142 SWAP1 DUP3 PUSH2 0x3284 JUMP JUMPDEST POP PUSH1 0x60 DUP3 ADD MLOAD PUSH1 0x3 DUP3 ADD DUP1 SLOAD SWAP2 ISZERO ISZERO PUSH1 0xFF NOT SWAP3 DUP4 AND OR SWAP1 SSTORE PUSH1 0x80 DUP4 ADD MLOAD PUSH1 0x4 DUP4 ADD SSTORE PUSH1 0xA0 SWAP1 SWAP3 ADD MLOAD PUSH1 0x5 SWAP1 SWAP2 ADD SSTORE PUSH1 0x0 DUP3 DUP2 MSTORE PUSH1 0xC PUSH1 0x20 SWAP1 DUP2 MSTORE PUSH1 0x40 DUP1 DUP4 KECCAK256 CALLER DUP5 MSTORE SWAP1 SWAP2 MSTORE DUP2 KECCAK256 DUP1 SLOAD SWAP1 SWAP3 AND PUSH1 0x1 OR SWAP1 SWAP2 SSTORE PUSH1 0xD DUP1 SLOAD SWAP2 PUSH2 0x11A2 DUP4 PUSH2 0x302E JUMP JUMPDEST SWAP2 SWAP1 POP SSTORE POP DUP5 PUSH1 0x1 PUSH1 0x1 PUSH1 0xA0 SHL SUB AND CALLER PUSH1 0x1 PUSH1 0x1 PUSH1 0xA0 SHL SUB AND DUP3 PUSH32 0x8754D66A328B07857BE590CC17E0BB798E0EC9CB30AC8E5AF7AFD3481D1C6BD DUP8 PUSH1 0x40 MLOAD PUSH2 0x11ED SWAP2 DUP2 MSTORE PUSH1 0x20 ADD SWAP1 JUMP JUMPDEST PUSH1 0x40 MLOAD DUP1 SWAP2 SUB SWAP1 LOG4 JUMPDEST SWAP5 SWAP4 POP POP POP POP JUMP JUMPDEST PUSH1 0x0 SLOAD PUSH2 0x100 SWAP1 DIV PUSH1 0xFF AND ISZERO DUP1 DUP1 ISZERO PUSH2 0x121E JUMPI POP PUSH1 0x0 SLOAD PUSH1 0x1 PUSH1 0xFF SWAP1 SWAP2 AND LT JUMPDEST DUP1 PUSH2 0x1238 JUMPI POP ADDRESS EXTCODESIZE ISZERO DUP1 ISZERO PUSH2 0x1238 JUMPI POP PUSH1 0x0 SLOAD PUSH1 0xFF AND PUSH1 0x1 EQ JUMPDEST PUSH2 0x129B JUMPI PUSH1 0x40 MLOAD PUSH3 0x461BCD PUSH1 0xE5 SHL DUP2 MSTORE PUSH1 0x20 PUSH1 0x4 DUP3 ADD MSTORE PUSH1 0x2E PUSH1 0x24 DUP3 ADD MSTORE PUSH32 0x496E697469616C697A61626C653A20636F6E747261637420697320616C726561 PUSH1 0x44 DUP3 ADD MSTORE PUSH14 0x191E481A5B9A5D1A585B1A5E9959 PUSH1 0x92 SHL PUSH1 0x64 DUP3 ADD MSTORE PUSH1 0x84 ADD PUSH2 0x61D JUMP JUMPDEST PUSH1 0x0 DUP1 SLOAD PUSH1 0xFF NOT AND PUSH1 0x1 OR SWAP1 SSTORE DUP1 ISZERO PUSH2 0x12BE JUMPI PUSH1 0x0 DUP1 SLOAD PUSH2 0xFF00 NOT AND PUSH2 0x100 OR SWAP1 SSTORE JUMPDEST PUSH1 0x0 DUP4 MLOAD GT PUSH2 0x130F JUMPI PUSH1 0x40 MLOAD PUSH3 0x461BCD PUSH1 0xE5 SHL DUP2 MSTORE PUSH1 0x20 PUSH1 0x4 DUP3 ADD MSTORE PUSH1 0x18 PUSH1 0x24 DUP3 ADD MSTORE PUSH32 0x70656C6F206D656E6F7320756D207369676E61746172696F0000000000000000 PUSH1 0x44 DUP3 ADD MSTORE PUSH1 0x64 ADD PUSH2 0x61D JUMP JUMPDEST PUSH1 0x0 DUP3 GT DUP1 ISZERO PUSH2 0x1320 JUMPI POP DUP3 MLOAD DUP3 GT ISZERO JUMPDEST PUSH2 0x135E JUMPI PUSH1 0x40 MLOAD PUSH3 0x461BCD PUSH1 0xE5 SHL DUP2 MSTORE PUSH1 0x20 PUSH1 0x4 DUP3 ADD MSTORE PUSH1 0xF PUSH1 0x24 DUP3 ADD MSTORE PUSH15 0x6C696D69746520696E76616C69646F PUSH1 0x88 SHL PUSH1 0x44 DUP3 ADD MSTORE PUSH1 0x64 ADD PUSH2 0x61D JUMP JUMPDEST PUSH1 0x0 JUMPDEST DUP4 MLOAD DUP2 LT ISZERO PUSH2 0x143E JUMPI PUSH1 0x0 DUP5 DUP3 DUP2 MLOAD DUP2 LT PUSH2 0x137E JUMPI PUSH2 0x137E PUSH2 0x2FD1 JUMP JUMPDEST PUSH1 0x20 MUL PUSH1 0x20 ADD ADD MLOAD SWAP1 POP PUSH1 0x0 PUSH1 0x1 PUSH1 0x1 PUSH1 0xA0 SHL SUB AND DUP2 PUSH1 0x1 PUSH1 0x1 PUSH1 0xA0 SHL SUB AND SUB PUSH2 0x13BA JUMPI PUSH1 0x40 MLOAD PUSH3 0x461BCD PUSH1 0xE5 SHL DUP2 MSTORE PUSH1 0x4 ADD PUSH2 0x61D SWAP1 PUSH2 0x3105 JUMP JUMPDEST PUSH2 0x13C5 PUSH1 0x1 DUP3 PUSH2 0x1F75 JUMP JUMPDEST ISZERO PUSH2 0x141E JUMPI PUSH1 0x40 MLOAD PUSH3 0x461BCD PUSH1 0xE5 SHL DUP2 MSTORE PUSH1 0x20 PUSH1 0x4 DUP3 ADD MSTORE PUSH1 0x24 DUP1 DUP3 ADD MSTORE PUSH32 0x7369676E61746172696F73206E616F20706F64656D20736572206475706C6963 PUSH1 0x44 DUP3 ADD MSTORE PUSH4 0x61646F73 PUSH1 0xE0 SHL PUSH1 0x64 DUP3 ADD MSTORE PUSH1 0x84 ADD PUSH2 0x61D JUMP JUMPDEST PUSH2 0x1429 PUSH1 0x1 DUP3 PUSH2 0x23A3 JUMP JUMPDEST POP POP DUP1 DUP1 PUSH2 0x1436 SWAP1 PUSH2 0x302E JUMP JUMPDEST SWAP2 POP POP PUSH2 0x1361 JUMP JUMPDEST POP DUP2 PUSH1 0x3 DUP2 SWAP1 SSTORE POP PUSH32 0x0 PUSH1 0x1 PUSH1 0x1 PUSH1 0xA0 SHL SUB AND PUSH32 0xA6ED6EF682EA7527C36A1E889BE89152499D204536C76182FC3F413C5A4D836 DUP5 DUP5 PUSH1 0x40 MLOAD PUSH2 0x14A1 SWAP3 SWAP2 SWAP1 PUSH2 0x3344 JUMP JUMPDEST PUSH1 0x40 MLOAD DUP1 SWAP2 SUB SWAP1 LOG2 DUP1 ISZERO PUSH2 0x14EF JUMPI PUSH1 0x0 DUP1 SLOAD PUSH2 0xFF00 NOT AND SWAP1 SSTORE PUSH1 0x40 MLOAD PUSH1 0x1 DUP2 MSTORE PUSH32 0x7F26B83FF96E1F2B6A682F133852F6798A09C465DA95921460CEFB3847402498 SWAP1 PUSH1 0x20 ADD PUSH1 0x40 MLOAD DUP1 SWAP2 SUB SWAP1 LOG1 JUMPDEST POP POP POP JUMP JUMPDEST CALLER ADDRESS EQ PUSH2 0x1513 JUMPI PUSH1 0x40 MLOAD PUSH3 0x461BCD PUSH1 0xE5 SHL DUP2 MSTORE PUSH1 0x4 ADD PUSH2 0x61D SWAP1 PUSH2 0x2F5E JUMP JUMPDEST PUSH1 0x0 DUP2 GT PUSH2 0x1563 JUMPI PUSH1 0x40 MLOAD PUSH3 0x461BCD PUSH1 0xE5 SHL DUP2 MSTORE PUSH1 0x20 PUSH1 0x4 DUP3 ADD MSTORE PUSH1 0x18 PUSH1 0x24 DUP3 ADD MSTORE PUSH32 0x6C696D69746520646576652073657220706F73697469766F0000000000000000 PUSH1 0x44 DUP3 ADD MSTORE PUSH1 0x64 ADD PUSH2 0x61D JUMP JUMPDEST PUSH2 0x156D PUSH1 0x1 PUSH2 0x1F96 JUMP JUMPDEST DUP2 GT ISZERO PUSH2 0x15D2 JUMPI PUSH1 0x40 MLOAD PUSH3 0x461BCD PUSH1 0xE5 SHL DUP2 MSTORE PUSH1 0x20 PUSH1 0x4 DUP3 ADD MSTORE PUSH1 0x2D PUSH1 0x24 DUP3 ADD MSTORE PUSH32 0x6C696D697465206E616F20706F64652065786365646572206E756D65726F2064 PUSH1 0x44 DUP3 ADD MSTORE PUSH13 0x65207369676E61746172696F73 PUSH1 0x98 SHL PUSH1 0x64 DUP3 ADD MSTORE PUSH1 0x84 ADD PUSH2 0x61D JUMP JUMPDEST PUSH1 0x3 DUP2 SWAP1 SSTORE PUSH1 0x40 MLOAD DUP2 DUP2 MSTORE PUSH32 0x6C4CE60FD690E1216286A10B875C5662555F10774484E58142CEDD7A90781BAA SWAP1 PUSH1 0x20 ADD PUSH2 0x1050 JUMP JUMPDEST PUSH1 0x0 PUSH2 0x1614 PUSH1 0x1 DUP4 PUSH2 0x1F75 JUMP JUMPDEST SWAP3 SWAP2 POP POP JUMP JUMPDEST PUSH1 0x60 PUSH1 0x0 PUSH2 0x1628 PUSH1 0x1 PUSH2 0x1F96 JUMP JUMPDEST SWAP1 POP PUSH1 0x0 DUP2 PUSH8 0xFFFFFFFFFFFFFFFF DUP2 GT ISZERO PUSH2 0x1645 JUMPI PUSH2 0x1645 PUSH2 0x2C34 JUMP JUMPDEST PUSH1 0x40 MLOAD SWAP1 DUP1 DUP3 MSTORE DUP1 PUSH1 0x20 MUL PUSH1 0x20 ADD DUP3 ADD PUSH1 0x40 MSTORE DUP1 ISZERO PUSH2 0x166E JUMPI DUP2 PUSH1 0x20 ADD PUSH1 0x20 DUP3 MUL DUP1 CALLDATASIZE DUP4 CALLDATACOPY ADD SWAP1 POP JUMPDEST POP SWAP1 POP PUSH1 0x0 JUMPDEST DUP3 DUP2 LT ISZERO PUSH2 0x16C3 JUMPI PUSH2 0x1687 PUSH1 0x1 DUP3 PUSH2 0x2397 JUMP JUMPDEST DUP3 DUP3 DUP2 MLOAD DUP2 LT PUSH2 0x1699 JUMPI PUSH2 0x1699 PUSH2 0x2FD1 JUMP JUMPDEST PUSH1 0x1 PUSH1 0x1 PUSH1 0xA0 SHL SUB SWAP1 SWAP3 AND PUSH1 0x20 SWAP3 DUP4 MUL SWAP2 SWAP1 SWAP2 ADD SWAP1 SWAP2 ADD MSTORE DUP1 PUSH2 0x16BB DUP2 PUSH2 0x302E JUMP JUMPDEST SWAP2 POP POP PUSH2 0x1674 JUMP JUMPDEST POP SWAP3 SWAP2 POP POP JUMP JUMPDEST PUSH1 0xB PUSH1 0x20 MSTORE PUSH1 0x0 SWAP1 DUP2 MSTORE PUSH1 0x40 SWAP1 KECCAK256 DUP1 SLOAD PUSH1 0x1 DUP3 ADD SLOAD PUSH1 0x2 DUP4 ADD DUP1 SLOAD PUSH1 0x1 PUSH1 0x1 PUSH1 0xA0 SHL SUB SWAP1 SWAP4 AND SWAP4 SWAP2 SWAP3 PUSH2 0x16FC SWAP1 PUSH2 0x31FC JUMP JUMPDEST DUP1 PUSH1 0x1F ADD PUSH1 0x20 DUP1 SWAP2 DIV MUL PUSH1 0x20 ADD PUSH1 0x40 MLOAD SWAP1 DUP2 ADD PUSH1 0x40 MSTORE DUP1 SWAP3 SWAP2 SWAP1 DUP2 DUP2 MSTORE PUSH1 0x20 ADD DUP3 DUP1 SLOAD PUSH2 0x1728 SWAP1 PUSH2 0x31FC JUMP JUMPDEST DUP1 ISZERO PUSH2 0x1775 JUMPI DUP1 PUSH1 0x1F LT PUSH2 0x174A JUMPI PUSH2 0x100 DUP1 DUP4 SLOAD DIV MUL DUP4 MSTORE SWAP2 PUSH1 0x20 ADD SWAP2 PUSH2 0x1775 JUMP JUMPDEST DUP3 ADD SWAP2 SWAP1 PUSH1 0x0 MSTORE PUSH1 0x20 PUSH1 0x0 KECCAK256 SWAP1 JUMPDEST DUP2 SLOAD DUP2 MSTORE SWAP1 PUSH1 0x1 ADD SWAP1 PUSH1 0x20 ADD DUP1 DUP4 GT PUSH2 0x1758 JUMPI DUP3 SWAP1 SUB PUSH1 0x1F AND DUP3 ADD SWAP2 JUMPDEST POP POP POP POP PUSH1 0x3 DUP4 ADD SLOAD PUSH1 0x4 DUP5 ADD SLOAD PUSH1 0x5 SWAP1 SWAP5 ADD SLOAD SWAP3 SWAP4 PUSH1 0xFF SWAP1 SWAP2 AND SWAP3 SWAP1 SWAP2 POP DUP7 JUMP JUMPDEST PUSH1 0x0 PUSH2 0x17A3 PUSH1 0x1 PUSH2 0x1F96 JUMP JUMPDEST SWAP1 POP SWAP1 JUMP JUMPDEST PUSH2 0x17B0 PUSH2 0x1FB5 JUMP JUMPDEST PUSH2 0x17F1 DUP5 DUP5 DUP5 DUP5 DUP1 DUP1 PUSH1 0x1F ADD PUSH1 0x20 DUP1 SWAP2 DIV MUL PUSH1 0x20 ADD PUSH1 0x40 MLOAD SWAP1 DUP2 ADD PUSH1 0x40 MSTORE DUP1 SWAP4 SWAP3 SWAP2 SWAP1 DUP2 DUP2 MSTORE PUSH1 0x20 ADD DUP4 DUP4 DUP1 DUP3 DUP5 CALLDATACOPY PUSH1 0x0 SWAP3 ADD SWAP2 SWAP1 SWAP2 MSTORE POP PUSH2 0x2031 SWAP3 POP POP POP JUMP JUMPDEST POP POP POP POP JUMP JUMPDEST PUSH2 0x1802 PUSH1 0x1 CALLER PUSH2 0x1F75 JUMP JUMPDEST PUSH2 0x181E JUMPI PUSH1 0x40 MLOAD PUSH3 0x461BCD PUSH1 0xE5 SHL DUP2 MSTORE PUSH1 0x4 ADD PUSH2 0x61D SWAP1 PUSH2 0x30DF JUMP JUMPDEST DUP1 PUSH1 0xD SLOAD DUP2 LT PUSH2 0x1864 JUMPI PUSH1 0x40 MLOAD PUSH3 0x461BCD PUSH1 0xE5 SHL DUP2 MSTORE PUSH1 0x20 PUSH1 0x4 DUP3 ADD MSTORE PUSH1 0x11 PUSH1 0x24 DUP3 ADD MSTORE PUSH17 0x1D1E08191BD95CC81B9BDD08195E1A5CDD PUSH1 0x7A SHL PUSH1 0x44 DUP3 ADD MSTORE PUSH1 0x64 ADD PUSH2 0x61D JUMP JUMPDEST PUSH1 0x0 DUP3 DUP2 MSTORE PUSH1 0xB PUSH1 0x20 MSTORE PUSH1 0x40 SWAP1 KECCAK256 PUSH1 0x3 ADD SLOAD DUP3 SWAP1 PUSH1 0xFF AND ISZERO PUSH2 0x18BA JUMPI PUSH1 0x40 MLOAD PUSH3 0x461BCD PUSH1 0xE5 SHL DUP2 MSTORE PUSH1 0x20 PUSH1 0x4 DUP3 ADD MSTORE PUSH1 0xF PUSH1 0x24 DUP3 ADD MSTORE PUSH15 0x7478206A6120657865637574616461 PUSH1 0x88 SHL PUSH1 0x44 DUP3 ADD MSTORE PUSH1 0x64 ADD PUSH2 0x61D JUMP JUMPDEST PUSH1 0x0 DUP4 DUP2 MSTORE PUSH1 0xC PUSH1 0x20 SWAP1 DUP2 MSTORE PUSH1 0x40 DUP1 DUP4 KECCAK256 CALLER DUP5 MSTORE SWAP1 SWAP2 MSTORE SWAP1 KECCAK256 SLOAD DUP4 SWAP1 PUSH1 0xFF AND ISZERO PUSH2 0x1919 JUMPI PUSH1 0x40 MLOAD PUSH3 0x461BCD PUSH1 0xE5 SHL DUP2 MSTORE PUSH1 0x20 PUSH1 0x4 DUP3 ADD MSTORE PUSH1 0x10 PUSH1 0x24 DUP3 ADD MSTORE PUSH16 0x7478206A6120636F6E6669726D616461 PUSH1 0x80 SHL PUSH1 0x44 DUP3 ADD MSTORE PUSH1 0x64 ADD PUSH2 0x61D JUMP JUMPDEST PUSH1 0x0 DUP5 DUP2 MSTORE PUSH1 0xB PUSH1 0x20 MSTORE PUSH1 0x40 DUP2 KECCAK256 PUSH1 0x4 DUP2 ADD DUP1 SLOAD SWAP2 SWAP3 PUSH2 0x1938 DUP4 PUSH2 0x302E JUMP JUMPDEST SWAP1 SWAP2 SSTORE POP POP PUSH1 0x0 DUP6 DUP2 MSTORE PUSH1 0xC PUSH1 0x20 SWAP1 DUP2 MSTORE PUSH1 0x40 DUP1 DUP4 KECCAK256 CALLER DUP1 DUP6 MSTORE SWAP3 MSTORE DUP1 DUP4 KECCAK256 DUP1 SLOAD PUSH1 0xFF NOT AND PUSH1 0x1 OR SWAP1 SSTORE MLOAD SWAP1 SWAP2 DUP8 SWAP2 PUSH32 0x15C2F311C9E0F53B50388279894AEFF029A3457884A6601E924FCA879E12ADCC SWAP2 SWAP1 LOG3 POP POP POP POP POP JUMP JUMPDEST PUSH1 0x0 PUSH32 0x0 PUSH1 0x40 MLOAD PUSH4 0x1AAB3F0D PUSH1 0xE1 SHL DUP2 MSTORE ADDRESS PUSH1 0x4 DUP3 ADD MSTORE PUSH1 0x0 PUSH1 0x24 DUP3 ADD MSTORE PUSH1 0x1 PUSH1 0x1 PUSH1 0xA0 SHL SUB SWAP2 SWAP1 SWAP2 AND SWAP1 PUSH4 0x35567E1A SWAP1 PUSH1 0x44 ADD PUSH1 0x20 PUSH1 0x40 MLOAD DUP1 DUP4 SUB DUP2 DUP7 GAS STATICCALL ISZERO DUP1 ISZERO PUSH2 0x1A02 JUMPI RETURNDATASIZE PUSH1 0x0 DUP1 RETURNDATACOPY RETURNDATASIZE PUSH1 0x0 REVERT JUMPDEST POP POP POP POP PUSH1 0x40 MLOAD RETURNDATASIZE PUSH1 0x1F NOT PUSH1 0x1F DUP3 ADD AND DUP3 ADD DUP1 PUSH1 0x40 MSTORE POP DUP2 ADD SWAP1 PUSH2 0x17A3 SWAP2 SWAP1 PUSH2 0x3366 JUMP JUMPDEST CALLER ADDRESS EQ PUSH2 0x1A45 JUMPI PUSH1 0x40 MLOAD PUSH3 0x461BCD PUSH1 0xE5 SHL DUP2 MSTORE PUSH1 0x4 ADD PUSH2 0x61D SWAP1 PUSH2 0x2F5E JUMP JUMPDEST PUSH3 0x15180 DUP2 LT ISZERO PUSH2 0x1A98 JUMPI PUSH1 0x40 MLOAD PUSH3 0x461BCD PUSH1 0xE5 SHL DUP2 MSTORE PUSH1 0x20 PUSH1 0x4 DUP3 ADD MSTORE PUSH1 0x17 PUSH1 0x24 DUP3 ADD MSTORE PUSH32 0x706572696F646F206D696E696D6F206465203120646961000000000000000000 PUSH1 0x44 DUP3 ADD MSTORE PUSH1 0x64 ADD PUSH2 0x61D JUMP JUMPDEST PUSH3 0x278D00 DUP2 GT ISZERO PUSH2 0x1AEB JUMPI PUSH1 0x40 MLOAD PUSH3 0x461BCD PUSH1 0xE5 SHL DUP2 MSTORE PUSH1 0x20 PUSH1 0x4 DUP3 ADD MSTORE PUSH1 0x19 PUSH1 0x24 DUP3 ADD MSTORE PUSH32 0x706572696F646F206D6178696D6F206465203330206469617300000000000000 PUSH1 0x44 DUP3 ADD MSTORE PUSH1 0x64 ADD PUSH2 0x61D JUMP JUMPDEST PUSH1 0xA DUP2 SWAP1 SSTORE PUSH1 0x40 MLOAD DUP2 DUP2 MSTORE PUSH32 0x473838A0DC7C7E33F7FF6BB6E35C20FD06A63B39CE5CFCBE486DA54DD9B088BE SWAP1 PUSH1 0x20 ADD PUSH2 0x1050 JUMP JUMPDEST CALLER ADDRESS EQ PUSH2 0x1B3F JUMPI PUSH1 0x40 MLOAD PUSH3 0x461BCD PUSH1 0xE5 SHL DUP2 MSTORE PUSH1 0x4 ADD PUSH2 0x61D SWAP1 PUSH2 0x2F5E JUMP JUMPDEST PUSH1 0x1 PUSH1 0x1 PUSH1 0xA0 SHL SUB DUP2 AND PUSH2 0x1B65 JUMPI PUSH1 0x40 MLOAD PUSH3 0x461BCD PUSH1 0xE5 SHL DUP2 MSTORE PUSH1 0x4 ADD PUSH2 0x61D SWAP1 PUSH2 0x3105 JUMP JUMPDEST PUSH2 0x1B70 PUSH1 0x1 DUP3 PUSH2 0x1F75 JUMP JUMPDEST ISZERO PUSH2 0x1BB2 JUMPI PUSH1 0x40 MLOAD PUSH3 0x461BCD PUSH1 0xE5 SHL DUP2 MSTORE PUSH1 0x20 PUSH1 0x4 DUP3 ADD MSTORE PUSH1 0x12 PUSH1 0x24 DUP3 ADD MSTORE PUSH18 0x6A61206520756D207369676E61746172696F PUSH1 0x70 SHL PUSH1 0x44 DUP3 ADD MSTORE PUSH1 0x64 ADD PUSH2 0x61D JUMP JUMPDEST PUSH2 0x1BBD PUSH1 0x1 DUP3 PUSH2 0x23A3 JUMP JUMPDEST POP PUSH1 0x40 MLOAD PUSH1 0x1 PUSH1 0x1 PUSH1 0xA0 SHL SUB DUP3 AND SWAP1 PUSH32 0x47D1C22A25BB3A5D4E481B9B1E6944C2EADE3181A0A20B495ED61D35B5323F24 SWAP1 PUSH1 0x0 SWAP1 LOG2 POP JUMP JUMPDEST PUSH2 0x1C00 PUSH1 0x1 CALLER PUSH2 0x1F75 JUMP JUMPDEST PUSH2 0x1C1C JUMPI PUSH1 0x40 MLOAD PUSH3 0x461BCD PUSH1 0xE5 SHL DUP2 MSTORE PUSH1 0x4 ADD PUSH2 0x61D SWAP1 PUSH2 0x30DF JUMP JUMPDEST DUP1 PUSH1 0xD SLOAD DUP2 LT PUSH2 0x1C62 JUMPI PUSH1 0x40 MLOAD PUSH3 0x461BCD PUSH1 0xE5 SHL DUP2 MSTORE PUSH1 0x20 PUSH1 0x4 DUP3 ADD MSTORE PUSH1 0x11 PUSH1 0x24 DUP3 ADD MSTORE PUSH17 0x1D1E08191BD95CC81B9BDD08195E1A5CDD PUSH1 0x7A SHL PUSH1 0x44 DUP3 ADD MSTORE PUSH1 0x64 ADD PUSH2 0x61D JUMP JUMPDEST PUSH1 0x0 DUP3 DUP2 MSTORE PUSH1 0xB PUSH1 0x20 MSTORE PUSH1 0x40 SWAP1 KECCAK256 PUSH1 0x3 ADD SLOAD DUP3 SWAP1 PUSH1 0xFF AND ISZERO PUSH2 0x1CB8 JUMPI PUSH1 0x40 MLOAD PUSH3 0x461BCD PUSH1 0xE5 SHL DUP2 MSTORE PUSH1 0x20 PUSH1 0x4 DUP3 ADD MSTORE PUSH1 0xF PUSH1 0x24 DUP3 ADD MSTORE PUSH15 0x7478206A6120657865637574616461 PUSH1 0x88 SHL PUSH1 0x44 DUP3 ADD MSTORE PUSH1 0x64 ADD PUSH2 0x61D JUMP JUMPDEST PUSH1 0x0 DUP4 DUP2 MSTORE PUSH1 0xB PUSH1 0x20 MSTORE PUSH1 0x40 SWAP1 KECCAK256 PUSH1 0x3 SLOAD PUSH1 0x4 DUP3 ADD SLOAD LT ISZERO PUSH2 0x1D1C JUMPI PUSH1 0x40 MLOAD PUSH3 0x461BCD PUSH1 0xE5 SHL DUP2 MSTORE PUSH1 0x20 PUSH1 0x4 DUP3 ADD MSTORE PUSH1 0x1A PUSH1 0x24 DUP3 ADD MSTORE PUSH32 0x636F6E6669726D61636F657320696E737566696369656E746573000000000000 PUSH1 0x44 DUP3 ADD MSTORE PUSH1 0x64 ADD PUSH2 0x61D JUMP JUMPDEST PUSH1 0x3 DUP2 ADD DUP1 SLOAD PUSH1 0xFF NOT AND PUSH1 0x1 SWAP1 DUP2 OR SWAP1 SWAP2 SSTORE DUP2 SLOAD SWAP1 DUP3 ADD SLOAD PUSH1 0x2 DUP4 ADD DUP1 SLOAD PUSH2 0x1DD6 SWAP4 PUSH1 0x1 PUSH1 0x1 PUSH1 0xA0 SHL SUB AND SWAP3 SWAP2 SWAP1 PUSH2 0x1D53 SWAP1 PUSH2 0x31FC JUMP JUMPDEST DUP1 PUSH1 0x1F ADD PUSH1 0x20 DUP1 SWAP2 DIV MUL PUSH1 0x20 ADD PUSH1 0x40 MLOAD SWAP1 DUP2 ADD PUSH1 0x40 MSTORE DUP1 SWAP3 SWAP2 SWAP1 DUP2 DUP2 MSTORE PUSH1 0x20 ADD DUP3 DUP1 SLOAD PUSH2 0x1D7F SWAP1 PUSH2 0x31FC JUMP JUMPDEST DUP1 ISZERO PUSH2 0x1DCC JUMPI DUP1 PUSH1 0x1F LT PUSH2 0x1DA1 JUMPI PUSH2 0x100 DUP1 DUP4 SLOAD DIV MUL DUP4 MSTORE SWAP2 PUSH1 0x20 ADD SWAP2 PUSH2 0x1DCC JUMP JUMPDEST DUP3 ADD SWAP2 SWAP1 PUSH1 0x0 MSTORE PUSH1 0x20 PUSH1 0x0 KECCAK256 SWAP1 JUMPDEST DUP2 SLOAD DUP2 MSTORE SWAP1 PUSH1 0x1 ADD SWAP1 PUSH1 0x20 ADD DUP1 DUP4 GT PUSH2 0x1DAF JUMPI DUP3 SWAP1 SUB PUSH1 0x1F AND DUP3 ADD SWAP2 JUMPDEST POP POP POP POP POP PUSH2 0x2031 JUMP JUMPDEST PUSH1 0x40 MLOAD CALLER SWAP1 DUP6 SWAP1 PUSH32 0xEFC13BDCF58F184EA7CAE26B499FB33B539E01D0197CEA456F3ADA289B8CF19B SWAP1 PUSH1 0x0 SWAP1 LOG3 POP POP POP POP JUMP JUMPDEST PUSH2 0x1E14 PUSH1 0x1 CALLER PUSH2 0x1F75 JUMP JUMPDEST PUSH2 0x1E30 JUMPI PUSH1 0x40 MLOAD PUSH3 0x461BCD PUSH1 0xE5 SHL DUP2 MSTORE PUSH1 0x4 ADD PUSH2 0x61D SWAP1 PUSH2 0x30DF JUMP JUMPDEST PUSH1 0x5 SLOAD PUSH2 0x1E7F JUMPI PUSH1 0x40 MLOAD PUSH3 0x461BCD PUSH1 0xE5 SHL DUP2 MSTORE PUSH1 0x20 PUSH1 0x4 DUP3 ADD MSTORE PUSH1 0x1C PUSH1 0x24 DUP3 ADD MSTORE PUSH32 0x6E656E68756D6120736F6C696369746163616F2070656E64656E746500000000 PUSH1 0x44 DUP3 ADD MSTORE PUSH1 0x64 ADD PUSH2 0x61D JUMP JUMPDEST CALLER PUSH1 0x0 SWAP1 DUP2 MSTORE PUSH1 0x7 PUSH1 0x20 MSTORE PUSH1 0x40 SWAP1 KECCAK256 SLOAD PUSH1 0xFF AND ISZERO PUSH2 0x1ECD JUMPI PUSH1 0x40 MLOAD PUSH3 0x461BCD PUSH1 0xE5 SHL DUP2 MSTORE PUSH1 0x20 PUSH1 0x4 DUP3 ADD MSTORE PUSH1 0xB PUSH1 0x24 DUP3 ADD MSTORE PUSH11 0x6A61206170726F7661646F PUSH1 0xA8 SHL PUSH1 0x44 DUP3 ADD MSTORE PUSH1 0x64 ADD PUSH2 0x61D JUMP JUMPDEST PUSH1 0x9 SLOAD PUSH1 0xFF AND ISZERO PUSH2 0x1F1B JUMPI PUSH1 0x40 MLOAD PUSH3 0x461BCD PUSH1 0xE5 SHL DUP2 MSTORE PUSH1 0x20 PUSH1 0x4 DUP3 ADD MSTORE PUSH1 0x18 PUSH1 0x24 DUP3 ADD MSTORE PUSH24 0x726563757065726163616F206A6120657865637574616461 PUSH1 0x40 SHL PUSH1 0x44 DUP3 ADD MSTORE PUSH1 0x64 ADD PUSH2 0x61D JUMP JUMPDEST CALLER PUSH1 0x0 SWAP1 DUP2 MSTORE PUSH1 0x7 PUSH1 0x20 MSTORE PUSH1 0x40 DUP2 KECCAK256 DUP1 SLOAD PUSH1 0xFF NOT AND PUSH1 0x1 OR SWAP1 SSTORE PUSH1 0x8 DUP1 SLOAD SWAP2 PUSH2 0x1F43 DUP4 PUSH2 0x302E JUMP JUMPDEST SWAP1 SWAP2 SSTORE POP POP PUSH1 0x40 MLOAD CALLER SWAP1 PUSH32 0x47032C9DBD3001AB3B46AA359314884F3F192D251EDA3B26F0BE4CFFD76D39C5 SWAP1 PUSH1 0x0 SWAP1 LOG2 JUMP JUMPDEST PUSH1 0x1 PUSH1 0x1 PUSH1 0xA0 SHL SUB AND PUSH1 0x0 SWAP1 DUP2 MSTORE PUSH1 0x1 SWAP2 SWAP1 SWAP2 ADD PUSH1 0x20 MSTORE PUSH1 0x40 SWAP1 KECCAK256 SLOAD ISZERO ISZERO SWAP1 JUMP JUMPDEST PUSH1 0x0 PUSH2 0x1614 DUP3 SLOAD SWAP1 JUMP JUMPDEST PUSH1 0x0 PUSH2 0xA07 DUP4 PUSH1 0x1 PUSH1 0x1 PUSH1 0xA0 SHL SUB DUP5 AND PUSH2 0x23B8 JUMP JUMPDEST CALLER PUSH1 0x1 PUSH1 0x1 PUSH1 0xA0 SHL SUB PUSH32 0x0 AND EQ DUP1 PUSH2 0x1FEB JUMPI POP CALLER ADDRESS EQ JUMPDEST PUSH2 0x202F JUMPI PUSH1 0x40 MLOAD PUSH3 0x461BCD PUSH1 0xE5 SHL DUP2 MSTORE PUSH1 0x20 PUSH1 0x4 DUP3 ADD MSTORE PUSH1 0x15 PUSH1 0x24 DUP3 ADD MSTORE PUSH21 0x636F6E74613A206E616F206175746F72697A61646F PUSH1 0x58 SHL PUSH1 0x44 DUP3 ADD MSTORE PUSH1 0x64 ADD PUSH2 0x61D JUMP JUMPDEST JUMP JUMPDEST PUSH1 0x0 DUP1 DUP5 PUSH1 0x1 PUSH1 0x1 PUSH1 0xA0 SHL SUB AND DUP5 DUP5 PUSH1 0x40 MLOAD PUSH2 0x204D SWAP2 SWAP1 PUSH2 0x337F JUMP JUMPDEST PUSH1 0x0 PUSH1 0x40 MLOAD DUP1 DUP4 SUB DUP2 DUP6 DUP8 GAS CALL SWAP3 POP POP POP RETURNDATASIZE DUP1 PUSH1 0x0 DUP2 EQ PUSH2 0x208A JUMPI PUSH1 0x40 MLOAD SWAP2 POP PUSH1 0x1F NOT PUSH1 0x3F RETURNDATASIZE ADD AND DUP3 ADD PUSH1 0x40 MSTORE RETURNDATASIZE DUP3 MSTORE RETURNDATASIZE PUSH1 0x0 PUSH1 0x20 DUP5 ADD RETURNDATACOPY PUSH2 0x208F JUMP JUMPDEST PUSH1 0x60 SWAP2 POP JUMPDEST POP SWAP2 POP SWAP2 POP DUP2 PUSH2 0x902 JUMPI DUP1 MLOAD PUSH1 0x20 DUP3 ADD REVERT JUMPDEST CALLER ADDRESS EQ PUSH2 0x9E5 JUMPI PUSH1 0x40 MLOAD PUSH3 0x461BCD PUSH1 0xE5 SHL DUP2 MSTORE PUSH1 0x4 ADD PUSH2 0x61D SWAP1 PUSH2 0x2F5E JUMP JUMPDEST PUSH32 0x4910FDFA16FED3260ED0E7147F7CC6DA11A60208B5B9406D12A635614FFD9143 SLOAD PUSH1 0xFF AND ISZERO PUSH2 0x20F3 JUMPI PUSH2 0x14EF DUP4 PUSH2 0x24AB JUMP JUMPDEST DUP3 PUSH1 0x1 PUSH1 0x1 PUSH1 0xA0 SHL SUB AND PUSH4 0x52D1902D PUSH1 0x40 MLOAD DUP2 PUSH4 0xFFFFFFFF AND PUSH1 0xE0 SHL DUP2 MSTORE PUSH1 0x4 ADD PUSH1 0x20 PUSH1 0x40 MLOAD DUP1 DUP4 SUB DUP2 DUP7 GAS STATICCALL SWAP3 POP POP POP DUP1 ISZERO PUSH2 0x214D JUMPI POP PUSH1 0x40 DUP1 MLOAD PUSH1 0x1F RETURNDATASIZE SWAP1 DUP2 ADD PUSH1 0x1F NOT AND DUP3 ADD SWAP1 SWAP3 MSTORE PUSH2 0x214A SWAP2 DUP2 ADD SWAP1 PUSH2 0x3366 JUMP JUMPDEST PUSH1 0x1 JUMPDEST PUSH2 0x21B0 JUMPI PUSH1 0x40 MLOAD PUSH3 0x461BCD PUSH1 0xE5 SHL DUP2 MSTORE PUSH1 0x20 PUSH1 0x4 DUP3 ADD MSTORE PUSH1 0x2E PUSH1 0x24 DUP3 ADD MSTORE PUSH32 0x45524331393637557067726164653A206E657720696D706C656D656E74617469 PUSH1 0x44 DUP3 ADD MSTORE PUSH14 0x6F6E206973206E6F742055555053 PUSH1 0x90 SHL PUSH1 0x64 DUP3 ADD MSTORE PUSH1 0x84 ADD PUSH2 0x61D JUMP JUMPDEST PUSH1 0x0 DUP1 MLOAD PUSH1 0x20 PUSH2 0x33DB DUP4 CODECOPY DUP2 MLOAD SWAP2 MSTORE DUP2 EQ PUSH2 0x221F JUMPI PUSH1 0x40 MLOAD PUSH3 0x461BCD PUSH1 0xE5 SHL DUP2 MSTORE PUSH1 0x20 PUSH1 0x4 DUP3 ADD MSTORE PUSH1 0x29 PUSH1 0x24 DUP3 ADD MSTORE PUSH32 0x45524331393637557067726164653A20756E737570706F727465642070726F78 PUSH1 0x44 DUP3 ADD MSTORE PUSH9 0x1A58589B1955555251 PUSH1 0xBA SHL PUSH1 0x64 DUP3 ADD MSTORE PUSH1 0x84 ADD PUSH2 0x61D JUMP JUMPDEST POP PUSH2 0x14EF DUP4 DUP4 DUP4 PUSH2 0x2547 JUMP JUMPDEST CALLER PUSH1 0x1 PUSH1 0x1 PUSH1 0xA0 SHL SUB PUSH32 0x0 AND EQ PUSH2 0x202F JUMPI PUSH1 0x40 MLOAD PUSH3 0x461BCD PUSH1 0xE5 SHL DUP2 MSTORE PUSH1 0x20 PUSH1 0x4 DUP3 ADD MSTORE PUSH1 0x1C PUSH1 0x24 DUP3 ADD MSTORE PUSH32 0x6163636F756E743A206E6F742066726F6D20456E747279506F696E7400000000 PUSH1 0x44 DUP3 ADD MSTORE PUSH1 0x64 ADD PUSH2 0x61D JUMP JUMPDEST PUSH32 0x19457468657265756D205369676E6564204D6573736167653A0A333200000000 PUSH1 0x0 SWAP1 DUP2 MSTORE PUSH1 0x1C DUP3 SWAP1 MSTORE PUSH1 0x3C DUP2 KECCAK256 PUSH1 0x0 PUSH2 0x2322 PUSH2 0x22E5 PUSH2 0x140 DUP8 ADD DUP8 PUSH2 0x2FE7 JUMP JUMPDEST DUP1 DUP1 PUSH1 0x1F ADD PUSH1 0x20 DUP1 SWAP2 DIV MUL PUSH1 0x20 ADD PUSH1 0x40 MLOAD SWAP1 DUP2 ADD PUSH1 0x40 MSTORE DUP1 SWAP4 SWAP3 SWAP2 SWAP1 DUP2 DUP2 MSTORE PUSH1 0x20 ADD DUP4 DUP4 DUP1 DUP3 DUP5 CALLDATACOPY PUSH1 0x0 SWAP3 ADD SWAP2 SWAP1 SWAP2 MSTORE POP DUP7 SWAP4 SWAP3 POP POP PUSH2 0x256C SWAP1 POP JUMP JUMPDEST SWAP1 POP PUSH2 0x232F PUSH1 0x1 DUP3 PUSH2 0x1F75 JUMP JUMPDEST ISZERO PUSH2 0x233F JUMPI PUSH1 0x0 SWAP3 POP POP POP PUSH2 0x1614 JUMP JUMPDEST POP PUSH1 0x1 SWAP5 SWAP4 POP POP POP POP JUMP JUMPDEST DUP1 ISZERO PUSH2 0x9E5 JUMPI PUSH1 0x40 MLOAD PUSH1 0x0 SWAP1 CALLER SWAP1 PUSH1 0x0 NOT SWAP1 DUP5 SWAP1 DUP5 DUP2 DUP2 DUP2 DUP6 DUP9 DUP9 CALL SWAP4 POP POP POP POP RETURNDATASIZE DUP1 PUSH1 0x0 DUP2 EQ PUSH2 0x902 JUMPI PUSH1 0x40 MLOAD SWAP2 POP PUSH1 0x1F NOT PUSH1 0x3F RETURNDATASIZE ADD AND DUP3 ADD PUSH1 0x40 MSTORE RETURNDATASIZE DUP3 MSTORE RETURNDATASIZE PUSH1 0x0 PUSH1 0x20 DUP5 ADD RETURNDATACOPY PUSH2 0x902 JUMP JUMPDEST PUSH1 0x0 PUSH2 0xA07 DUP4 DUP4 PUSH2 0x2590 JUMP JUMPDEST PUSH1 0x0 PUSH2 0xA07 DUP4 PUSH1 0x1 PUSH1 0x1 PUSH1 0xA0 SHL SUB DUP5 AND PUSH2 0x25BA JUMP JUMPDEST PUSH1 0x0 DUP2 DUP2 MSTORE PUSH1 0x1 DUP4 ADD PUSH1 0x20 MSTORE PUSH1 0x40 DUP2 KECCAK256 SLOAD DUP1 ISZERO PUSH2 0x24A1 JUMPI PUSH1 0x0 PUSH2 0x23DC PUSH1 0x1 DUP4 PUSH2 0x2FBE JUMP JUMPDEST DUP6 SLOAD SWAP1 SWAP2 POP PUSH1 0x0 SWAP1 PUSH2 0x23F0 SWAP1 PUSH1 0x1 SWAP1 PUSH2 0x2FBE JUMP JUMPDEST SWAP1 POP DUP2 DUP2 EQ PUSH2 0x2455 JUMPI PUSH1 0x0 DUP7 PUSH1 0x0 ADD DUP3 DUP2 SLOAD DUP2 LT PUSH2 0x2410 JUMPI PUSH2 0x2410 PUSH2 0x2FD1 JUMP JUMPDEST SWAP1 PUSH1 0x0 MSTORE PUSH1 0x20 PUSH1 0x0 KECCAK256 ADD SLOAD SWAP1 POP DUP1 DUP8 PUSH1 0x0 ADD DUP5 DUP2 SLOAD DUP2 LT PUSH2 0x2433 JUMPI PUSH2 0x2433 PUSH2 0x2FD1 JUMP JUMPDEST PUSH1 0x0 SWAP2 DUP3 MSTORE PUSH1 0x20 DUP1 DUP4 KECCAK256 SWAP1 SWAP2 ADD SWAP3 SWAP1 SWAP3 SSTORE SWAP2 DUP3 MSTORE PUSH1 0x1 DUP9 ADD SWAP1 MSTORE PUSH1 0x40 SWAP1 KECCAK256 DUP4 SWAP1 SSTORE JUMPDEST DUP6 SLOAD DUP7 SWAP1 DUP1 PUSH2 0x2466 JUMPI PUSH2 0x2466 PUSH2 0x339B JUMP JUMPDEST PUSH1 0x1 SWAP1 SUB DUP2 DUP2 SWAP1 PUSH1 0x0 MSTORE PUSH1 0x20 PUSH1 0x0 KECCAK256 ADD PUSH1 0x0 SWAP1 SSTORE SWAP1 SSTORE DUP6 PUSH1 0x1 ADD PUSH1 0x0 DUP7 DUP2 MSTORE PUSH1 0x20 ADD SWAP1 DUP2 MSTORE PUSH1 0x20 ADD PUSH1 0x0 KECCAK256 PUSH1 0x0 SWAP1 SSTORE PUSH1 0x1 SWAP4 POP POP POP POP PUSH2 0x1614 JUMP JUMPDEST PUSH1 0x0 SWAP2 POP POP PUSH2 0x1614 JUMP JUMPDEST PUSH1 0x1 PUSH1 0x1 PUSH1 0xA0 SHL SUB DUP2 AND EXTCODESIZE PUSH2 0x2518 JUMPI PUSH1 0x40 MLOAD PUSH3 0x461BCD PUSH1 0xE5 SHL DUP2 MSTORE PUSH1 0x20 PUSH1 0x4 DUP3 ADD MSTORE PUSH1 0x2D PUSH1 0x24 DUP3 ADD MSTORE PUSH32 0x455243313936373A206E657720696D706C656D656E746174696F6E206973206E PUSH1 0x44 DUP3 ADD MSTORE PUSH13 0x1BDD08184818DBDB9D1C9858DD PUSH1 0x9A SHL PUSH1 0x64 DUP3 ADD MSTORE PUSH1 0x84 ADD PUSH2 0x61D JUMP JUMPDEST PUSH1 0x0 DUP1 MLOAD PUSH1 0x20 PUSH2 0x33DB DUP4 CODECOPY DUP2 MLOAD SWAP2 MSTORE DUP1 SLOAD PUSH1 0x1 PUSH1 0x1 PUSH1 0xA0 SHL SUB NOT AND PUSH1 0x1 PUSH1 0x1 PUSH1 0xA0 SHL SUB SWAP3 SWAP1 SWAP3 AND SWAP2 SWAP1 SWAP2 OR SWAP1 SSTORE JUMP JUMPDEST PUSH2 0x2550 DUP4 PUSH2 0x2609 JUMP JUMPDEST PUSH1 0x0 DUP3 MLOAD GT DUP1 PUSH2 0x255D JUMPI POP DUP1 JUMPDEST ISZERO PUSH2 0x14EF JUMPI PUSH2 0x17F1 DUP4 DUP4 PUSH2 0x2649 JUMP JUMPDEST PUSH1 0x0 DUP1 PUSH1 0x0 PUSH2 0x257B DUP6 DUP6 PUSH2 0x266E JUMP JUMPDEST SWAP2 POP SWAP2 POP PUSH2 0x2588 DUP2 PUSH2 0x26B3 JUMP JUMPDEST POP SWAP4 SWAP3 POP POP POP JUMP JUMPDEST PUSH1 0x0 DUP3 PUSH1 0x0 ADD DUP3 DUP2 SLOAD DUP2 LT PUSH2 0x25A7 JUMPI PUSH2 0x25A7 PUSH2 0x2FD1 JUMP JUMPDEST SWAP1 PUSH1 0x0 MSTORE PUSH1 0x20 PUSH1 0x0 KECCAK256 ADD SLOAD SWAP1 POP SWAP3 SWAP2 POP POP JUMP JUMPDEST PUSH1 0x0 DUP2 DUP2 MSTORE PUSH1 0x1 DUP4 ADD PUSH1 0x20 MSTORE PUSH1 0x40 DUP2 KECCAK256 SLOAD PUSH2 0x2601 JUMPI POP DUP2 SLOAD PUSH1 0x1 DUP2 DUP2 ADD DUP5 SSTORE PUSH1 0x0 DUP5 DUP2 MSTORE PUSH1 0x20 DUP1 DUP3 KECCAK256 SWAP1 SWAP4 ADD DUP5 SWAP1 SSTORE DUP5 SLOAD DUP5 DUP3 MSTORE DUP3 DUP7 ADD SWAP1 SWAP4 MSTORE PUSH1 0x40 SWAP1 KECCAK256 SWAP2 SWAP1 SWAP2 SSTORE PUSH2 0x1614 JUMP JUMPDEST POP PUSH1 0x0 PUSH2 0x1614 JUMP JUMPDEST PUSH2 0x2612 DUP2 PUSH2 0x24AB JUMP JUMPDEST PUSH1 0x40 MLOAD PUSH1 0x1 PUSH1 0x1 PUSH1 0xA0 SHL SUB DUP3 AND SWAP1 PUSH32 0xBC7CD75A20EE27FD9ADEBAB32041F755214DBC6BFFA90CC0225B39DA2E5C2D3B SWAP1 PUSH1 0x0 SWAP1 LOG2 POP JUMP JUMPDEST PUSH1 0x60 PUSH2 0xA07 DUP4 DUP4 PUSH1 0x40 MLOAD DUP1 PUSH1 0x60 ADD PUSH1 0x40 MSTORE DUP1 PUSH1 0x27 DUP2 MSTORE PUSH1 0x20 ADD PUSH2 0x33FB PUSH1 0x27 SWAP2 CODECOPY PUSH2 0x27FD JUMP JUMPDEST PUSH1 0x0 DUP1 DUP3 MLOAD PUSH1 0x41 SUB PUSH2 0x26A4 JUMPI PUSH1 0x20 DUP4 ADD MLOAD PUSH1 0x40 DUP5 ADD MLOAD PUSH1 0x60 DUP6 ADD MLOAD PUSH1 0x0 BYTE PUSH2 0x2698 DUP8 DUP3 DUP6 DUP6 PUSH2 0x2875 JUMP JUMPDEST SWAP5 POP SWAP5 POP POP POP POP PUSH2 0x26AC JUMP JUMPDEST POP PUSH1 0x0 SWAP1 POP PUSH1 0x2 JUMPDEST SWAP3 POP SWAP3 SWAP1 POP JUMP JUMPDEST PUSH1 0x0 DUP2 PUSH1 0x4 DUP2 GT ISZERO PUSH2 0x26C7 JUMPI PUSH2 0x26C7 PUSH2 0x33B1 JUMP JUMPDEST SUB PUSH2 0x26CF JUMPI POP JUMP JUMPDEST PUSH1 0x1 DUP2 PUSH1 0x4 DUP2 GT ISZERO PUSH2 0x26E3 JUMPI PUSH2 0x26E3 PUSH2 0x33B1 JUMP JUMPDEST SUB PUSH2 0x2730 JUMPI PUSH1 0x40 MLOAD PUSH3 0x461BCD PUSH1 0xE5 SHL DUP2 MSTORE PUSH1 0x20 PUSH1 0x4 DUP3 ADD MSTORE PUSH1 0x18 PUSH1 0x24 DUP3 ADD MSTORE PUSH32 0x45434453413A20696E76616C6964207369676E61747572650000000000000000 PUSH1 0x44 DUP3 ADD MSTORE PUSH1 0x64 ADD PUSH2 0x61D JUMP JUMPDEST PUSH1 0x2 DUP2 PUSH1 0x4 DUP2 GT ISZERO PUSH2 0x2744 JUMPI PUSH2 0x2744 PUSH2 0x33B1 JUMP JUMPDEST SUB PUSH2 0x2791 JUMPI PUSH1 0x40 MLOAD PUSH3 0x461BCD PUSH1 0xE5 SHL DUP2 MSTORE PUSH1 0x20 PUSH1 0x4 DUP3 ADD MSTORE PUSH1 0x1F PUSH1 0x24 DUP3 ADD MSTORE PUSH32 0x45434453413A20696E76616C6964207369676E6174757265206C656E67746800 PUSH1 0x44 DUP3 ADD MSTORE PUSH1 0x64 ADD PUSH2 0x61D JUMP JUMPDEST PUSH1 0x3 DUP2 PUSH1 0x4 DUP2 GT ISZERO PUSH2 0x27A5 JUMPI PUSH2 0x27A5 PUSH2 0x33B1 JUMP JUMPDEST SUB PUSH2 0x9E5 JUMPI PUSH1 0x40 MLOAD PUSH3 0x461BCD PUSH1 0xE5 SHL DUP2 MSTORE PUSH1 0x20 PUSH1 0x4 DUP3 ADD MSTORE PUSH1 0x22 PUSH1 0x24 DUP3 ADD MSTORE PUSH32 0x45434453413A20696E76616C6964207369676E6174757265202773272076616C PUSH1 0x44 DUP3 ADD MSTORE PUSH2 0x7565 PUSH1 0xF0 SHL PUSH1 0x64 DUP3 ADD MSTORE PUSH1 0x84 ADD PUSH2 0x61D JUMP JUMPDEST PUSH1 0x60 PUSH1 0x0 DUP1 DUP6 PUSH1 0x1 PUSH1 0x1 PUSH1 0xA0 SHL SUB AND DUP6 PUSH1 0x40 MLOAD PUSH2 0x281A SWAP2 SWAP1 PUSH2 0x337F JUMP JUMPDEST PUSH1 0x0 PUSH1 0x40 MLOAD DUP1 DUP4 SUB DUP2 DUP6 GAS DELEGATECALL SWAP2 POP POP RETURNDATASIZE DUP1 PUSH1 0x0 DUP2 EQ PUSH2 0x2855 JUMPI PUSH1 0x40 MLOAD SWAP2 POP PUSH1 0x1F NOT PUSH1 0x3F RETURNDATASIZE ADD AND DUP3 ADD PUSH1 0x40 MSTORE RETURNDATASIZE DUP3 MSTORE RETURNDATASIZE PUSH1 0x0 PUSH1 0x20 DUP5 ADD RETURNDATACOPY PUSH2 0x285A JUMP JUMPDEST PUSH1 0x60 SWAP2 POP JUMPDEST POP SWAP2 POP SWAP2 POP PUSH2 0x286B DUP7 DUP4 DUP4 DUP8 PUSH2 0x2939 JUMP JUMPDEST SWAP7 SWAP6 POP POP POP POP POP POP JUMP JUMPDEST PUSH1 0x0 DUP1 PUSH32 0x7FFFFFFFFFFFFFFFFFFFFFFFFFFFFFFF5D576E7357A4501DDFE92F46681B20A0 DUP4 GT ISZERO PUSH2 0x28AC JUMPI POP PUSH1 0x0 SWAP1 POP PUSH1 0x3 PUSH2 0x2930 JUMP JUMPDEST PUSH1 0x40 DUP1 MLOAD PUSH1 0x0 DUP1 DUP3 MSTORE PUSH1 0x20 DUP3 ADD DUP1 DUP5 MSTORE DUP10 SWAP1 MSTORE PUSH1 0xFF DUP9 AND SWAP3 DUP3 ADD SWAP3 SWAP1 SWAP3 MSTORE PUSH1 0x60 DUP2 ADD DUP7 SWAP1 MSTORE PUSH1 0x80 DUP2 ADD DUP6 SWAP1 MSTORE PUSH1 0x1 SWAP1 PUSH1 0xA0 ADD PUSH1 0x20 PUSH1 0x40 MLOAD PUSH1 0x20 DUP2 SUB SWAP1 DUP1 DUP5 SUB SWAP1 DUP6 GAS STATICCALL ISZERO DUP1 ISZERO PUSH2 0x2900 JUMPI RETURNDATASIZE PUSH1 0x0 DUP1 RETURNDATACOPY RETURNDATASIZE PUSH1 0x0 REVERT JUMPDEST POP POP PUSH1 0x40 MLOAD PUSH1 0x1F NOT ADD MLOAD SWAP2 POP POP PUSH1 0x1 PUSH1 0x1 PUSH1 0xA0 SHL SUB DUP2 AND PUSH2 0x2929 JUMPI PUSH1 0x0 PUSH1 0x1 SWAP3 POP SWAP3 POP POP PUSH2 0x2930 JUMP JUMPDEST SWAP2 POP PUSH1 0x0 SWAP1 POP JUMPDEST SWAP5 POP SWAP5 SWAP3 POP POP POP JUMP JUMPDEST PUSH1 0x60 DUP4 ISZERO PUSH2 0x29A8 JUMPI DUP3 MLOAD PUSH1 0x0 SUB PUSH2 0x29A1 JUMPI PUSH1 0x1 PUSH1 0x1 PUSH1 0xA0 SHL SUB DUP6 AND EXTCODESIZE PUSH2 0x29A1 JUMPI PUSH1 0x40 MLOAD PUSH3 0x461BCD PUSH1 0xE5 SHL DUP2 MSTORE PUSH1 0x20 PUSH1 0x4 DUP3 ADD MSTORE PUSH1 0x1D PUSH1 0x24 DUP3 ADD MSTORE PUSH32 0x416464726573733A2063616C6C20746F206E6F6E2D636F6E7472616374000000 PUSH1 0x44 DUP3 ADD MSTORE PUSH1 0x64 ADD PUSH2 0x61D JUMP JUMPDEST POP DUP2 PUSH2 0x11F6 JUMP JUMPDEST PUSH2 0x11F6 DUP4 DUP4 DUP2 MLOAD ISZERO PUSH2 0x29BD JUMPI DUP2 MLOAD DUP1 DUP4 PUSH1 0x20 ADD REVERT JUMPDEST DUP1 PUSH1 0x40 MLOAD PUSH3 0x461BCD PUSH1 0xE5 SHL DUP2 MSTORE PUSH1 0x4 ADD PUSH2 0x61D SWAP2 SWAP1 PUSH2 0x33C7 JUMP JUMPDEST DUP3 DUP1 SLOAD DUP3 DUP3 SSTORE SWAP1 PUSH1 0x0 MSTORE PUSH1 0x20 PUSH1 0x0 KECCAK256 SWAP1 DUP2 ADD SWAP3 DUP3 ISZERO PUSH2 0x2A2A JUMPI SWAP2 PUSH1 0x20 MUL DUP3 ADD JUMPDEST DUP3 DUP2 GT ISZERO PUSH2 0x2A2A JUMPI DUP2 SLOAD PUSH1 0x1 PUSH1 0x1 PUSH1 0xA0 SHL SUB NOT AND PUSH1 0x1 PUSH1 0x1 PUSH1 0xA0 SHL SUB DUP5 CALLDATALOAD AND OR DUP3 SSTORE PUSH1 0x20 SWAP1 SWAP3 ADD SWAP2 PUSH1 0x1 SWAP1 SWAP2 ADD SWAP1 PUSH2 0x29F7 JUMP JUMPDEST POP PUSH2 0x2A36 SWAP3 SWAP2 POP PUSH2 0x2A3A JUMP JUMPDEST POP SWAP1 JUMP JUMPDEST JUMPDEST DUP1 DUP3 GT ISZERO PUSH2 0x2A36 JUMPI PUSH1 0x0 DUP2 SSTORE PUSH1 0x1 ADD PUSH2 0x2A3B JUMP JUMPDEST DUP1 CALLDATALOAD PUSH1 0x1 PUSH1 0x1 PUSH1 0xA0 SHL SUB DUP2 AND DUP2 EQ PUSH2 0x2A66 JUMPI PUSH1 0x0 DUP1 REVERT JUMPDEST SWAP2 SWAP1 POP JUMP JUMPDEST PUSH1 0x0 PUSH1 0x20 DUP3 DUP5 SUB SLT ISZERO PUSH2 0x2A7D JUMPI PUSH1 0x0 DUP1 REVERT JUMPDEST PUSH2 0xA07 DUP3 PUSH2 0x2A4F JUMP JUMPDEST PUSH1 0x0 DUP2 MLOAD DUP1 DUP5 MSTORE PUSH1 0x20 DUP1 DUP6 ADD SWAP5 POP DUP1 DUP5 ADD PUSH1 0x0 JUMPDEST DUP4 DUP2 LT ISZERO PUSH2 0x2ABF JUMPI DUP2 MLOAD PUSH1 0x1 PUSH1 0x1 PUSH1 0xA0 SHL SUB AND DUP8 MSTORE SWAP6 DUP3 ADD SWAP6 SWAP1 DUP3 ADD SWAP1 PUSH1 0x1 ADD PUSH2 0x2A9A JUMP JUMPDEST POP SWAP5 SWAP6 SWAP5 POP POP POP POP POP JUMP JUMPDEST PUSH1 0xA0 DUP2 MSTORE PUSH1 0x0 PUSH2 0x2ADD PUSH1 0xA0 DUP4 ADD DUP9 PUSH2 0x2A86 JUMP JUMPDEST SWAP1 POP DUP6 PUSH1 0x20 DUP4 ADD MSTORE DUP5 PUSH1 0x40 DUP4 ADD MSTORE DUP4 PUSH1 0x60 DUP4 ADD MSTORE DUP3 ISZERO ISZERO PUSH1 0x80 DUP4 ADD MSTORE SWAP7 SWAP6 POP POP POP POP POP POP JUMP JUMPDEST PUSH1 0x0 DUP1 DUP4 PUSH1 0x1F DUP5 ADD SLT PUSH2 0x2B15 JUMPI PUSH1 0x0 DUP1 REVERT JUMPDEST POP DUP2 CALLDATALOAD PUSH8 0xFFFFFFFFFFFFFFFF DUP2 GT ISZERO PUSH2 0x2B2D JUMPI PUSH1 0x0 DUP1 REVERT JUMPDEST PUSH1 0x20 DUP4 ADD SWAP2 POP DUP4 PUSH1 0x20 DUP3 PUSH1 0x5 SHL DUP6 ADD ADD GT ISZERO PUSH2 0x26AC JUMPI PUSH1 0x0 DUP1 REVERT JUMPDEST PUSH1 0x0 DUP1 PUSH1 0x0 DUP1 PUSH1 0x40 DUP6 DUP8 SUB SLT ISZERO PUSH2 0x2B5E JUMPI PUSH1 0x0 DUP1 REVERT JUMPDEST DUP5 CALLDATALOAD PUSH8 0xFFFFFFFFFFFFFFFF DUP1 DUP3 GT ISZERO PUSH2 0x2B76 JUMPI PUSH1 0x0 DUP1 REVERT JUMPDEST PUSH2 0x2B82 DUP9 DUP4 DUP10 ADD PUSH2 0x2B03 JUMP JUMPDEST SWAP1 SWAP7 POP SWAP5 POP PUSH1 0x20 DUP8 ADD CALLDATALOAD SWAP2 POP DUP1 DUP3 GT ISZERO PUSH2 0x2B9B JUMPI PUSH1 0x0 DUP1 REVERT JUMPDEST POP PUSH2 0x2BA8 DUP8 DUP3 DUP9 ADD PUSH2 0x2B03 JUMP JUMPDEST SWAP6 SWAP9 SWAP5 SWAP8 POP SWAP6 POP POP POP POP JUMP JUMPDEST PUSH1 0x0 DUP1 PUSH1 0x40 DUP4 DUP6 SUB SLT ISZERO PUSH2 0x2BC7 JUMPI PUSH1 0x0 DUP1 REVERT JUMPDEST DUP3 CALLDATALOAD SWAP2 POP PUSH2 0x2BD7 PUSH1 0x20 DUP5 ADD PUSH2 0x2A4F JUMP JUMPDEST SWAP1 POP SWAP3 POP SWAP3 SWAP1 POP JUMP JUMPDEST PUSH1 0x0 DUP1 PUSH1 0x0 PUSH1 0x60 DUP5 DUP7 SUB SLT ISZERO PUSH2 0x2BF5 JUMPI PUSH1 0x0 DUP1 REVERT JUMPDEST DUP4 CALLDATALOAD PUSH8 0xFFFFFFFFFFFFFFFF DUP2 GT ISZERO PUSH2 0x2C0C JUMPI PUSH1 0x0 DUP1 REVERT JUMPDEST DUP5 ADD PUSH2 0x160 DUP2 DUP8 SUB SLT ISZERO PUSH2 0x2C1F JUMPI PUSH1 0x0 DUP1 REVERT JUMPDEST SWAP6 PUSH1 0x20 DUP6 ADD CALLDATALOAD SWAP6 POP PUSH1 0x40 SWAP1 SWAP5 ADD CALLDATALOAD SWAP4 SWAP3 POP POP POP JUMP JUMPDEST PUSH4 0x4E487B71 PUSH1 0xE0 SHL PUSH1 0x0 MSTORE PUSH1 0x41 PUSH1 0x4 MSTORE PUSH1 0x24 PUSH1 0x0 REVERT JUMPDEST PUSH1 0x40 MLOAD PUSH1 0x1F DUP3 ADD PUSH1 0x1F NOT AND DUP2 ADD PUSH8 0xFFFFFFFFFFFFFFFF DUP2 GT DUP3 DUP3 LT OR ISZERO PUSH2 0x2C73 JUMPI PUSH2 0x2C73 PUSH2 0x2C34 JUMP JUMPDEST PUSH1 0x40 MSTORE SWAP2 SWAP1 POP JUMP JUMPDEST PUSH1 0x0 DUP1 PUSH1 0x40 DUP4 DUP6 SUB SLT ISZERO PUSH2 0x2C8E JUMPI PUSH1 0x0 DUP1 REVERT JUMPDEST PUSH2 0x2C97 DUP4 PUSH2 0x2A4F JUMP JUMPDEST SWAP2 POP PUSH1 0x20 DUP1 DUP5 ADD CALLDATALOAD PUSH8 0xFFFFFFFFFFFFFFFF DUP1 DUP3 GT ISZERO PUSH2 0x2CB5 JUMPI PUSH1 0x0 DUP1 REVERT JUMPDEST DUP2 DUP7 ADD SWAP2 POP DUP7 PUSH1 0x1F DUP4 ADD SLT PUSH2 0x2CC9 JUMPI PUSH1 0x0 DUP1 REVERT JUMPDEST DUP2 CALLDATALOAD DUP2 DUP2 GT ISZERO PUSH2 0x2CDB JUMPI PUSH2 0x2CDB PUSH2 0x2C34 JUMP JUMPDEST PUSH2 0x2CED PUSH1 0x1F DUP3 ADD PUSH1 0x1F NOT AND DUP6 ADD PUSH2 0x2C4A JUMP JUMPDEST SWAP2 POP DUP1 DUP3 MSTORE DUP8 DUP5 DUP3 DUP6 ADD ADD GT ISZERO PUSH2 0x2D03 JUMPI PUSH1 0x0 DUP1 REVERT JUMPDEST DUP1 DUP5 DUP5 ADD DUP6 DUP5 ADD CALLDATACOPY PUSH1 0x0 DUP5 DUP3 DUP5 ADD ADD MSTORE POP DUP1 SWAP4 POP POP POP POP SWAP3 POP SWAP3 SWAP1 POP JUMP JUMPDEST PUSH1 0x0 DUP1 PUSH1 0x20 DUP4 DUP6 SUB SLT ISZERO PUSH2 0x2D34 JUMPI PUSH1 0x0 DUP1 REVERT JUMPDEST DUP3 CALLDATALOAD PUSH8 0xFFFFFFFFFFFFFFFF DUP2 GT ISZERO PUSH2 0x2D4B JUMPI PUSH1 0x0 DUP1 REVERT JUMPDEST PUSH2 0x2D57 DUP6 DUP3 DUP7 ADD PUSH2 0x2B03 JUMP JUMPDEST SWAP1 SWAP7 SWAP1 SWAP6 POP SWAP4 POP POP POP POP JUMP JUMPDEST PUSH1 0x0 DUP1 PUSH1 0x0 DUP1 PUSH1 0x60 DUP6 DUP8 SUB SLT ISZERO PUSH2 0x2D79 JUMPI PUSH1 0x0 DUP1 REVERT JUMPDEST PUSH2 0x2D82 DUP6 PUSH2 0x2A4F JUMP JUMPDEST SWAP4 POP PUSH1 0x20 DUP6 ADD CALLDATALOAD SWAP3 POP PUSH1 0x40 DUP6 ADD CALLDATALOAD PUSH8 0xFFFFFFFFFFFFFFFF DUP1 DUP3 GT ISZERO PUSH2 0x2DA6 JUMPI PUSH1 0x0 DUP1 REVERT JUMPDEST DUP2 DUP8 ADD SWAP2 POP DUP8 PUSH1 0x1F DUP4 ADD SLT PUSH2 0x2DBA JUMPI PUSH1 0x0 DUP1 REVERT JUMPDEST DUP2 CALLDATALOAD DUP2 DUP2 GT ISZERO PUSH2 0x2DC9 JUMPI PUSH1 0x0 DUP1 REVERT JUMPDEST DUP9 PUSH1 0x20 DUP3 DUP6 ADD ADD GT ISZERO PUSH2 0x2DDB JUMPI PUSH1 0x0 DUP1 REVERT JUMPDEST SWAP6 SWAP9 SWAP5 SWAP8 POP POP PUSH1 0x20 ADD SWAP5 POP POP POP JUMP JUMPDEST PUSH1 0x0 DUP1 PUSH1 0x40 DUP4 DUP6 SUB SLT ISZERO PUSH2 0x2DFD JUMPI PUSH1 0x0 DUP1 REVERT JUMPDEST DUP3 CALLDATALOAD PUSH8 0xFFFFFFFFFFFFFFFF DUP1 DUP3 GT ISZERO PUSH2 0x2E15 JUMPI PUSH1 0x0 DUP1 REVERT JUMPDEST DUP2 DUP6 ADD SWAP2 POP DUP6 PUSH1 0x1F DUP4 ADD SLT PUSH2 0x2E29 JUMPI PUSH1 0x0 DUP1 REVERT JUMPDEST DUP2 CALLDATALOAD PUSH1 0x20 DUP3 DUP3 GT ISZERO PUSH2 0x2E3D JUMPI PUSH2 0x2E3D PUSH2 0x2C34 JUMP JUMPDEST DUP2 PUSH1 0x5 SHL SWAP3 POP PUSH2 0x2E4E DUP2 DUP5 ADD PUSH2 0x2C4A JUMP JUMPDEST DUP3 DUP2 MSTORE SWAP3 DUP5 ADD DUP2 ADD SWAP3 DUP2 DUP2 ADD SWAP1 DUP10 DUP6 GT ISZERO PUSH2 0x2E68 JUMPI PUSH1 0x0 DUP1 REVERT JUMPDEST SWAP5 DUP3 ADD SWAP5 JUMPDEST DUP5 DUP7 LT ISZERO PUSH2 0x2E8D JUMPI PUSH2 0x2E7E DUP7 PUSH2 0x2A4F JUMP JUMPDEST DUP3 MSTORE SWAP5 DUP3 ADD SWAP5 SWAP1 DUP3 ADD SWAP1 PUSH2 0x2E6D JUMP JUMPDEST SWAP10 SWAP8 SWAP1 SWAP2 ADD CALLDATALOAD SWAP8 POP POP POP POP POP POP POP JUMP JUMPDEST PUSH1 0x0 PUSH1 0x20 DUP3 DUP5 SUB SLT ISZERO PUSH2 0x2EAF JUMPI PUSH1 0x0 DUP1 REVERT JUMPDEST POP CALLDATALOAD SWAP2 SWAP1 POP JUMP JUMPDEST PUSH1 0x20 DUP2 MSTORE PUSH1 0x0 PUSH2 0xA07 PUSH1 0x20 DUP4 ADD DUP5 PUSH2 0x2A86 JUMP JUMPDEST PUSH1 0x0 JUMPDEST DUP4 DUP2 LT ISZERO PUSH2 0x2EE4 JUMPI DUP2 DUP2 ADD MLOAD DUP4 DUP3 ADD MSTORE PUSH1 0x20 ADD PUSH2 0x2ECC JUMP JUMPDEST POP POP PUSH1 0x0 SWAP2 ADD MSTORE JUMP JUMPDEST PUSH1 0x0 DUP2 MLOAD DUP1 DUP5 MSTORE PUSH2 0x2F05 DUP2 PUSH1 0x20 DUP7 ADD PUSH1 0x20 DUP7 ADD PUSH2 0x2EC9 JUMP JUMPDEST PUSH1 0x1F ADD PUSH1 0x1F NOT AND SWAP3 SWAP1 SWAP3 ADD PUSH1 0x20 ADD SWAP3 SWAP2 POP POP JUMP JUMPDEST PUSH1 0x1 DUP1 PUSH1 0xA0 SHL SUB DUP8 AND DUP2 MSTORE DUP6 PUSH1 0x20 DUP3 ADD MSTORE PUSH1 0xC0 PUSH1 0x40 DUP3 ADD MSTORE PUSH1 0x0 PUSH2 0x2F40 PUSH1 0xC0 DUP4 ADD DUP8 PUSH2 0x2EED JUMP JUMPDEST SWAP5 ISZERO ISZERO PUSH1 0x60 DUP4 ADD MSTORE POP PUSH1 0x80 DUP2 ADD SWAP3 SWAP1 SWAP3 MSTORE PUSH1 0xA0 SWAP1 SWAP2 ADD MSTORE SWAP4 SWAP3 POP POP POP JUMP JUMPDEST PUSH1 0x20 DUP1 DUP3 MSTORE PUSH1 0x17 SWAP1 DUP3 ADD MSTORE PUSH32 0x6F6E6C7920746865206163636F756E7420697473656C66000000000000000000 PUSH1 0x40 DUP3 ADD MSTORE PUSH1 0x60 ADD SWAP1 JUMP JUMPDEST PUSH4 0x4E487B71 PUSH1 0xE0 SHL PUSH1 0x0 MSTORE PUSH1 0x11 PUSH1 0x4 MSTORE PUSH1 0x24 PUSH1 0x0 REVERT JUMPDEST DUP1 DUP3 ADD DUP1 DUP3 GT ISZERO PUSH2 0x1614 JUMPI PUSH2 0x1614 PUSH2 0x2F95 JUMP JUMPDEST DUP2 DUP2 SUB DUP2 DUP2 GT ISZERO PUSH2 0x1614 JUMPI PUSH2 0x1614 PUSH2 0x2F95 JUMP JUMPDEST PUSH4 0x4E487B71 PUSH1 0xE0 SHL PUSH1 0x0 MSTORE PUSH1 0x32 PUSH1 0x4 MSTORE PUSH1 0x24 PUSH1 0x0 REVERT JUMPDEST PUSH1 0x0 DUP1 DUP4 CALLDATALOAD PUSH1 0x1E NOT DUP5 CALLDATASIZE SUB ADD DUP2 SLT PUSH2 0x2FFE JUMPI PUSH1 0x0 DUP1 REVERT JUMPDEST DUP4 ADD DUP1 CALLDATALOAD SWAP2 POP PUSH8 0xFFFFFFFFFFFFFFFF DUP3 GT ISZERO PUSH2 0x3019 JUMPI PUSH1 0x0 DUP1 REVERT JUMPDEST PUSH1 0x20 ADD SWAP2 POP CALLDATASIZE DUP2 SWAP1 SUB DUP3 SGT ISZERO PUSH2 0x26AC JUMPI PUSH1 0x0 DUP1 REVERT JUMPDEST PUSH1 0x0 PUSH1 0x1 DUP3 ADD PUSH2 0x3040 JUMPI PUSH2 0x3040 PUSH2 0x2F95 JUMP JUMPDEST POP PUSH1 0x1 ADD SWAP1 JUMP JUMPDEST PUSH1 0x20 DUP1 DUP3 MSTORE PUSH1 0x2C SWAP1 DUP3 ADD MSTORE PUSH32 0x46756E6374696F6E206D7573742062652063616C6C6564207468726F75676820 PUSH1 0x40 DUP3 ADD MSTORE PUSH12 0x19195B1959D85D1958D85B1B PUSH1 0xA2 SHL PUSH1 0x60 DUP3 ADD MSTORE PUSH1 0x80 ADD SWAP1 JUMP JUMPDEST PUSH1 0x20 DUP1 DUP3 MSTORE PUSH1 0x2C SWAP1 DUP3 ADD MSTORE PUSH32 0x46756E6374696F6E206D7573742062652063616C6C6564207468726F75676820 PUSH1 0x40 DUP3 ADD MSTORE PUSH12 0x6163746976652070726F7879 PUSH1 0xA0 SHL PUSH1 0x60 DUP3 ADD MSTORE PUSH1 0x80 ADD SWAP1 JUMP JUMPDEST PUSH1 0x20 DUP1 DUP3 MSTORE PUSH1 0xC SWAP1 DUP3 ADD MSTORE PUSH12 0x3737BA10309039B4B3B732B9 PUSH1 0xA1 SHL PUSH1 0x40 DUP3 ADD MSTORE PUSH1 0x60 ADD SWAP1 JUMP JUMPDEST PUSH1 0x20 DUP1 DUP3 MSTORE PUSH1 0x25 SWAP1 DUP3 ADD MSTORE PUSH32 0x7369676E61746172696F206E616F20706F64652073657220656E64657265636F PUSH1 0x40 DUP3 ADD MSTORE PUSH5 0x207A65726F PUSH1 0xD8 SHL PUSH1 0x60 DUP3 ADD MSTORE PUSH1 0x80 ADD SWAP1 JUMP JUMPDEST PUSH1 0x20 DUP1 DUP3 MSTORE DUP2 DUP2 ADD DUP4 SWAP1 MSTORE PUSH1 0x0 SWAP1 DUP5 PUSH1 0x40 DUP5 ADD DUP4 JUMPDEST DUP7 DUP2 LT ISZERO PUSH2 0x318B JUMPI PUSH1 0x1 PUSH1 0x1 PUSH1 0xA0 SHL SUB PUSH2 0x3178 DUP5 PUSH2 0x2A4F JUMP JUMPDEST AND DUP3 MSTORE SWAP2 DUP4 ADD SWAP2 SWAP1 DUP4 ADD SWAP1 PUSH1 0x1 ADD PUSH2 0x315F JUMP JUMPDEST POP SWAP7 SWAP6 POP POP POP POP POP POP JUMP JUMPDEST PUSH1 0x40 DUP2 MSTORE PUSH1 0x0 PUSH2 0x31A9 PUSH1 0x40 DUP4 ADD DUP6 PUSH2 0x2A86 JUMP JUMPDEST PUSH1 0x20 DUP4 DUP3 SUB DUP2 DUP6 ADD MSTORE DUP2 DUP6 SLOAD DUP1 DUP5 MSTORE DUP3 DUP5 ADD SWAP2 POP DUP7 PUSH1 0x0 MSTORE DUP3 PUSH1 0x0 KECCAK256 SWAP4 POP PUSH1 0x0 JUMPDEST DUP2 DUP2 LT ISZERO PUSH2 0x31EF JUMPI DUP5 SLOAD PUSH1 0x1 PUSH1 0x1 PUSH1 0xA0 SHL SUB AND DUP4 MSTORE PUSH1 0x1 SWAP5 DUP6 ADD SWAP5 SWAP3 DUP5 ADD SWAP3 ADD PUSH2 0x31CA JUMP JUMPDEST POP SWAP1 SWAP8 SWAP7 POP POP POP POP POP POP POP JUMP JUMPDEST PUSH1 0x1 DUP2 DUP2 SHR SWAP1 DUP3 AND DUP1 PUSH2 0x3210 JUMPI PUSH1 0x7F DUP3 AND SWAP2 POP JUMPDEST PUSH1 0x20 DUP3 LT DUP2 SUB PUSH2 0x3230 JUMPI PUSH4 0x4E487B71 PUSH1 0xE0 SHL PUSH1 0x0 MSTORE PUSH1 0x22 PUSH1 0x4 MSTORE PUSH1 0x24 PUSH1 0x0 REVERT JUMPDEST POP SWAP2 SWAP1 POP JUMP JUMPDEST PUSH1 0x1F DUP3 GT ISZERO PUSH2 0x14EF JUMPI PUSH1 0x0 DUP2 DUP2 MSTORE PUSH1 0x20 DUP2 KECCAK256 PUSH1 0x1F DUP6 ADD PUSH1 0x5 SHR DUP2 ADD PUSH1 0x20 DUP7 LT ISZERO PUSH2 0x325D JUMPI POP DUP1 JUMPDEST PUSH1 0x1F DUP6 ADD PUSH1 0x5 SHR DUP3 ADD SWAP2 POP JUMPDEST DUP2 DUP2 LT ISZERO PUSH2 0x327C JUMPI DUP3 DUP2 SSTORE PUSH1 0x1 ADD PUSH2 0x3269 JUMP JUMPDEST POP POP POP POP POP POP JUMP JUMPDEST DUP2 MLOAD PUSH8 0xFFFFFFFFFFFFFFFF DUP2 GT ISZERO PUSH2 0x329E JUMPI PUSH2 0x329E PUSH2 0x2C34 JUMP JUMPDEST PUSH2 0x32B2 DUP2 PUSH2 0x32AC DUP5 SLOAD PUSH2 0x31FC JUMP JUMPDEST DUP5 PUSH2 0x3236 JUMP JUMPDEST PUSH1 0x20 DUP1 PUSH1 0x1F DUP4 GT PUSH1 0x1 DUP2 EQ PUSH2 0x32E7 JUMPI PUSH1 0x0 DUP5 ISZERO PUSH2 0x32CF JUMPI POP DUP6 DUP4 ADD MLOAD JUMPDEST PUSH1 0x0 NOT PUSH1 0x3 DUP7 SWAP1 SHL SHR NOT AND PUSH1 0x1 DUP6 SWAP1 SHL OR DUP6 SSTORE PUSH2 0x327C JUMP JUMPDEST PUSH1 0x0 DUP6 DUP2 MSTORE PUSH1 0x20 DUP2 KECCAK256 PUSH1 0x1F NOT DUP7 AND SWAP2 JUMPDEST DUP3 DUP2 LT ISZERO PUSH2 0x3316 JUMPI DUP9 DUP7 ADD MLOAD DUP3 SSTORE SWAP5 DUP5 ADD SWAP5 PUSH1 0x1 SWAP1 SWAP2 ADD SWAP1 DUP5 ADD PUSH2 0x32F7 JUMP JUMPDEST POP DUP6 DUP3 LT ISZERO PUSH2 0x3334 JUMPI DUP8 DUP6 ADD MLOAD PUSH1 0x0 NOT PUSH1 0x3 DUP9 SWAP1 SHL PUSH1 0xF8 AND SHR NOT AND DUP2 SSTORE JUMPDEST POP POP POP POP POP PUSH1 0x1 SWAP1 DUP2 SHL ADD SWAP1 SSTORE POP JUMP JUMPDEST PUSH1 0x40 DUP2 MSTORE PUSH1 0x0 PUSH2 0x3357 PUSH1 0x40 DUP4 ADD DUP6 PUSH2 0x2A86 JUMP JUMPDEST SWAP1 POP DUP3 PUSH1 0x20 DUP4 ADD MSTORE SWAP4 SWAP3 POP POP POP JUMP JUMPDEST PUSH1 0x0 PUSH1 0x20 DUP3 DUP5 SUB SLT ISZERO PUSH2 0x3378 JUMPI PUSH1 0x0 DUP1 REVERT JUMPDEST POP MLOAD SWAP2 SWAP1 POP JUMP JUMPDEST PUSH1 0x0 DUP3 MLOAD PUSH2 0x3391 DUP2 DUP5 PUSH1 0x20 DUP8 ADD PUSH2 0x2EC9 JUMP JUMPDEST SWAP2 SWAP1 SWAP2 ADD SWAP3 SWAP2 POP POP JUMP JUMPDEST PUSH4 0x4E487B71 PUSH1 0xE0 SHL PUSH1 0x0 MSTORE PUSH1 0x31 PUSH1 0x4 MSTORE PUSH1 0x24 PUSH1 0x0 REVERT JUMPDEST PUSH4 0x4E487B71 PUSH1 0xE0 SHL PUSH1 0x0 MSTORE PUSH1 0x21 PUSH1 0x4 MSTORE PUSH1 0x24 PUSH1 0x0 REVERT JUMPDEST PUSH1 0x20 DUP2 MSTORE PUSH1 0x0 PUSH2 0xA07 PUSH1 0x20 DUP4 ADD DUP5 PUSH2 0x2EED JUMP INVALID CALLDATASIZE ADDMOD SWAP5 LOG1 EXTCODESIZE LOG1 LOG3 0x21 MOD PUSH8 0xC828492DB98DCA3E KECCAK256 PUSH23 0xCC3735A920A3CA505D382BBC416464726573733A206C6F PUSH24 0x2D6C6576656C2064656C65676174652063616C6C20666169 PUSH13 0x6564A2646970667358221220B7 0x4A 0xB0 SWAP12 PUSH19 0x6E7D01392274EFABA9D44F9336EA04578D6103 PUSH32 0x97550E02F237FF64736F6C634300081100330000000000000000000000000000 "},"methodIdentifiers":{"accountImplementation()":"11464fbe","createAccount(address[],uint256,uint256)":"bdbce807","getAddress(address[],uint256,uint256)":"7afc12ff"}}}}}