{
  "_format": "hh-sol-artifact-1",
  "contractName": "DeFiInsuranceAccountImpl",
  "sourceName": "contracts/DeFiInsuranceAccountFactory.sol",
  "abi": [
    {
      "inputs": [
        {
          "internalType": "contract IEntryPoint",
          "name": "anEntryPoint",
          "type": "address"
        }
      ],
      "stateMutability": "nonpayable",
      "type": "constructor"
    },
    {
      "anonymous": false,
      "inputs": [
        {
          "indexed": false,
          "internalType": "address",
          "name": "previousAdmin",
          "type": "address"
        },
        {
          "indexed": false,
          "internalType": "address",
          "name": "newAdmin",
          "type": "address"
        }
      ],
      "name": "AdminChanged",
      "type": "event"
    },
    {
      "anonymous": false,
      "inputs": [
        {
          "indexed": true,
          "internalType": "address",
          "name": "beacon",
          "type": "address"
        }
      ],
      "name": "BeaconUpgraded",
      "type": "event"
    },
    {
      "anonymous": false,
      "inputs": [
        {
          "indexed": false,
          "internalType": "uint256",
          "name": "amount",
          "type": "uint256"
        }
      ],
      "name": "DepositReceived",
      "type": "event"
    },
    {
      "anonymous": false,
      "inputs": [
        {
          "indexed": false,
          "internalType": "uint8",
          "name": "version",
          "type": "uint8"
        }
      ],
      "name": "Initialized",
      "type": "event"
    },
    {
      "anonymous": false,
      "inputs": [
        {
          "indexed": true,
          "internalType": "address",
          "name": "owner",
          "type": "address"
        },
        {
          "indexed": true,
          "internalType": "address",
          "name": "oracle",
          "type": "address"
        }
      ],
      "name": "InsuranceAccountInitialized",
      "type": "event"
    },
    {
      "anonymous": false,
      "inputs": [
        {
          "indexed": false,
          "internalType": "uint256",
          "name": "timestamp",
          "type": "uint256"
        },
        {
          "indexed": false,
          "internalType": "uint256",
          "name": "price",
          "type": "uint256"
        },
        {
          "indexed": false,
          "internalType": "uint256",
          "name": "amount",
          "type": "uint256"
        }
      ],
      "name": "PositionLiquidated",
      "type": "event"
    },
    {
      "anonymous": false,
      "inputs": [
        {
          "indexed": true,
          "internalType": "address",
          "name": "newDestination",
          "type": "address"
        }
      ],
      "name": "RescueDestinationChanged",
      "type": "event"
    },
    {
      "anonymous": false,
      "inputs": [
        {
          "indexed": false,
          "internalType": "uint256",
          "name": "triggerPrice",
          "type": "uint256"
        }
      ],
      "name": "TriggerPriceSet",
      "type": "event"
    },
    {
      "anonymous": false,
      "inputs": [
        {
          "indexed": true,
          "internalType": "address",
          "name": "implementation",
          "type": "address"
        }
      ],
      "name": "Upgraded",
      "type": "event"
    },
    {
      "inputs": [],
      "name": "PERCENTAGE_BASE",
      "outputs": [
        {
          "internalType": "uint256",
          "name": "",
          "type": "uint256"
        }
      ],
      "stateMutability": "view",
      "type": "function"
    },
    {
      "inputs": [],
      "name": "TRIGGER_PERCENTAGE",
      "outputs": [
        {
          "internalType": "uint256",
          "name": "",
          "type": "uint256"
        }
      ],
      "stateMutability": "view",
      "type": "function"
    },
    {
      "inputs": [],
      "name": "canBeLiquidated",
      "outputs": [
        {
          "internalType": "bool",
          "name": "canLiquidate",
          "type": "bool"
        },
        {
          "internalType": "uint256",
          "name": "currentPrice",
          "type": "uint256"
        }
      ],
      "stateMutability": "view",
      "type": "function"
    },
    {
      "inputs": [],
      "name": "checkAndExecuteLiquidation",
      "outputs": [
        {
          "internalType": "bool",
          "name": "",
          "type": "bool"
        }
      ],
      "stateMutability": "nonpayable",
      "type": "function"
    },
    {
      "inputs": [],
      "name": "deposit",
      "outputs": [],
      "stateMutability": "payable",
      "type": "function"
    },
    {
      "inputs": [],
      "name": "depositAmount",
      "outputs": [
        {
          "internalType": "uint256",
          "name": "",
          "type": "uint256"
        }
      ],
      "stateMutability": "view",
      "type": "function"
    },
    {
      "inputs": [],
      "name": "entryPoint",
      "outputs": [
        {
          "internalType": "contract IEntryPoint",
          "name": "",
          "type": "address"
        }
      ],
      "stateMutability": "view",
      "type": "function"
    },
    {
      "inputs": [
        {
          "internalType": "address",
          "name": "dest",
          "type": "address"
        },
        {
          "internalType": "uint256",
          "name": "value",
          "type": "uint256"
        },
        {
          "internalType": "bytes",
          "name": "func",
          "type": "bytes"
        }
      ],
      "name": "execute",
      "outputs": [],
      "stateMutability": "nonpayable",
      "type": "function"
    },
    {
      "inputs": [
        {
          "internalType": "address[]",
          "name": "dest",
          "type": "address[]"
        },
        {
          "internalType": "uint256[]",
          "name": "value",
          "type": "uint256[]"
        },
        {
          "internalType": "bytes[]",
          "name": "func",
          "type": "bytes[]"
        }
      ],
      "name": "executeBatch",
      "outputs": [],
      "stateMutability": "nonpayable",
      "type": "function"
    },
    {
      "inputs": [],
      "name": "executeLiquidation",
      "outputs": [],
      "stateMutability": "nonpayable",
      "type": "function"
    },
    {
      "inputs": [],
      "name": "getNonce",
      "outputs": [
        {
          "internalType": "uint256",
          "name": "",
          "type": "uint256"
        }
      ],
      "stateMutability": "view",
      "type": "function"
    },
    {
      "inputs": [
        {
          "internalType": "address",
          "name": "_owner",
          "type": "address"
        },
        {
          "internalType": "address",
          "name": "_oracle",
          "type": "address"
        },
        {
          "internalType": "address",
          "name": "_rescueDestination",
          "type": "address"
        }
      ],
      "name": "initialize",
      "outputs": [],
      "stateMutability": "nonpayable",
      "type": "function"
    },
    {
      "inputs": [],
      "name": "lastPriceCheck",
      "outputs": [
        {
          "internalType": "uint256",
          "name": "",
          "type": "uint256"
        }
      ],
      "stateMutability": "view",
      "type": "function"
    },
    {
      "inputs": [],
      "name": "liquidated",
      "outputs": [
        {
          "internalType": "bool",
          "name": "",
          "type": "bool"
        }
      ],
      "stateMutability": "view",
      "type": "function"
    },
    {
      "inputs": [],
      "name": "oracle",
      "outputs": [
        {
          "internalType": "contract MockPriceOracle",
          "name": "",
          "type": "address"
        }
      ],
      "stateMutability": "view",
      "type": "function"
    },
    {
      "inputs": [],
      "name": "owner",
      "outputs": [
        {
          "internalType": "address",
          "name": "",
          "type": "address"
        }
      ],
      "stateMutability": "view",
      "type": "function"
    },
    {
      "inputs": [],
      "name": "priceCheckInterval",
      "outputs": [
        {
          "internalType": "uint256",
          "name": "",
          "type": "uint256"
        }
      ],
      "stateMutability": "view",
      "type": "function"
    },
    {
      "inputs": [],
      "name": "proxiableUUID",
      "outputs": [
        {
          "internalType": "bytes32",
          "name": "",
          "type": "bytes32"
        }
      ],
      "stateMutability": "view",
      "type": "function"
    },
    {
      "inputs": [],
      "name": "rescueDestination",
      "outputs": [
        {
          "internalType": "address",
          "name": "",
          "type": "address"
        }
      ],
      "stateMutability": "view",
      "type": "function"
    },
    {
      "inputs": [
        {
          "internalType": "address",
          "name": "_rescueDestination",
          "type": "address"
        }
      ],
      "name": "setRescueDestination",
      "outputs": [],
      "stateMutability": "nonpayable",
      "type": "function"
    },
    {
      "inputs": [],
      "name": "triggerPrice",
      "outputs": [
        {
          "internalType": "uint256",
          "name": "",
          "type": "uint256"
        }
      ],
      "stateMutability": "view",
      "type": "function"
    },
    {
      "inputs": [
        {
          "internalType": "address",
          "name": "newImplementation",
          "type": "address"
        }
      ],
      "name": "upgradeTo",
      "outputs": [],
      "stateMutability": "nonpayable",
      "type": "function"
    },
    {
      "inputs": [
        {
          "internalType": "address",
          "name": "newImplementation",
          "type": "address"
        },
        {
          "internalType": "bytes",
          "name": "data",
          "type": "bytes"
        }
      ],
      "name": "upgradeToAndCall",
      "outputs": [],
      "stateMutability": "payable",
      "type": "function"
    },
    {
      "inputs": [
        {
          "components": [
            {
              "internalType": "address",
              "name": "sender",
              "type": "address"
            },
            {
              "internalType": "uint256",
              "name": "nonce",
              "type": "uint256"
            },
            {
              "internalType": "bytes",
              "name": "initCode",
              "type": "bytes"
            },
            {
              "internalType": "bytes",
              "name": "callData",
              "type": "bytes"
            },
            {
              "internalType": "uint256",
              "name": "callGasLimit",
              "type": "uint256"
            },
            {
              "internalType": "uint256",
              "name": "verificationGasLimit",
              "type": "uint256"
            },
            {
              "internalType": "uint256",
              "name": "preVerificationGas",
              "type": "uint256"
            },
            {
              "internalType": "uint256",
              "name": "maxFeePerGas",
              "type": "uint256"
            },
            {
              "internalType": "uint256",
              "name": "maxPriorityFeePerGas",
              "type": "uint256"
            },
            {
              "internalType": "bytes",
              "name": "paymasterAndData",
              "type": "bytes"
            },
            {
              "internalType": "bytes",
              "name": "signature",
              "type": "bytes"
            }
          ],
          "internalType": "struct UserOperation",
          "name": "userOp",
          "type": "tuple"
        },
        {
          "internalType": "bytes32",
          "name": "userOpHash",
          "type": "bytes32"
        },
        {
          "internalType": "uint256",
          "name": "missingAccountFunds",
          "type": "uint256"
        }
      ],
      "name": "validateUserOp",
      "outputs": [
        {
          "internalType": "uint256",
          "name": "validationData",
          "type": "uint256"
        }
      ],
      "stateMutability": "nonpayable",
      "type": "function"
    },
    {
      "stateMutability": "payable",
      "type": "receive"
    }
  ],
  "bytecode": "0x60c0604052306080526138406006553480156200001b57600080fd5b50604051620021da380380620021da8339810160408190526200003e916200011f565b6001600160a01b03811660a05280620000566200005e565b505062000151565b600054610100900460ff1615620000cb5760405162461bcd60e51b815260206004820152602760248201527f496e697469616c697a61626c653a20636f6e747261637420697320696e697469604482015266616c697a696e6760c81b606482015260840160405180910390fd5b60005460ff908116146200011d576000805460ff191660ff9081179091556040519081527f7f26b83ff96e1f2b6a682f133852f6798a09c465da95921460cefb38474024989060200160405180910390a15b565b6000602082840312156200013257600080fd5b81516001600160a01b03811681146200014a57600080fd5b9392505050565b60805160a051612032620001a8600039600081816103d201528181611026015281816112b40152611354015260008181610473015281816104bc015281816107f90152818161083901526108cc01526120326000f3fe60806040526004361061014f5760003560e01c806375fbb884116100b6578063b0d691fe1161006f578063b0d691fe146103c3578063b61d27f6146103f6578063c0c53b8b14610416578063d087d28814610436578063d0e30db01461044b578063e629d5391461045357600080fd5b806375fbb8841461030f5780637dc0d1d01461033b57806387c139431461035b5780638da5cb5b14610371578063a4efc58014610397578063ad451ba2146103ad57600080fd5b80634f1ef286116101085780634f1ef2861461026557806352d1902d14610278578063540c2f111461028d57806354ee21b9146102c55780636a346f68146102da5780636fbd2c1c146102ef57600080fd5b806323b98cde146101955780632fa12697146101cb5780633659cfe6146101ef5780633a871cdd1461020f578063419759f51461022f57806347e1da2a1461024557600080fd5b3661019057341561018e576040513481527fa1ab46d0e38f33a7b1f03853088a305927deb55c906370ff5d6d2bc732f150959060200160405180910390a15b005b600080fd5b3480156101a157600080fd5b506004546101b690600160a01b900460ff1681565b60405190151581526020015b60405180910390f35b3480156101d757600080fd5b506101e160025481565b6040519081526020016101c2565b3480156101fb57600080fd5b5061018e61020a366004611a34565b610469565b34801561021b57600080fd5b506101e161022a366004611a4f565b610551565b34801561023b57600080fd5b506101e160035481565b34801561025157600080fd5b5061018e610260366004611ae8565b6106a6565b61018e610273366004611b98565b6107ef565b34801561028457600080fd5b506101e16108bf565b34801561029957600080fd5b506004546102ad906001600160a01b031681565b6040516001600160a01b0390911681526020016101c2565b3480156102d157600080fd5b5061018e610972565b3480156102e657600080fd5b506101b6610a43565b3480156102fb57600080fd5b5061018e61030a366004611a34565b610ba2565b34801561031b57600080fd5b50610324610c1e565b6040805192151583526020830191909152016101c2565b34801561034757600080fd5b506001546102ad906001600160a01b031681565b34801561036757600080fd5b506101e161271081565b34801561037d57600080fd5b506000546102ad906201000090046001600160a01b031681565b3480156103a357600080fd5b506101e160055481565b3480156103b957600080fd5b506101e16107d081565b3480156103cf57600080fd5b507f00000000000000000000000000000000000000000000000000000000000000006102ad565b34801561040257600080fd5b5061018e610411366004611c5a565b610ccf565b34801561042257600080fd5b5061018e610431366004611ce1565b610d48565b34801561044257600080fd5b506101e1611022565b61018e6110bb565b34801561045f57600080fd5b506101e160065481565b6001600160a01b037f00000000000000000000000000000000000000000000000000000000000000001630036104ba5760405162461bcd60e51b81526004016104b190611d24565b60405180910390fd5b7f00000000000000000000000000000000000000000000000000000000000000006001600160a01b0316610503600080516020611fb6833981519152546001600160a01b031690565b6001600160a01b0316146105295760405162461bcd60e51b81526004016104b190611d70565b61053281611131565b6040805160008082526020820190925261054e91839190611139565b50565b600061055b6112a9565b7f19457468657265756d205369676e6564204d6573736167653a0a3332000000006000908152601c849052603c812090546201000090046001600160a01b03166105e96105ac610140880188611dbc565b8080601f01602080910402602001604051908101604052809392919081815260200183838082843760009201919091525086939250506113239050565b6001600160a01b03161461060157600191505061069f565b821561069957604051600090339085908381818185875af1925050503d8060008114610649576040519150601f19603f3d011682016040523d82523d6000602084013e61064e565b606091505b50509050806106975760405162461bcd60e51b81526020600482015260156024820152744661696c656420746f2070617920666f722067617360581b60448201526064016104b1565b505b60009150505b9392505050565b6106ae611349565b600454600160a01b900460ff16156106d85760405162461bcd60e51b81526004016104b190611e03565b84811480156106e657508281145b6107285760405162461bcd60e51b815260206004820152601360248201527257726f6e67206172726179206c656e6774687360681b60448201526064016104b1565b60005b858110156107e6576107d487878381811061074857610748611e3a565b905060200201602081019061075d9190611a34565b86868481811061076f5761076f611e3a565b9050602002013585858581811061078857610788611e3a565b905060200281019061079a9190611dbc565b8080601f0160208091040260200160405190810160405280939291908181526020018383808284376000920191909152506113e692505050565b806107de81611e66565b91505061072b565b50505050505050565b6001600160a01b037f00000000000000000000000000000000000000000000000000000000000000001630036108375760405162461bcd60e51b81526004016104b190611d24565b7f00000000000000000000000000000000000000000000000000000000000000006001600160a01b0316610880600080516020611fb6833981519152546001600160a01b031690565b6001600160a01b0316146108a65760405162461bcd60e51b81526004016104b190611d70565b6108af82611131565b6108bb82826001611139565b5050565b6000306001600160a01b037f0000000000000000000000000000000000000000000000000000000000000000161461095f5760405162461bcd60e51b815260206004820152603860248201527f555550535570677261646561626c653a206d757374206e6f742062652063616c60448201527f6c6564207468726f7567682064656c656761746563616c6c000000000000000060648201526084016104b1565b50600080516020611fb683398151915290565b61097a611349565b60015460408051639e40ee5d60e01b8152815160009384936001600160a01b0390911692639e40ee5d92600480830193928290030181865afa1580156109c4573d6000803e3d6000fd5b505050506040513d601f19601f820116820180604052508101906109e89190611e7f565b915091508080156109fb57506002548211155b610a3b5760405162461bcd60e51b815260206004820152601160248201527010dbdb991a5d1a5bdb881b9bdd081b595d607a1b60448201526064016104b1565b6108bb61145d565b600454600090600160a01b900460ff1615610a705760405162461bcd60e51b81526004016104b190611e03565b600654600554610a809190611eb4565b421015610ac05760405162461bcd60e51b815260206004820152600e60248201526d21b432b1b5903a37b79039b7b7b760911b60448201526064016104b1565b4260055560015460408051639e40ee5d60e01b8152815160009384936001600160a01b0390911692639e40ee5d92600480830193928290030181865afa158015610b0e573d6000803e3d6000fd5b505050506040513d601f19601f82011682018060405250810190610b329190611e7f565b9150915080610b7f5760405162461bcd60e51b8152602060048201526019602482015278496e76616c69642070726963652066726f6d206f7261636c6560381b60448201526064016104b1565b6002548211610b9957610b9061145d565b60019250505090565b60009250505090565b610baa611349565b600454600160a01b900460ff1615610bd45760405162461bcd60e51b81526004016104b190611e03565b600480546001600160a01b0319166001600160a01b0383169081179091556040517f526880ed0d14472d17357b780d9274e28893f3eb78b73e755fbb71cfc8ad85bc90600090a250565b6004546000908190600160a01b900460ff1615610c3e5750600091829150565b60015460408051639e40ee5d60e01b8152815160009384936001600160a01b0390911692639e40ee5d92600480830193928290030181865afa158015610c88573d6000803e3d6000fd5b505050506040513d601f19601f82011682018060405250810190610cac9190611e7f565b9150915080610cc057506000939092509050565b50600254811115939092509050565b610cd7611349565b600454600160a01b900460ff1615610d015760405162461bcd60e51b81526004016104b190611e03565b610d42848484848080601f0160208091040260200160405190810160405280939291908181526020018383808284376000920191909152506113e692505050565b50505050565b600054610100900460ff1615808015610d685750600054600160ff909116105b80610d825750303b158015610d82575060005460ff166001145b610de55760405162461bcd60e51b815260206004820152602e60248201527f496e697469616c697a61626c653a20636f6e747261637420697320616c72656160448201526d191e481a5b9a5d1a585b1a5e995960921b60648201526084016104b1565b6000805460ff191660011790558015610e08576000805461ff0019166101001790555b600080546001600160a01b03808716620100000262010000600160b01b0319909216919091178255600180548683166001600160a01b0319918216811790925560048054938716939091169290921782554260055560408051639e40ee5d60e01b815281518594639e40ee5d9383820193909291908290030181865afa158015610e96573d6000803e3d6000fd5b505050506040513d601f19601f82011682018060405250810190610eba9190611e7f565b9150915080610f075760405162461bcd60e51b8152602060048201526019602482015278496e76616c69642070726963652066726f6d206f7261636c6560381b60448201526064016104b1565b612710610f166107d082611ec7565b610f209084611eda565b610f2a9190611ef1565b6002556040516001600160a01b0380871691908816907faec5f0316da051ffe24b2c596a7c54ded4f823b23d948daf5b64bc642daf45c690600090a37f6bdb52cc4061a1068753e4f9f76665382e4de5ae192642a6c251f7e08cacfc86600254604051610f9991815260200190565b60405180910390a16040516001600160a01b038516907f526880ed0d14472d17357b780d9274e28893f3eb78b73e755fbb71cfc8ad85bc90600090a250508015610d42576000805461ff0019169055604051600181527f7f26b83ff96e1f2b6a682f133852f6798a09c465da95921460cefb38474024989060200160405180910390a150505050565b60007f0000000000000000000000000000000000000000000000000000000000000000604051631aab3f0d60e11b8152306004820152600060248201526001600160a01b0391909116906335567e1a90604401602060405180830381865afa158015611092573d6000803e3d6000fd5b505050506040513d601f19601f820116820180604052508101906110b69190611f13565b905090565b600454600160a01b900460ff16156110e55760405162461bcd60e51b81526004016104b190611e03565b34600360008282546110f79190611eb4565b90915550506040513481527fa1ab46d0e38f33a7b1f03853088a305927deb55c906370ff5d6d2bc732f150959060200160405180910390a1565b61054e611349565b7f4910fdfa16fed3260ed0e7147f7cc6da11a60208b5b9406d12a635614ffd91435460ff16156111715761116c8361157c565b505050565b826001600160a01b03166352d1902d6040518163ffffffff1660e01b8152600401602060405180830381865afa9250505080156111cb575060408051601f3d908101601f191682019092526111c891810190611f13565b60015b61122e5760405162461bcd60e51b815260206004820152602e60248201527f45524331393637557067726164653a206e657720696d706c656d656e7461746960448201526d6f6e206973206e6f74205555505360901b60648201526084016104b1565b600080516020611fb6833981519152811461129d5760405162461bcd60e51b815260206004820152602960248201527f45524331393637557067726164653a20756e737570706f727465642070726f786044820152681a58589b195555525160ba1b60648201526084016104b1565b5061116c838383611618565b336001600160a01b037f000000000000000000000000000000000000000000000000000000000000000016146113215760405162461bcd60e51b815260206004820152601c60248201527f6163636f756e743a206e6f742066726f6d20456e747279506f696e740000000060448201526064016104b1565b565b6000806000611332858561163d565b9150915061133f81611682565b5090505b92915050565b336001600160a01b037f000000000000000000000000000000000000000000000000000000000000000016148061139057506000546201000090046001600160a01b031633145b6113215760405162461bcd60e51b815260206004820152602160248201527f43616c6c6572206973206e6f7420456e747279506f696e74206f72206f776e656044820152603960f91b60648201526084016104b1565b600080846001600160a01b031684846040516114029190611f50565b60006040518083038185875af1925050503d806000811461143f576040519150601f19603f3d011682016040523d82523d6000602084013e611444565b606091505b50915091508161145657805160208201fd5b5050505050565b600454600160a01b900460ff16156114875760405162461bcd60e51b81526004016104b190611e03565b6004805460ff60a01b1916600160a01b17905560025460408051428152602081019290925247908201819052907f5a5b7bc3b2feefe8d5fb1cc7c36ff2793a91399db4826bcff82c3a4049102c769060600160405180910390a1801561054e576004546040516000916001600160a01b03169083908381818185875af1925050503d8060008114611534576040519150601f19603f3d011682016040523d82523d6000602084013e611539565b606091505b50509050806108bb5760405162461bcd60e51b815260206004820152600f60248201526e151c985b9cd9995c8819985a5b1959608a1b60448201526064016104b1565b6001600160a01b0381163b6115e95760405162461bcd60e51b815260206004820152602d60248201527f455243313936373a206e657720696d706c656d656e746174696f6e206973206e60448201526c1bdd08184818dbdb9d1c9858dd609a1b60648201526084016104b1565b600080516020611fb683398151915280546001600160a01b0319166001600160a01b0392909216919091179055565b611621836117cc565b60008251118061162e5750805b1561116c57610d42838361180c565b60008082516041036116735760208301516040840151606085015160001a61166787828585611831565b9450945050505061167b565b506000905060025b9250929050565b600081600481111561169657611696611f6c565b0361169e5750565b60018160048111156116b2576116b2611f6c565b036116ff5760405162461bcd60e51b815260206004820152601860248201527f45434453413a20696e76616c6964207369676e6174757265000000000000000060448201526064016104b1565b600281600481111561171357611713611f6c565b036117605760405162461bcd60e51b815260206004820152601f60248201527f45434453413a20696e76616c6964207369676e6174757265206c656e6774680060448201526064016104b1565b600381600481111561177457611774611f6c565b0361054e5760405162461bcd60e51b815260206004820152602260248201527f45434453413a20696e76616c6964207369676e6174757265202773272076616c604482015261756560f01b60648201526084016104b1565b6117d58161157c565b6040516001600160a01b038216907fbc7cd75a20ee27fd9adebab32041f755214dbc6bffa90cc0225b39da2e5c2d3b90600090a250565b606061069f8383604051806060016040528060278152602001611fd6602791396118f5565b6000807f7fffffffffffffffffffffffffffffff5d576e7357a4501ddfe92f46681b20a083111561186857506000905060036118ec565b6040805160008082526020820180845289905260ff881692820192909252606081018690526080810185905260019060a0016020604051602081039080840390855afa1580156118bc573d6000803e3d6000fd5b5050604051601f1901519150506001600160a01b0381166118e5576000600192509250506118ec565b9150600090505b94509492505050565b6060600080856001600160a01b0316856040516119129190611f50565b600060405180830381855af49150503d806000811461194d576040519150601f19603f3d011682016040523d82523d6000602084013e611952565b606091505b50915091506119638683838761196d565b9695505050505050565b606083156119dc5782516000036119d5576001600160a01b0385163b6119d55760405162461bcd60e51b815260206004820152601d60248201527f416464726573733a2063616c6c20746f206e6f6e2d636f6e747261637400000060448201526064016104b1565b50816119e6565b6119e683836119ee565b949350505050565b8151156119fe5781518083602001fd5b8060405162461bcd60e51b81526004016104b19190611f82565b80356001600160a01b0381168114611a2f57600080fd5b919050565b600060208284031215611a4657600080fd5b61069f82611a18565b600080600060608486031215611a6457600080fd5b833567ffffffffffffffff811115611a7b57600080fd5b84016101608187031215611a8e57600080fd5b95602085013595506040909401359392505050565b60008083601f840112611ab557600080fd5b50813567ffffffffffffffff811115611acd57600080fd5b6020830191508360208260051b850101111561167b57600080fd5b60008060008060008060608789031215611b0157600080fd5b863567ffffffffffffffff80821115611b1957600080fd5b611b258a838b01611aa3565b90985096506020890135915080821115611b3e57600080fd5b611b4a8a838b01611aa3565b90965094506040890135915080821115611b6357600080fd5b50611b7089828a01611aa3565b979a9699509497509295939492505050565b634e487b7160e01b600052604160045260246000fd5b60008060408385031215611bab57600080fd5b611bb483611a18565b9150602083013567ffffffffffffffff80821115611bd157600080fd5b818501915085601f830112611be557600080fd5b813581811115611bf757611bf7611b82565b604051601f8201601f19908116603f01168101908382118183101715611c1f57611c1f611b82565b81604052828152886020848701011115611c3857600080fd5b8260208601602083013760006020848301015280955050505050509250929050565b60008060008060608587031215611c7057600080fd5b611c7985611a18565b935060208501359250604085013567ffffffffffffffff80821115611c9d57600080fd5b818701915087601f830112611cb157600080fd5b813581811115611cc057600080fd5b886020828501011115611cd257600080fd5b95989497505060200194505050565b600080600060608486031215611cf657600080fd5b611cff84611a18565b9250611d0d60208501611a18565b9150611d1b60408501611a18565b90509250925092565b6020808252602c908201527f46756e6374696f6e206d7573742062652063616c6c6564207468726f7567682060408201526b19195b1959d85d1958d85b1b60a21b606082015260800190565b6020808252602c908201527f46756e6374696f6e206d7573742062652063616c6c6564207468726f7567682060408201526b6163746976652070726f787960a01b606082015260800190565b6000808335601e19843603018112611dd357600080fd5b83018035915067ffffffffffffffff821115611dee57600080fd5b60200191503681900382131561167b57600080fd5b6020808252601a908201527f4163636f756e7420616c7265616479206c697175696461746564000000000000604082015260600190565b634e487b7160e01b600052603260045260246000fd5b634e487b7160e01b600052601160045260246000fd5b600060018201611e7857611e78611e50565b5060010190565b60008060408385031215611e9257600080fd5b8251915060208301518015158114611ea957600080fd5b809150509250929050565b8082018082111561134357611343611e50565b8181038181111561134357611343611e50565b808202811582820484141761134357611343611e50565b600082611f0e57634e487b7160e01b600052601260045260246000fd5b500490565b600060208284031215611f2557600080fd5b5051919050565b60005b83811015611f47578181015183820152602001611f2f565b50506000910152565b60008251611f62818460208701611f2c565b9190910192915050565b634e487b7160e01b600052602160045260246000fd5b6020815260008251806020840152611fa1816040850160208701611f2c565b601f01601f1916919091016040019291505056fe360894a13ba1a3210667c828492db98dca3e2076cc3735a920a3ca505d382bbc416464726573733a206c6f772d6c6576656c2064656c65676174652063616c6c206661696c6564a264697066735822122068d02d83387467a0cb20fc1f8bbc53aa545e1e49fb59c83ba9e37b517606b1af64736f6c63430008110033",
  "linkReferences": {},
  "deployedLinkReferences": {}
}