{
  "_format": "hh-sol-artifact-1",
  "contractName": "AuctionAccountFactory",
  "sourceName": "contracts/AuctionAccount.sol",
  "abi": [
    {
      "inputs": [
        {
          "internalType": "contract IEntryPoint",
          "name": "entryPoint",
          "type": "address"
        }
      ],
      "stateMutability": "nonpayable",
      "type": "constructor"
    },
    {
      "anonymous": false,
      "inputs": [
        {
          "indexed": true,
          "internalType": "address",
          "name": "account",
          "type": "address"
        },
        {
          "indexed": true,
          "internalType": "address",
          "name": "owner",
          "type": "address"
        }
      ],
      "name": "AccountCreated",
      "type": "event"
    },
    {
      "inputs": [],
      "name": "accountImplementation",
      "outputs": [
        {
          "internalType": "contract AuctionAccount",
          "name": "",
          "type": "address"
        }
      ],
      "stateMutability": "view",
      "type": "function"
    },
    {
      "inputs": [
        {
          "internalType": "address",
          "name": "owner",
          "type": "address"
        },
        {
          "internalType": "uint256",
          "name": "salt",
          "type": "uint256"
        }
      ],
      "name": "createAccount",
      "outputs": [
        {
          "internalType": "contract AuctionAccount",
          "name": "ret",
          "type": "address"
        }
      ],
      "stateMutability": "nonpayable",
      "type": "function"
    },
    {
      "inputs": [
        {
          "internalType": "address",
          "name": "owner",
          "type": "address"
        },
        {
          "internalType": "uint256",
          "name": "salt",
          "type": "uint256"
        }
      ],
      "name": "getAddress",
      "outputs": [
        {
          "internalType": "address",
          "name": "",
          "type": "address"
        }
      ],
      "stateMutability": "view",
      "type": "function"
    }
  ],
  "bytecode": "0x60a060405234801561001057600080fd5b5060405161213e38038061213e83398101604081905261002f91610090565b803360405161003d90610083565b6001600160a01b03928316815291166020820152604001604051809103906000f080158015610070573d6000803e3d6000fd5b506001600160a01b0316608052506100c0565b61141a80610d2483390190565b6000602082840312156100a257600080fd5b81516001600160a01b03811681146100b957600080fd5b9392505050565b608051610c3c6100e860003960008181604b01528181610116015261022e0152610c3c6000f3fe608060405234801561001057600080fd5b50600436106100415760003560e01c806311464fbe146100465780635fbfb9cf146100895780638cb84e181461009c575b600080fd5b61006d7f000000000000000000000000000000000000000000000000000000000000000081565b6040516001600160a01b03909116815260200160405180910390f35b61006d610097366004610412565b6100af565b61006d6100aa366004610412565b6101ef565b6000806100bc84846101ef565b90506001600160a01b0381163b80156100d7575090506101e9565b6101a460008560001b604051806020016100f090610405565b601f1982820381018352601f9091011660408190526001600160a01b038a1660248201527f00000000000000000000000000000000000000000000000000000000000000009060440160408051601f19818403018152918152602080830180516001600160e01b031663189acdbd60e31b17905290516101729392910161046e565b60408051601f198184030181529082905261019092916020016104b0565b6040516020818303038152906040526102ca565b9250846001600160a01b0316836001600160a01b03167fac631f3001b55ea1509cf3d7e74898f85392a61a76e8149181ae1259622dabc860405160405180910390a350505b92915050565b60006102c38260001b6040518060200161020890610405565b601f1982820381018352601f9091011660408190526001600160a01b03871660248201527f00000000000000000000000000000000000000000000000000000000000000009060440160408051601f19818403018152918152602080830180516001600160e01b031663189acdbd60e31b179052905161028a9392910161046e565b60408051601f19818403018152908290526102a892916020016104b0565b604051602081830303815290604052805190602001206103d3565b9392505050565b6000834710156103215760405162461bcd60e51b815260206004820152601d60248201527f437265617465323a20696e73756666696369656e742062616c616e636500000060448201526064015b60405180910390fd5b81516000036103725760405162461bcd60e51b815260206004820181905260248201527f437265617465323a2062797465636f6465206c656e677468206973207a65726f6044820152606401610318565b8282516020840186f590506001600160a01b0381166102c35760405162461bcd60e51b815260206004820152601960248201527f437265617465323a204661696c6564206f6e206465706c6f79000000000000006044820152606401610318565b60006102c38383306000604051836040820152846020820152828152600b8101905060ff815360559020949350505050565b610727806104e083390190565b6000806040838503121561042557600080fd5b82356001600160a01b038116811461043c57600080fd5b946020939093013593505050565b60005b8381101561046557818101518382015260200161044d565b50506000910152565b60018060a01b0383168152604060208201526000825180604084015261049b81606085016020870161044a565b601f01601f1916919091016060019392505050565b600083516104c281846020880161044a565b8351908301906104d681836020880161044a565b0194935050505056fe608060405260405161072738038061072783398101604081905261002291610319565b61002e82826000610035565b5050610436565b61003e8361006b565b60008251118061004b5750805b156100665761006483836100ab60201b6100291760201c565b505b505050565b610074816100d7565b6040516001600160a01b038216907fbc7cd75a20ee27fd9adebab32041f755214dbc6bffa90cc0225b39da2e5c2d3b90600090a250565b60606100d08383604051806060016040528060278152602001610700602791396101a9565b9392505050565b6100ea8161022260201b6100551760201c565b6101515760405162461bcd60e51b815260206004820152602d60248201527f455243313936373a206e657720696d706c656d656e746174696f6e206973206e60448201526c1bdd08184818dbdb9d1c9858dd609a1b60648201526084015b60405180910390fd5b806101887f360894a13ba1a3210667c828492db98dca3e2076cc3735a920a3ca505d382bbc60001b61023160201b6100641760201c565b80546001600160a01b0319166001600160a01b039290921691909117905550565b6060600080856001600160a01b0316856040516101c691906103e7565b600060405180830381855af49150503d8060008114610201576040519150601f19603f3d011682016040523d82523d6000602084013e610206565b606091505b50909250905061021886838387610234565b9695505050505050565b6001600160a01b03163b151590565b90565b606083156102a357825160000361029c576001600160a01b0385163b61029c5760405162461bcd60e51b815260206004820152601d60248201527f416464726573733a2063616c6c20746f206e6f6e2d636f6e74726163740000006044820152606401610148565b50816102ad565b6102ad83836102b5565b949350505050565b8151156102c55781518083602001fd5b8060405162461bcd60e51b81526004016101489190610403565b634e487b7160e01b600052604160045260246000fd5b60005b838110156103105781810151838201526020016102f8565b50506000910152565b6000806040838503121561032c57600080fd5b82516001600160a01b038116811461034357600080fd5b60208401519092506001600160401b038082111561036057600080fd5b818501915085601f83011261037457600080fd5b815181811115610386576103866102df565b604051601f8201601f19908116603f011681019083821181831017156103ae576103ae6102df565b816040528281528860208487010111156103c757600080fd5b6103d88360208301602088016102f5565b80955050505050509250929050565b600082516103f98184602087016102f5565b9190910192915050565b60208152600082518060208401526104228160408501602087016102f5565b601f01601f19169190910160400192915050565b6102bb806104456000396000f3fe60806040523661001357610011610017565b005b6100115b610027610022610067565b61009f565b565b606061004e838360405180606001604052806027815260200161025f602791396100c3565b9392505050565b6001600160a01b03163b151590565b90565b600061009a7f360894a13ba1a3210667c828492db98dca3e2076cc3735a920a3ca505d382bbc546001600160a01b031690565b905090565b3660008037600080366000845af43d6000803e8080156100be573d6000f35b3d6000fd5b6060600080856001600160a01b0316856040516100e0919061020f565b600060405180830381855af49150503d806000811461011b576040519150601f19603f3d011682016040523d82523d6000602084013e610120565b606091505b50915091506101318683838761013b565b9695505050505050565b606083156101af5782516000036101a8576001600160a01b0385163b6101a85760405162461bcd60e51b815260206004820152601d60248201527f416464726573733a2063616c6c20746f206e6f6e2d636f6e747261637400000060448201526064015b60405180910390fd5b50816101b9565b6101b983836101c1565b949350505050565b8151156101d15781518083602001fd5b8060405162461bcd60e51b815260040161019f919061022b565b60005b838110156102065781810151838201526020016101ee565b50506000910152565b600082516102218184602087016101eb565b9190910192915050565b602081526000825180602084015261024a8160408501602087016101eb565b601f01601f1916919091016040019291505056fe416464726573733a206c6f772d6c6576656c2064656c65676174652063616c6c206661696c6564a26469706673582212203d912d0abbe116b83dfa1d3a82e612e3256de4ef536ea1a35d0e77601b02b17764736f6c63430008110033416464726573733a206c6f772d6c6576656c2064656c65676174652063616c6c206661696c6564a26469706673582212204057d2feffa7f7b3780611ebdc17d1cfc28a6dac21277f7e01b1e53d2a34418664736f6c6343000811003360a06040523480156200001157600080fd5b506040516200141a3803806200141a8339810160408190526200003491620000cc565b6200003f336200005f565b6001600160a01b03821660805262000057816200005f565b505062000104565b600080546001600160a01b038381166001600160a01b0319831681178455604051919092169283917f8be0079c531659141344cd1fd0a4f28419497f9722a3daafe3b4186f6b6457e09190a35050565b80516001600160a01b0381168114620000c757600080fd5b919050565b60008060408385031215620000e057600080fd5b620000eb83620000af565b9150620000fb60208401620000af565b90509250929050565b6080516112e56200013560003960008181610239015281816104e4015281816108a70152610a2801526112e56000f3fe6080604052600436106100e15760003560e01c8063715018a61161007f578063b61d27f611610059578063b61d27f61461025d578063c4d66de81461027d578063d087d2881461029d578063f2fde38b146102b257600080fd5b8063715018a6146101e35780638da5cb5b146101f8578063b0d691fe1461022a57600080fd5b80634a58db19116100bb5780634a58db191461017b578063522f6815146101835780635e35359e146101a35780636c1fa66f146101c357600080fd5b8063150b7a02146100ed5780633a871cdd1461012b57806347e1da2a1461015957600080fd5b366100e857005b600080fd5b3480156100f957600080fd5b5061010d610108366004610e92565b6102d2565b6040516001600160e01b031990911681526020015b60405180910390f35b34801561013757600080fd5b5061014b610146366004610f05565b610325565b604051908152602001610122565b34801561016557600080fd5b50610179610174366004610f9e565b61034b565b005b6101796104e2565b34801561018f57600080fd5b5061017961019e366004611038565b610562565b3480156101af57600080fd5b506101796101be366004611064565b610612565b3480156101cf57600080fd5b506101796101de3660046110a5565b610693565b3480156101ef57600080fd5b506101796107c6565b34801561020457600080fd5b506000546001600160a01b03165b6040516001600160a01b039091168152602001610122565b34801561023657600080fd5b507f0000000000000000000000000000000000000000000000000000000000000000610212565b34801561026957600080fd5b506101796102783660046110f7565b6107da565b34801561028957600080fd5b50610179610298366004611153565b610823565b3480156102a957600080fd5b5060015461014b565b3480156102be57600080fd5b506101796102cd366004611153565b61082f565b60007f1d823cdc8f0514a95b53538df2d2f3deaf98d1c534c6e750daa593173c27f8f0868686868660405161030b959493929190611170565b60405180910390a150630a85bd0160e11b95945050505050565b600061032f61089c565b6103398484610914565b9050610344826109d0565b9392505050565b610353610a1d565b8481148015610369575082158061036957508281145b6103b05760405162461bcd60e51b815260206004820152601360248201527277726f6e67206172726179206c656e6774687360681b60448201526064015b60405180910390fd5b60008390036104665760005b858110156104605761044e8787838181106103d9576103d96111c4565b90506020020160208101906103ee9190611153565b6000858585818110610402576104026111c4565b905060200281019061041491906111da565b8080601f016020809104026020016040519081016040528093929190818152602001838380828437600092019190915250610aaa92505050565b8061045881611221565b9150506103bc565b506104da565b60005b858110156104d8576104c6878783818110610486576104866111c4565b905060200201602081019061049b9190611153565b8686848181106104ad576104ad6111c4565b90506020020135858585818110610402576104026111c4565b806104d081611221565b915050610469565b505b505050505050565b7f000000000000000000000000000000000000000000000000000000000000000060405163b760faf960e01b81523060048201526001600160a01b03919091169063b760faf99034906024016000604051808303818588803b15801561054757600080fd5b505af115801561055b573d6000803e3d6000fd5b5050505050565b61056a610a1d565b6000826001600160a01b03168260405160006040518083038185875af1925050503d80600081146105b7576040519150601f19603f3d011682016040523d82523d6000602084013e6105bc565b606091505b505090508061060d5760405162461bcd60e51b815260206004820152601860248201527f4661696c656420746f207769746864726177206574686572000000000000000060448201526064016103a7565b505050565b61061a610a1d565b60405163a9059cbb60e01b81526001600160a01b0383811660048301526024820183905284169063a9059cbb906044016020604051808303816000875af1158015610669573d6000803e3d6000fd5b505050506040513d601f19601f8201168201806040525081019061068d9190611248565b50505050565b61069b610a1d565b6000811180156106b357506001600160a01b03821615155b1561070d57604080516001600160a01b038716602482015260448082018490528251808303909101815260649091019091526020810180516001600160e01b031663095ea7b360e01b17905261070b83600083610aaa565b505b60408051602481018690526001600160a01b038416604482015260648082018490528251808303909101815260849091019091526020810180516001600160e01b0316631e3c5e6960e31b179052610766868583610aaa565b604080516001600160a01b03888116825260208201889052818301879052851660608201526080810184905290517f21bf20a1ae1a5baf669d16a4d3d54f50bb0f9f60582c1fd54592f0ba1583f8f69181900360a00190a1505050505050565b6107ce610b1a565b6107d86000610b74565b565b6107e2610a1d565b61068d848484848080601f016020809104026020016040519081016040528093929190818152602001838380828437600092019190915250610aaa92505050565b61082c81610b74565b50565b610837610b1a565b6001600160a01b0381166108235760405162461bcd60e51b815260206004820152602660248201527f4f776e61626c653a206e6577206f776e657220697320746865207a65726f206160448201526564647265737360d01b60648201526084016103a7565b336001600160a01b037f000000000000000000000000000000000000000000000000000000000000000016146107d85760405162461bcd60e51b815260206004820152601c60248201527f6163636f756e743a206e6f742066726f6d20456e747279506f696e740000000060448201526064016103a7565b7f19457468657265756d205369676e6564204d6573736167653a0a3332000000006000908152601c829052603c81206109916109546101408601866111da565b8080601f0160208091040260200160405190810160405280939291908181526020018383808284376000920191909152508593925050610bc49050565b6001600160a01b03166109ac6000546001600160a01b031690565b6001600160a01b0316146109c45760019150506109ca565b60009150505b92915050565b801561082c57604051600090339060001990849084818181858888f193505050503d806000811461055b576040519150601f19603f3d011682016040523d82523d6000602084013e61055b565b336001600160a01b037f0000000000000000000000000000000000000000000000000000000000000000161480610a5e57506000546001600160a01b031633145b6107d85760405162461bcd60e51b815260206004820181905260248201527f6163636f756e743a206e6f74204f776e6572206f7220456e747279506f696e7460448201526064016103a7565b600080846001600160a01b03168484604051610ac6919061126a565b60006040518083038185875af1925050503d8060008114610b03576040519150601f19603f3d011682016040523d82523d6000602084013e610b08565b606091505b50915091508161055b57805160208201fd5b6000546001600160a01b031633146107d85760405162461bcd60e51b815260206004820181905260248201527f4f776e61626c653a2063616c6c6572206973206e6f7420746865206f776e657260448201526064016103a7565b600080546001600160a01b038381166001600160a01b0319831681178455604051919092169283917f8be0079c531659141344cd1fd0a4f28419497f9722a3daafe3b4186f6b6457e09190a35050565b6000806000610bd38585610be8565b91509150610be081610c2d565b509392505050565b6000808251604103610c1e5760208301516040840151606085015160001a610c1287828585610d77565b94509450505050610c26565b506000905060025b9250929050565b6000816004811115610c4157610c41611299565b03610c495750565b6001816004811115610c5d57610c5d611299565b03610caa5760405162461bcd60e51b815260206004820152601860248201527f45434453413a20696e76616c6964207369676e6174757265000000000000000060448201526064016103a7565b6002816004811115610cbe57610cbe611299565b03610d0b5760405162461bcd60e51b815260206004820152601f60248201527f45434453413a20696e76616c6964207369676e6174757265206c656e6774680060448201526064016103a7565b6003816004811115610d1f57610d1f611299565b0361082c5760405162461bcd60e51b815260206004820152602260248201527f45434453413a20696e76616c6964207369676e6174757265202773272076616c604482015261756560f01b60648201526084016103a7565b6000807f7fffffffffffffffffffffffffffffff5d576e7357a4501ddfe92f46681b20a0831115610dae5750600090506003610e32565b6040805160008082526020820180845289905260ff881692820192909252606081018690526080810185905260019060a0016020604051602081039080840390855afa158015610e02573d6000803e3d6000fd5b5050604051601f1901519150506001600160a01b038116610e2b57600060019250925050610e32565b9150600090505b94509492505050565b6001600160a01b038116811461082c57600080fd5b60008083601f840112610e6257600080fd5b50813567ffffffffffffffff811115610e7a57600080fd5b602083019150836020828501011115610c2657600080fd5b600080600080600060808688031215610eaa57600080fd5b8535610eb581610e3b565b94506020860135610ec581610e3b565b935060408601359250606086013567ffffffffffffffff811115610ee857600080fd5b610ef488828901610e50565b969995985093965092949392505050565b600080600060608486031215610f1a57600080fd5b833567ffffffffffffffff811115610f3157600080fd5b84016101608187031215610f4457600080fd5b95602085013595506040909401359392505050565b60008083601f840112610f6b57600080fd5b50813567ffffffffffffffff811115610f8357600080fd5b6020830191508360208260051b8501011115610c2657600080fd5b60008060008060008060608789031215610fb757600080fd5b863567ffffffffffffffff80821115610fcf57600080fd5b610fdb8a838b01610f59565b90985096506020890135915080821115610ff457600080fd5b6110008a838b01610f59565b9096509450604089013591508082111561101957600080fd5b5061102689828a01610f59565b979a9699509497509295939492505050565b6000806040838503121561104b57600080fd5b823561105681610e3b565b946020939093013593505050565b60008060006060848603121561107957600080fd5b833561108481610e3b565b9250602084013561109481610e3b565b929592945050506040919091013590565b600080600080600060a086880312156110bd57600080fd5b85356110c881610e3b565b9450602086013593506040860135925060608601356110e681610e3b565b949793965091946080013592915050565b6000806000806060858703121561110d57600080fd5b843561111881610e3b565b935060208501359250604085013567ffffffffffffffff81111561113b57600080fd5b61114787828801610e50565b95989497509550505050565b60006020828403121561116557600080fd5b813561034481610e3b565b6001600160a01b038681168252851660208201526040810184905260806060820181905281018290526000828460a0840137600060a0848401015260a0601f19601f85011683010190509695505050505050565b634e487b7160e01b600052603260045260246000fd5b6000808335601e198436030181126111f157600080fd5b83018035915067ffffffffffffffff82111561120c57600080fd5b602001915036819003821315610c2657600080fd5b60006001820161124157634e487b7160e01b600052601160045260246000fd5b5060010190565b60006020828403121561125a57600080fd5b8151801515811461034457600080fd5b6000825160005b8181101561128b5760208186018101518583015201611271565b506000920191825250919050565b634e487b7160e01b600052602160045260246000fdfea26469706673582212202cc7a5d59c3dd137911fdc6ebe08e8f8528b48b236f1cd24902e743aca1b949964736f6c63430008110033",
  "linkReferences": {},
  "deployedLinkReferences": {}
}