{
  "_format": "hh-sol-artifact-1",
  "contractName": "AuctionWallet",
  "sourceName": "contracts/AuctionWallet.sol",
  "abi": [
    {
      "inputs": [
        {
          "internalType": "contract IEntryPoint",
          "name": "anEntryPoint",
          "type": "address"
        }
      ],
      "stateMutability": "nonpayable",
      "type": "constructor"
    },
    {
      "inputs": [],
      "name": "CallerIsNotEntryPoint",
      "type": "error"
    },
    {
      "anonymous": false,
      "inputs": [
        {
          "indexed": false,
          "internalType": "address",
          "name": "previousAdmin",
          "type": "address"
        },
        {
          "indexed": false,
          "internalType": "address",
          "name": "newAdmin",
          "type": "address"
        }
      ],
      "name": "AdminChanged",
      "type": "event"
    },
    {
      "anonymous": false,
      "inputs": [
        {
          "indexed": true,
          "internalType": "address",
          "name": "beacon",
          "type": "address"
        }
      ],
      "name": "BeaconUpgraded",
      "type": "event"
    },
    {
      "anonymous": false,
      "inputs": [
        {
          "indexed": false,
          "internalType": "uint8",
          "name": "version",
          "type": "uint8"
        }
      ],
      "name": "Initialized",
      "type": "event"
    },
    {
      "anonymous": false,
      "inputs": [
        {
          "indexed": true,
          "internalType": "contract IEntryPoint",
          "name": "entryPoint",
          "type": "address"
        },
        {
          "indexed": true,
          "internalType": "address",
          "name": "owner",
          "type": "address"
        }
      ],
      "name": "SimpleAccountInitialized",
      "type": "event"
    },
    {
      "anonymous": false,
      "inputs": [
        {
          "indexed": true,
          "internalType": "address",
          "name": "implementation",
          "type": "address"
        }
      ],
      "name": "Upgraded",
      "type": "event"
    },
    {
      "inputs": [],
      "name": "entryPoint",
      "outputs": [
        {
          "internalType": "contract IEntryPoint",
          "name": "",
          "type": "address"
        }
      ],
      "stateMutability": "view",
      "type": "function"
    },
    {
      "inputs": [
        {
          "internalType": "address",
          "name": "dest",
          "type": "address"
        },
        {
          "internalType": "uint256",
          "name": "value",
          "type": "uint256"
        },
        {
          "internalType": "bytes",
          "name": "func",
          "type": "bytes"
        }
      ],
      "name": "execute",
      "outputs": [],
      "stateMutability": "nonpayable",
      "type": "function"
    },
    {
      "inputs": [
        {
          "internalType": "address[]",
          "name": "dest",
          "type": "address[]"
        },
        {
          "internalType": "uint256[]",
          "name": "value",
          "type": "uint256[]"
        },
        {
          "internalType": "bytes[]",
          "name": "func",
          "type": "bytes[]"
        }
      ],
      "name": "executeBatch",
      "outputs": [],
      "stateMutability": "nonpayable",
      "type": "function"
    },
    {
      "inputs": [],
      "name": "getNonce",
      "outputs": [
        {
          "internalType": "uint256",
          "name": "",
          "type": "uint256"
        }
      ],
      "stateMutability": "view",
      "type": "function"
    },
    {
      "inputs": [
        {
          "internalType": "address",
          "name": "anOwner",
          "type": "address"
        }
      ],
      "name": "initialize",
      "outputs": [],
      "stateMutability": "nonpayable",
      "type": "function"
    },
    {
      "inputs": [
        {
          "internalType": "bytes32",
          "name": "_hash",
          "type": "bytes32"
        },
        {
          "internalType": "bytes",
          "name": "_signature",
          "type": "bytes"
        }
      ],
      "name": "isValidSignature",
      "outputs": [
        {
          "internalType": "bytes4",
          "name": "",
          "type": "bytes4"
        }
      ],
      "stateMutability": "view",
      "type": "function"
    },
    {
      "inputs": [],
      "name": "owner",
      "outputs": [
        {
          "internalType": "address",
          "name": "",
          "type": "address"
        }
      ],
      "stateMutability": "view",
      "type": "function"
    },
    {
      "inputs": [
        {
          "internalType": "address",
          "name": "auctionContract",
          "type": "address"
        },
        {
          "internalType": "uint256",
          "name": "auctionId",
          "type": "uint256"
        },
        {
          "internalType": "uint256",
          "name": "ethAmount",
          "type": "uint256"
        },
        {
          "internalType": "address",
          "name": "tokenContract",
          "type": "address"
        },
        {
          "internalType": "uint256",
          "name": "tokenAmount",
          "type": "uint256"
        }
      ],
      "name": "placeBidWithTokens",
      "outputs": [],
      "stateMutability": "nonpayable",
      "type": "function"
    },
    {
      "inputs": [],
      "name": "proxiableUUID",
      "outputs": [
        {
          "internalType": "bytes32",
          "name": "",
          "type": "bytes32"
        }
      ],
      "stateMutability": "view",
      "type": "function"
    },
    {
      "inputs": [
        {
          "internalType": "address",
          "name": "newImplementation",
          "type": "address"
        }
      ],
      "name": "upgradeTo",
      "outputs": [],
      "stateMutability": "nonpayable",
      "type": "function"
    },
    {
      "inputs": [
        {
          "internalType": "address",
          "name": "newImplementation",
          "type": "address"
        },
        {
          "internalType": "bytes",
          "name": "data",
          "type": "bytes"
        }
      ],
      "name": "upgradeToAndCall",
      "outputs": [],
      "stateMutability": "payable",
      "type": "function"
    },
    {
      "inputs": [
        {
          "components": [
            {
              "internalType": "address",
              "name": "sender",
              "type": "address"
            },
            {
              "internalType": "uint256",
              "name": "nonce",
              "type": "uint256"
            },
            {
              "internalType": "bytes",
              "name": "initCode",
              "type": "bytes"
            },
            {
              "internalType": "bytes",
              "name": "callData",
              "type": "bytes"
            },
            {
              "internalType": "uint256",
              "name": "callGasLimit",
              "type": "uint256"
            },
            {
              "internalType": "uint256",
              "name": "verificationGasLimit",
              "type": "uint256"
            },
            {
              "internalType": "uint256",
              "name": "preVerificationGas",
              "type": "uint256"
            },
            {
              "internalType": "uint256",
              "name": "maxFeePerGas",
              "type": "uint256"
            },
            {
              "internalType": "uint256",
              "name": "maxPriorityFeePerGas",
              "type": "uint256"
            },
            {
              "internalType": "bytes",
              "name": "paymasterAndData",
              "type": "bytes"
            },
            {
              "internalType": "bytes",
              "name": "signature",
              "type": "bytes"
            }
          ],
          "internalType": "struct UserOperation",
          "name": "userOp",
          "type": "tuple"
        },
        {
          "internalType": "bytes32",
          "name": "userOpHash",
          "type": "bytes32"
        },
        {
          "internalType": "uint256",
          "name": "missingAccountFunds",
          "type": "uint256"
        }
      ],
      "name": "validateUserOp",
      "outputs": [
        {
          "internalType": "uint256",
          "name": "validationData",
          "type": "uint256"
        }
      ],
      "stateMutability": "nonpayable",
      "type": "function"
    },
    {
      "inputs": [
        {
          "internalType": "uint256",
          "name": "amount",
          "type": "uint256"
        }
      ],
      "name": "withdrawETH",
      "outputs": [],
      "stateMutability": "nonpayable",
      "type": "function"
    },
    {
      "inputs": [
        {
          "internalType": "address",
          "name": "token",
          "type": "address"
        },
        {
          "internalType": "uint256",
          "name": "amount",
          "type": "uint256"
        }
      ],
      "name": "withdrawTokens",
      "outputs": [],
      "stateMutability": "nonpayable",
      "type": "function"
    },
    {
      "stateMutability": "payable",
      "type": "receive"
    }
  ],
  "bytecode": "0x60c0604052306080523480156200001557600080fd5b5060405162001da538038062001da5833981016040819052620000389162000117565b6001600160a01b03811660a0526200004f62000056565b5062000149565b600054610100900460ff1615620000c35760405162461bcd60e51b815260206004820152602760248201527f496e697469616c697a61626c653a20636f6e747261637420697320696e697469604482015266616c697a696e6760c81b606482015260840160405180910390fd5b60005460ff9081161462000115576000805460ff191660ff9081179091556040519081527f7f26b83ff96e1f2b6a682f133852f6798a09c465da95921460cefb38474024989060200160405180910390a15b565b6000602082840312156200012a57600080fd5b81516001600160a01b03811681146200014257600080fd5b9392505050565b60805160a051611bf7620001ae600039600081816102300152818161054d015281816108c701528181610a7d01528181610ec801526110df01526000818161044701528181610487015281816107430152818161078301526108160152611bf76000f3fe6080604052600436106100e15760003560e01c80638da5cb5b1161007f578063c4d66de811610059578063c4d66de814610274578063d087d28814610294578063ed13fda0146102a9578063f14210a6146102c957600080fd5b80638da5cb5b146101e3578063b0d691fe14610221578063b61d27f61461025457600080fd5b80633a871cdd116100bb5780633a871cdd1461016d57806347e1da2a1461019b5780634f1ef286146101bb57806352d1902d146101ce57600080fd5b806306b091f9146100ed5780631626ba7e1461010f5780633659cfe61461014d57600080fd5b366100e857005b600080fd5b3480156100f957600080fd5b5061010d6101083660046115db565b6102e9565b005b34801561011b57600080fd5b5061012f61012a3660046116a8565b6103c8565b6040516001600160e01b031990911681526020015b60405180910390f35b34801561015957600080fd5b5061010d6101683660046116ef565b61043d565b34801561017957600080fd5b5061018d61018836600461170a565b61051c565b604051908152602001610144565b3480156101a757600080fd5b5061010d6101b63660046117a3565b610542565b61010d6101c936600461183d565b610739565b3480156101da57600080fd5b5061018d610809565b3480156101ef57600080fd5b50600054610209906201000090046001600160a01b031681565b6040516001600160a01b039091168152602001610144565b34801561022d57600080fd5b507f0000000000000000000000000000000000000000000000000000000000000000610209565b34801561026057600080fd5b5061010d61026f366004611875565b6108bc565b34801561028057600080fd5b5061010d61028f3660046116ef565b610960565b3480156102a057600080fd5b5060015461018d565b3480156102b557600080fd5b5061010d6102c43660046118fc565b610a72565b3480156102d557600080fd5b5061010d6102e436600461194a565b610b81565b6000546201000090046001600160a01b031633146103445760405162461bcd60e51b815260206004820152601360248201527213db9b1e481bdddb995c8818d85b8818d85b1b606a1b60448201526064015b60405180910390fd5b60005460405163a9059cbb60e01b81526001600160a01b03620100009092048216600482015260248101839052839182169063a9059cbb906044016020604051808303816000875af115801561039e573d6000803e3d6000fd5b505050506040513d601f19601f820116820180604052508101906103c29190611963565b50505050565b7f19457468657265756d205369676e6564204d6573736167653a0a3332000000006000908152601c839052603c81206104019083610cbd565b6000546001600160a01b03918216620100009091049091160361042c5750630b135d3f60e11b610437565b506001600160e01b03195b92915050565b6001600160a01b037f00000000000000000000000000000000000000000000000000000000000000001630036104855760405162461bcd60e51b815260040161033b90611985565b7f00000000000000000000000000000000000000000000000000000000000000006001600160a01b03166104ce600080516020611b7b833981519152546001600160a01b031690565b6001600160a01b0316146104f45760405162461bcd60e51b815260040161033b906119d1565b6104fd81610ce1565b6040805160008082526020820190925261051991839190610d4d565b50565b6000610526610ebd565b6105308484610f37565b905061053b82610fe3565b9392505050565b336001600160a01b037f000000000000000000000000000000000000000000000000000000000000000016148061058957506000546201000090046001600160a01b031633145b6105a55760405162461bcd60e51b815260040161033b90611a1d565b84811480156105bb57508215806105bb57508281145b6106075760405162461bcd60e51b815260206004820152601b60248201527f417272617973207769746820646966666572656e742073697a65730000000000604482015260640161033b565b60008390036106bd5760005b858110156106b7576106a587878381811061063057610630611a54565b905060200201602081019061064591906116ef565b600085858581811061065957610659611a54565b905060200281019061066b9190611a6a565b8080601f01602080910402602001604051908101604052809392919081815260200183838082843760009201919091525061103c92505050565b806106af81611ab1565b915050610613565b50610731565b60005b8581101561072f5761071d8787838181106106dd576106dd611a54565b90506020020160208101906106f291906116ef565b86868481811061070457610704611a54565b9050602002013585858581811061065957610659611a54565b8061072781611ab1565b9150506106c0565b505b505050505050565b6001600160a01b037f00000000000000000000000000000000000000000000000000000000000000001630036107815760405162461bcd60e51b815260040161033b90611985565b7f00000000000000000000000000000000000000000000000000000000000000006001600160a01b03166107ca600080516020611b7b833981519152546001600160a01b031690565b6001600160a01b0316146107f05760405162461bcd60e51b815260040161033b906119d1565b6107f982610ce1565b61080582826001610d4d565b5050565b6000306001600160a01b037f000000000000000000000000000000000000000000000000000000000000000016146108a95760405162461bcd60e51b815260206004820152603860248201527f555550535570677261646561626c653a206d757374206e6f742062652063616c60448201527f6c6564207468726f7567682064656c656761746563616c6c0000000000000000606482015260840161033b565b50600080516020611b7b83398151915290565b336001600160a01b037f000000000000000000000000000000000000000000000000000000000000000016148061090357506000546201000090046001600160a01b031633145b61091f5760405162461bcd60e51b815260040161033b90611a1d565b6103c2848484848080601f01602080910402602001604051908101604052809392919081815260200183838082843760009201919091525061103c92505050565b600054610100900460ff16158080156109805750600054600160ff909116105b8061099a5750303b15801561099a575060005460ff166001145b6109fd5760405162461bcd60e51b815260206004820152602e60248201527f496e697469616c697a61626c653a20636f6e747261637420697320616c72656160448201526d191e481a5b9a5d1a585b1a5e995960921b606482015260840161033b565b6000805460ff191660011790558015610a20576000805461ff0019166101001790555b610a29826110ac565b8015610805576000805461ff0019169055604051600181527f7f26b83ff96e1f2b6a682f133852f6798a09c465da95921460cefb38474024989060200160405180910390a15050565b336001600160a01b037f0000000000000000000000000000000000000000000000000000000000000000161480610ab957506000546201000090046001600160a01b031633145b610ad55760405162461bcd60e51b815260040161033b90611a1d565b6040516001600160a01b03861660248201526044810182905260009060640160408051601f198184030181529190526020810180516001600160e01b031663095ea7b360e01b1790529050610b2c8360008361103c565b60405160248101869052604481018590526064810183905260009060840160408051601f198184030181529190526020810180516001600160e01b031663309026d160e01b179052905061072f87868361103c565b6000546201000090046001600160a01b03163314610bd75760405162461bcd60e51b815260206004820152601360248201527213db9b1e481bdddb995c8818d85b8818d85b1b606a1b604482015260640161033b565b80471015610c1c5760405162461bcd60e51b815260206004820152601260248201527153616c646f20696e737566696369656e746560701b604482015260640161033b565b60008054604051620100009091046001600160a01b03169083908381818185875af1925050503d8060008114610c6e576040519150601f19603f3d011682016040523d82523d6000602084013e610c73565b606091505b50509050806108055760405162461bcd60e51b815260206004820152601660248201527546616c6861206e61207472616e73666572656e63696160501b604482015260640161033b565b6000806000610ccc8585611128565b91509150610cd98161116d565b509392505050565b6000546201000090046001600160a01b031633146105195760405162461bcd60e51b8152602060048201526024808201527f4170656e6173206f2070726f70726965746172696f20706f646520617475616c60448201526334bd30b960e11b606482015260840161033b565b7f4910fdfa16fed3260ed0e7147f7cc6da11a60208b5b9406d12a635614ffd91435460ff1615610d8557610d80836112b7565b505050565b826001600160a01b03166352d1902d6040518163ffffffff1660e01b8152600401602060405180830381865afa925050508015610ddf575060408051601f3d908101601f19168201909252610ddc91810190611ad8565b60015b610e425760405162461bcd60e51b815260206004820152602e60248201527f45524331393637557067726164653a206e657720696d706c656d656e7461746960448201526d6f6e206973206e6f74205555505360901b606482015260840161033b565b600080516020611b7b8339815191528114610eb15760405162461bcd60e51b815260206004820152602960248201527f45524331393637557067726164653a20756e737570706f727465642070726f786044820152681a58589b195555525160ba1b606482015260840161033b565b50610d80838383611353565b336001600160a01b037f00000000000000000000000000000000000000000000000000000000000000001614610f355760405162461bcd60e51b815260206004820152601c60248201527f6163636f756e743a206e6f742066726f6d20456e747279506f696e7400000000604482015260640161033b565b565b7f19457468657265756d205369676e6564204d6573736167653a0a3332000000006000908152601c829052603c8120610fb4610f77610140860186611a6a565b8080601f0160208091040260200160405190810160405280939291908181526020018383808284376000920191909152508593925050610cbd9050565b6000546201000090046001600160a01b03908116911614610fd9576001915050610437565b5060009392505050565b801561051957604051600090339060001990849084818181858888f193505050503d8060008114611030576040519150601f19603f3d011682016040523d82523d6000602084013e611035565b606091505b5050505050565b600080846001600160a01b031684846040516110589190611b15565b60006040518083038185875af1925050503d8060008114611095576040519150601f19603f3d011682016040523d82523d6000602084013e61109a565b606091505b50915091508161103557805160208201fd5b6000805462010000600160b01b031916620100006001600160a01b038481168202929092178084556040519190048216927f0000000000000000000000000000000000000000000000000000000000000000909216917f47e55c76e7a6f1fd8996a1da8008c1ea29699cca35e7bcd057f2dec313b6e5de91a350565b600080825160410361115e5760208301516040840151606085015160001a61115287828585611378565b94509450505050611166565b506000905060025b9250929050565b600081600481111561118157611181611b31565b036111895750565b600181600481111561119d5761119d611b31565b036111ea5760405162461bcd60e51b815260206004820152601860248201527f45434453413a20696e76616c6964207369676e61747572650000000000000000604482015260640161033b565b60028160048111156111fe576111fe611b31565b0361124b5760405162461bcd60e51b815260206004820152601f60248201527f45434453413a20696e76616c6964207369676e6174757265206c656e67746800604482015260640161033b565b600381600481111561125f5761125f611b31565b036105195760405162461bcd60e51b815260206004820152602260248201527f45434453413a20696e76616c6964207369676e6174757265202773272076616c604482015261756560f01b606482015260840161033b565b6001600160a01b0381163b6113245760405162461bcd60e51b815260206004820152602d60248201527f455243313936373a206e657720696d706c656d656e746174696f6e206973206e60448201526c1bdd08184818dbdb9d1c9858dd609a1b606482015260840161033b565b600080516020611b7b83398151915280546001600160a01b0319166001600160a01b0392909216919091179055565b61135c8361143c565b6000825111806113695750805b15610d80576103c2838361147c565b6000807f7fffffffffffffffffffffffffffffff5d576e7357a4501ddfe92f46681b20a08311156113af5750600090506003611433565b6040805160008082526020820180845289905260ff881692820192909252606081018690526080810185905260019060a0016020604051602081039080840390855afa158015611403573d6000803e3d6000fd5b5050604051601f1901519150506001600160a01b03811661142c57600060019250925050611433565b9150600090505b94509492505050565b611445816112b7565b6040516001600160a01b038216907fbc7cd75a20ee27fd9adebab32041f755214dbc6bffa90cc0225b39da2e5c2d3b90600090a250565b606061053b8383604051806060016040528060278152602001611b9b602791396060600080856001600160a01b0316856040516114b99190611b15565b600060405180830381855af49150503d80600081146114f4576040519150601f19603f3d011682016040523d82523d6000602084013e6114f9565b606091505b509150915061150a86838387611514565b9695505050505050565b6060831561158357825160000361157c576001600160a01b0385163b61157c5760405162461bcd60e51b815260206004820152601d60248201527f416464726573733a2063616c6c20746f206e6f6e2d636f6e7472616374000000604482015260640161033b565b508161158d565b61158d8383611595565b949350505050565b8151156115a55781518083602001fd5b8060405162461bcd60e51b815260040161033b9190611b47565b80356001600160a01b03811681146115d657600080fd5b919050565b600080604083850312156115ee57600080fd5b6115f7836115bf565b946020939093013593505050565b634e487b7160e01b600052604160045260246000fd5b600082601f83011261162c57600080fd5b813567ffffffffffffffff8082111561164757611647611605565b604051601f8301601f19908116603f0116810190828211818310171561166f5761166f611605565b8160405283815286602085880101111561168857600080fd5b836020870160208301376000602085830101528094505050505092915050565b600080604083850312156116bb57600080fd5b82359150602083013567ffffffffffffffff8111156116d957600080fd5b6116e58582860161161b565b9150509250929050565b60006020828403121561170157600080fd5b61053b826115bf565b60008060006060848603121561171f57600080fd5b833567ffffffffffffffff81111561173657600080fd5b8401610160818703121561174957600080fd5b95602085013595506040909401359392505050565b60008083601f84011261177057600080fd5b50813567ffffffffffffffff81111561178857600080fd5b6020830191508360208260051b850101111561116657600080fd5b600080600080600080606087890312156117bc57600080fd5b863567ffffffffffffffff808211156117d457600080fd5b6117e08a838b0161175e565b909850965060208901359150808211156117f957600080fd5b6118058a838b0161175e565b9096509450604089013591508082111561181e57600080fd5b5061182b89828a0161175e565b979a9699509497509295939492505050565b6000806040838503121561185057600080fd5b611859836115bf565b9150602083013567ffffffffffffffff8111156116d957600080fd5b6000806000806060858703121561188b57600080fd5b611894856115bf565b935060208501359250604085013567ffffffffffffffff808211156118b857600080fd5b818701915087601f8301126118cc57600080fd5b8135818111156118db57600080fd5b8860208285010111156118ed57600080fd5b95989497505060200194505050565b600080600080600060a0868803121561191457600080fd5b61191d866115bf565b94506020860135935060408601359250611939606087016115bf565b949793965091946080013592915050565b60006020828403121561195c57600080fd5b5035919050565b60006020828403121561197557600080fd5b8151801515811461053b57600080fd5b6020808252602c908201527f46756e6374696f6e206d7573742062652063616c6c6564207468726f7567682060408201526b19195b1959d85d1958d85b1b60a21b606082015260800190565b6020808252602c908201527f46756e6374696f6e206d7573742062652063616c6c6564207468726f7567682060408201526b6163746976652070726f787960a01b606082015260800190565b60208082526018908201527f4f6e6c79206f776e6572206f7220656e747279706f696e740000000000000000604082015260600190565b634e487b7160e01b600052603260045260246000fd5b6000808335601e19843603018112611a8157600080fd5b83018035915067ffffffffffffffff821115611a9c57600080fd5b60200191503681900382131561116657600080fd5b600060018201611ad157634e487b7160e01b600052601160045260246000fd5b5060010190565b600060208284031215611aea57600080fd5b5051919050565b60005b83811015611b0c578181015183820152602001611af4565b50506000910152565b60008251611b27818460208701611af1565b9190910192915050565b634e487b7160e01b600052602160045260246000fd5b6020815260008251806020840152611b66816040850160208701611af1565b601f01601f1916919091016040019291505056fe360894a13ba1a3210667c828492db98dca3e2076cc3735a920a3ca505d382bbc416464726573733a206c6f772d6c6576656c2064656c65676174652063616c6c206661696c6564a264697066735822122049014b325e1082e380fe92105f487f6e9e91a223e4ad647254a4012ac195e78464736f6c63430008110033",
  "linkReferences": {},
  "deployedLinkReferences": {}
}