{
  "_format": "hh-sol-artifact-1",
  "contractName": "GamePaymaster",
  "sourceName": "contracts/GamePaymaster.sol",
  "abi": [
    {
      "inputs": [
        {
          "internalType": "contract IEntryPoint",
          "name": "_entryPoint",
          "type": "address"
        },
        {
          "internalType": "address",
          "name": "_gameTokenAddress",
          "type": "address"
        },
        {
          "internalType": "address",
          "name": "_gameContract",
          "type": "address"
        }
      ],
      "stateMutability": "nonpayable",
      "type": "constructor"
    },
    {
      "anonymous": false,
      "inputs": [
        {
          "indexed": true,
          "internalType": "address",
          "name": "playerWallet",
          "type": "address"
        }
      ],
      "name": "CollateralAdded",
      "type": "event"
    },
    {
      "anonymous": false,
      "inputs": [
        {
          "indexed": true,
          "internalType": "address",
          "name": "playerWallet",
          "type": "address"
        }
      ],
      "name": "CollateralRemoved",
      "type": "event"
    },
    {
      "anonymous": false,
      "inputs": [
        {
          "indexed": true,
          "internalType": "address",
          "name": "playerWallet",
          "type": "address"
        },
        {
          "indexed": false,
          "internalType": "uint256",
          "name": "gasAmount",
          "type": "uint256"
        }
      ],
      "name": "GasPaidForPlayer",
      "type": "event"
    },
    {
      "anonymous": false,
      "inputs": [
        {
          "indexed": true,
          "internalType": "address",
          "name": "previousOwner",
          "type": "address"
        },
        {
          "indexed": true,
          "internalType": "address",
          "name": "newOwner",
          "type": "address"
        }
      ],
      "name": "OwnershipTransferred",
      "type": "event"
    },
    {
      "anonymous": false,
      "inputs": [
        {
          "indexed": true,
          "internalType": "address",
          "name": "playerWallet",
          "type": "address"
        }
      ],
      "name": "PlayerRegistered",
      "type": "event"
    },
    {
      "inputs": [
        {
          "internalType": "address",
          "name": "playerWallet",
          "type": "address"
        }
      ],
      "name": "addCollateral",
      "outputs": [],
      "stateMutability": "nonpayable",
      "type": "function"
    },
    {
      "inputs": [
        {
          "internalType": "uint32",
          "name": "unstakeDelaySec",
          "type": "uint32"
        }
      ],
      "name": "addStake",
      "outputs": [],
      "stateMutability": "payable",
      "type": "function"
    },
    {
      "inputs": [],
      "name": "deposit",
      "outputs": [],
      "stateMutability": "payable",
      "type": "function"
    },
    {
      "inputs": [],
      "name": "depositToEntryPoint",
      "outputs": [],
      "stateMutability": "payable",
      "type": "function"
    },
    {
      "inputs": [],
      "name": "entryPoint",
      "outputs": [
        {
          "internalType": "contract IEntryPoint",
          "name": "",
          "type": "address"
        }
      ],
      "stateMutability": "view",
      "type": "function"
    },
    {
      "inputs": [],
      "name": "gameContract",
      "outputs": [
        {
          "internalType": "address",
          "name": "",
          "type": "address"
        }
      ],
      "stateMutability": "view",
      "type": "function"
    },
    {
      "inputs": [],
      "name": "gameToken",
      "outputs": [
        {
          "internalType": "contract IERC20",
          "name": "",
          "type": "address"
        }
      ],
      "stateMutability": "view",
      "type": "function"
    },
    {
      "inputs": [],
      "name": "gameTokenAddress",
      "outputs": [
        {
          "internalType": "address",
          "name": "",
          "type": "address"
        }
      ],
      "stateMutability": "view",
      "type": "function"
    },
    {
      "inputs": [],
      "name": "getDeposit",
      "outputs": [
        {
          "internalType": "uint256",
          "name": "",
          "type": "uint256"
        }
      ],
      "stateMutability": "view",
      "type": "function"
    },
    {
      "inputs": [
        {
          "internalType": "address",
          "name": "",
          "type": "address"
        }
      ],
      "name": "hasCollateral",
      "outputs": [
        {
          "internalType": "bool",
          "name": "",
          "type": "bool"
        }
      ],
      "stateMutability": "view",
      "type": "function"
    },
    {
      "inputs": [],
      "name": "maxTransactionsPerPlayer",
      "outputs": [
        {
          "internalType": "uint256",
          "name": "",
          "type": "uint256"
        }
      ],
      "stateMutability": "view",
      "type": "function"
    },
    {
      "inputs": [
        {
          "internalType": "address",
          "name": "",
          "type": "address"
        }
      ],
      "name": "newPlayerWallets",
      "outputs": [
        {
          "internalType": "bool",
          "name": "",
          "type": "bool"
        }
      ],
      "stateMutability": "view",
      "type": "function"
    },
    {
      "inputs": [],
      "name": "owner",
      "outputs": [
        {
          "internalType": "address",
          "name": "",
          "type": "address"
        }
      ],
      "stateMutability": "view",
      "type": "function"
    },
    {
      "inputs": [
        {
          "internalType": "address",
          "name": "",
          "type": "address"
        }
      ],
      "name": "playerTransactionCount",
      "outputs": [
        {
          "internalType": "uint256",
          "name": "",
          "type": "uint256"
        }
      ],
      "stateMutability": "view",
      "type": "function"
    },
    {
      "inputs": [
        {
          "internalType": "enum IPaymaster.PostOpMode",
          "name": "mode",
          "type": "uint8"
        },
        {
          "internalType": "bytes",
          "name": "context",
          "type": "bytes"
        },
        {
          "internalType": "uint256",
          "name": "actualGasCost",
          "type": "uint256"
        }
      ],
      "name": "postOp",
      "outputs": [],
      "stateMutability": "nonpayable",
      "type": "function"
    },
    {
      "inputs": [
        {
          "internalType": "address",
          "name": "playerWallet",
          "type": "address"
        }
      ],
      "name": "registerNewPlayer",
      "outputs": [],
      "stateMutability": "nonpayable",
      "type": "function"
    },
    {
      "inputs": [
        {
          "internalType": "address",
          "name": "playerWallet",
          "type": "address"
        }
      ],
      "name": "removeCollateral",
      "outputs": [],
      "stateMutability": "nonpayable",
      "type": "function"
    },
    {
      "inputs": [],
      "name": "renounceOwnership",
      "outputs": [],
      "stateMutability": "nonpayable",
      "type": "function"
    },
    {
      "inputs": [
        {
          "internalType": "uint256",
          "name": "maxTx",
          "type": "uint256"
        }
      ],
      "name": "setMaxTransactionsPerPlayer",
      "outputs": [],
      "stateMutability": "nonpayable",
      "type": "function"
    },
    {
      "inputs": [
        {
          "internalType": "address",
          "name": "newOwner",
          "type": "address"
        }
      ],
      "name": "transferOwnership",
      "outputs": [],
      "stateMutability": "nonpayable",
      "type": "function"
    },
    {
      "inputs": [],
      "name": "unlockStake",
      "outputs": [],
      "stateMutability": "nonpayable",
      "type": "function"
    },
    {
      "inputs": [
        {
          "components": [
            {
              "internalType": "address",
              "name": "sender",
              "type": "address"
            },
            {
              "internalType": "uint256",
              "name": "nonce",
              "type": "uint256"
            },
            {
              "internalType": "bytes",
              "name": "initCode",
              "type": "bytes"
            },
            {
              "internalType": "bytes",
              "name": "callData",
              "type": "bytes"
            },
            {
              "internalType": "uint256",
              "name": "callGasLimit",
              "type": "uint256"
            },
            {
              "internalType": "uint256",
              "name": "verificationGasLimit",
              "type": "uint256"
            },
            {
              "internalType": "uint256",
              "name": "preVerificationGas",
              "type": "uint256"
            },
            {
              "internalType": "uint256",
              "name": "maxFeePerGas",
              "type": "uint256"
            },
            {
              "internalType": "uint256",
              "name": "maxPriorityFeePerGas",
              "type": "uint256"
            },
            {
              "internalType": "bytes",
              "name": "paymasterAndData",
              "type": "bytes"
            },
            {
              "internalType": "bytes",
              "name": "signature",
              "type": "bytes"
            }
          ],
          "internalType": "struct UserOperation",
          "name": "userOp",
          "type": "tuple"
        },
        {
          "internalType": "bytes32",
          "name": "userOpHash",
          "type": "bytes32"
        },
        {
          "internalType": "uint256",
          "name": "maxCost",
          "type": "uint256"
        }
      ],
      "name": "validatePaymasterUserOp",
      "outputs": [
        {
          "internalType": "bytes",
          "name": "context",
          "type": "bytes"
        },
        {
          "internalType": "uint256",
          "name": "validationData",
          "type": "uint256"
        }
      ],
      "stateMutability": "nonpayable",
      "type": "function"
    },
    {
      "inputs": [
        {
          "internalType": "uint256",
          "name": "amount",
          "type": "uint256"
        }
      ],
      "name": "withdrawFromEntryPoint",
      "outputs": [],
      "stateMutability": "nonpayable",
      "type": "function"
    },
    {
      "inputs": [
        {
          "internalType": "address payable",
          "name": "withdrawAddress",
          "type": "address"
        }
      ],
      "name": "withdrawStake",
      "outputs": [],
      "stateMutability": "nonpayable",
      "type": "function"
    },
    {
      "inputs": [
        {
          "internalType": "address payable",
          "name": "withdrawAddress",
          "type": "address"
        },
        {
          "internalType": "uint256",
          "name": "amount",
          "type": "uint256"
        }
      ],
      "name": "withdrawTo",
      "outputs": [],
      "stateMutability": "nonpayable",
      "type": "function"
    },
    {
      "stateMutability": "payable",
      "type": "receive"
    }
  ],
  "bytecode": "0x61010060405260056003553480156200001757600080fd5b5060405162001425380380620014258339810160408190526200003a91620000d3565b8262000046336200006a565b6001600160a01b0390811660805291821660c081905260a0521660e0525062000127565b600080546001600160a01b038381166001600160a01b0319831681178455604051919092169283917f8be0079c531659141344cd1fd0a4f28419497f9722a3daafe3b4186f6b6457e09190a35050565b6001600160a01b0381168114620000d057600080fd5b50565b600080600060608486031215620000e957600080fd5b8351620000f681620000ba565b60208501519093506200010981620000ba565b60408501519092506200011c81620000ba565b809150509250925092565b60805160a05160c05160e051611277620001ae60003960008181610464015281816109d00152610aa2015260006101c50152600061040801526000818161035a015281816105160152818161059c015281816106320152818161068001528181610872015281816109060152818161094d01528181610cba0152610ed401526112776000f3fe60806040526004361061016a5760003560e01c8063a9a23409116100d1578063c3dfdae61161008a578063d3f3300911610064578063d3f3300914610452578063f0d2d5a814610486578063f2fde38b146104a6578063f465c77e146104c657600080fd5b8063c3dfdae6146103f6578063c99d3a061461042a578063d0e30db01461044a57600080fd5b8063a9a2340914610328578063b0d691fe14610348578063b38988f71461037c578063bb9fe6bf146103ac578063c23a5cea146103c1578063c399ec88146103e157600080fd5b8063715018a611610123578063715018a6146102485780637ccc8cb31461025d5780637dad51bd1461027d57806388561c29146102bd5780638da5cb5b146102ea57806394a3cd0b1461030857600080fd5b80630396cb60146101765780631b3ba1011461018b578063205c2878146101935780634431b4e4146101b35780636b1a9999146102045780636e574f071461022457600080fd5b3661017157005b600080fd5b610189610184366004611025565b6104f4565b005b61018961057f565b34801561019f57600080fd5b506101896101ae366004611067565b610604565b3480156101bf57600080fd5b506101e77f000000000000000000000000000000000000000000000000000000000000000081565b6040516001600160a01b0390911681526020015b60405180910390f35b34801561021057600080fd5b5061018961021f366004611093565b610676565b34801561023057600080fd5b5061023a60035481565b6040519081526020016101fb565b34801561025457600080fd5b50610189610708565b34801561026957600080fd5b50610189610278366004611093565b61071c565b34801561028957600080fd5b506102ad6102983660046110ac565b60016020526000908152604090205460ff1681565b60405190151581526020016101fb565b3480156102c957600080fd5b5061023a6102d83660046110ac565b60046020526000908152604090205481565b3480156102f657600080fd5b506000546001600160a01b03166101e7565b34801561031457600080fd5b506101896103233660046110ac565b610729565b34801561033457600080fd5b506101896103433660046110c9565b61084e565b34801561035457600080fd5b506101e77f000000000000000000000000000000000000000000000000000000000000000081565b34801561038857600080fd5b506102ad6103973660046110ac565b60026020526000908152604090205460ff1681565b3480156103b857600080fd5b50610189610868565b3480156103cd57600080fd5b506101896103dc3660046110ac565b6108df565b3480156103ed57600080fd5b5061023a610935565b34801561040257600080fd5b506101e77f000000000000000000000000000000000000000000000000000000000000000081565b34801561043657600080fd5b506101896104453660046110ac565b6109c5565b610189610587565b34801561045e57600080fd5b506101e77f000000000000000000000000000000000000000000000000000000000000000081565b34801561049257600080fd5b506101896104a13660046110ac565b610a97565b3480156104b257600080fd5b506101896104c13660046110ac565b610b69565b3480156104d257600080fd5b506104e66104e1366004611158565b610be2565b6040516101fb9291906111ac565b6104fc610c05565b604051621cb65b60e51b815263ffffffff821660048201527f00000000000000000000000000000000000000000000000000000000000000006001600160a01b031690630396cb609034906024016000604051808303818588803b15801561056357600080fd5b505af1158015610577573d6000803e3d6000fd5b505050505050565b610587610c05565b60405163b760faf960e01b81523060048201527f00000000000000000000000000000000000000000000000000000000000000006001600160a01b03169063b760faf99034906024016000604051808303818588803b1580156105e957600080fd5b505af11580156105fd573d6000803e3d6000fd5b5050505050565b61060c610c05565b60405163040b850f60e31b81526001600160a01b038381166004830152602482018390527f0000000000000000000000000000000000000000000000000000000000000000169063205c287890604401600060405180830381600087803b15801561056357600080fd5b61067e610c05565b7f00000000000000000000000000000000000000000000000000000000000000006001600160a01b031663205c28786106bf6000546001600160a01b031690565b6040516001600160e01b031960e084901b1681526001600160a01b039091166004820152602481018490526044015b600060405180830381600087803b1580156105e957600080fd5b610710610c05565b61071a6000610c5f565b565b610724610c05565b600355565b610731610c05565b6001600160a01b03811661078c5760405162461bcd60e51b815260206004820152601c60248201527f43616e6e6f74207265676973746572207a65726f20616464726573730000000060448201526064015b60405180910390fd5b6001600160a01b03811660009081526001602052604090205460ff16156107f55760405162461bcd60e51b815260206004820152601960248201527f506c6179657220616c72656164792072656769737465726564000000000000006044820152606401610783565b6001600160a01b0381166000818152600160208181526040808420805460ff191690931790925560049052808220829055517f8cd3331e32cec677d80b82cf0f71496605e7ed6ff864a3ccedc7d5d11d838c839190a250565b610856610caf565b61086284848484610d1f565b50505050565b610870610c05565b7f00000000000000000000000000000000000000000000000000000000000000006001600160a01b031663bb9fe6bf6040518163ffffffff1660e01b8152600401600060405180830381600087803b1580156108cb57600080fd5b505af1158015610862573d6000803e3d6000fd5b6108e7610c05565b60405163611d2e7560e11b81526001600160a01b0382811660048301527f0000000000000000000000000000000000000000000000000000000000000000169063c23a5cea906024016106ee565b6040516370a0823160e01b81523060048201526000907f00000000000000000000000000000000000000000000000000000000000000006001600160a01b0316906370a0823190602401602060405180830381865afa15801561099c573d6000803e3d6000fd5b505050506040513d601f19601f820116820180604052508101906109c09190611201565b905090565b336001600160a01b037f00000000000000000000000000000000000000000000000000000000000000001614610a4e5760405162461bcd60e51b815260206004820152602860248201527f4f6e6c792067616d6520636f6e74726163742063616e2072656d6f766520636f6044820152671b1b185d195c985b60c21b6064820152608401610783565b6001600160a01b038116600081815260026020526040808220805460ff19169055517fd89d2ee68ab04dca0193f48a4aff55e20fa5ec0429a8a8c1c51b8dad6178a5939190a250565b336001600160a01b037f00000000000000000000000000000000000000000000000000000000000000001614610b1d5760405162461bcd60e51b815260206004820152602560248201527f4f6e6c792067616d6520636f6e74726163742063616e2061646420636f6c6c616044820152641d195c985b60da1b6064820152608401610783565b6001600160a01b038116600081815260026020526040808220805460ff19166001179055517f7db05e63d635a68c62fd7fd8f3107ae8ab584a383e102d1bd8a40f4c977e465f9190a250565b610b71610c05565b6001600160a01b038116610bd65760405162461bcd60e51b815260206004820152602660248201527f4f776e61626c653a206e6577206f776e657220697320746865207a65726f206160448201526564647265737360d01b6064820152608401610783565b610bdf81610c5f565b50565b60606000610bee610caf565b610bf9858585610d7d565b91509150935093915050565b6000546001600160a01b0316331461071a5760405162461bcd60e51b815260206004820181905260248201527f4f776e61626c653a2063616c6c6572206973206e6f7420746865206f776e65726044820152606401610783565b600080546001600160a01b038381166001600160a01b0319831681178455604051919092169283917f8be0079c531659141344cd1fd0a4f28419497f9722a3daafe3b4186f6b6457e09190a35050565b336001600160a01b037f0000000000000000000000000000000000000000000000000000000000000000161461071a5760405162461bcd60e51b815260206004820152601560248201527414d95b99195c881b9bdd08115b9d1c9e541bda5b9d605a1b6044820152606401610783565b600080610d2e84860186611067565b91509150816001600160a01b03167faed4793eb77d1a63c7564d67ffc1a810fab7cf45eb933a834184fa6d6a3f009084604051610d6d91815260200190565b60405180910390a2505050505050565b6060600080610d8f60208701876110ac565b6001600160a01b03811660009081526001602052604090205490915060ff16610e095760405162461bcd60e51b815260206004820152602660248201527f47616d655061796d61737465723a206e6f742061207265676973746572656420604482015265383630bcb2b960d11b6064820152608401610783565b6001600160a01b03811660009081526002602052604090205460ff1680610e4957506003546001600160a01b038216600090815260046020526040902054105b610ebb5760405162461bcd60e51b815260206004820152603a60248201527f47616d655061796d61737465723a206e6f20636f6c6c61746572616c206f722060448201527f7472616e73616374696f6e206c696d69742065786365656465640000000000006064820152608401610783565b6040516370a0823160e01b8152306004820152849081907f00000000000000000000000000000000000000000000000000000000000000006001600160a01b0316906370a0823190602401602060405180830381865afa158015610f23573d6000803e3d6000fd5b505050506040513d601f19601f82011682018060405250810190610f479190611201565b1015610fa15760405162461bcd60e51b815260206004820152602360248201527f47616d655061796d61737465723a20696e73756666696369656e74206465706f6044820152621cda5d60ea1b6064820152608401610783565b6001600160a01b03821660009081526002602052604090205460ff16610feb576001600160a01b0382166000908152600460205260408120805491610fe58361121a565b91905055505b604080516001600160a01b038416602082015290810186905260600160408051601f19818403018152919052976000975095505050505050565b60006020828403121561103757600080fd5b813563ffffffff8116811461104b57600080fd5b9392505050565b6001600160a01b0381168114610bdf57600080fd5b6000806040838503121561107a57600080fd5b823561108581611052565b946020939093013593505050565b6000602082840312156110a557600080fd5b5035919050565b6000602082840312156110be57600080fd5b813561104b81611052565b600080600080606085870312156110df57600080fd5b8435600381106110ee57600080fd5b9350602085013567ffffffffffffffff8082111561110b57600080fd5b818701915087601f83011261111f57600080fd5b81358181111561112e57600080fd5b88602082850101111561114057600080fd5b95986020929092019750949560400135945092505050565b60008060006060848603121561116d57600080fd5b833567ffffffffffffffff81111561118457600080fd5b8401610160818703121561119757600080fd5b95602085013595506040909401359392505050565b604081526000835180604084015260005b818110156111da57602081870181015160608684010152016111bd565b506000606082850101526060601f19601f8301168401019150508260208301529392505050565b60006020828403121561121357600080fd5b5051919050565b60006001820161123a57634e487b7160e01b600052601160045260246000fd5b506001019056fea2646970667358221220b58cdbd2872e80a4237cd8fdd0e91a9f65f38affb60c43b80bfcb6ea4958c60a64736f6c63430008110033",
  "linkReferences": {},
  "deployedLinkReferences": {}
}