{
  "_format": "hh-sol-artifact-1",
  "contractName": "BiometricAuthAccount",
  "sourceName": "contracts/BiometricAuthAccount.sol",
  "abi": [
    {
      "inputs": [
        {
          "internalType": "contract IEntryPoint",
          "name": "anEntryPoint",
          "type": "address"
        }
      ],
      "stateMutability": "nonpayable",
      "type": "constructor"
    },
    {
      "anonymous": false,
      "inputs": [
        {
          "indexed": false,
          "internalType": "address",
          "name": "previousAdmin",
          "type": "address"
        },
        {
          "indexed": false,
          "internalType": "address",
          "name": "newAdmin",
          "type": "address"
        }
      ],
      "name": "AdminChanged",
      "type": "event"
    },
    {
      "anonymous": false,
      "inputs": [
        {
          "indexed": true,
          "internalType": "address",
          "name": "beacon",
          "type": "address"
        }
      ],
      "name": "BeaconUpgraded",
      "type": "event"
    },
    {
      "anonymous": false,
      "inputs": [
        {
          "indexed": true,
          "internalType": "contract IEntryPoint",
          "name": "entryPoint",
          "type": "address"
        },
        {
          "indexed": true,
          "internalType": "address",
          "name": "owner",
          "type": "address"
        }
      ],
      "name": "BiometricAccountInitialized",
      "type": "event"
    },
    {
      "anonymous": false,
      "inputs": [
        {
          "indexed": true,
          "internalType": "bytes32",
          "name": "deviceId",
          "type": "bytes32"
        },
        {
          "indexed": true,
          "internalType": "address",
          "name": "destination",
          "type": "address"
        },
        {
          "indexed": false,
          "internalType": "uint256",
          "name": "amount",
          "type": "uint256"
        }
      ],
      "name": "BiometricTransactionExecuted",
      "type": "event"
    },
    {
      "anonymous": false,
      "inputs": [
        {
          "indexed": true,
          "internalType": "bytes32",
          "name": "deviceId",
          "type": "bytes32"
        },
        {
          "indexed": false,
          "internalType": "uint256",
          "name": "newLimit",
          "type": "uint256"
        }
      ],
      "name": "DailyLimitChanged",
      "type": "event"
    },
    {
      "anonymous": false,
      "inputs": [
        {
          "indexed": true,
          "internalType": "bytes32",
          "name": "deviceId",
          "type": "bytes32"
        },
        {
          "indexed": false,
          "internalType": "string",
          "name": "deviceName",
          "type": "string"
        }
      ],
      "name": "DeviceRegistered",
      "type": "event"
    },
    {
      "anonymous": false,
      "inputs": [
        {
          "indexed": true,
          "internalType": "bytes32",
          "name": "deviceId",
          "type": "bytes32"
        }
      ],
      "name": "DeviceRemoved",
      "type": "event"
    },
    {
      "anonymous": false,
      "inputs": [
        {
          "indexed": false,
          "internalType": "uint8",
          "name": "version",
          "type": "uint8"
        }
      ],
      "name": "Initialized",
      "type": "event"
    },
    {
      "anonymous": false,
      "inputs": [
        {
          "indexed": true,
          "internalType": "address",
          "name": "destination",
          "type": "address"
        },
        {
          "indexed": false,
          "internalType": "uint256",
          "name": "amount",
          "type": "uint256"
        }
      ],
      "name": "ManualTransactionExecuted",
      "type": "event"
    },
    {
      "anonymous": false,
      "inputs": [
        {
          "indexed": true,
          "internalType": "address",
          "name": "implementation",
          "type": "address"
        }
      ],
      "name": "Upgraded",
      "type": "event"
    },
    {
      "inputs": [],
      "name": "biometricVerificationHash",
      "outputs": [
        {
          "internalType": "bytes32",
          "name": "",
          "type": "bytes32"
        }
      ],
      "stateMutability": "view",
      "type": "function"
    },
    {
      "inputs": [
        {
          "internalType": "bytes32",
          "name": "",
          "type": "bytes32"
        }
      ],
      "name": "dailyLimit",
      "outputs": [
        {
          "internalType": "uint256",
          "name": "",
          "type": "uint256"
        }
      ],
      "stateMutability": "view",
      "type": "function"
    },
    {
      "inputs": [
        {
          "internalType": "bytes32",
          "name": "",
          "type": "bytes32"
        }
      ],
      "name": "dailyUsage",
      "outputs": [
        {
          "internalType": "uint256",
          "name": "used",
          "type": "uint256"
        },
        {
          "internalType": "uint256",
          "name": "lastResetTime",
          "type": "uint256"
        }
      ],
      "stateMutability": "view",
      "type": "function"
    },
    {
      "inputs": [
        {
          "internalType": "uint256",
          "name": "",
          "type": "uint256"
        }
      ],
      "name": "deviceIds",
      "outputs": [
        {
          "internalType": "bytes32",
          "name": "",
          "type": "bytes32"
        }
      ],
      "stateMutability": "view",
      "type": "function"
    },
    {
      "inputs": [
        {
          "internalType": "bytes32",
          "name": "",
          "type": "bytes32"
        }
      ],
      "name": "devices",
      "outputs": [
        {
          "internalType": "bytes32",
          "name": "deviceId",
          "type": "bytes32"
        },
        {
          "internalType": "string",
          "name": "deviceName",
          "type": "string"
        },
        {
          "internalType": "uint256",
          "name": "registeredAt",
          "type": "uint256"
        },
        {
          "internalType": "bool",
          "name": "active",
          "type": "bool"
        }
      ],
      "stateMutability": "view",
      "type": "function"
    },
    {
      "inputs": [],
      "name": "entryPoint",
      "outputs": [
        {
          "internalType": "contract IEntryPoint",
          "name": "",
          "type": "address"
        }
      ],
      "stateMutability": "view",
      "type": "function"
    },
    {
      "inputs": [
        {
          "internalType": "address",
          "name": "dest",
          "type": "address"
        },
        {
          "internalType": "uint256",
          "name": "value",
          "type": "uint256"
        },
        {
          "internalType": "bytes",
          "name": "func",
          "type": "bytes"
        }
      ],
      "name": "execute",
      "outputs": [],
      "stateMutability": "nonpayable",
      "type": "function"
    },
    {
      "inputs": [
        {
          "internalType": "address[]",
          "name": "dest",
          "type": "address[]"
        },
        {
          "internalType": "bytes[]",
          "name": "func",
          "type": "bytes[]"
        }
      ],
      "name": "executeBatch",
      "outputs": [],
      "stateMutability": "nonpayable",
      "type": "function"
    },
    {
      "inputs": [
        {
          "internalType": "bytes32",
          "name": "deviceId",
          "type": "bytes32"
        },
        {
          "internalType": "address",
          "name": "dest",
          "type": "address"
        },
        {
          "internalType": "uint256",
          "name": "value",
          "type": "uint256"
        },
        {
          "internalType": "bytes",
          "name": "func",
          "type": "bytes"
        },
        {
          "internalType": "bytes",
          "name": "biometricSignature",
          "type": "bytes"
        }
      ],
      "name": "executeBiometric",
      "outputs": [],
      "stateMutability": "nonpayable",
      "type": "function"
    },
    {
      "inputs": [
        {
          "internalType": "bytes32",
          "name": "deviceId",
          "type": "bytes32"
        }
      ],
      "name": "getDailyUsage",
      "outputs": [
        {
          "internalType": "uint256",
          "name": "used",
          "type": "uint256"
        },
        {
          "internalType": "uint256",
          "name": "limit",
          "type": "uint256"
        },
        {
          "internalType": "uint256",
          "name": "remaining",
          "type": "uint256"
        }
      ],
      "stateMutability": "view",
      "type": "function"
    },
    {
      "inputs": [],
      "name": "getDevices",
      "outputs": [
        {
          "components": [
            {
              "internalType": "bytes32",
              "name": "deviceId",
              "type": "bytes32"
            },
            {
              "internalType": "string",
              "name": "deviceName",
              "type": "string"
            },
            {
              "internalType": "uint256",
              "name": "registeredAt",
              "type": "uint256"
            },
            {
              "internalType": "bool",
              "name": "active",
              "type": "bool"
            }
          ],
          "internalType": "struct BiometricAuthAccount.BiometricDevice[]",
          "name": "",
          "type": "tuple[]"
        }
      ],
      "stateMutability": "view",
      "type": "function"
    },
    {
      "inputs": [],
      "name": "getNonce",
      "outputs": [
        {
          "internalType": "uint256",
          "name": "",
          "type": "uint256"
        }
      ],
      "stateMutability": "view",
      "type": "function"
    },
    {
      "inputs": [
        {
          "internalType": "address",
          "name": "anOwner",
          "type": "address"
        }
      ],
      "name": "initialize",
      "outputs": [],
      "stateMutability": "nonpayable",
      "type": "function"
    },
    {
      "inputs": [],
      "name": "owner",
      "outputs": [
        {
          "internalType": "address",
          "name": "",
          "type": "address"
        }
      ],
      "stateMutability": "view",
      "type": "function"
    },
    {
      "inputs": [],
      "name": "proxiableUUID",
      "outputs": [
        {
          "internalType": "bytes32",
          "name": "",
          "type": "bytes32"
        }
      ],
      "stateMutability": "view",
      "type": "function"
    },
    {
      "inputs": [
        {
          "internalType": "bytes32",
          "name": "deviceId",
          "type": "bytes32"
        },
        {
          "internalType": "string",
          "name": "deviceName",
          "type": "string"
        },
        {
          "internalType": "uint256",
          "name": "initialDailyLimit",
          "type": "uint256"
        }
      ],
      "name": "registerDevice",
      "outputs": [],
      "stateMutability": "nonpayable",
      "type": "function"
    },
    {
      "inputs": [
        {
          "internalType": "bytes32",
          "name": "deviceId",
          "type": "bytes32"
        }
      ],
      "name": "removeDevice",
      "outputs": [],
      "stateMutability": "nonpayable",
      "type": "function"
    },
    {
      "inputs": [
        {
          "internalType": "bytes32",
          "name": "deviceId",
          "type": "bytes32"
        },
        {
          "internalType": "uint256",
          "name": "newLimit",
          "type": "uint256"
        }
      ],
      "name": "setDailyLimit",
      "outputs": [],
      "stateMutability": "nonpayable",
      "type": "function"
    },
    {
      "inputs": [
        {
          "internalType": "address",
          "name": "newImplementation",
          "type": "address"
        }
      ],
      "name": "upgradeTo",
      "outputs": [],
      "stateMutability": "nonpayable",
      "type": "function"
    },
    {
      "inputs": [
        {
          "internalType": "address",
          "name": "newImplementation",
          "type": "address"
        },
        {
          "internalType": "bytes",
          "name": "data",
          "type": "bytes"
        }
      ],
      "name": "upgradeToAndCall",
      "outputs": [],
      "stateMutability": "payable",
      "type": "function"
    },
    {
      "inputs": [
        {
          "components": [
            {
              "internalType": "address",
              "name": "sender",
              "type": "address"
            },
            {
              "internalType": "uint256",
              "name": "nonce",
              "type": "uint256"
            },
            {
              "internalType": "bytes",
              "name": "initCode",
              "type": "bytes"
            },
            {
              "internalType": "bytes",
              "name": "callData",
              "type": "bytes"
            },
            {
              "internalType": "uint256",
              "name": "callGasLimit",
              "type": "uint256"
            },
            {
              "internalType": "uint256",
              "name": "verificationGasLimit",
              "type": "uint256"
            },
            {
              "internalType": "uint256",
              "name": "preVerificationGas",
              "type": "uint256"
            },
            {
              "internalType": "uint256",
              "name": "maxFeePerGas",
              "type": "uint256"
            },
            {
              "internalType": "uint256",
              "name": "maxPriorityFeePerGas",
              "type": "uint256"
            },
            {
              "internalType": "bytes",
              "name": "paymasterAndData",
              "type": "bytes"
            },
            {
              "internalType": "bytes",
              "name": "signature",
              "type": "bytes"
            }
          ],
          "internalType": "struct UserOperation",
          "name": "userOp",
          "type": "tuple"
        },
        {
          "internalType": "bytes32",
          "name": "userOpHash",
          "type": "bytes32"
        },
        {
          "internalType": "uint256",
          "name": "missingAccountFunds",
          "type": "uint256"
        }
      ],
      "name": "validateUserOp",
      "outputs": [
        {
          "internalType": "uint256",
          "name": "validationData",
          "type": "uint256"
        }
      ],
      "stateMutability": "nonpayable",
      "type": "function"
    },
    {
      "stateMutability": "payable",
      "type": "receive"
    }
  ],
  "bytecode": "0x60c0604052306080523480156200001557600080fd5b5060405162002a5238038062002a52833981016040819052620000389162000117565b6001600160a01b03811660a0526200004f62000056565b5062000149565b600054610100900460ff1615620000c35760405162461bcd60e51b815260206004820152602760248201527f496e697469616c697a61626c653a20636f6e747261637420697320696e697469604482015266616c697a696e6760c81b606482015260840160405180910390fd5b60005460ff9081161462000115576000805460ff191660ff9081179091556040519081527f7f26b83ff96e1f2b6a682f133852f6798a09c465da95921460cefb38474024989060200160405180910390a15b565b6000602082840312156200012a57600080fd5b81516001600160a01b03811681146200014257600080fd5b9392505050565b60805160a05161289d620001b5600039600081816103350152818161047b0152818161095001528181610d13015281816110f10152818161123801526116bf01526000818161067a015281816106ba0152818161077f015281816107bf0152610852015261289d6000f3fe60806040526004361061012e5760003560e01c806389b5b996116100ab578063c4d66de81161006f578063c4d66de814610399578063c5c400de146103b9578063c7c452c8146103e9578063d087d288146103ff578063d4ad82fe14610414578063d611d6c81461043457600080fd5b806389b5b996146102c85780638da5cb5b146102e8578063b0d691fe14610326578063b61d27f614610359578063bdbd570a1461037957600080fd5b80634f1ef286116100f25780634f1ef2861461021857806352d1902d1461022b578063608bb37f14610240578063727bbff71461026057806387f98a3d1461029b57600080fd5b806318dfb3c71461013a5780631d2662001461015c5780633659cfe61461017c5780633a871cdd1461019c5780634b37de8e146101cf57600080fd5b3661013557005b600080fd5b34801561014657600080fd5b5061015a610155366004611fca565b610456565b005b34801561016857600080fd5b5061015a610177366004612036565b6105bf565b34801561018857600080fd5b5061015a61019736600461206b565b610670565b3480156101a857600080fd5b506101bc6101b7366004612086565b61074f565b6040519081526020015b60405180910390f35b3480156101db57600080fd5b506102036101ea366004612036565b6004602052600090815260409020805460019091015482565b604080519283526020830191909152016101c6565b61015a6102263660046120f0565b610775565b34801561023757600080fd5b506101bc610845565b34801561024c57600080fd5b5061015a61025b3660046121f4565b6108f8565b34801561026c57600080fd5b5061028061027b366004612036565b610b32565b604080519384526020840192909252908201526060016101c6565b3480156102a757600080fd5b506101bc6102b6366004612036565b60036020526000908152604090205481565b3480156102d457600080fd5b5061015a6102e3366004612288565b610bdf565b3480156102f457600080fd5b5060005461030e906201000090046001600160a01b031681565b6040516001600160a01b0390911681526020016101c6565b34801561033257600080fd5b507f000000000000000000000000000000000000000000000000000000000000000061030e565b34801561036557600080fd5b5061015a6103743660046122aa565b610cee565b34801561038557600080fd5b5061015a6103943660046122f8565b610ddb565b3480156103a557600080fd5b5061015a6103b436600461206b565b611002565b3480156103c557600080fd5b506103d96103d4366004612036565b611180565b6040516101c6949392919061239b565b3480156103f557600080fd5b506101bc60055481565b34801561040b57600080fd5b506101bc611234565b34801561042057600080fd5b506101bc61042f366004612036565b6112cd565b34801561044057600080fd5b506104496112ee565b6040516101c691906123cc565b6000546201000090046001600160a01b031633148061049d5750336001600160a01b037f000000000000000000000000000000000000000000000000000000000000000016145b6104c25760405162461bcd60e51b81526004016104b990612459565b60405180910390fd5b8281146105115760405162461bcd60e51b815260206004820181905260248201527f74616d616e686f732064652061727261797320696e636f6d706174697665697360448201526064016104b9565b60005b838110156105b8576105a685858381811061053157610531612481565b9050602002016020810190610546919061206b565b600085858581811061055a5761055a612481565b905060200281019061056c9190612497565b8080601f01602080910402602001604051908101604052809392919081815260200183838082843760009201919091525061149a92505050565b806105b0816124f4565b915050610514565b5050505050565b6000546201000090046001600160a01b03163314806105dd57503330145b6105f95760405162461bcd60e51b81526004016104b99061250d565b600081815260016020526040902060030154819060ff1661062c5760405162461bcd60e51b81526004016104b990612530565b600082815260016020526040808220600301805460ff191690555183917fe0862975ac517b0478d308012afabc4bc37c23874a18144d7f2dfb852ff95c2c91a25050565b6001600160a01b037f00000000000000000000000000000000000000000000000000000000000000001630036106b85760405162461bcd60e51b81526004016104b990612571565b7f00000000000000000000000000000000000000000000000000000000000000006001600160a01b0316610701600080516020612821833981519152546001600160a01b031690565b6001600160a01b0316146107275760405162461bcd60e51b81526004016104b9906125bd565b6107308161150a565b6040805160008082526020820190925261074c91839190611544565b50565b60006107596116b4565b610763848461172e565b905061076e82611997565b9392505050565b6001600160a01b037f00000000000000000000000000000000000000000000000000000000000000001630036107bd5760405162461bcd60e51b81526004016104b990612571565b7f00000000000000000000000000000000000000000000000000000000000000006001600160a01b0316610806600080516020612821833981519152546001600160a01b031690565b6001600160a01b03161461082c5760405162461bcd60e51b81526004016104b9906125bd565b6108358261150a565b61084182826001611544565b5050565b6000306001600160a01b037f000000000000000000000000000000000000000000000000000000000000000016146108e55760405162461bcd60e51b815260206004820152603860248201527f555550535570677261646561626c653a206d757374206e6f742062652063616c60448201527f6c6564207468726f7567682064656c656761746563616c6c000000000000000060648201526084016104b9565b5060008051602061282183398151915290565b600087815260016020526040902060030154879060ff1661092b5760405162461bcd60e51b81526004016104b990612530565b6000546201000090046001600160a01b03163314806109725750336001600160a01b037f000000000000000000000000000000000000000000000000000000000000000016145b61098e5760405162461bcd60e51b81526004016104b990612459565b6000888152600460205260409020600101546109ad9062015180612609565b4211156109cd576000888152600460205260408120908155426001909101555b6000888152600360209081526040808320546004909252909120546109f3908890612609565b1115610a315760405162461bcd60e51b815260206004820152600d60248201526c457863656465206c696d69746560981b60448201526064016104b9565b610a3c8884846119e4565b610a7e5760405162461bcd60e51b8152602060048201526013602482015272417574656e7469636163616f2066616c686f7560681b60448201526064016104b9565b60008881526004602052604081208054889290610a9c908490612609565b92505081905550610ae4878787878080601f01602080910402602001604051908101604052809392919081815260200183838082843760009201919091525061149a92505050565b866001600160a01b0316887ff5dd67eb8a10f0971c070c86a3ab5b6a3ac58f2654ae505cb4e8c7d2bdf480e088604051610b2091815260200190565b60405180910390a35050505050505050565b60008181526001602052604081206003015481908190849060ff16610b695760405162461bcd60e51b81526004016104b990612530565b60008581526004602052604090208054600190910154610b8c9062015180612609565b421115610b97575060005b6000868152600360205260409020548190818111610bb6576000610bd0565b600088815260036020526040902054610bd090849061261c565b94509450945050509193909250565b6000546201000090046001600160a01b0316331480610bfd57503330145b610c195760405162461bcd60e51b81526004016104b99061250d565b600082815260016020526040902060030154829060ff16610c4c5760405162461bcd60e51b81526004016104b990612530565b60008211610c9c5760405162461bcd60e51b815260206004820152601f60248201527f6c696d6974652064696172696f20646576652073657220706f73697469766f0060448201526064016104b9565b600083815260036020526040908190208390555183907fc82251fe806f67146e30c2c54dd0e2da452c0a7a2faef985834ffa2fbe90133190610ce19085815260200190565b60405180910390a2505050565b6000546201000090046001600160a01b0316331480610d355750336001600160a01b037f000000000000000000000000000000000000000000000000000000000000000016145b610d515760405162461bcd60e51b81526004016104b990612459565b610d92848484848080601f01602080910402602001604051908101604052809392919081815260200183838082843760009201919091525061149a92505050565b836001600160a01b03167f4552db1a0342130f86f0fd8415ce44473f045099adef7eb5987bad1bbb307b1684604051610dcd91815260200190565b60405180910390a250505050565b6000546201000090046001600160a01b0316331480610df957503330145b610e155760405162461bcd60e51b81526004016104b99061250d565b60008481526001602052604090205415610e715760405162461bcd60e51b815260206004820152601960248201527f64657669636520616c726561647920726567697374657265640000000000000060448201526064016104b9565b60008111610ec15760405162461bcd60e51b815260206004820152601f60248201527f6c696d6974652064696172696f20646576652073657220706f73697469766f0060448201526064016104b9565b604051806080016040528085815260200184848080601f0160208091040260200160405190810160405280939291908181526020018383808284376000920182905250938552505042602080850191909152600160409485018190528984528082529390922084518155918401519192830191610f3f9150826126b1565b506040828101516002838101919091556060909301516003928301805460ff1916911515919091179055825460018181019094557f405787fa12a823e0f2b7631cc41b3ba8828b3321ca811111fa75cd3aa3bb5ace0187905560008781526020928352818120859055815180830183528181524281850190815289835260049094529082902090518155915191909201555184907fd99194897bd1b93c61b94933c7d9ce6edc8d18bac476a7e08056729c6f1b92da90610dcd9086908690612771565b600054610100900460ff16158080156110225750600054600160ff909116105b8061103c5750303b15801561103c575060005460ff166001145b61109f5760405162461bcd60e51b815260206004820152602e60248201527f496e697469616c697a61626c653a20636f6e747261637420697320616c72656160448201526d191e481a5b9a5d1a585b1a5e995960921b60648201526084016104b9565b6000805460ff1916600117905580156110c2576000805461ff0019166101001790555b6000805462010000600160b01b031916620100006001600160a01b0385811691820292909217835560405190927f0000000000000000000000000000000000000000000000000000000000000000909216917ffb6e298ac0ef1560796c8114f2003c11ee80f56f55037951a8ab534443013c2691a38015610841576000805461ff0019169055604051600181527f7f26b83ff96e1f2b6a682f133852f6798a09c465da95921460cefb38474024989060200160405180910390a15050565b6001602081905260009182526040909120805491810180546111a19061262f565b80601f01602080910402602001604051908101604052809291908181526020018280546111cd9061262f565b801561121a5780601f106111ef5761010080835404028352916020019161121a565b820191906000526020600020905b8154815290600101906020018083116111fd57829003601f168201915b50505050600283015460039093015491929160ff16905084565b60007f0000000000000000000000000000000000000000000000000000000000000000604051631aab3f0d60e11b8152306004820152600060248201526001600160a01b0391909116906335567e1a90604401602060405180830381865afa1580156112a4573d6000803e3d6000fd5b505050506040513d601f19601f820116820180604052508101906112c891906127a0565b905090565b600281815481106112dd57600080fd5b600091825260209091200154905081565b60025460609060009067ffffffffffffffff81111561130f5761130f6120da565b60405190808252806020026020018201604052801561136157816020015b60408051608081018252600080825260606020808401829052938301829052820152825260001990920191018161132d5790505b50905060005b60025481101561149457600160006002838154811061138857611388612481565b90600052602060002001548152602001908152602001600020604051806080016040529081600082015481526020016001820180546113c69061262f565b80601f01602080910402602001604051908101604052809291908181526020018280546113f29061262f565b801561143f5780601f106114145761010080835404028352916020019161143f565b820191906000526020600020905b81548152906001019060200180831161142257829003601f168201915b50505091835250506002820154602082015260039091015460ff161515604090910152825183908390811061147657611476612481565b6020026020010181905250808061148c906124f4565b915050611367565b50919050565b600080846001600160a01b031684846040516114b691906127b9565b60006040518083038185875af1925050503d80600081146114f3576040519150601f19603f3d011682016040523d82523d6000602084013e6114f8565b606091505b5091509150816105b857805160208201fd5b6000546201000090046001600160a01b031633148061152857503330145b61074c5760405162461bcd60e51b81526004016104b99061250d565b7f4910fdfa16fed3260ed0e7147f7cc6da11a60208b5b9406d12a635614ffd91435460ff161561157c5761157783611a8c565b505050565b826001600160a01b03166352d1902d6040518163ffffffff1660e01b8152600401602060405180830381865afa9250505080156115d6575060408051601f3d908101601f191682019092526115d3918101906127a0565b60015b6116395760405162461bcd60e51b815260206004820152602e60248201527f45524331393637557067726164653a206e657720696d706c656d656e7461746960448201526d6f6e206973206e6f74205555505360901b60648201526084016104b9565b60008051602061282183398151915281146116a85760405162461bcd60e51b815260206004820152602960248201527f45524331393637557067726164653a20756e737570706f727465642070726f786044820152681a58589b195555525160ba1b60648201526084016104b9565b50611577838383611b28565b336001600160a01b037f0000000000000000000000000000000000000000000000000000000000000000161461172c5760405162461bcd60e51b815260206004820152601c60248201527f6163636f756e743a206e6f742066726f6d20456e747279506f696e740000000060448201526064016104b9565b565b7f19457468657265756d205369676e6564204d6573736167653a0a3332000000006000908152601c829052603c8120604161176d610140860186612497565b90501115611918576000606081611788610140880188612497565b8080601f01602080910402602001604051908101604052809392919081815260200183838082843760009201829052506020808601805180845260019092526040909220600301549098509096509394505060ff90921691506117f49050576001945050505050611991565b600060206118066101408a018a612497565b61181192915061261c565b67ffffffffffffffff811115611829576118296120da565b6040519080825280601f01601f191660200182016040528015611853576020820181803683370190505b50905060005b81518110156118cf576118706101408a018a612497565b61187b836020612609565b81811061188a5761188a612481565b9050013560f81c60f81b8282815181106118a6576118a6612481565b60200101906001600160f81b031916908160001a905350806118c7816124f4565b915050611859565b5060006118dc8683611b86565b6000549091506001600160a01b038083166201000090920416146119095760019650505050505050611991565b60009650505050505050611991565b611966611929610140860186612497565b8080601f0160208091040260200160405190810160405280939291908181526020018383808284376000920191909152508593925050611b869050565b6000546201000090046001600160a01b0390811691161461198b576001915050611991565b60009150505b92915050565b801561074c57604051600090339060001990849084818181858888f193505050503d80600081146105b8576040519150601f19603f3d011682016040523d82523d6000602084013e6105b8565b600080846119f4610e10426127d5565b6040805160208101939093528201526060016040516020818303038152906040528051906020012090506000611a6b85858080601f016020809104026020016040519081016040528093929190818152602001838380828437600092019190915250611a659250869150611b539050565b90611b86565b6000546201000090046001600160a01b039081169116149695505050505050565b6001600160a01b0381163b611af95760405162461bcd60e51b815260206004820152602d60248201527f455243313936373a206e657720696d706c656d656e746174696f6e206973206e60448201526c1bdd08184818dbdb9d1c9858dd609a1b60648201526084016104b9565b60008051602061282183398151915280546001600160a01b0319166001600160a01b0392909216919091179055565b611b3183611baa565b600082511180611b3e5750805b1561157757611b4d8383611bea565b50505050565b7f19457468657265756d205369676e6564204d6573736167653a0a3332000000006000908152601c91909152603c902090565b6000806000611b958585611c0f565b91509150611ba281611c54565b509392505050565b611bb381611a8c565b6040516001600160a01b038216907fbc7cd75a20ee27fd9adebab32041f755214dbc6bffa90cc0225b39da2e5c2d3b90600090a250565b606061076e838360405180606001604052806027815260200161284160279139611d9e565b6000808251604103611c455760208301516040840151606085015160001a611c3987828585611e16565b94509450505050611c4d565b506000905060025b9250929050565b6000816004811115611c6857611c686127f7565b03611c705750565b6001816004811115611c8457611c846127f7565b03611cd15760405162461bcd60e51b815260206004820152601860248201527f45434453413a20696e76616c6964207369676e6174757265000000000000000060448201526064016104b9565b6002816004811115611ce557611ce56127f7565b03611d325760405162461bcd60e51b815260206004820152601f60248201527f45434453413a20696e76616c6964207369676e6174757265206c656e6774680060448201526064016104b9565b6003816004811115611d4657611d466127f7565b0361074c5760405162461bcd60e51b815260206004820152602260248201527f45434453413a20696e76616c6964207369676e6174757265202773272076616c604482015261756560f01b60648201526084016104b9565b6060600080856001600160a01b031685604051611dbb91906127b9565b600060405180830381855af49150503d8060008114611df6576040519150601f19603f3d011682016040523d82523d6000602084013e611dfb565b606091505b5091509150611e0c86838387611eda565b9695505050505050565b6000807f7fffffffffffffffffffffffffffffff5d576e7357a4501ddfe92f46681b20a0831115611e4d5750600090506003611ed1565b6040805160008082526020820180845289905260ff881692820192909252606081018690526080810185905260019060a0016020604051602081039080840390855afa158015611ea1573d6000803e3d6000fd5b5050604051601f1901519150506001600160a01b038116611eca57600060019250925050611ed1565b9150600090505b94509492505050565b60608315611f49578251600003611f42576001600160a01b0385163b611f425760405162461bcd60e51b815260206004820152601d60248201527f416464726573733a2063616c6c20746f206e6f6e2d636f6e747261637400000060448201526064016104b9565b5081611f53565b611f538383611f5b565b949350505050565b815115611f6b5781518083602001fd5b8060405162461bcd60e51b81526004016104b9919061280d565b60008083601f840112611f9757600080fd5b50813567ffffffffffffffff811115611faf57600080fd5b6020830191508360208260051b8501011115611c4d57600080fd5b60008060008060408587031215611fe057600080fd5b843567ffffffffffffffff80821115611ff857600080fd5b61200488838901611f85565b9096509450602087013591508082111561201d57600080fd5b5061202a87828801611f85565b95989497509550505050565b60006020828403121561204857600080fd5b5035919050565b80356001600160a01b038116811461206657600080fd5b919050565b60006020828403121561207d57600080fd5b61076e8261204f565b60008060006060848603121561209b57600080fd5b833567ffffffffffffffff8111156120b257600080fd5b840161016081870312156120c557600080fd5b95602085013595506040909401359392505050565b634e487b7160e01b600052604160045260246000fd5b6000806040838503121561210357600080fd5b61210c8361204f565b9150602083013567ffffffffffffffff8082111561212957600080fd5b818501915085601f83011261213d57600080fd5b81358181111561214f5761214f6120da565b604051601f8201601f19908116603f01168101908382118183101715612177576121776120da565b8160405282815288602084870101111561219057600080fd5b8260208601602083013760006020848301015280955050505050509250929050565b60008083601f8401126121c457600080fd5b50813567ffffffffffffffff8111156121dc57600080fd5b602083019150836020828501011115611c4d57600080fd5b600080600080600080600060a0888a03121561220f57600080fd5b8735965061221f6020890161204f565b955060408801359450606088013567ffffffffffffffff8082111561224357600080fd5b61224f8b838c016121b2565b909650945060808a013591508082111561226857600080fd5b506122758a828b016121b2565b989b979a50959850939692959293505050565b6000806040838503121561229b57600080fd5b50508035926020909101359150565b600080600080606085870312156122c057600080fd5b6122c98561204f565b935060208501359250604085013567ffffffffffffffff8111156122ec57600080fd5b61202a878288016121b2565b6000806000806060858703121561230e57600080fd5b84359350602085013567ffffffffffffffff81111561232c57600080fd5b612338878288016121b2565b9598909750949560400135949350505050565b60005b8381101561236657818101518382015260200161234e565b50506000910152565b6000815180845261238781602086016020860161234b565b601f01601f19169290920160200192915050565b8481526080602082015260006123b4608083018661236f565b60408301949094525090151560609091015292915050565b60006020808301818452808551808352604092508286019150828160051b87010184880160005b8381101561244b57603f19898403018552815160808151855288820151818a8701526124218287018261236f565b838a0151878b015260609384015115159390960192909252505093860193908601906001016123f3565b509098975050505050505050565b6020808252600e908201526d6e616f206175746f72697a61646f60901b604082015260600190565b634e487b7160e01b600052603260045260246000fd5b6000808335601e198436030181126124ae57600080fd5b83018035915067ffffffffffffffff8211156124c957600080fd5b602001915036819003821315611c4d57600080fd5b634e487b7160e01b600052601160045260246000fd5b600060018201612506576125066124de565b5060010190565b6020808252600990820152683737ba1037bbb732b960b91b604082015260600190565b60208082526021908201527f64657669636520696e616374697665206f72206e6f74207265676973746572656040820152601960fa1b606082015260800190565b6020808252602c908201527f46756e6374696f6e206d7573742062652063616c6c6564207468726f7567682060408201526b19195b1959d85d1958d85b1b60a21b606082015260800190565b6020808252602c908201527f46756e6374696f6e206d7573742062652063616c6c6564207468726f7567682060408201526b6163746976652070726f787960a01b606082015260800190565b80820180821115611991576119916124de565b81810381811115611991576119916124de565b600181811c9082168061264357607f821691505b60208210810361149457634e487b7160e01b600052602260045260246000fd5b601f82111561157757600081815260208120601f850160051c8101602086101561268a5750805b601f850160051c820191505b818110156126a957828155600101612696565b505050505050565b815167ffffffffffffffff8111156126cb576126cb6120da565b6126df816126d9845461262f565b84612663565b602080601f83116001811461271457600084156126fc5750858301515b600019600386901b1c1916600185901b1785556126a9565b600085815260208120601f198616915b8281101561274357888601518255948401946001909101908401612724565b50858210156127615787850151600019600388901b60f8161c191681555b5050505050600190811b01905550565b60208152816020820152818360408301376000818301604090810191909152601f909201601f19160101919050565b6000602082840312156127b257600080fd5b5051919050565b600082516127cb81846020870161234b565b9190910192915050565b6000826127f257634e487b7160e01b600052601260045260246000fd5b500490565b634e487b7160e01b600052602160045260246000fd5b60208152600061076e602083018461236f56fe360894a13ba1a3210667c828492db98dca3e2076cc3735a920a3ca505d382bbc416464726573733a206c6f772d6c6576656c2064656c65676174652063616c6c206661696c6564a2646970667358221220713f5e9db1de655ac43d088c4530133c85aafcd495e42ef25bd85df76fb9883864736f6c63430008110033",
  "linkReferences": {},
  "deployedLinkReferences": {}
}