{
  "_format": "hh-sol-artifact-1",
  "contractName": "MultiSigAccountFactory",
  "sourceName": "contracts/MultiSigAccountFactory.sol",
  "abi": [
    {
      "inputs": [
        {
          "internalType": "contract IEntryPoint",
          "name": "entryPoint",
          "type": "address"
        }
      ],
      "stateMutability": "nonpayable",
      "type": "constructor"
    },
    {
      "inputs": [],
      "name": "accountImplementation",
      "outputs": [
        {
          "internalType": "contract MultiSigAccount",
          "name": "",
          "type": "address"
        }
      ],
      "stateMutability": "view",
      "type": "function"
    },
    {
      "inputs": [
        {
          "internalType": "address[]",
          "name": "owners",
          "type": "address[]"
        },
        {
          "internalType": "uint256",
          "name": "threshold",
          "type": "uint256"
        },
        {
          "internalType": "uint256",
          "name": "dailyLimit",
          "type": "uint256"
        },
        {
          "internalType": "uint256",
          "name": "txLimit",
          "type": "uint256"
        },
        {
          "internalType": "uint256",
          "name": "salt",
          "type": "uint256"
        }
      ],
      "name": "createAccount",
      "outputs": [
        {
          "internalType": "contract MultiSigAccount",
          "name": "ret",
          "type": "address"
        }
      ],
      "stateMutability": "nonpayable",
      "type": "function"
    },
    {
      "inputs": [
        {
          "internalType": "address[]",
          "name": "owners",
          "type": "address[]"
        },
        {
          "internalType": "uint256",
          "name": "threshold",
          "type": "uint256"
        },
        {
          "internalType": "uint256",
          "name": "dailyLimit",
          "type": "uint256"
        },
        {
          "internalType": "uint256",
          "name": "txLimit",
          "type": "uint256"
        },
        {
          "internalType": "uint256",
          "name": "salt",
          "type": "uint256"
        }
      ],
      "name": "getAddress",
      "outputs": [
        {
          "internalType": "address",
          "name": "",
          "type": "address"
        }
      ],
      "stateMutability": "view",
      "type": "function"
    }
  ],
  "bytecode": "0x60a060405234801561001057600080fd5b50604051613cf2380380613cf283398101604081905261002f91610088565b8060405161003c9061007b565b6001600160a01b039091168152602001604051809103906000f080158015610068573d6000803e3d6000fd5b506001600160a01b0316608052506100b8565b612fbc80610d3683390190565b60006020828403121561009a57600080fd5b81516001600160a01b03811681146100b157600080fd5b9392505050565b608051610c576100df6000396000818160510152818160f201526101cf0152610c576000f3fe60806040523480156200001157600080fd5b5060043610620000465760003560e01c806311464fbe146200004b5780636676f025146200008f578063d3fa824b14620000a6575b600080fd5b620000737f000000000000000000000000000000000000000000000000000000000000000081565b6040516001600160a01b03909116815260200160405180910390f35b62000073620000a036600462000309565b620000bd565b62000073620000b736600462000309565b6200019d565b600080620000cf87878787876200019d565b90506001600160a01b0381163b8015620000ec5750905062000194565b8360001b7f0000000000000000000000000000000000000000000000000000000000000000898989896040516024016200012a9493929190620003fb565b60408051601f198184030181529181526020820180516001600160e01b03166331b11d0b60e21b179052516200016090620002c8565b6200016d92919062000483565b8190604051809103906000f59050801580156200018e573d6000803e3d6000fd5b50925050505b95945050505050565b60006200027e8260001b60405180602001620001b990620002c8565b6020820181038252601f19601f820116604052507f000000000000000000000000000000000000000000000000000000000000000089898989604051602401620002079493929190620003fb565b60408051601f19818403018152918152602080830180516001600160e01b03166331b11d0b60e21b1790529051620002429392910162000483565b60408051601f1981840301815290829052620002629291602001620004c7565b6040516020818303038152906040528051906020012062000288565b9695505050505050565b6000620002978383306200029e565b9392505050565b6000604051836040820152846020820152828152600b8101905060ff815360559020949350505050565b61072780620004fb83390190565b634e487b7160e01b600052604160045260246000fd5b80356001600160a01b03811681146200030457600080fd5b919050565b600080600080600060a086880312156200032257600080fd5b853567ffffffffffffffff808211156200033b57600080fd5b818801915088601f8301126200035057600080fd5b8135602082821115620003675762000367620002d6565b8160051b604051601f19603f830116810181811086821117156200038f576200038f620002d6565b60405292835281830193508481018201928c841115620003ae57600080fd5b948201945b83861015620003d757620003c786620002ec565b85529482019493820193620003b3565b9c918b01359b505060408a0135996060810135995060800135975095505050505050565b6080808252855190820181905260009060209060a0840190828901845b828110156200043f5781516001600160a01b03168452928401929084019060010162000418565b50505090830195909552506040810192909252606090910152919050565b60005b838110156200047a57818101518382015260200162000460565b50506000910152565b60018060a01b03831681526040602082015260008251806040840152620004b28160608501602087016200045d565b601f01601f1916919091016060019392505050565b60008351620004db8184602088016200045d565b835190830190620004f18183602088016200045d565b0194935050505056fe608060405260405161072738038061072783398101604081905261002291610319565b61002e82826000610035565b5050610436565b61003e8361006b565b60008251118061004b5750805b156100665761006483836100ab60201b6100291760201c565b505b505050565b610074816100d7565b6040516001600160a01b038216907fbc7cd75a20ee27fd9adebab32041f755214dbc6bffa90cc0225b39da2e5c2d3b90600090a250565b60606100d08383604051806060016040528060278152602001610700602791396101a9565b9392505050565b6100ea8161022260201b6100551760201c565b6101515760405162461bcd60e51b815260206004820152602d60248201527f455243313936373a206e657720696d706c656d656e746174696f6e206973206e60448201526c1bdd08184818dbdb9d1c9858dd609a1b60648201526084015b60405180910390fd5b806101887f360894a13ba1a3210667c828492db98dca3e2076cc3735a920a3ca505d382bbc60001b61023160201b6100641760201c565b80546001600160a01b0319166001600160a01b039290921691909117905550565b6060600080856001600160a01b0316856040516101c691906103e7565b600060405180830381855af49150503d8060008114610201576040519150601f19603f3d011682016040523d82523d6000602084013e610206565b606091505b50909250905061021886838387610234565b9695505050505050565b6001600160a01b03163b151590565b90565b606083156102a357825160000361029c576001600160a01b0385163b61029c5760405162461bcd60e51b815260206004820152601d60248201527f416464726573733a2063616c6c20746f206e6f6e2d636f6e74726163740000006044820152606401610148565b50816102ad565b6102ad83836102b5565b949350505050565b8151156102c55781518083602001fd5b8060405162461bcd60e51b81526004016101489190610403565b634e487b7160e01b600052604160045260246000fd5b60005b838110156103105781810151838201526020016102f8565b50506000910152565b6000806040838503121561032c57600080fd5b82516001600160a01b038116811461034357600080fd5b60208401519092506001600160401b038082111561036057600080fd5b818501915085601f83011261037457600080fd5b815181811115610386576103866102df565b604051601f8201601f19908116603f011681019083821181831017156103ae576103ae6102df565b816040528281528860208487010111156103c757600080fd5b6103d88360208301602088016102f5565b80955050505050509250929050565b600082516103f98184602087016102f5565b9190910192915050565b60208152600082518060208401526104228160408501602087016102f5565b601f01601f19169190910160400192915050565b6102bb806104456000396000f3fe60806040523661001357610011610017565b005b6100115b610027610022610067565b61009f565b565b606061004e838360405180606001604052806027815260200161025f602791396100c3565b9392505050565b6001600160a01b03163b151590565b90565b600061009a7f360894a13ba1a3210667c828492db98dca3e2076cc3735a920a3ca505d382bbc546001600160a01b031690565b905090565b3660008037600080366000845af43d6000803e8080156100be573d6000f35b3d6000fd5b6060600080856001600160a01b0316856040516100e0919061020f565b600060405180830381855af49150503d806000811461011b576040519150601f19603f3d011682016040523d82523d6000602084013e610120565b606091505b50915091506101318683838761013b565b9695505050505050565b606083156101af5782516000036101a8576001600160a01b0385163b6101a85760405162461bcd60e51b815260206004820152601d60248201527f416464726573733a2063616c6c20746f206e6f6e2d636f6e747261637400000060448201526064015b60405180910390fd5b50816101b9565b6101b983836101c1565b949350505050565b8151156101d15781518083602001fd5b8060405162461bcd60e51b815260040161019f919061022b565b60005b838110156102065781810151838201526020016101ee565b50506000910152565b600082516102218184602087016101eb565b9190910192915050565b602081526000825180602084015261024a8160408501602087016101eb565b601f01601f1916919091016040019291505056fe416464726573733a206c6f772d6c6576656c2064656c65676174652063616c6c206661696c6564a26469706673582212203d912d0abbe116b83dfa1d3a82e612e3256de4ef536ea1a35d0e77601b02b17764736f6c63430008110033416464726573733a206c6f772d6c6576656c2064656c65676174652063616c6c206661696c6564a2646970667358221220955a2c196f52c3b1c9fba572d052bf26e821353ffa53bcb6f4b54ab11a45ffe064736f6c6343000811003360c0604052306080526202a300600b553480156200001c57600080fd5b5060405162002fbc38038062002fbc8339810160408190526200003f916200011e565b6001600160a01b03811660a052620000566200005d565b5062000150565b600054610100900460ff1615620000ca5760405162461bcd60e51b815260206004820152602760248201527f496e697469616c697a61626c653a20636f6e747261637420697320696e697469604482015266616c697a696e6760c81b606482015260840160405180910390fd5b60005460ff908116146200011c576000805460ff191660ff9081179091556040519081527f7f26b83ff96e1f2b6a682f133852f6798a09c465da95921460cefb38474024989060200160405180910390a15b565b6000602082840312156200013157600080fd5b81516001600160a01b03811681146200014957600080fd5b9392505050565b60805160a051612e0e620001ae600039600081816103ee015281816116600152818161175c01528181611b190152611d940152600081816108ab015281816108eb015281816109b0015281816109f00152610a830152612e0e6000f3fe6080604052600436106101a05760003560e01c80639ace38c2116100ec578063c01a8c841161008a578063ced4468111610064578063ced44681146104ce578063d087d288146104e4578063ee22610b146104f9578063f19605d61461051957600080fd5b8063c01a8c841461046e578063c6c4742c1461048e578063cea08621146104ae57600080fd5b8063b0d691fe116100c6578063b0d691fe146103d4578063b16a336214610418578063b61d27f614610438578063b77bf6001461045857600080fd5b80639ace38c21461037c578063a0e67e2b1461039c578063a82f2e26146103be57600080fd5b80633a871cdd116101595780635e90852d116101335780635e90852d14610307578063694e80c3146103275780637065cb481461034757806373ff81cc1461036757600080fd5b80633a871cdd146102b15780634f1ef286146102df57806352d1902d146102f257600080fd5b8063173825d9146101ac57806318dfb3c7146101ce5780632f54bf6e146101ee57806333ea3dc8146102235780633411c81c146102565780633659cfe61461029157600080fd5b366101a757005b600080fd5b3480156101b857600080fd5b506101cc6101c7366004612551565b61055c565b005b3480156101da57600080fd5b506101cc6101e93660046125b1565b610672565b3480156101fa57600080fd5b5061020e610209366004612551565b610777565b60405190151581526020015b60405180910390f35b34801561022f57600080fd5b5061024361023e36600461261d565b61078a565b60405161021a9796959493929190612686565b34801561026257600080fd5b5061020e6102713660046126d3565b600960209081526000928352604080842090915290825290205460ff1681565b34801561029d57600080fd5b506101cc6102ac366004612551565b6108a1565b3480156102bd57600080fd5b506102d16102cc3660046126ff565b610980565b60405190815260200161021a565b6101cc6102ed36600461279a565b6109a6565b3480156102fe57600080fd5b506102d1610a76565b34801561031357600080fd5b506102d1610322366004612840565b610b29565b34801561033357600080fd5b506101cc61034236600461261d565b610dcf565b34801561035357600080fd5b506101cc610362366004612551565b610ee3565b34801561037357600080fd5b506102d1610fe2565b34801561038857600080fd5b5061024361039736600461261d565b610ff3565b3480156103a857600080fd5b506103b16110c5565b60405161021a919061290b565b3480156103ca57600080fd5b506102d160035481565b3480156103e057600080fd5b506040516001600160a01b037f000000000000000000000000000000000000000000000000000000000000000016815260200161021a565b34801561042457600080fd5b506101cc61043336600461261d565b611175565b34801561044457600080fd5b506101cc610453366004612840565b6111c9565b34801561046457600080fd5b506102d1600a5481565b34801561047a57600080fd5b506101cc61048936600461261d565b611218565b34801561049a57600080fd5b506101cc6104a936600461291e565b6113e1565b3480156104ba57600080fd5b506101cc6104c936600461261d565b611704565b3480156104da57600080fd5b506102d1600b5481565b3480156104f057600080fd5b506102d1611758565b34801561050557600080fd5b506101cc61051436600461261d565b6117ec565b34801561052557600080fd5b5060045460055460065460075461053c9392919084565b60408051948552602085019390935291830152606082015260800161021a565b3330146105845760405162461bcd60e51b815260040161057b906129e1565b60405180910390fd5b61058f600182611ace565b6105cb5760405162461bcd60e51b815260206004820152600d60248201526c6e616f206520756d20646f6e6f60981b604482015260640161057b565b6003546105d86001611aef565b1161062f5760405162461bcd60e51b815260206004820152602160248201527f6e616f20706f646520726564757a69722061626169786f20646f206c696d69746044820152606560f81b606482015260840161057b565b61063a600182611af9565b506040516001600160a01b038216907f58619076adf5bb0943d100ef88d52d7c3fd691b19d3a9071b555b651fbf418da90600090a250565b61067a611b0e565b8281146106c95760405162461bcd60e51b815260206004820181905260248201527f74616d616e686f732064652061727261797320696e636f6d7061746976656973604482015260640161057b565b60005b838110156107705761075e8585838181106106e9576106e9612a18565b90506020020160208101906106fe9190612551565b600085858581811061071257610712612a18565b90506020028101906107249190612a2e565b8080601f016020809104026020016040519081016040528093929190818152602001838380828437600092019190915250611b8a92505050565b8061076881612a8b565b9150506106cc565b5050505050565b6000610784600183611ace565b92915050565b600080606060008060008087600a5481106107b75760405162461bcd60e51b815260040161057b90612aa4565b60008981526008602052604090208054600182015460038301546004840154600585015460068601546002870180546001600160a01b0390971696909460ff1693929190859061080690612acf565b80601f016020809104026020016040519081016040528092919081815260200182805461083290612acf565b801561087f5780601f106108545761010080835404028352916020019161087f565b820191906000526020600020905b81548152906001019060200180831161086257829003601f168201915b5050505050945098509850985098509850985098505050919395979092949650565b6001600160a01b037f00000000000000000000000000000000000000000000000000000000000000001630036108e95760405162461bcd60e51b815260040161057b90612b09565b7f00000000000000000000000000000000000000000000000000000000000000006001600160a01b0316610932600080516020612d92833981519152546001600160a01b031690565b6001600160a01b0316146109585760405162461bcd60e51b815260040161057b90612b55565b61096181611bfa565b6040805160008082526020820190925261097d91839190611c19565b50565b600061098a611d89565b6109948484611e01565b905061099f82611ea8565b9392505050565b6001600160a01b037f00000000000000000000000000000000000000000000000000000000000000001630036109ee5760405162461bcd60e51b815260040161057b90612b09565b7f00000000000000000000000000000000000000000000000000000000000000006001600160a01b0316610a37600080516020612d92833981519152546001600160a01b031690565b6001600160a01b031614610a5d5760405162461bcd60e51b815260040161057b90612b55565b610a6682611bfa565b610a7282826001611c19565b5050565b6000306001600160a01b037f00000000000000000000000000000000000000000000000000000000000000001614610b165760405162461bcd60e51b815260206004820152603860248201527f555550535570677261646561626c653a206d757374206e6f742062652063616c60448201527f6c6564207468726f7567682064656c656761746563616c6c0000000000000000606482015260840161057b565b50600080516020612d9283398151915290565b6000610b36600133611ace565b610b525760405162461bcd60e51b815260040161057b90612ba1565b6001600160a01b038516610bb35760405162461bcd60e51b815260206004820152602260248201527f64657374696e6f206e616f20706f64652073657220656e64657265636f207a65604482015261726f60f01b606482015260840161057b565b60055415610c0d57600554841115610c0d5760405162461bcd60e51b815260206004820152601d60248201527f657863656465206f206c696d69746520706f72207472616e736163616f000000604482015260640161057b565b600a5490506040518060e00160405280866001600160a01b0316815260200185815260200184848080601f01602080910402602001604051908101604052809392919081815260200183838082843760009201829052509385525050506020820152600160408201524260608201819052600b54608090920191610c9091612bc7565b9052600082815260086020908152604091829020835181546001600160a01b0319166001600160a01b03909116178155908301516001820155908201516002820190610cdc9082612c28565b50606082015160038201805491151560ff199283161790556080830151600483015560a0830151600583015560c090920151600690910155600082815260096020908152604080832033845290915281208054909216600117909155600a805491610d4683612a8b565b9190505550846001600160a01b0316336001600160a01b0316827f08754d66a328b07857be590cc17e0bb798e0ec9cb30ac8e5af7afd3481d1c6bd87604051610d9191815260200190565b60405180910390a4604051339082907f15c2f311c9e0f53b50388279894aeff029a3457884a6601e924fca879e12adcc90600090a35b949350505050565b333014610dee5760405162461bcd60e51b815260040161057b906129e1565b60008111610e3e5760405162461bcd60e51b815260206004820152601860248201527f6c696d69746520646576652073657220706f73697469766f0000000000000000604482015260640161057b565b610e486001611aef565b811115610ea75760405162461bcd60e51b815260206004820152602760248201527f6c696d697465206e616f20706f64652065786365646572206e756d65726f20646044820152666520646f6e6f7360c81b606482015260840161057b565b60038190556040518181527f6c4ce60fd690e1216286a10b875c5662555f10774484e58142cedd7a90781baa906020015b60405180910390a150565b333014610f025760405162461bcd60e51b815260040161057b906129e1565b6001600160a01b038116610f585760405162461bcd60e51b815260206004820152601f60248201527f646f6e6f206e616f20706f64652073657220656e64657265636f207a65726f00604482015260640161057b565b610f63600182611ace565b15610f9f5760405162461bcd60e51b815260206004820152600c60248201526b6a61206520756d20646f6e6f60a01b604482015260640161057b565b610faa600182611ef5565b506040516001600160a01b038216907f994a936646fe87ffe4f1e469d3d6aa417d6b855598397f323de5b449f765f0c390600090a250565b6000610fee6001611aef565b905090565b6008602052600090815260409020805460018201546002830180546001600160a01b0390931693919261102590612acf565b80601f016020809104026020016040519081016040528092919081815260200182805461105190612acf565b801561109e5780601f106110735761010080835404028352916020019161109e565b820191906000526020600020905b81548152906001019060200180831161108157829003601f168201915b50505050600383015460048401546005850154600690950154939460ff9092169390925087565b606060006110d36001611aef565b905060008167ffffffffffffffff8111156110f0576110f0612753565b604051908082528060200260200182016040528015611119578160200160208202803683370190505b50905060005b8281101561116e57611132600182611f0a565b82828151811061114457611144612a18565b6001600160a01b03909216602092830291909101909101528061116681612a8b565b91505061111f565b5092915050565b3330146111945760405162461bcd60e51b815260040161057b906129e1565b60058190556040518181527f294a7d6dc8e123d9bc24077e6cb3bc3485122d2471fcb1ea212fd6d94229fa5790602001610ed8565b6111d1611b0e565b611212848484848080601f016020809104026020016040519081016040528093929190818152602001838380828437600092019190915250611b8a92505050565b50505050565b611223600133611ace565b61123f5760405162461bcd60e51b815260040161057b90612ba1565b80600a5481106112615760405162461bcd60e51b815260040161057b90612aa4565b600082815260086020526040902060030154829060ff16156112b75760405162461bcd60e51b815260206004820152600f60248201526e7478206a612065786563757461646160881b604482015260640161057b565b6000838152600960209081526040808320338452909152902054839060ff16156113165760405162461bcd60e51b815260206004820152601060248201526f7478206a6120636f6e6669726d61646160801b604482015260640161057b565b60008481526008602052604090206006015484904211156113675760405162461bcd60e51b815260206004820152600b60248201526a747820657870697261646160a81b604482015260640161057b565b6000858152600860205260408120600481018054919261138683612a8b565b90915550506000868152600960209081526040808320338085529252808320805460ff1916600117905551909188917f15c2f311c9e0f53b50388279894aeff029a3457884a6601e924fca879e12adcc9190a3505050505050565b600054610100900460ff16158080156114015750600054600160ff909116105b8061141b5750303b15801561141b575060005460ff166001145b61147e5760405162461bcd60e51b815260206004820152602e60248201527f496e697469616c697a61626c653a20636f6e747261637420697320616c72656160448201526d191e481a5b9a5d1a585b1a5e995960921b606482015260840161057b565b6000805460ff1916600117905580156114a1576000805461ff0019166101001790555b60008551116114e75760405162461bcd60e51b815260206004820152601260248201527170656c6f206d656e6f7320756d20646f6e6f60701b604482015260640161057b565b6000841180156114f8575084518411155b6115365760405162461bcd60e51b815260206004820152600f60248201526e6c696d69746520696e76616c69646f60881b604482015260640161057b565b60005b855181101561163a57600086828151811061155657611556612a18565b6020026020010151905060006001600160a01b0316816001600160a01b0316036115c25760405162461bcd60e51b815260206004820152601f60248201527f646f6e6f206e616f20706f64652073657220656e64657265636f207a65726f00604482015260640161057b565b6115cd600182611ace565b1561161a5760405162461bcd60e51b815260206004820152601e60248201527f646f6e6f73206e616f20706f64656d20736572206475706c696361646f730000604482015260640161057b565b611625600182611ef5565b5050808061163290612a8b565b915050611539565b506003849055600483905560058290556000600655426007556040516001600160a01b037f000000000000000000000000000000000000000000000000000000000000000016907f3043a7e65892ceb5393d8abc08bc90dd44a36aab7fb114b0dc030d413e2a8bdf906116b09088908890612ce8565b60405180910390a28015610770576000805461ff0019169055604051600181527f7f26b83ff96e1f2b6a682f133852f6798a09c465da95921460cefb38474024989060200160405180910390a15050505050565b3330146117235760405162461bcd60e51b815260040161057b906129e1565b60048190556040518181527fad4123ae17c414d9c6d2fec478b402e6b01856cc250fd01fbfd252fda0089d3c90602001610ed8565b60007f0000000000000000000000000000000000000000000000000000000000000000604051631aab3f0d60e11b8152306004820152600060248201526001600160a01b0391909116906335567e1a90604401602060405180830381865afa1580156117c8573d6000803e3d6000fd5b505050506040513d601f19601f82011682018060405250810190610fee9190612d0a565b6117f7600133611ace565b6118135760405162461bcd60e51b815260040161057b90612ba1565b80600a5481106118355760405162461bcd60e51b815260040161057b90612aa4565b600082815260086020526040902060030154829060ff161561188b5760405162461bcd60e51b815260206004820152600f60248201526e7478206a612065786563757461646160881b604482015260640161057b565b60008381526008602052604090206006015483904211156118dc5760405162461bcd60e51b815260206004820152600b60248201526a747820657870697261646160a81b604482015260640161057b565b6000848152600860205260409020600354600482015410156119405760405162461bcd60e51b815260206004820152601a60248201527f636f6e6669726d61636f657320696e737566696369656e746573000000000000604482015260640161057b565b600454156119e0576007546119589062015180612bc7565b421115611969576000600655426007555b600454600182015460065461197e9190612bc7565b11156119c35760405162461bcd60e51b8152602060048201526014602482015273657863656465206c696d6974652064696172696f60601b604482015260640161057b565b6001810154600680546000906119da908490612bc7565b90915550505b60038101805460ff19166001908117909155815490820154600283018054611a9a936001600160a01b0316929190611a1790612acf565b80601f0160208091040260200160405190810160405280929190818152602001828054611a4390612acf565b8015611a905780601f10611a6557610100808354040283529160200191611a90565b820191906000526020600020905b815481529060010190602001808311611a7357829003601f168201915b5050505050611b8a565b604051339086907fefc13bdcf58f184ea7cae26b499fb33b539e01d0197cea456f3ada289b8cf19b90600090a35050505050565b6001600160a01b031660009081526001919091016020526040902054151590565b6000610784825490565b600061099f836001600160a01b038416611f16565b336001600160a01b037f0000000000000000000000000000000000000000000000000000000000000000161480611b4457503330145b611b885760405162461bcd60e51b8152602060048201526015602482015274636f6e74613a206e616f206175746f72697a61646f60581b604482015260640161057b565b565b600080846001600160a01b03168484604051611ba69190612d23565b60006040518083038185875af1925050503d8060008114611be3576040519150601f19603f3d011682016040523d82523d6000602084013e611be8565b606091505b50915091508161077057805160208201fd5b33301461097d5760405162461bcd60e51b815260040161057b906129e1565b7f4910fdfa16fed3260ed0e7147f7cc6da11a60208b5b9406d12a635614ffd91435460ff1615611c5157611c4c83612009565b505050565b826001600160a01b03166352d1902d6040518163ffffffff1660e01b8152600401602060405180830381865afa925050508015611cab575060408051601f3d908101601f19168201909252611ca891810190612d0a565b60015b611d0e5760405162461bcd60e51b815260206004820152602e60248201527f45524331393637557067726164653a206e657720696d706c656d656e7461746960448201526d6f6e206973206e6f74205555505360901b606482015260840161057b565b600080516020612d928339815191528114611d7d5760405162461bcd60e51b815260206004820152602960248201527f45524331393637557067726164653a20756e737570706f727465642070726f786044820152681a58589b195555525160ba1b606482015260840161057b565b50611c4c8383836120a5565b336001600160a01b037f00000000000000000000000000000000000000000000000000000000000000001614611b885760405162461bcd60e51b815260206004820152601c60248201527f6163636f756e743a206e6f742066726f6d20456e747279506f696e7400000000604482015260640161057b565b7f19457468657265756d205369676e6564204d6573736167653a0a3332000000006000908152601c829052603c81206000611e80611e43610140870187612a2e565b8080601f01602080910402602001604051908101604052809392919081815260200183838082843760009201919091525086939250506120ca9050565b9050611e8d600182611ace565b15611e9d57600092505050610784565b506001949350505050565b801561097d57604051600090339060001990849084818181858888f193505050503d8060008114610770576040519150601f19603f3d011682016040523d82523d6000602084013e610770565b600061099f836001600160a01b0384166120ee565b600061099f838361213d565b60008181526001830160205260408120548015611fff576000611f3a600183612d3f565b8554909150600090611f4e90600190612d3f565b9050818114611fb3576000866000018281548110611f6e57611f6e612a18565b9060005260206000200154905080876000018481548110611f9157611f91612a18565b6000918252602080832090910192909255918252600188019052604090208390555b8554869080611fc457611fc4612d52565b600190038181906000526020600020016000905590558560010160008681526020019081526020016000206000905560019350505050610784565b6000915050610784565b6001600160a01b0381163b6120765760405162461bcd60e51b815260206004820152602d60248201527f455243313936373a206e657720696d706c656d656e746174696f6e206973206e60448201526c1bdd08184818dbdb9d1c9858dd609a1b606482015260840161057b565b600080516020612d9283398151915280546001600160a01b0319166001600160a01b0392909216919091179055565b6120ae83612167565b6000825111806120bb5750805b15611c4c5761121283836121a7565b60008060006120d985856121cc565b915091506120e681612211565b509392505050565b600081815260018301602052604081205461213557508154600181810184556000848152602080822090930184905584548482528286019093526040902091909155610784565b506000610784565b600082600001828154811061215457612154612a18565b9060005260206000200154905092915050565b61217081612009565b6040516001600160a01b038216907fbc7cd75a20ee27fd9adebab32041f755214dbc6bffa90cc0225b39da2e5c2d3b90600090a250565b606061099f8383604051806060016040528060278152602001612db26027913961235b565b60008082516041036122025760208301516040840151606085015160001a6121f6878285856123d3565b9450945050505061220a565b506000905060025b9250929050565b600081600481111561222557612225612d68565b0361222d5750565b600181600481111561224157612241612d68565b0361228e5760405162461bcd60e51b815260206004820152601860248201527f45434453413a20696e76616c6964207369676e61747572650000000000000000604482015260640161057b565b60028160048111156122a2576122a2612d68565b036122ef5760405162461bcd60e51b815260206004820152601f60248201527f45434453413a20696e76616c6964207369676e6174757265206c656e67746800604482015260640161057b565b600381600481111561230357612303612d68565b0361097d5760405162461bcd60e51b815260206004820152602260248201527f45434453413a20696e76616c6964207369676e6174757265202773272076616c604482015261756560f01b606482015260840161057b565b6060600080856001600160a01b0316856040516123789190612d23565b600060405180830381855af49150503d80600081146123b3576040519150601f19603f3d011682016040523d82523d6000602084013e6123b8565b606091505b50915091506123c986838387612497565b9695505050505050565b6000807f7fffffffffffffffffffffffffffffff5d576e7357a4501ddfe92f46681b20a083111561240a575060009050600361248e565b6040805160008082526020820180845289905260ff881692820192909252606081018690526080810185905260019060a0016020604051602081039080840390855afa15801561245e573d6000803e3d6000fd5b5050604051601f1901519150506001600160a01b0381166124875760006001925092505061248e565b9150600090505b94509492505050565b606083156125065782516000036124ff576001600160a01b0385163b6124ff5760405162461bcd60e51b815260206004820152601d60248201527f416464726573733a2063616c6c20746f206e6f6e2d636f6e7472616374000000604482015260640161057b565b5081610dc7565b610dc7838381511561251b5781518083602001fd5b8060405162461bcd60e51b815260040161057b9190612d7e565b80356001600160a01b038116811461254c57600080fd5b919050565b60006020828403121561256357600080fd5b61099f82612535565b60008083601f84011261257e57600080fd5b50813567ffffffffffffffff81111561259657600080fd5b6020830191508360208260051b850101111561220a57600080fd5b600080600080604085870312156125c757600080fd5b843567ffffffffffffffff808211156125df57600080fd5b6125eb8883890161256c565b9096509450602087013591508082111561260457600080fd5b506126118782880161256c565b95989497509550505050565b60006020828403121561262f57600080fd5b5035919050565b60005b83811015612651578181015183820152602001612639565b50506000910152565b60008151808452612672816020860160208601612636565b601f01601f19169290920160200192915050565b60018060a01b038816815286602082015260e0604082015260006126ad60e083018861265a565b951515606083015250608081019390935260a083019190915260c0909101529392505050565b600080604083850312156126e657600080fd5b823591506126f660208401612535565b90509250929050565b60008060006060848603121561271457600080fd5b833567ffffffffffffffff81111561272b57600080fd5b8401610160818703121561273e57600080fd5b95602085013595506040909401359392505050565b634e487b7160e01b600052604160045260246000fd5b604051601f8201601f1916810167ffffffffffffffff8111828210171561279257612792612753565b604052919050565b600080604083850312156127ad57600080fd5b6127b683612535565b915060208084013567ffffffffffffffff808211156127d457600080fd5b818601915086601f8301126127e857600080fd5b8135818111156127fa576127fa612753565b61280c601f8201601f19168501612769565b9150808252878482850101111561282257600080fd5b80848401858401376000848284010152508093505050509250929050565b6000806000806060858703121561285657600080fd5b61285f85612535565b935060208501359250604085013567ffffffffffffffff8082111561288357600080fd5b818701915087601f83011261289757600080fd5b8135818111156128a657600080fd5b8860208285010111156128b857600080fd5b95989497505060200194505050565b600081518084526020808501945080840160005b838110156129005781516001600160a01b0316875295820195908201906001016128db565b509495945050505050565b60208152600061099f60208301846128c7565b6000806000806080858703121561293457600080fd5b843567ffffffffffffffff8082111561294c57600080fd5b818701915087601f83011261296057600080fd5b813560208282111561297457612974612753565b8160051b9250612985818401612769565b828152928401810192818101908b85111561299f57600080fd5b948201945b848610156129c4576129b586612535565b825294820194908201906129a4565b9b918a01359a505060408901359860600135975095505050505050565b60208082526017908201527f6f6e6c7920746865206163636f756e7420697473656c66000000000000000000604082015260600190565b634e487b7160e01b600052603260045260246000fd5b6000808335601e19843603018112612a4557600080fd5b83018035915067ffffffffffffffff821115612a6057600080fd5b60200191503681900382131561220a57600080fd5b634e487b7160e01b600052601160045260246000fd5b600060018201612a9d57612a9d612a75565b5060010190565b6020808252601190820152701d1e08191bd95cc81b9bdd08195e1a5cdd607a1b604082015260600190565b600181811c90821680612ae357607f821691505b602082108103612b0357634e487b7160e01b600052602260045260246000fd5b50919050565b6020808252602c908201527f46756e6374696f6e206d7573742062652063616c6c6564207468726f7567682060408201526b19195b1959d85d1958d85b1b60a21b606082015260800190565b6020808252602c908201527f46756e6374696f6e206d7573742062652063616c6c6564207468726f7567682060408201526b6163746976652070726f787960a01b606082015260800190565b6020808252600c908201526b3737ba1030b71037bbb732b960a11b604082015260600190565b8082018082111561078457610784612a75565b601f821115611c4c57600081815260208120601f850160051c81016020861015612c015750805b601f850160051c820191505b81811015612c2057828155600101612c0d565b505050505050565b815167ffffffffffffffff811115612c4257612c42612753565b612c5681612c508454612acf565b84612bda565b602080601f831160018114612c8b5760008415612c735750858301515b600019600386901b1c1916600185901b178555612c20565b600085815260208120601f198616915b82811015612cba57888601518255948401946001909101908401612c9b565b5085821015612cd85787850151600019600388901b60f8161c191681555b5050505050600190811b01905550565b604081526000612cfb60408301856128c7565b90508260208301529392505050565b600060208284031215612d1c57600080fd5b5051919050565b60008251612d35818460208701612636565b9190910192915050565b8181038181111561078457610784612a75565b634e487b7160e01b600052603160045260246000fd5b634e487b7160e01b600052602160045260246000fd5b60208152600061099f602083018461265a56fe360894a13ba1a3210667c828492db98dca3e2076cc3735a920a3ca505d382bbc416464726573733a206c6f772d6c6576656c2064656c65676174652063616c6c206661696c6564a264697066735822122070c72fe9541298a1115537b7f74b7cf875ffca8edaf8292a098af4b8e52869f364736f6c63430008110033",
  "linkReferences": {},
  "deployedLinkReferences": {}
}