{
  "_format": "hh-sol-artifact-1",
  "contractName": "CorporateRecoveryAccountFactory",
  "sourceName": "contracts/CorporateRecoveryAccountFactory.sol",
  "abi": [
    {
      "inputs": [
        {
          "internalType": "contract IEntryPoint",
          "name": "entryPoint",
          "type": "address"
        }
      ],
      "stateMutability": "nonpayable",
      "type": "constructor"
    },
    {
      "anonymous": false,
      "inputs": [
        {
          "indexed": true,
          "internalType": "address",
          "name": "account",
          "type": "address"
        },
        {
          "indexed": false,
          "internalType": "address[]",
          "name": "initialSigners",
          "type": "address[]"
        },
        {
          "indexed": false,
          "internalType": "uint256",
          "name": "threshold",
          "type": "uint256"
        }
      ],
      "name": "AccountCreated",
      "type": "event"
    },
    {
      "inputs": [],
      "name": "accountImplementation",
      "outputs": [
        {
          "internalType": "contract CorporateRecoveryAccount",
          "name": "",
          "type": "address"
        }
      ],
      "stateMutability": "view",
      "type": "function"
    },
    {
      "inputs": [
        {
          "internalType": "address[]",
          "name": "initialSigners",
          "type": "address[]"
        },
        {
          "internalType": "uint256",
          "name": "threshold",
          "type": "uint256"
        },
        {
          "internalType": "uint256",
          "name": "salt",
          "type": "uint256"
        }
      ],
      "name": "createAccount",
      "outputs": [
        {
          "internalType": "address",
          "name": "",
          "type": "address"
        }
      ],
      "stateMutability": "nonpayable",
      "type": "function"
    },
    {
      "inputs": [
        {
          "internalType": "address[]",
          "name": "initialSigners",
          "type": "address[]"
        },
        {
          "internalType": "uint256",
          "name": "threshold",
          "type": "uint256"
        },
        {
          "internalType": "uint256",
          "name": "salt",
          "type": "uint256"
        }
      ],
      "name": "getAddress",
      "outputs": [
        {
          "internalType": "address",
          "name": "",
          "type": "address"
        }
      ],
      "stateMutability": "view",
      "type": "function"
    }
  ],
  "bytecode": "0x60a060405234801561001057600080fd5b5060405161436038038061436083398101604081905261002f91610088565b8060405161003c9061007b565b6001600160a01b039091168152602001604051809103906000f080158015610068573d6000803e3d6000fd5b506001600160a01b0316608052506100b8565b61360580610d5b83390190565b60006020828403121561009a57600080fd5b81516001600160a01b03811681146100b157600080fd5b9392505050565b608051610c7b6100e06000396000818160510152818161013201526102290152610c7b6000f3fe60806040523480156200001157600080fd5b5060043610620000465760003560e01c806311464fbe146200004b5780637afc12ff146200008f578063bdbce80714620000a6575b600080fd5b620000737f000000000000000000000000000000000000000000000000000000000000000081565b6040516001600160a01b03909116815260200160405180910390f35b62000073620000a03660046200034b565b620000bd565b62000073620000b73660046200034b565b620001b0565b6000808484604051602401620000d59291906200042e565b60408051601f19818403018152918152602080830180516001600160e01b03166360b5bb3f60e01b179052905191925060009190620001169082016200030a565b601f1982820381018352601f9091011660408190526200015d907f0000000000000000000000000000000000000000000000000000000000000000908590602001620004a7565b60408051601f19818403018152908290526200017d9291602001620004eb565b60408051601f1981840301815291905280516020820120909150620001a38582620002d7565b93505050505b9392505050565b600080620001c0858585620000bd565b90506001600160a01b0381163b8015620001dd57509050620001a9565b60008686604051602401620001f49291906200042e565b60408051601f198184030181529181526020820180516001600160e01b03166360b5bb3f60e01b1790525190915060009086907f000000000000000000000000000000000000000000000000000000000000000090849062000256906200030a565b62000263929190620004a7565b8190604051809103906000f590508015801562000284573d6000803e3d6000fd5b509050806001600160a01b03167fc6febf30dea1b6923811420eaa588cd391c80285987752f5cdf1e501e59889918989604051620002c49291906200042e565b60405180910390a2979650505050505050565b6000620001a98383306000604051836040820152846020820152828152600b8101905060ff815360559020949350505050565b610727806200051f83390190565b634e487b7160e01b600052604160045260246000fd5b80356001600160a01b03811681146200034657600080fd5b919050565b6000806000606084860312156200036157600080fd5b833567ffffffffffffffff808211156200037a57600080fd5b818601915086601f8301126200038f57600080fd5b8135602082821115620003a657620003a662000318565b8160051b604051601f19603f83011681018181108682111715620003ce57620003ce62000318565b60405292835281830193508481018201928a841115620003ed57600080fd5b948201945b83861015620004165762000406866200032e565b85529482019493820193620003f2565b9a918901359950506040909701359695505050505050565b604080825283519082018190526000906020906060840190828701845b82811015620004725781516001600160a01b0316845292840192908401906001016200044b565b50505092019290925292915050565b60005b838110156200049e57818101518382015260200162000484565b50506000910152565b60018060a01b03831681526040602082015260008251806040840152620004d681606085016020870162000481565b601f01601f1916919091016060019392505050565b60008351620004ff81846020880162000481565b8351908301906200051581836020880162000481565b0194935050505056fe608060405260405161072738038061072783398101604081905261002291610319565b61002e82826000610035565b5050610436565b61003e8361006b565b60008251118061004b5750805b156100665761006483836100ab60201b6100291760201c565b505b505050565b610074816100d7565b6040516001600160a01b038216907fbc7cd75a20ee27fd9adebab32041f755214dbc6bffa90cc0225b39da2e5c2d3b90600090a250565b60606100d08383604051806060016040528060278152602001610700602791396101a9565b9392505050565b6100ea8161022260201b6100551760201c565b6101515760405162461bcd60e51b815260206004820152602d60248201527f455243313936373a206e657720696d706c656d656e746174696f6e206973206e60448201526c1bdd08184818dbdb9d1c9858dd609a1b60648201526084015b60405180910390fd5b806101887f360894a13ba1a3210667c828492db98dca3e2076cc3735a920a3ca505d382bbc60001b61023160201b6100641760201c565b80546001600160a01b0319166001600160a01b039290921691909117905550565b6060600080856001600160a01b0316856040516101c691906103e7565b600060405180830381855af49150503d8060008114610201576040519150601f19603f3d011682016040523d82523d6000602084013e610206565b606091505b50909250905061021886838387610234565b9695505050505050565b6001600160a01b03163b151590565b90565b606083156102a357825160000361029c576001600160a01b0385163b61029c5760405162461bcd60e51b815260206004820152601d60248201527f416464726573733a2063616c6c20746f206e6f6e2d636f6e74726163740000006044820152606401610148565b50816102ad565b6102ad83836102b5565b949350505050565b8151156102c55781518083602001fd5b8060405162461bcd60e51b81526004016101489190610403565b634e487b7160e01b600052604160045260246000fd5b60005b838110156103105781810151838201526020016102f8565b50506000910152565b6000806040838503121561032c57600080fd5b82516001600160a01b038116811461034357600080fd5b60208401519092506001600160401b038082111561036057600080fd5b818501915085601f83011261037457600080fd5b815181811115610386576103866102df565b604051601f8201601f19908116603f011681019083821181831017156103ae576103ae6102df565b816040528281528860208487010111156103c757600080fd5b6103d88360208301602088016102f5565b80955050505050509250929050565b600082516103f98184602087016102f5565b9190910192915050565b60208152600082518060208401526104228160408501602087016102f5565b601f01601f19169190910160400192915050565b6102bb806104456000396000f3fe60806040523661001357610011610017565b005b6100115b610027610022610067565b61009f565b565b606061004e838360405180606001604052806027815260200161025f602791396100c3565b9392505050565b6001600160a01b03163b151590565b90565b600061009a7f360894a13ba1a3210667c828492db98dca3e2076cc3735a920a3ca505d382bbc546001600160a01b031690565b905090565b3660008037600080366000845af43d6000803e8080156100be573d6000f35b3d6000fd5b6060600080856001600160a01b0316856040516100e0919061020f565b600060405180830381855af49150503d806000811461011b576040519150601f19603f3d011682016040523d82523d6000602084013e610120565b606091505b50915091506101318683838761013b565b9695505050505050565b606083156101af5782516000036101a8576001600160a01b0385163b6101a85760405162461bcd60e51b815260206004820152601d60248201527f416464726573733a2063616c6c20746f206e6f6e2d636f6e747261637400000060448201526064015b60405180910390fd5b50816101b9565b6101b983836101c1565b949350505050565b8151156101d15781518083602001fd5b8060405162461bcd60e51b815260040161019f919061022b565b60005b838110156102065781810151838201526020016101ee565b50506000910152565b600082516102218184602087016101eb565b9190910192915050565b602081526000825180602084015261024a8160408501602087016101eb565b601f01601f1916919091016040019291505056fe416464726573733a206c6f772d6c6576656c2064656c65676174652063616c6c206661696c6564a26469706673582212203d912d0abbe116b83dfa1d3a82e612e3256de4ef536ea1a35d0e77601b02b17764736f6c63430008110033416464726573733a206c6f772d6c6576656c2064656c65676174652063616c6c206661696c6564a26469706673582212207cd2277646add69f3b7d3c610e4676cb159fe39686121efa9d25c8cb727a9a5364736f6c6343000811003360c06040523060805262093a80600a553480156200001c57600080fd5b5060405162003605380380620036058339810160408190526200003f916200011e565b6001600160a01b03811660a052620000566200005d565b5062000150565b600054610100900460ff1615620000ca5760405162461bcd60e51b815260206004820152602760248201527f496e697469616c697a61626c653a20636f6e747261637420697320696e697469604482015266616c697a696e6760c81b606482015260840160405180910390fd5b60005460ff908116146200011c576000805460ff191660ff9081179091556040519081527f7f26b83ff96e1f2b6a682f133852f6798a09c465da95921460cefb38474024989060200160405180910390a15b565b6000602082840312156200013157600080fd5b81516001600160a01b03811681146200014957600080fd5b9392505050565b60805160a051613457620001ae600039600081816104a5015281816114480152818161199601528181611fc001526122360152600081816109130152818161095301528181610a1801528181610a580152610aeb01526134576000f3fe6080604052600436106101d15760003560e01c806394cf795e116100f7578063c01a8c8411610095578063eb12d61e11610064578063eb12d61e14610570578063ee22610b14610590578063fbdd9990146105b0578063fcae8d38146105e957600080fd5b8063c01a8c8414610505578063d087d28814610525578063d920d35a1461053a578063e6a13b951461055a57600080fd5b8063a82f2e26116100d1578063a82f2e2614610475578063b0d691fe1461048b578063b61d27f6146104cf578063b77bf600146104ef57600080fd5b806394cf795e1461040c5780639ace38c21461042e578063a0c1deb41461046057600080fd5b806352d1902d1161016f5780635e90852d1161013e5780635e90852d1461038c57806360b5bb3f146103ac578063694e80c3146103cc5780637df73e27146103ec57600080fd5b806352d1902d146102fa57806357bb26701461030f57806357fe4e541461032f57806359c781a31461034457600080fd5b80633411c81c116101ab5780633411c81c1461024e5780633659cfe6146102995780633a871cdd146102b95780634f1ef286146102e757600080fd5b80630e316ab7146101dd578063124f8d9c146101ff57806318dfb3c71461022e57600080fd5b366101d857005b600080fd5b3480156101e957600080fd5b506101fd6101f8366004612a6b565b6105fe565b005b34801561020b57600080fd5b5061021461071a565b604051610225959493929190612aca565b60405180910390f35b34801561023a57600080fd5b506101fd610249366004612b48565b610804565b34801561025a57600080fd5b50610289610269366004612bb4565b600c60209081526000928352604080842090915290825290205460ff1681565b6040519015158152602001610225565b3480156102a557600080fd5b506101fd6102b4366004612a6b565b610909565b3480156102c557600080fd5b506102d96102d4366004612be0565b6109e8565b604051908152602001610225565b6101fd6102f5366004612c7b565b610a0e565b34801561030657600080fd5b506102d9610ade565b34801561031b57600080fd5b506101fd61032a366004612d21565b610b91565b34801561033b57600080fd5b506101fd610db4565b34801561035057600080fd5b5060055460065460085460095461036a9392919060ff1684565b6040805194855260208501939093529183015215156060820152608001610225565b34801561039857600080fd5b506102d96103a7366004612d63565b61105b565b3480156103b857600080fd5b506101fd6103c7366004612dea565b6111fe565b3480156103d857600080fd5b506101fd6103e7366004612e9d565b6114f4565b3480156103f857600080fd5b50610289610407366004612a6b565b611607565b34801561041857600080fd5b5061042161161a565b6040516102259190612eb6565b34801561043a57600080fd5b5061044e610449366004612e9d565b6116ca565b60405161022596959493929190612f19565b34801561046c57600080fd5b506102d9611797565b34801561048157600080fd5b506102d960035481565b34801561049757600080fd5b506040516001600160a01b037f0000000000000000000000000000000000000000000000000000000000000000168152602001610225565b3480156104db57600080fd5b506101fd6104ea366004612d63565b6117a8565b3480156104fb57600080fd5b506102d9600d5481565b34801561051157600080fd5b506101fd610520366004612e9d565b6117f7565b34801561053157600080fd5b506102d9611992565b34801561054657600080fd5b506101fd610555366004612e9d565b611a26565b34801561056657600080fd5b506102d9600a5481565b34801561057c57600080fd5b506101fd61058b366004612a6b565b611b20565b34801561059c57600080fd5b506101fd6105ab366004612e9d565b611bf5565b3480156105bc57600080fd5b506102896105cb366004612a6b565b6001600160a01b031660009081526007602052604090205460ff1690565b3480156105f557600080fd5b506101fd611e09565b3330146106265760405162461bcd60e51b815260040161061d90612f5e565b60405180910390fd5b610631600182611f75565b6106735760405162461bcd60e51b81526020600482015260136024820152726e616f206520756d207369676e61746172696f60681b604482015260640161061d565b6003546106806001611f96565b116106d75760405162461bcd60e51b815260206004820152602160248201527f6e616f20706f646520726564757a69722061626169786f20646f206c696d69746044820152606560f81b606482015260840161061d565b6106e2600182611fa0565b506040516001600160a01b038216907f3525e22824a8a7df2c9a6029941c824cf95b6447f1e13d5128fd3826d35afe8b90600090a250565b6060600080600080600460000180548060200260200160405190810160405280929190818152602001828054801561077b57602002820191906000526020600020905b81546001600160a01b0316815260019091019060200180831161075d575b50506005546006549499509750610798939250879150612fab9050565b4210156107c15760065460055442916107b091612fab565b6107ba9190612fbe565b92506107c6565b600092505b600854600554909250158015906107e0575060095460ff16155b80156107fb57506006546005546107f79190612fab565b4210155b90509091929394565b61080c611fb5565b82811461085b5760405162461bcd60e51b815260206004820181905260248201527f74616d616e686f732064652061727261797320696e636f6d7061746976656973604482015260640161061d565b60005b83811015610902576108f085858381811061087b5761087b612fd1565b90506020020160208101906108909190612a6b565b60008585858181106108a4576108a4612fd1565b90506020028101906108b69190612fe7565b8080601f01602080910402602001604051908101604052809392919081815260200183838082843760009201919091525061203192505050565b806108fa8161302e565b91505061085e565b5050505050565b6001600160a01b037f00000000000000000000000000000000000000000000000000000000000000001630036109515760405162461bcd60e51b815260040161061d90613047565b7f00000000000000000000000000000000000000000000000000000000000000006001600160a01b031661099a6000805160206133db833981519152546001600160a01b031690565b6001600160a01b0316146109c05760405162461bcd60e51b815260040161061d90613093565b6109c9816120a1565b604080516000808252602082019092526109e5918391906120c0565b50565b60006109f261222b565b6109fc84846122a3565b9050610a078261234a565b9392505050565b6001600160a01b037f0000000000000000000000000000000000000000000000000000000000000000163003610a565760405162461bcd60e51b815260040161061d90613047565b7f00000000000000000000000000000000000000000000000000000000000000006001600160a01b0316610a9f6000805160206133db833981519152546001600160a01b031690565b6001600160a01b031614610ac55760405162461bcd60e51b815260040161061d90613093565b610ace826120a1565b610ada828260016120c0565b5050565b6000306001600160a01b037f00000000000000000000000000000000000000000000000000000000000000001614610b7e5760405162461bcd60e51b815260206004820152603860248201527f555550535570677261646561626c653a206d757374206e6f742062652063616c60448201527f6c6564207468726f7567682064656c656761746563616c6c0000000000000000606482015260840161061d565b506000805160206133db83398151915290565b610b9c600133611f75565b610bb85760405162461bcd60e51b815260040161061d906130df565b6003811015610c005760405162461bcd60e51b81526020600482015260146024820152734d696e696d6f2033207369676e61746172696f7360601b604482015260640161061d565b60005b81811015610d30576000838383818110610c1f57610c1f612fd1565b9050602002016020810190610c349190612a6b565b6001600160a01b031603610c5a5760405162461bcd60e51b815260040161061d90613105565b60005b81811015610d1d57838382818110610c7757610c77612fd1565b9050602002016020810190610c8c9190612a6b565b6001600160a01b0316848484818110610ca757610ca7612fd1565b9050602002016020810190610cbc9190612a6b565b6001600160a01b031603610d0b5760405162461bcd60e51b81526020600482015260166024820152757369676e61746172696f73206475706c696361646f7360501b604482015260640161061d565b80610d158161302e565b915050610c5d565b5080610d288161302e565b915050610c03565b50610d3d600483836129d7565b5042600555600a54600655600160088190553360008181526007602052604090819020805460ff1990811690941790556009805490931690925590517f4a0c66b15d636546207e51120a329e156b391fceb4d48875feb228fd7bf2052990610da8908590859061314a565b60405180910390a25050565b610dbf600133611f75565b610ddb5760405162461bcd60e51b815260040161061d906130df565b600554610e2a5760405162461bcd60e51b815260206004820152601c60248201527f6e656e68756d6120736f6c696369746163616f2070656e64656e746500000000604482015260640161061d565b60095460ff1615610e785760405162461bcd60e51b8152602060048201526018602482015277726563757065726163616f206a612065786563757461646160401b604482015260640161061d565b600654600554610e889190612fab565b421015610ec85760405162461bcd60e51b815260206004820152600e60248201526d416775617264652037206469617360901b604482015260640161061d565b6000610ed46001611f96565b67ffffffffffffffff811115610eec57610eec612c34565b604051908082528060200260200182016040528015610f15578160200160208202803683370190505b50905060005b8151811015610f6b57610f2f600182612397565b828281518110610f4157610f41612fd1565b6001600160a01b039092166020928302919091019091015280610f638161302e565b915050610f1b565b5060005b8151811015610fb857610fa5828281518110610f8d57610f8d612fd1565b60200260200101516001611fa090919063ffffffff16565b5080610fb08161302e565b915050610f6f565b5060005b60045481101561100f57610ffc60046000018281548110610fdf57610fdf612fd1565b6000918252602090912001546001906001600160a01b03166123a3565b50806110078161302e565b915050610fbc565b506009805460ff191660011790556040517fd70eb9e4e82eb370424e94afd7309d4f9880a65d9a5c3c07acb6373d2aabb9d490611050908390600490613196565b60405180910390a150565b6000611068600133611f75565b6110845760405162461bcd60e51b815260040161061d906130df565b600d5490506040518060c00160405280866001600160a01b0316815260200185815260200184848080601f016020809104026020016040519081016040528093929190818152602001838380828437600092018290525093855250505060208083018290526001604080850182905242606090950194909452858352600b825291839020845181546001600160a01b0319166001600160a01b0390911617815590840151918101919091559082015160028201906111429082613284565b50606082015160038201805491151560ff199283161790556080830151600483015560a0909201516005909101556000828152600c6020908152604080832033845290915281208054909216600117909155600d8054916111a28361302e565b9190505550846001600160a01b0316336001600160a01b0316827f08754d66a328b07857be590cc17e0bb798e0ec9cb30ac8e5af7afd3481d1c6bd876040516111ed91815260200190565b60405180910390a45b949350505050565b600054610100900460ff161580801561121e5750600054600160ff909116105b806112385750303b158015611238575060005460ff166001145b61129b5760405162461bcd60e51b815260206004820152602e60248201527f496e697469616c697a61626c653a20636f6e747261637420697320616c72656160448201526d191e481a5b9a5d1a585b1a5e995960921b606482015260840161061d565b6000805460ff1916600117905580156112be576000805461ff0019166101001790555b600083511161130f5760405162461bcd60e51b815260206004820152601860248201527f70656c6f206d656e6f7320756d207369676e61746172696f0000000000000000604482015260640161061d565b600082118015611320575082518211155b61135e5760405162461bcd60e51b815260206004820152600f60248201526e6c696d69746520696e76616c69646f60881b604482015260640161061d565b60005b835181101561143e57600084828151811061137e5761137e612fd1565b6020026020010151905060006001600160a01b0316816001600160a01b0316036113ba5760405162461bcd60e51b815260040161061d90613105565b6113c5600182611f75565b1561141e5760405162461bcd60e51b8152602060048201526024808201527f7369676e61746172696f73206e616f20706f64656d20736572206475706c696360448201526361646f7360e01b606482015260840161061d565b6114296001826123a3565b505080806114369061302e565b915050611361565b50816003819055507f00000000000000000000000000000000000000000000000000000000000000006001600160a01b03167f0a6ed6ef682ea7527c36a1e889be89152499d204536c76182fc3f413c5a4d83684846040516114a1929190613344565b60405180910390a280156114ef576000805461ff0019169055604051600181527f7f26b83ff96e1f2b6a682f133852f6798a09c465da95921460cefb38474024989060200160405180910390a15b505050565b3330146115135760405162461bcd60e51b815260040161061d90612f5e565b600081116115635760405162461bcd60e51b815260206004820152601860248201527f6c696d69746520646576652073657220706f73697469766f0000000000000000604482015260640161061d565b61156d6001611f96565b8111156115d25760405162461bcd60e51b815260206004820152602d60248201527f6c696d697465206e616f20706f64652065786365646572206e756d65726f206460448201526c65207369676e61746172696f7360981b606482015260840161061d565b60038190556040518181527f6c4ce60fd690e1216286a10b875c5662555f10774484e58142cedd7a90781baa90602001611050565b6000611614600183611f75565b92915050565b606060006116286001611f96565b905060008167ffffffffffffffff81111561164557611645612c34565b60405190808252806020026020018201604052801561166e578160200160208202803683370190505b50905060005b828110156116c357611687600182612397565b82828151811061169957611699612fd1565b6001600160a01b0390921660209283029190910190910152806116bb8161302e565b915050611674565b5092915050565b600b602052600090815260409020805460018201546002830180546001600160a01b039093169391926116fc906131fc565b80601f0160208091040260200160405190810160405280929190818152602001828054611728906131fc565b80156117755780601f1061174a57610100808354040283529160200191611775565b820191906000526020600020905b81548152906001019060200180831161175857829003601f168201915b5050505060038301546004840154600590940154929360ff9091169290915086565b60006117a36001611f96565b905090565b6117b0611fb5565b6117f1848484848080601f01602080910402602001604051908101604052809392919081815260200183838082843760009201919091525061203192505050565b50505050565b611802600133611f75565b61181e5760405162461bcd60e51b815260040161061d906130df565b80600d5481106118645760405162461bcd60e51b81526020600482015260116024820152701d1e08191bd95cc81b9bdd08195e1a5cdd607a1b604482015260640161061d565b6000828152600b6020526040902060030154829060ff16156118ba5760405162461bcd60e51b815260206004820152600f60248201526e7478206a612065786563757461646160881b604482015260640161061d565b6000838152600c60209081526040808320338452909152902054839060ff16156119195760405162461bcd60e51b815260206004820152601060248201526f7478206a6120636f6e6669726d61646160801b604482015260640161061d565b6000848152600b6020526040812060048101805491926119388361302e565b90915550506000858152600c60209081526040808320338085529252808320805460ff1916600117905551909187917f15c2f311c9e0f53b50388279894aeff029a3457884a6601e924fca879e12adcc9190a35050505050565b60007f0000000000000000000000000000000000000000000000000000000000000000604051631aab3f0d60e11b8152306004820152600060248201526001600160a01b0391909116906335567e1a90604401602060405180830381865afa158015611a02573d6000803e3d6000fd5b505050506040513d601f19601f820116820180604052508101906117a39190613366565b333014611a455760405162461bcd60e51b815260040161061d90612f5e565b62015180811015611a985760405162461bcd60e51b815260206004820152601760248201527f706572696f646f206d696e696d6f206465203120646961000000000000000000604482015260640161061d565b62278d00811115611aeb5760405162461bcd60e51b815260206004820152601960248201527f706572696f646f206d6178696d6f206465203330206469617300000000000000604482015260640161061d565b600a8190556040518181527f473838a0dc7c7e33f7ff6bb6e35c20fd06a63b39ce5cfcbe486da54dd9b088be90602001611050565b333014611b3f5760405162461bcd60e51b815260040161061d90612f5e565b6001600160a01b038116611b655760405162461bcd60e51b815260040161061d90613105565b611b70600182611f75565b15611bb25760405162461bcd60e51b81526020600482015260126024820152716a61206520756d207369676e61746172696f60701b604482015260640161061d565b611bbd6001826123a3565b506040516001600160a01b038216907f47d1c22a25bb3a5d4e481b9b1e6944c2eade3181a0a20b495ed61d35b5323f2490600090a250565b611c00600133611f75565b611c1c5760405162461bcd60e51b815260040161061d906130df565b80600d548110611c625760405162461bcd60e51b81526020600482015260116024820152701d1e08191bd95cc81b9bdd08195e1a5cdd607a1b604482015260640161061d565b6000828152600b6020526040902060030154829060ff1615611cb85760405162461bcd60e51b815260206004820152600f60248201526e7478206a612065786563757461646160881b604482015260640161061d565b6000838152600b6020526040902060035460048201541015611d1c5760405162461bcd60e51b815260206004820152601a60248201527f636f6e6669726d61636f657320696e737566696369656e746573000000000000604482015260640161061d565b60038101805460ff19166001908117909155815490820154600283018054611dd6936001600160a01b0316929190611d53906131fc565b80601f0160208091040260200160405190810160405280929190818152602001828054611d7f906131fc565b8015611dcc5780601f10611da157610100808354040283529160200191611dcc565b820191906000526020600020905b815481529060010190602001808311611daf57829003601f168201915b5050505050612031565b604051339085907fefc13bdcf58f184ea7cae26b499fb33b539e01d0197cea456f3ada289b8cf19b90600090a350505050565b611e14600133611f75565b611e305760405162461bcd60e51b815260040161061d906130df565b600554611e7f5760405162461bcd60e51b815260206004820152601c60248201527f6e656e68756d6120736f6c696369746163616f2070656e64656e746500000000604482015260640161061d565b3360009081526007602052604090205460ff1615611ecd5760405162461bcd60e51b815260206004820152600b60248201526a6a61206170726f7661646f60a81b604482015260640161061d565b60095460ff1615611f1b5760405162461bcd60e51b8152602060048201526018602482015277726563757065726163616f206a612065786563757461646160401b604482015260640161061d565b336000908152600760205260408120805460ff191660011790556008805491611f438361302e565b909155505060405133907f47032c9dbd3001ab3b46aa359314884f3f192d251eda3b26f0be4cffd76d39c590600090a2565b6001600160a01b031660009081526001919091016020526040902054151590565b6000611614825490565b6000610a07836001600160a01b0384166123b8565b336001600160a01b037f0000000000000000000000000000000000000000000000000000000000000000161480611feb57503330145b61202f5760405162461bcd60e51b8152602060048201526015602482015274636f6e74613a206e616f206175746f72697a61646f60581b604482015260640161061d565b565b600080846001600160a01b0316848460405161204d919061337f565b60006040518083038185875af1925050503d806000811461208a576040519150601f19603f3d011682016040523d82523d6000602084013e61208f565b606091505b50915091508161090257805160208201fd5b3330146109e55760405162461bcd60e51b815260040161061d90612f5e565b7f4910fdfa16fed3260ed0e7147f7cc6da11a60208b5b9406d12a635614ffd91435460ff16156120f3576114ef836124ab565b826001600160a01b03166352d1902d6040518163ffffffff1660e01b8152600401602060405180830381865afa92505050801561214d575060408051601f3d908101601f1916820190925261214a91810190613366565b60015b6121b05760405162461bcd60e51b815260206004820152602e60248201527f45524331393637557067726164653a206e657720696d706c656d656e7461746960448201526d6f6e206973206e6f74205555505360901b606482015260840161061d565b6000805160206133db833981519152811461221f5760405162461bcd60e51b815260206004820152602960248201527f45524331393637557067726164653a20756e737570706f727465642070726f786044820152681a58589b195555525160ba1b606482015260840161061d565b506114ef838383612547565b336001600160a01b037f0000000000000000000000000000000000000000000000000000000000000000161461202f5760405162461bcd60e51b815260206004820152601c60248201527f6163636f756e743a206e6f742066726f6d20456e747279506f696e7400000000604482015260640161061d565b7f19457468657265756d205369676e6564204d6573736167653a0a3332000000006000908152601c829052603c812060006123226122e5610140870187612fe7565b8080601f016020809104026020016040519081016040528093929190818152602001838380828437600092019190915250869392505061256c9050565b905061232f600182611f75565b1561233f57600092505050611614565b506001949350505050565b80156109e557604051600090339060001990849084818181858888f193505050503d8060008114610902576040519150601f19603f3d011682016040523d82523d6000602084013e610902565b6000610a078383612590565b6000610a07836001600160a01b0384166125ba565b600081815260018301602052604081205480156124a15760006123dc600183612fbe565b85549091506000906123f090600190612fbe565b905081811461245557600086600001828154811061241057612410612fd1565b906000526020600020015490508087600001848154811061243357612433612fd1565b6000918252602080832090910192909255918252600188019052604090208390555b85548690806124665761246661339b565b600190038181906000526020600020016000905590558560010160008681526020019081526020016000206000905560019350505050611614565b6000915050611614565b6001600160a01b0381163b6125185760405162461bcd60e51b815260206004820152602d60248201527f455243313936373a206e657720696d706c656d656e746174696f6e206973206e60448201526c1bdd08184818dbdb9d1c9858dd609a1b606482015260840161061d565b6000805160206133db83398151915280546001600160a01b0319166001600160a01b0392909216919091179055565b61255083612609565b60008251118061255d5750805b156114ef576117f18383612649565b600080600061257b858561266e565b91509150612588816126b3565b509392505050565b60008260000182815481106125a7576125a7612fd1565b9060005260206000200154905092915050565b600081815260018301602052604081205461260157508154600181810184556000848152602080822090930184905584548482528286019093526040902091909155611614565b506000611614565b612612816124ab565b6040516001600160a01b038216907fbc7cd75a20ee27fd9adebab32041f755214dbc6bffa90cc0225b39da2e5c2d3b90600090a250565b6060610a0783836040518060600160405280602781526020016133fb602791396127fd565b60008082516041036126a45760208301516040840151606085015160001a61269887828585612875565b945094505050506126ac565b506000905060025b9250929050565b60008160048111156126c7576126c76133b1565b036126cf5750565b60018160048111156126e3576126e36133b1565b036127305760405162461bcd60e51b815260206004820152601860248201527f45434453413a20696e76616c6964207369676e61747572650000000000000000604482015260640161061d565b6002816004811115612744576127446133b1565b036127915760405162461bcd60e51b815260206004820152601f60248201527f45434453413a20696e76616c6964207369676e6174757265206c656e67746800604482015260640161061d565b60038160048111156127a5576127a56133b1565b036109e55760405162461bcd60e51b815260206004820152602260248201527f45434453413a20696e76616c6964207369676e6174757265202773272076616c604482015261756560f01b606482015260840161061d565b6060600080856001600160a01b03168560405161281a919061337f565b600060405180830381855af49150503d8060008114612855576040519150601f19603f3d011682016040523d82523d6000602084013e61285a565b606091505b509150915061286b86838387612939565b9695505050505050565b6000807f7fffffffffffffffffffffffffffffff5d576e7357a4501ddfe92f46681b20a08311156128ac5750600090506003612930565b6040805160008082526020820180845289905260ff881692820192909252606081018690526080810185905260019060a0016020604051602081039080840390855afa158015612900573d6000803e3d6000fd5b5050604051601f1901519150506001600160a01b03811661292957600060019250925050612930565b9150600090505b94509492505050565b606083156129a85782516000036129a1576001600160a01b0385163b6129a15760405162461bcd60e51b815260206004820152601d60248201527f416464726573733a2063616c6c20746f206e6f6e2d636f6e7472616374000000604482015260640161061d565b50816111f6565b6111f683838151156129bd5781518083602001fd5b8060405162461bcd60e51b815260040161061d91906133c7565b828054828255906000526020600020908101928215612a2a579160200282015b82811115612a2a5781546001600160a01b0319166001600160a01b038435161782556020909201916001909101906129f7565b50612a36929150612a3a565b5090565b5b80821115612a365760008155600101612a3b565b80356001600160a01b0381168114612a6657600080fd5b919050565b600060208284031215612a7d57600080fd5b610a0782612a4f565b600081518084526020808501945080840160005b83811015612abf5781516001600160a01b031687529582019590820190600101612a9a565b509495945050505050565b60a081526000612add60a0830188612a86565b905085602083015284604083015283606083015282151560808301529695505050505050565b60008083601f840112612b1557600080fd5b50813567ffffffffffffffff811115612b2d57600080fd5b6020830191508360208260051b85010111156126ac57600080fd5b60008060008060408587031215612b5e57600080fd5b843567ffffffffffffffff80821115612b7657600080fd5b612b8288838901612b03565b90965094506020870135915080821115612b9b57600080fd5b50612ba887828801612b03565b95989497509550505050565b60008060408385031215612bc757600080fd5b82359150612bd760208401612a4f565b90509250929050565b600080600060608486031215612bf557600080fd5b833567ffffffffffffffff811115612c0c57600080fd5b84016101608187031215612c1f57600080fd5b95602085013595506040909401359392505050565b634e487b7160e01b600052604160045260246000fd5b604051601f8201601f1916810167ffffffffffffffff81118282101715612c7357612c73612c34565b604052919050565b60008060408385031215612c8e57600080fd5b612c9783612a4f565b915060208084013567ffffffffffffffff80821115612cb557600080fd5b818601915086601f830112612cc957600080fd5b813581811115612cdb57612cdb612c34565b612ced601f8201601f19168501612c4a565b91508082528784828501011115612d0357600080fd5b80848401858401376000848284010152508093505050509250929050565b60008060208385031215612d3457600080fd5b823567ffffffffffffffff811115612d4b57600080fd5b612d5785828601612b03565b90969095509350505050565b60008060008060608587031215612d7957600080fd5b612d8285612a4f565b935060208501359250604085013567ffffffffffffffff80821115612da657600080fd5b818701915087601f830112612dba57600080fd5b813581811115612dc957600080fd5b886020828501011115612ddb57600080fd5b95989497505060200194505050565b60008060408385031215612dfd57600080fd5b823567ffffffffffffffff80821115612e1557600080fd5b818501915085601f830112612e2957600080fd5b8135602082821115612e3d57612e3d612c34565b8160051b9250612e4e818401612c4a565b8281529284018101928181019089851115612e6857600080fd5b948201945b84861015612e8d57612e7e86612a4f565b82529482019490820190612e6d565b9997909101359750505050505050565b600060208284031215612eaf57600080fd5b5035919050565b602081526000610a076020830184612a86565b60005b83811015612ee4578181015183820152602001612ecc565b50506000910152565b60008151808452612f05816020860160208601612ec9565b601f01601f19169290920160200192915050565b60018060a01b038716815285602082015260c060408201526000612f4060c0830187612eed565b941515606083015250608081019290925260a0909101529392505050565b60208082526017908201527f6f6e6c7920746865206163636f756e7420697473656c66000000000000000000604082015260600190565b634e487b7160e01b600052601160045260246000fd5b8082018082111561161457611614612f95565b8181038181111561161457611614612f95565b634e487b7160e01b600052603260045260246000fd5b6000808335601e19843603018112612ffe57600080fd5b83018035915067ffffffffffffffff82111561301957600080fd5b6020019150368190038213156126ac57600080fd5b60006001820161304057613040612f95565b5060010190565b6020808252602c908201527f46756e6374696f6e206d7573742062652063616c6c6564207468726f7567682060408201526b19195b1959d85d1958d85b1b60a21b606082015260800190565b6020808252602c908201527f46756e6374696f6e206d7573742062652063616c6c6564207468726f7567682060408201526b6163746976652070726f787960a01b606082015260800190565b6020808252600c908201526b3737ba10309039b4b3b732b960a11b604082015260600190565b60208082526025908201527f7369676e61746172696f206e616f20706f64652073657220656e64657265636f604082015264207a65726f60d81b606082015260800190565b60208082528181018390526000908460408401835b8681101561318b576001600160a01b0361317884612a4f565b168252918301919083019060010161315f565b509695505050505050565b6040815260006131a96040830185612a86565b60208382038185015281855480845282840191508660005282600020935060005b818110156131ef5784546001600160a01b0316835260019485019492840192016131ca565b5090979650505050505050565b600181811c9082168061321057607f821691505b60208210810361323057634e487b7160e01b600052602260045260246000fd5b50919050565b601f8211156114ef57600081815260208120601f850160051c8101602086101561325d5750805b601f850160051c820191505b8181101561327c57828155600101613269565b505050505050565b815167ffffffffffffffff81111561329e5761329e612c34565b6132b2816132ac84546131fc565b84613236565b602080601f8311600181146132e757600084156132cf5750858301515b600019600386901b1c1916600185901b17855561327c565b600085815260208120601f198616915b82811015613316578886015182559484019460019091019084016132f7565b50858210156133345787850151600019600388901b60f8161c191681555b5050505050600190811b01905550565b6040815260006133576040830185612a86565b90508260208301529392505050565b60006020828403121561337857600080fd5b5051919050565b60008251613391818460208701612ec9565b9190910192915050565b634e487b7160e01b600052603160045260246000fd5b634e487b7160e01b600052602160045260246000fd5b602081526000610a076020830184612eed56fe360894a13ba1a3210667c828492db98dca3e2076cc3735a920a3ca505d382bbc416464726573733a206c6f772d6c6576656c2064656c65676174652063616c6c206661696c6564a2646970667358221220b74ab09b726e7d01392274efaba9d44f9336ea04578d61037f97550e02f237ff64736f6c63430008110033",
  "linkReferences": {},
  "deployedLinkReferences": {}
}