{
  "_format": "hh-sol-artifact-1",
  "contractName": "GameAccountImpl",
  "sourceName": "contracts/GameAccount.sol",
  "abi": [
    {
      "inputs": [
        {
          "internalType": "contract IEntryPoint",
          "name": "anEntryPoint",
          "type": "address"
        }
      ],
      "stateMutability": "nonpayable",
      "type": "constructor"
    },
    {
      "anonymous": false,
      "inputs": [
        {
          "indexed": false,
          "internalType": "address",
          "name": "previousAdmin",
          "type": "address"
        },
        {
          "indexed": false,
          "internalType": "address",
          "name": "newAdmin",
          "type": "address"
        }
      ],
      "name": "AdminChanged",
      "type": "event"
    },
    {
      "anonymous": false,
      "inputs": [
        {
          "indexed": true,
          "internalType": "address",
          "name": "beacon",
          "type": "address"
        }
      ],
      "name": "BeaconUpgraded",
      "type": "event"
    },
    {
      "anonymous": false,
      "inputs": [
        {
          "indexed": true,
          "internalType": "address",
          "name": "tokenContract",
          "type": "address"
        },
        {
          "indexed": false,
          "internalType": "uint256",
          "name": "amount",
          "type": "uint256"
        }
      ],
      "name": "GameTokensWithdrawn",
      "type": "event"
    },
    {
      "anonymous": false,
      "inputs": [
        {
          "indexed": false,
          "internalType": "uint8",
          "name": "version",
          "type": "uint8"
        }
      ],
      "name": "Initialized",
      "type": "event"
    },
    {
      "anonymous": false,
      "inputs": [
        {
          "indexed": true,
          "internalType": "address",
          "name": "nftContract",
          "type": "address"
        },
        {
          "indexed": true,
          "internalType": "uint256",
          "name": "tokenId",
          "type": "uint256"
        }
      ],
      "name": "NFTCollateralAdded",
      "type": "event"
    },
    {
      "anonymous": false,
      "inputs": [
        {
          "indexed": true,
          "internalType": "address",
          "name": "nftContract",
          "type": "address"
        },
        {
          "indexed": true,
          "internalType": "uint256",
          "name": "tokenId",
          "type": "uint256"
        }
      ],
      "name": "NFTCollateralRemoved",
      "type": "event"
    },
    {
      "anonymous": false,
      "inputs": [
        {
          "indexed": true,
          "internalType": "bytes32",
          "name": "socialAuthId",
          "type": "bytes32"
        }
      ],
      "name": "SocialAuthInitialized",
      "type": "event"
    },
    {
      "anonymous": false,
      "inputs": [
        {
          "indexed": true,
          "internalType": "address",
          "name": "implementation",
          "type": "address"
        }
      ],
      "name": "Upgraded",
      "type": "event"
    },
    {
      "inputs": [
        {
          "internalType": "address",
          "name": "nftContract",
          "type": "address"
        },
        {
          "internalType": "uint256",
          "name": "tokenId",
          "type": "uint256"
        }
      ],
      "name": "addNFTCollateral",
      "outputs": [],
      "stateMutability": "nonpayable",
      "type": "function"
    },
    {
      "inputs": [
        {
          "internalType": "uint256",
          "name": "",
          "type": "uint256"
        }
      ],
      "name": "collateralNFTs",
      "outputs": [
        {
          "internalType": "address",
          "name": "contractAddress",
          "type": "address"
        },
        {
          "internalType": "uint256",
          "name": "tokenId",
          "type": "uint256"
        },
        {
          "internalType": "bool",
          "name": "locked",
          "type": "bool"
        }
      ],
      "stateMutability": "view",
      "type": "function"
    },
    {
      "inputs": [],
      "name": "entryPoint",
      "outputs": [
        {
          "internalType": "contract IEntryPoint",
          "name": "",
          "type": "address"
        }
      ],
      "stateMutability": "view",
      "type": "function"
    },
    {
      "inputs": [
        {
          "internalType": "address",
          "name": "dest",
          "type": "address"
        },
        {
          "internalType": "uint256",
          "name": "value",
          "type": "uint256"
        },
        {
          "internalType": "bytes",
          "name": "func",
          "type": "bytes"
        }
      ],
      "name": "execute",
      "outputs": [],
      "stateMutability": "nonpayable",
      "type": "function"
    },
    {
      "inputs": [
        {
          "internalType": "address[]",
          "name": "dest",
          "type": "address[]"
        },
        {
          "internalType": "bytes[]",
          "name": "func",
          "type": "bytes[]"
        }
      ],
      "name": "executeBatch",
      "outputs": [],
      "stateMutability": "nonpayable",
      "type": "function"
    },
    {
      "inputs": [],
      "name": "gamePaymaster",
      "outputs": [
        {
          "internalType": "address",
          "name": "",
          "type": "address"
        }
      ],
      "stateMutability": "view",
      "type": "function"
    },
    {
      "inputs": [],
      "name": "getNonce",
      "outputs": [
        {
          "internalType": "uint256",
          "name": "",
          "type": "uint256"
        }
      ],
      "stateMutability": "view",
      "type": "function"
    },
    {
      "inputs": [
        {
          "internalType": "bytes32",
          "name": "_socialAuthId",
          "type": "bytes32"
        },
        {
          "internalType": "address",
          "name": "_gamePaymaster",
          "type": "address"
        }
      ],
      "name": "initialize",
      "outputs": [],
      "stateMutability": "nonpayable",
      "type": "function"
    },
    {
      "inputs": [
        {
          "internalType": "address",
          "name": "",
          "type": "address"
        },
        {
          "internalType": "address",
          "name": "",
          "type": "address"
        },
        {
          "internalType": "uint256",
          "name": "",
          "type": "uint256"
        },
        {
          "internalType": "bytes",
          "name": "",
          "type": "bytes"
        }
      ],
      "name": "onERC721Received",
      "outputs": [
        {
          "internalType": "bytes4",
          "name": "",
          "type": "bytes4"
        }
      ],
      "stateMutability": "pure",
      "type": "function"
    },
    {
      "inputs": [],
      "name": "proxiableUUID",
      "outputs": [
        {
          "internalType": "bytes32",
          "name": "",
          "type": "bytes32"
        }
      ],
      "stateMutability": "view",
      "type": "function"
    },
    {
      "inputs": [
        {
          "internalType": "uint256",
          "name": "index",
          "type": "uint256"
        },
        {
          "internalType": "address",
          "name": "recipient",
          "type": "address"
        }
      ],
      "name": "removeNFTCollateral",
      "outputs": [],
      "stateMutability": "nonpayable",
      "type": "function"
    },
    {
      "inputs": [],
      "name": "socialAuthId",
      "outputs": [
        {
          "internalType": "bytes32",
          "name": "",
          "type": "bytes32"
        }
      ],
      "stateMutability": "view",
      "type": "function"
    },
    {
      "inputs": [
        {
          "internalType": "uint256",
          "name": "index",
          "type": "uint256"
        }
      ],
      "name": "unlockNFTCollateral",
      "outputs": [],
      "stateMutability": "nonpayable",
      "type": "function"
    },
    {
      "inputs": [
        {
          "internalType": "address",
          "name": "newImplementation",
          "type": "address"
        }
      ],
      "name": "upgradeTo",
      "outputs": [],
      "stateMutability": "nonpayable",
      "type": "function"
    },
    {
      "inputs": [
        {
          "internalType": "address",
          "name": "newImplementation",
          "type": "address"
        },
        {
          "internalType": "bytes",
          "name": "data",
          "type": "bytes"
        }
      ],
      "name": "upgradeToAndCall",
      "outputs": [],
      "stateMutability": "payable",
      "type": "function"
    },
    {
      "inputs": [
        {
          "components": [
            {
              "internalType": "address",
              "name": "sender",
              "type": "address"
            },
            {
              "internalType": "uint256",
              "name": "nonce",
              "type": "uint256"
            },
            {
              "internalType": "bytes",
              "name": "initCode",
              "type": "bytes"
            },
            {
              "internalType": "bytes",
              "name": "callData",
              "type": "bytes"
            },
            {
              "internalType": "uint256",
              "name": "callGasLimit",
              "type": "uint256"
            },
            {
              "internalType": "uint256",
              "name": "verificationGasLimit",
              "type": "uint256"
            },
            {
              "internalType": "uint256",
              "name": "preVerificationGas",
              "type": "uint256"
            },
            {
              "internalType": "uint256",
              "name": "maxFeePerGas",
              "type": "uint256"
            },
            {
              "internalType": "uint256",
              "name": "maxPriorityFeePerGas",
              "type": "uint256"
            },
            {
              "internalType": "bytes",
              "name": "paymasterAndData",
              "type": "bytes"
            },
            {
              "internalType": "bytes",
              "name": "signature",
              "type": "bytes"
            }
          ],
          "internalType": "struct UserOperation",
          "name": "userOp",
          "type": "tuple"
        },
        {
          "internalType": "bytes32",
          "name": "userOpHash",
          "type": "bytes32"
        },
        {
          "internalType": "uint256",
          "name": "missingAccountFunds",
          "type": "uint256"
        }
      ],
      "name": "validateUserOp",
      "outputs": [
        {
          "internalType": "uint256",
          "name": "validationData",
          "type": "uint256"
        }
      ],
      "stateMutability": "nonpayable",
      "type": "function"
    },
    {
      "inputs": [
        {
          "internalType": "address",
          "name": "token",
          "type": "address"
        },
        {
          "internalType": "uint256",
          "name": "amount",
          "type": "uint256"
        },
        {
          "internalType": "address",
          "name": "recipient",
          "type": "address"
        }
      ],
      "name": "withdrawGameTokens",
      "outputs": [],
      "stateMutability": "nonpayable",
      "type": "function"
    },
    {
      "stateMutability": "payable",
      "type": "receive"
    }
  ],
  "bytecode": "0x60c0604052306080523480156200001557600080fd5b506040516200205e3803806200205e833981016040819052620000389162000119565b6001600160a01b03811660a052806200005062000058565b50506200014b565b600054610100900460ff1615620000c55760405162461bcd60e51b815260206004820152602760248201527f496e697469616c697a61626c653a20636f6e747261637420697320696e697469604482015266616c697a696e6760c81b606482015260840160405180910390fd5b60005460ff9081161462000117576000805460ff191660ff9081179091556040519081527f7f26b83ff96e1f2b6a682f133852f6798a09c465da95921460cefb38474024989060200160405180910390a15b565b6000602082840312156200012c57600080fd5b81516001600160a01b03811681146200014457600080fd5b9392505050565b60805160a051611ebc620001a2600039600081816102c601528181610f1f015281816110b10152611331015260008181610492015281816104d2015281816106e70152818161072701526107ba0152611ebc6000f3fe6080604052600436106101025760003560e01c806370fa3c2911610095578063b61d27f611610064578063b61d27f6146102fe578063d087d2881461031e578063ee08ffba14610333578063f706f17414610353578063fc392ab81461037357600080fd5b806370fa3c291461023057806374e1edfd14610250578063a0d725c914610270578063b0d691fe146102b757600080fd5b80634f1ef286116100d15780634f1ef286146101c857806352d1902d146101db5780635420ee17146101f05780636910e3341461021057600080fd5b8063150b7a021461010e57806318dfb3c7146101585780633659cfe61461017a5780633a871cdd1461019a57600080fd5b3661010957005b600080fd5b34801561011a57600080fd5b5061013a6101293660046118be565b630a85bd0160e11b95945050505050565b6040516001600160e01b031990911681526020015b60405180910390f35b34801561016457600080fd5b50610178610173366004611972565b610389565b005b34801561018657600080fd5b506101786101953660046119de565b610488565b3480156101a657600080fd5b506101ba6101b53660046119f9565b610567565b60405190815260200161014f565b6101786101d6366004611a63565b6106dd565b3480156101e757600080fd5b506101ba6107ad565b3480156101fc57600080fd5b5061017861020b366004611b25565b610860565b34801561021c57600080fd5b5061017861022b366004611b25565b610b08565b34801561023c57600080fd5b5061017861024b366004611b51565b610c5e565b34801561025c57600080fd5b5061017861026b366004611b8d565b610d22565b34801561027c57600080fd5b5061029061028b366004611bb7565b610e8c565b604080516001600160a01b039094168452602084019290925215159082015260600161014f565b3480156102c357600080fd5b507f00000000000000000000000000000000000000000000000000000000000000005b6040516001600160a01b03909116815260200161014f565b34801561030a57600080fd5b50610178610319366004611bd0565b610ecc565b34801561032a57600080fd5b506101ba610f1b565b34801561033f57600080fd5b506002546102e6906001600160a01b031681565b34801561035f57600080fd5b5061017861036e366004611bb7565b610fb4565b34801561037f57600080fd5b506101ba60015481565b6103916110a6565b8281146103da5760405162461bcd60e51b81526020600482015260126024820152710aee4dedcce40c2e4e4c2f240d8cadccee8d60731b60448201526064015b60405180910390fd5b60005b838110156104815761046f8585838181106103fa576103fa611c1e565b905060200201602081019061040f91906119de565b600085858581811061042357610423611c1e565b90506020028101906104359190611c34565b8080601f01602080910402602001604051908101604052809392919081815260200183838082843760009201919091525061114392505050565b8061047981611c91565b9150506103dd565b5050505050565b6001600160a01b037f00000000000000000000000000000000000000000000000000000000000000001630036104d05760405162461bcd60e51b81526004016103d190611caa565b7f00000000000000000000000000000000000000000000000000000000000000006001600160a01b0316610519600080516020611e40833981519152546001600160a01b031690565b6001600160a01b03161461053f5760405162461bcd60e51b81526004016103d190611cf6565b610548816111b3565b60408051600080825260208201909252610564918391906111bb565b50565b6000610571611326565b6041610581610140860186611c34565b90501115610629576000610599610140860186611c34565b6040516105a7929190611d42565b604051809103902090506001548103610623578215610619576000336001600160a01b031660006040515b60006040518083038185875af1925050503d806000811461060f576040519150601f19603f3d011682016040523d82523d6000602084013e610614565b606091505b505050505b60009150506106d6565b506106d2565b7f19457468657265756d205369676e6564204d6573736167653a0a3332000000006000908152601c849052603c9020306106a761066a610140880188611c34565b8080601f016020809104026020016040519081016040528093929190818152602001838380828437600092019190915250869392505061139e9050565b6001600160a01b0316036106d0578215610619576000336001600160a01b0316846040516105d2565b505b5060015b9392505050565b6001600160a01b037f00000000000000000000000000000000000000000000000000000000000000001630036107255760405162461bcd60e51b81526004016103d190611caa565b7f00000000000000000000000000000000000000000000000000000000000000006001600160a01b031661076e600080516020611e40833981519152546001600160a01b031690565b6001600160a01b0316146107945760405162461bcd60e51b81526004016103d190611cf6565b61079d826111b3565b6107a9828260016111bb565b5050565b6000306001600160a01b037f0000000000000000000000000000000000000000000000000000000000000000161461084d5760405162461bcd60e51b815260206004820152603860248201527f555550535570677261646561626c653a206d757374206e6f742062652063616c60448201527f6c6564207468726f7567682064656c656761746563616c6c000000000000000060648201526084016103d1565b50600080516020611e4083398151915290565b6108686110a6565b60035482106108af5760405162461bcd60e51b8152602060048201526013602482015272496e646578206f7574206f6620626f756e647360681b60448201526064016103d1565b600382815481106108c2576108c2611c1e565b600091825260209091206002600390920201015460ff16156109265760405162461bcd60e51b815260206004820152601b60248201527f4e4654206973206c6f636b656420617320636f6c6c61746572616c000000000060448201526064016103d1565b60006003838154811061093b5761093b611c1e565b60009182526020918290206040805160608101825260039390930290910180546001600160a01b03908116808552600183015495850186905260029092015460ff161515848401529151632142170760e11b8152306004820152918616602483015260448201939093529092506342842e0e90606401600060405180830381600087803b1580156109cb57600080fd5b505af11580156109df573d6000803e3d6000fd5b5050600380549092506109f59150600190611d52565b81548110610a0557610a05611c1e565b906000526020600020906003020160038481548110610a2657610a26611c1e565b600091825260209091208254600392830290910180546001600160a01b0319166001600160a01b03909216919091178155600180840154908201556002928301549201805460ff909316151560ff1990931692909217909155805480610a8e57610a8e611d65565b6000828152602080822060036000199094019384020180546001600160a01b031916815560018101839055600201805460ff1916905591909255820151825160405191926001600160a01b0391909116917fe8ce3c132f56bf03ef0b48d64b8546361d75fbd410428b89e460a3ecca3ce84b9190a3505050565b600054610100900460ff1615808015610b285750600054600160ff909116105b80610b425750303b158015610b42575060005460ff166001145b610ba55760405162461bcd60e51b815260206004820152602e60248201527f496e697469616c697a61626c653a20636f6e747261637420697320616c72656160448201526d191e481a5b9a5d1a585b1a5e995960921b60648201526084016103d1565b6000805460ff191660011790558015610bc8576000805461ff0019166101001790555b6001839055600280546001600160a01b0319166001600160a01b03841617905560405183907f8170d09df9c839f67c85d345cdd99e8e4b638111e519e2164523f3f2de1153d690600090a28015610c59576000805461ff0019169055604051600181527f7f26b83ff96e1f2b6a682f133852f6798a09c465da95921460cefb38474024989060200160405180910390a15b505050565b610c666110a6565b60405163a9059cbb60e01b81526001600160a01b0382811660048301526024820184905284169063a9059cbb906044016020604051808303816000875af1158015610cb5573d6000803e3d6000fd5b505050506040513d601f19601f82011682018060405250810190610cd99190611d7b565b50826001600160a01b03167f4bcff3355a4e4221f3fc7ed02d3284f4e62baaa941c3871555b5f4f6401b8b3383604051610d1591815260200190565b60405180910390a2505050565b610d2a6110a6565b604051632142170760e11b8152336004820152306024820152604481018290526001600160a01b038316906342842e0e90606401600060405180830381600087803b158015610d7857600080fd5b505af1158015610d8c573d6000803e3d6000fd5b5050604080516060810182526001600160a01b03868116808352602083018781526001848601818152600380549283018155600081815296517fc2575a0e9e593c00f959f8c92f12db2869c3395a3b0502d05e2516446f71f85b9390910292830180546001600160a01b031916919096161790945590517fc2575a0e9e593c00f959f8c92f12db2869c3395a3b0502d05e2516446f71f85c82015591517fc2575a0e9e593c00f959f8c92f12db2869c3395a3b0502d05e2516446f71f85d909201805460ff19169215159290921790915591518594509192507fdff7aa71c9e0da906c977b405cec2f7b6066d193df6c8c11b0c21ec31c7c369a91a35050565b60038181548110610e9c57600080fd5b60009182526020909120600390910201805460018201546002909201546001600160a01b03909116925060ff1683565b610ed46110a6565b610f15848484848080601f01602080910402602001604051908101604052809392919081815260200183838082843760009201919091525061114392505050565b50505050565b60007f0000000000000000000000000000000000000000000000000000000000000000604051631aab3f0d60e11b8152306004820152600060248201526001600160a01b0391909116906335567e1a90604401602060405180830381865afa158015610f8b573d6000803e3d6000fd5b505050506040513d601f19601f82011682018060405250810190610faf9190611d9d565b905090565b6002546001600160a01b031633146110255760405162461bcd60e51b815260206004820152602e60248201527f4f6e6c79207468652067616d65207061796d61737465722063616e2063616c6c60448201526d103a3434b990333ab731ba34b7b760911b60648201526084016103d1565b600354811061106c5760405162461bcd60e51b8152602060048201526013602482015272496e646578206f7574206f6620626f756e647360681b60448201526064016103d1565b60006003828154811061108157611081611c1e565b60009182526020909120600390910201600201805460ff191691151591909117905550565b336001600160a01b037f00000000000000000000000000000000000000000000000000000000000000001614806110e757506002546001600160a01b031633145b6111415760405162461bcd60e51b815260206004820152602560248201527f43616c6c6572206973206e6f7420456e747279506f696e74206f72207061796d60448201526430b9ba32b960d91b60648201526084016103d1565b565b600080846001600160a01b0316848460405161115f9190611dda565b60006040518083038185875af1925050503d806000811461119c576040519150601f19603f3d011682016040523d82523d6000602084013e6111a1565b606091505b50915091508161048157805160208201fd5b610564611326565b7f4910fdfa16fed3260ed0e7147f7cc6da11a60208b5b9406d12a635614ffd91435460ff16156111ee57610c59836113c4565b826001600160a01b03166352d1902d6040518163ffffffff1660e01b8152600401602060405180830381865afa925050508015611248575060408051601f3d908101601f1916820190925261124591810190611d9d565b60015b6112ab5760405162461bcd60e51b815260206004820152602e60248201527f45524331393637557067726164653a206e657720696d706c656d656e7461746960448201526d6f6e206973206e6f74205555505360901b60648201526084016103d1565b600080516020611e40833981519152811461131a5760405162461bcd60e51b815260206004820152602960248201527f45524331393637557067726164653a20756e737570706f727465642070726f786044820152681a58589b195555525160ba1b60648201526084016103d1565b50610c59838383611460565b336001600160a01b037f000000000000000000000000000000000000000000000000000000000000000016146111415760405162461bcd60e51b815260206004820152601c60248201527f6163636f756e743a206e6f742066726f6d20456e747279506f696e740000000060448201526064016103d1565b60008060006113ad8585611485565b915091506113ba816114ca565b5090505b92915050565b6001600160a01b0381163b6114315760405162461bcd60e51b815260206004820152602d60248201527f455243313936373a206e657720696d706c656d656e746174696f6e206973206e60448201526c1bdd08184818dbdb9d1c9858dd609a1b60648201526084016103d1565b600080516020611e4083398151915280546001600160a01b0319166001600160a01b0392909216919091179055565b61146983611614565b6000825111806114765750805b15610c5957610f158383611654565b60008082516041036114bb5760208301516040840151606085015160001a6114af87828585611679565b945094505050506114c3565b506000905060025b9250929050565b60008160048111156114de576114de611df6565b036114e65750565b60018160048111156114fa576114fa611df6565b036115475760405162461bcd60e51b815260206004820152601860248201527f45434453413a20696e76616c6964207369676e6174757265000000000000000060448201526064016103d1565b600281600481111561155b5761155b611df6565b036115a85760405162461bcd60e51b815260206004820152601f60248201527f45434453413a20696e76616c6964207369676e6174757265206c656e6774680060448201526064016103d1565b60038160048111156115bc576115bc611df6565b036105645760405162461bcd60e51b815260206004820152602260248201527f45434453413a20696e76616c6964207369676e6174757265202773272076616c604482015261756560f01b60648201526084016103d1565b61161d816113c4565b6040516001600160a01b038216907fbc7cd75a20ee27fd9adebab32041f755214dbc6bffa90cc0225b39da2e5c2d3b90600090a250565b60606106d68383604051806060016040528060278152602001611e606027913961173d565b6000807f7fffffffffffffffffffffffffffffff5d576e7357a4501ddfe92f46681b20a08311156116b05750600090506003611734565b6040805160008082526020820180845289905260ff881692820192909252606081018690526080810185905260019060a0016020604051602081039080840390855afa158015611704573d6000803e3d6000fd5b5050604051601f1901519150506001600160a01b03811661172d57600060019250925050611734565b9150600090505b94509492505050565b6060600080856001600160a01b03168560405161175a9190611dda565b600060405180830381855af49150503d8060008114611795576040519150601f19603f3d011682016040523d82523d6000602084013e61179a565b606091505b50915091506117ab868383876117b5565b9695505050505050565b6060831561182457825160000361181d576001600160a01b0385163b61181d5760405162461bcd60e51b815260206004820152601d60248201527f416464726573733a2063616c6c20746f206e6f6e2d636f6e747261637400000060448201526064016103d1565b508161182e565b61182e8383611836565b949350505050565b8151156118465781518083602001fd5b8060405162461bcd60e51b81526004016103d19190611e0c565b80356001600160a01b038116811461187757600080fd5b919050565b60008083601f84011261188e57600080fd5b50813567ffffffffffffffff8111156118a657600080fd5b6020830191508360208285010111156114c357600080fd5b6000806000806000608086880312156118d657600080fd5b6118df86611860565b94506118ed60208701611860565b935060408601359250606086013567ffffffffffffffff81111561191057600080fd5b61191c8882890161187c565b969995985093965092949392505050565b60008083601f84011261193f57600080fd5b50813567ffffffffffffffff81111561195757600080fd5b6020830191508360208260051b85010111156114c357600080fd5b6000806000806040858703121561198857600080fd5b843567ffffffffffffffff808211156119a057600080fd5b6119ac8883890161192d565b909650945060208701359150808211156119c557600080fd5b506119d28782880161192d565b95989497509550505050565b6000602082840312156119f057600080fd5b6106d682611860565b600080600060608486031215611a0e57600080fd5b833567ffffffffffffffff811115611a2557600080fd5b84016101608187031215611a3857600080fd5b95602085013595506040909401359392505050565b634e487b7160e01b600052604160045260246000fd5b60008060408385031215611a7657600080fd5b611a7f83611860565b9150602083013567ffffffffffffffff80821115611a9c57600080fd5b818501915085601f830112611ab057600080fd5b813581811115611ac257611ac2611a4d565b604051601f8201601f19908116603f01168101908382118183101715611aea57611aea611a4d565b81604052828152886020848701011115611b0357600080fd5b8260208601602083013760006020848301015280955050505050509250929050565b60008060408385031215611b3857600080fd5b82359150611b4860208401611860565b90509250929050565b600080600060608486031215611b6657600080fd5b611b6f84611860565b925060208401359150611b8460408501611860565b90509250925092565b60008060408385031215611ba057600080fd5b611ba983611860565b946020939093013593505050565b600060208284031215611bc957600080fd5b5035919050565b60008060008060608587031215611be657600080fd5b611bef85611860565b935060208501359250604085013567ffffffffffffffff811115611c1257600080fd5b6119d28782880161187c565b634e487b7160e01b600052603260045260246000fd5b6000808335601e19843603018112611c4b57600080fd5b83018035915067ffffffffffffffff821115611c6657600080fd5b6020019150368190038213156114c357600080fd5b634e487b7160e01b600052601160045260246000fd5b600060018201611ca357611ca3611c7b565b5060010190565b6020808252602c908201527f46756e6374696f6e206d7573742062652063616c6c6564207468726f7567682060408201526b19195b1959d85d1958d85b1b60a21b606082015260800190565b6020808252602c908201527f46756e6374696f6e206d7573742062652063616c6c6564207468726f7567682060408201526b6163746976652070726f787960a01b606082015260800190565b8183823760009101908152919050565b818103818111156113be576113be611c7b565b634e487b7160e01b600052603160045260246000fd5b600060208284031215611d8d57600080fd5b815180151581146106d657600080fd5b600060208284031215611daf57600080fd5b5051919050565b60005b83811015611dd1578181015183820152602001611db9565b50506000910152565b60008251611dec818460208701611db6565b9190910192915050565b634e487b7160e01b600052602160045260246000fd5b6020815260008251806020840152611e2b816040850160208701611db6565b601f01601f1916919091016040019291505056fe360894a13ba1a3210667c828492db98dca3e2076cc3735a920a3ca505d382bbc416464726573733a206c6f772d6c6576656c2064656c65676174652063616c6c206661696c6564a2646970667358221220ef857318bca0e3835c5bd8259ebb6439aa1f895c5dbf975de47500caa37173bb64736f6c63430008110033",
  "linkReferences": {},
  "deployedLinkReferences": {}
}