{
  "_format": "hh-sol-artifact-1",
  "contractName": "GameAccountFactory",
  "sourceName": "contracts/GameAccountFactory.sol",
  "abi": [
    {
      "inputs": [
        {
          "internalType": "contract IEntryPoint",
          "name": "_entryPoint",
          "type": "address"
        },
        {
          "internalType": "contract GamePaymaster",
          "name": "_gamePaymaster",
          "type": "address"
        }
      ],
      "stateMutability": "nonpayable",
      "type": "constructor"
    },
    {
      "anonymous": false,
      "inputs": [
        {
          "indexed": true,
          "internalType": "address",
          "name": "account",
          "type": "address"
        },
        {
          "indexed": true,
          "internalType": "bytes32",
          "name": "socialAuthId",
          "type": "bytes32"
        }
      ],
      "name": "AccountCreated",
      "type": "event"
    },
    {
      "anonymous": false,
      "inputs": [
        {
          "indexed": true,
          "internalType": "address",
          "name": "account",
          "type": "address"
        }
      ],
      "name": "NFTCollateralAdded",
      "type": "event"
    },
    {
      "anonymous": false,
      "inputs": [
        {
          "indexed": true,
          "internalType": "address",
          "name": "previousOwner",
          "type": "address"
        },
        {
          "indexed": true,
          "internalType": "address",
          "name": "newOwner",
          "type": "address"
        }
      ],
      "name": "OwnershipTransferred",
      "type": "event"
    },
    {
      "inputs": [],
      "name": "accountImplementation",
      "outputs": [
        {
          "internalType": "address",
          "name": "",
          "type": "address"
        }
      ],
      "stateMutability": "view",
      "type": "function"
    },
    {
      "inputs": [
        {
          "internalType": "address",
          "name": "account",
          "type": "address"
        },
        {
          "internalType": "uint256",
          "name": "nftId",
          "type": "uint256"
        }
      ],
      "name": "addNFTCollateral",
      "outputs": [],
      "stateMutability": "nonpayable",
      "type": "function"
    },
    {
      "inputs": [
        {
          "internalType": "bytes",
          "name": "socialAuthProof",
          "type": "bytes"
        },
        {
          "internalType": "uint256",
          "name": "salt",
          "type": "uint256"
        }
      ],
      "name": "createAccountViaSocialAuth",
      "outputs": [
        {
          "internalType": "contract GameAccountImpl",
          "name": "account",
          "type": "address"
        }
      ],
      "stateMutability": "nonpayable",
      "type": "function"
    },
    {
      "inputs": [],
      "name": "gamePaymaster",
      "outputs": [
        {
          "internalType": "contract GamePaymaster",
          "name": "",
          "type": "address"
        }
      ],
      "stateMutability": "view",
      "type": "function"
    },
    {
      "inputs": [
        {
          "internalType": "bytes32",
          "name": "socialAuthId",
          "type": "bytes32"
        },
        {
          "internalType": "uint256",
          "name": "salt",
          "type": "uint256"
        }
      ],
      "name": "getAddress",
      "outputs": [
        {
          "internalType": "address",
          "name": "",
          "type": "address"
        }
      ],
      "stateMutability": "view",
      "type": "function"
    },
    {
      "inputs": [],
      "name": "owner",
      "outputs": [
        {
          "internalType": "address",
          "name": "",
          "type": "address"
        }
      ],
      "stateMutability": "view",
      "type": "function"
    },
    {
      "inputs": [],
      "name": "renounceOwnership",
      "outputs": [],
      "stateMutability": "nonpayable",
      "type": "function"
    },
    {
      "inputs": [
        {
          "internalType": "bytes32",
          "name": "",
          "type": "bytes32"
        }
      ],
      "name": "socialAuthAccounts",
      "outputs": [
        {
          "internalType": "address",
          "name": "",
          "type": "address"
        }
      ],
      "stateMutability": "view",
      "type": "function"
    },
    {
      "inputs": [
        {
          "internalType": "address",
          "name": "newOwner",
          "type": "address"
        }
      ],
      "name": "transferOwnership",
      "outputs": [],
      "stateMutability": "nonpayable",
      "type": "function"
    }
  ],
  "bytecode": "0x60c060405234801561001057600080fd5b5060405161328d38038061328d83398101604081905261002f9161010a565b61003833610095565b81604051610045906100e5565b6001600160a01b039091168152602001604051809103906000f080158015610071573d6000803e3d6000fd5b506001600160a01b03908116608052811660a05261008e33610095565b5050610144565b600080546001600160a01b038381166001600160a01b0319831681178455604051919092169283917f8be0079c531659141344cd1fd0a4f28419497f9722a3daafe3b4186f6b6457e09190a35050565b61205e8061122f83390190565b6001600160a01b038116811461010757600080fd5b50565b6000806040838503121561011d57600080fd5b8251610128816100f2565b6020840151909250610139816100f2565b809150509250929050565b60805160a05161109d6101926000396000818161017d015281816102990152818161036c0152818161046c015261054401526000818160aa015281816102c2015261056b015261109d6000f3fe60806040523480156200001157600080fd5b50600436106200009f5760003560e01c806374e1edfd116200006e57806374e1edfd14620001375780638da5cb5b146200014e578063bbd6dd6b1462000160578063ee08ffba1462000177578063f2fde38b146200019f57600080fd5b806311464fbe14620000a45780631a281d3514620000e857806360bb2e5f14620000ff578063715018a6146200012b575b600080fd5b620000cc7f000000000000000000000000000000000000000000000000000000000000000081565b6040516001600160a01b03909116815260200160405180910390f35b620000cc620000f936600462000771565b620001b6565b620000cc62000110366004620007ee565b6001602052600090815260409020546001600160a01b031681565b620001356200042b565b005b620001356200014836600462000825565b62000443565b6000546001600160a01b0316620000cc565b620000cc6200017136600462000852565b62000502565b620000cc7f000000000000000000000000000000000000000000000000000000000000000081565b62000135620001b036600462000875565b62000605565b6000808484604051620001cb92919062000893565b60408051918290039091206000818152600160205291909120549091506001600160a01b031615620002585760405162461bcd60e51b815260206004820152602b60248201527f4163636f756e7420616c72656164792065786973747320666f7220746869732060448201526a0e6dec6d2c2d840c2eae8d60ab1b60648201526084015b60405180910390fd5b600062000266828562000502565b90506001600160a01b0381163b80156200028557509150620004249050565b604051602481018490526001600160a01b037f000000000000000000000000000000000000000000000000000000000000000016604482015285907f00000000000000000000000000000000000000000000000000000000000000009060640160408051601f198184030181529181526020820180516001600160e01b0316631a4438cd60e21b179052516200031b9062000763565b62000328929190620008c9565b8190604051809103906000f590508015801562000349573d6000803e3d6000fd5b506040516394a3cd0b60e01b81526001600160a01b0380831660048301529195507f0000000000000000000000000000000000000000000000000000000000000000909116906394a3cd0b90602401600060405180830381600087803b158015620003b357600080fd5b505af1158015620003c8573d6000803e3d6000fd5b50505060008481526001602052604080822080546001600160a01b0319166001600160a01b038916908117909155905186935090917f8fe66a5d954d6d3e0306797e31e226812a9916895165c96c367ef5280763195191a35050505b9392505050565b6200043562000684565b620004416000620006e0565b565b6200044d62000684565b604051631e1a5ab560e31b81526001600160a01b0383811660048301527f0000000000000000000000000000000000000000000000000000000000000000169063f0d2d5a890602401600060405180830381600087803b158015620004b157600080fd5b505af1158015620004c6573d6000803e3d6000fd5b50506040516001600160a01b03851692507f84b76d808fdece4fbeaf49c8022edc278375513b920b78843a3c7be3794afd1f9150600090a25050565b6000620004248260001b604051806020016200051e9062000763565b601f1982820381018352601f909101166040819052602481018790526001600160a01b037f00000000000000000000000000000000000000000000000000000000000000001660448201527f00000000000000000000000000000000000000000000000000000000000000009060640160408051601f19818403018152918152602080830180516001600160e01b0316631a4438cd60e21b1790529051620005c993929101620008c9565b60408051601f1981840301815290829052620005e992916020016200090d565b6040516020818303038152906040528051906020012062000730565b6200060f62000684565b6001600160a01b038116620006765760405162461bcd60e51b815260206004820152602660248201527f4f776e61626c653a206e6577206f776e657220697320746865207a65726f206160448201526564647265737360d01b60648201526084016200024f565b6200068181620006e0565b50565b6000546001600160a01b03163314620004415760405162461bcd60e51b815260206004820181905260248201527f4f776e61626c653a2063616c6c6572206973206e6f7420746865206f776e657260448201526064016200024f565b600080546001600160a01b038381166001600160a01b0319831681178455604051919092169283917f8be0079c531659141344cd1fd0a4f28419497f9722a3daafe3b4186f6b6457e09190a35050565b6000620004248383306000604051836040820152846020820152828152600b8101905060ff815360559020949350505050565b610727806200094183390190565b6000806000604084860312156200078757600080fd5b833567ffffffffffffffff80821115620007a057600080fd5b818601915086601f830112620007b557600080fd5b813581811115620007c557600080fd5b876020828501011115620007d857600080fd5b6020928301989097509590910135949350505050565b6000602082840312156200080157600080fd5b5035919050565b80356001600160a01b03811681146200082057600080fd5b919050565b600080604083850312156200083957600080fd5b620008448362000808565b946020939093013593505050565b600080604083850312156200086657600080fd5b50508035926020909101359150565b6000602082840312156200088857600080fd5b620004248262000808565b8183823760009101908152919050565b60005b83811015620008c0578181015183820152602001620008a6565b50506000910152565b60018060a01b03831681526040602082015260008251806040840152620008f8816060850160208701620008a3565b601f01601f1916919091016060019392505050565b6000835162000921818460208801620008a3565b83519083019062000937818360208801620008a3565b0194935050505056fe608060405260405161072738038061072783398101604081905261002291610319565b61002e82826000610035565b5050610436565b61003e8361006b565b60008251118061004b5750805b156100665761006483836100ab60201b6100291760201c565b505b505050565b610074816100d7565b6040516001600160a01b038216907fbc7cd75a20ee27fd9adebab32041f755214dbc6bffa90cc0225b39da2e5c2d3b90600090a250565b60606100d08383604051806060016040528060278152602001610700602791396101a9565b9392505050565b6100ea8161022260201b6100551760201c565b6101515760405162461bcd60e51b815260206004820152602d60248201527f455243313936373a206e657720696d706c656d656e746174696f6e206973206e60448201526c1bdd08184818dbdb9d1c9858dd609a1b60648201526084015b60405180910390fd5b806101887f360894a13ba1a3210667c828492db98dca3e2076cc3735a920a3ca505d382bbc60001b61023160201b6100641760201c565b80546001600160a01b0319166001600160a01b039290921691909117905550565b6060600080856001600160a01b0316856040516101c691906103e7565b600060405180830381855af49150503d8060008114610201576040519150601f19603f3d011682016040523d82523d6000602084013e610206565b606091505b50909250905061021886838387610234565b9695505050505050565b6001600160a01b03163b151590565b90565b606083156102a357825160000361029c576001600160a01b0385163b61029c5760405162461bcd60e51b815260206004820152601d60248201527f416464726573733a2063616c6c20746f206e6f6e2d636f6e74726163740000006044820152606401610148565b50816102ad565b6102ad83836102b5565b949350505050565b8151156102c55781518083602001fd5b8060405162461bcd60e51b81526004016101489190610403565b634e487b7160e01b600052604160045260246000fd5b60005b838110156103105781810151838201526020016102f8565b50506000910152565b6000806040838503121561032c57600080fd5b82516001600160a01b038116811461034357600080fd5b60208401519092506001600160401b038082111561036057600080fd5b818501915085601f83011261037457600080fd5b815181811115610386576103866102df565b604051601f8201601f19908116603f011681019083821181831017156103ae576103ae6102df565b816040528281528860208487010111156103c757600080fd5b6103d88360208301602088016102f5565b80955050505050509250929050565b600082516103f98184602087016102f5565b9190910192915050565b60208152600082518060208401526104228160408501602087016102f5565b601f01601f19169190910160400192915050565b6102bb806104456000396000f3fe60806040523661001357610011610017565b005b6100115b610027610022610067565b61009f565b565b606061004e838360405180606001604052806027815260200161025f602791396100c3565b9392505050565b6001600160a01b03163b151590565b90565b600061009a7f360894a13ba1a3210667c828492db98dca3e2076cc3735a920a3ca505d382bbc546001600160a01b031690565b905090565b3660008037600080366000845af43d6000803e8080156100be573d6000f35b3d6000fd5b6060600080856001600160a01b0316856040516100e0919061020f565b600060405180830381855af49150503d806000811461011b576040519150601f19603f3d011682016040523d82523d6000602084013e610120565b606091505b50915091506101318683838761013b565b9695505050505050565b606083156101af5782516000036101a8576001600160a01b0385163b6101a85760405162461bcd60e51b815260206004820152601d60248201527f416464726573733a2063616c6c20746f206e6f6e2d636f6e747261637400000060448201526064015b60405180910390fd5b50816101b9565b6101b983836101c1565b949350505050565b8151156101d15781518083602001fd5b8060405162461bcd60e51b815260040161019f919061022b565b60005b838110156102065781810151838201526020016101ee565b50506000910152565b600082516102218184602087016101eb565b9190910192915050565b602081526000825180602084015261024a8160408501602087016101eb565b601f01601f1916919091016040019291505056fe416464726573733a206c6f772d6c6576656c2064656c65676174652063616c6c206661696c6564a26469706673582212203d912d0abbe116b83dfa1d3a82e612e3256de4ef536ea1a35d0e77601b02b17764736f6c63430008110033416464726573733a206c6f772d6c6576656c2064656c65676174652063616c6c206661696c6564a26469706673582212203729dc2fd0ad1cec4ce01fa0e6b5684cbad8a3d594985376f534f3485d8dbdcf64736f6c6343000811003360c0604052306080523480156200001557600080fd5b506040516200205e3803806200205e833981016040819052620000389162000119565b6001600160a01b03811660a052806200005062000058565b50506200014b565b600054610100900460ff1615620000c55760405162461bcd60e51b815260206004820152602760248201527f496e697469616c697a61626c653a20636f6e747261637420697320696e697469604482015266616c697a696e6760c81b606482015260840160405180910390fd5b60005460ff9081161462000117576000805460ff191660ff9081179091556040519081527f7f26b83ff96e1f2b6a682f133852f6798a09c465da95921460cefb38474024989060200160405180910390a15b565b6000602082840312156200012c57600080fd5b81516001600160a01b03811681146200014457600080fd5b9392505050565b60805160a051611ebc620001a2600039600081816102c601528181610f1f015281816110b10152611331015260008181610492015281816104d2015281816106e70152818161072701526107ba0152611ebc6000f3fe6080604052600436106101025760003560e01c806370fa3c2911610095578063b61d27f611610064578063b61d27f6146102fe578063d087d2881461031e578063ee08ffba14610333578063f706f17414610353578063fc392ab81461037357600080fd5b806370fa3c291461023057806374e1edfd14610250578063a0d725c914610270578063b0d691fe146102b757600080fd5b80634f1ef286116100d15780634f1ef286146101c857806352d1902d146101db5780635420ee17146101f05780636910e3341461021057600080fd5b8063150b7a021461010e57806318dfb3c7146101585780633659cfe61461017a5780633a871cdd1461019a57600080fd5b3661010957005b600080fd5b34801561011a57600080fd5b5061013a6101293660046118be565b630a85bd0160e11b95945050505050565b6040516001600160e01b031990911681526020015b60405180910390f35b34801561016457600080fd5b50610178610173366004611972565b610389565b005b34801561018657600080fd5b506101786101953660046119de565b610488565b3480156101a657600080fd5b506101ba6101b53660046119f9565b610567565b60405190815260200161014f565b6101786101d6366004611a63565b6106dd565b3480156101e757600080fd5b506101ba6107ad565b3480156101fc57600080fd5b5061017861020b366004611b25565b610860565b34801561021c57600080fd5b5061017861022b366004611b25565b610b08565b34801561023c57600080fd5b5061017861024b366004611b51565b610c5e565b34801561025c57600080fd5b5061017861026b366004611b8d565b610d22565b34801561027c57600080fd5b5061029061028b366004611bb7565b610e8c565b604080516001600160a01b039094168452602084019290925215159082015260600161014f565b3480156102c357600080fd5b507f00000000000000000000000000000000000000000000000000000000000000005b6040516001600160a01b03909116815260200161014f565b34801561030a57600080fd5b50610178610319366004611bd0565b610ecc565b34801561032a57600080fd5b506101ba610f1b565b34801561033f57600080fd5b506002546102e6906001600160a01b031681565b34801561035f57600080fd5b5061017861036e366004611bb7565b610fb4565b34801561037f57600080fd5b506101ba60015481565b6103916110a6565b8281146103da5760405162461bcd60e51b81526020600482015260126024820152710aee4dedcce40c2e4e4c2f240d8cadccee8d60731b60448201526064015b60405180910390fd5b60005b838110156104815761046f8585838181106103fa576103fa611c1e565b905060200201602081019061040f91906119de565b600085858581811061042357610423611c1e565b90506020028101906104359190611c34565b8080601f01602080910402602001604051908101604052809392919081815260200183838082843760009201919091525061114392505050565b8061047981611c91565b9150506103dd565b5050505050565b6001600160a01b037f00000000000000000000000000000000000000000000000000000000000000001630036104d05760405162461bcd60e51b81526004016103d190611caa565b7f00000000000000000000000000000000000000000000000000000000000000006001600160a01b0316610519600080516020611e40833981519152546001600160a01b031690565b6001600160a01b03161461053f5760405162461bcd60e51b81526004016103d190611cf6565b610548816111b3565b60408051600080825260208201909252610564918391906111bb565b50565b6000610571611326565b6041610581610140860186611c34565b90501115610629576000610599610140860186611c34565b6040516105a7929190611d42565b604051809103902090506001548103610623578215610619576000336001600160a01b031660006040515b60006040518083038185875af1925050503d806000811461060f576040519150601f19603f3d011682016040523d82523d6000602084013e610614565b606091505b505050505b60009150506106d6565b506106d2565b7f19457468657265756d205369676e6564204d6573736167653a0a3332000000006000908152601c849052603c9020306106a761066a610140880188611c34565b8080601f016020809104026020016040519081016040528093929190818152602001838380828437600092019190915250869392505061139e9050565b6001600160a01b0316036106d0578215610619576000336001600160a01b0316846040516105d2565b505b5060015b9392505050565b6001600160a01b037f00000000000000000000000000000000000000000000000000000000000000001630036107255760405162461bcd60e51b81526004016103d190611caa565b7f00000000000000000000000000000000000000000000000000000000000000006001600160a01b031661076e600080516020611e40833981519152546001600160a01b031690565b6001600160a01b0316146107945760405162461bcd60e51b81526004016103d190611cf6565b61079d826111b3565b6107a9828260016111bb565b5050565b6000306001600160a01b037f0000000000000000000000000000000000000000000000000000000000000000161461084d5760405162461bcd60e51b815260206004820152603860248201527f555550535570677261646561626c653a206d757374206e6f742062652063616c60448201527f6c6564207468726f7567682064656c656761746563616c6c000000000000000060648201526084016103d1565b50600080516020611e4083398151915290565b6108686110a6565b60035482106108af5760405162461bcd60e51b8152602060048201526013602482015272496e646578206f7574206f6620626f756e647360681b60448201526064016103d1565b600382815481106108c2576108c2611c1e565b600091825260209091206002600390920201015460ff16156109265760405162461bcd60e51b815260206004820152601b60248201527f4e4654206973206c6f636b656420617320636f6c6c61746572616c000000000060448201526064016103d1565b60006003838154811061093b5761093b611c1e565b60009182526020918290206040805160608101825260039390930290910180546001600160a01b03908116808552600183015495850186905260029092015460ff161515848401529151632142170760e11b8152306004820152918616602483015260448201939093529092506342842e0e90606401600060405180830381600087803b1580156109cb57600080fd5b505af11580156109df573d6000803e3d6000fd5b5050600380549092506109f59150600190611d52565b81548110610a0557610a05611c1e565b906000526020600020906003020160038481548110610a2657610a26611c1e565b600091825260209091208254600392830290910180546001600160a01b0319166001600160a01b03909216919091178155600180840154908201556002928301549201805460ff909316151560ff1990931692909217909155805480610a8e57610a8e611d65565b6000828152602080822060036000199094019384020180546001600160a01b031916815560018101839055600201805460ff1916905591909255820151825160405191926001600160a01b0391909116917fe8ce3c132f56bf03ef0b48d64b8546361d75fbd410428b89e460a3ecca3ce84b9190a3505050565b600054610100900460ff1615808015610b285750600054600160ff909116105b80610b425750303b158015610b42575060005460ff166001145b610ba55760405162461bcd60e51b815260206004820152602e60248201527f496e697469616c697a61626c653a20636f6e747261637420697320616c72656160448201526d191e481a5b9a5d1a585b1a5e995960921b60648201526084016103d1565b6000805460ff191660011790558015610bc8576000805461ff0019166101001790555b6001839055600280546001600160a01b0319166001600160a01b03841617905560405183907f8170d09df9c839f67c85d345cdd99e8e4b638111e519e2164523f3f2de1153d690600090a28015610c59576000805461ff0019169055604051600181527f7f26b83ff96e1f2b6a682f133852f6798a09c465da95921460cefb38474024989060200160405180910390a15b505050565b610c666110a6565b60405163a9059cbb60e01b81526001600160a01b0382811660048301526024820184905284169063a9059cbb906044016020604051808303816000875af1158015610cb5573d6000803e3d6000fd5b505050506040513d601f19601f82011682018060405250810190610cd99190611d7b565b50826001600160a01b03167f4bcff3355a4e4221f3fc7ed02d3284f4e62baaa941c3871555b5f4f6401b8b3383604051610d1591815260200190565b60405180910390a2505050565b610d2a6110a6565b604051632142170760e11b8152336004820152306024820152604481018290526001600160a01b038316906342842e0e90606401600060405180830381600087803b158015610d7857600080fd5b505af1158015610d8c573d6000803e3d6000fd5b5050604080516060810182526001600160a01b03868116808352602083018781526001848601818152600380549283018155600081815296517fc2575a0e9e593c00f959f8c92f12db2869c3395a3b0502d05e2516446f71f85b9390910292830180546001600160a01b031916919096161790945590517fc2575a0e9e593c00f959f8c92f12db2869c3395a3b0502d05e2516446f71f85c82015591517fc2575a0e9e593c00f959f8c92f12db2869c3395a3b0502d05e2516446f71f85d909201805460ff19169215159290921790915591518594509192507fdff7aa71c9e0da906c977b405cec2f7b6066d193df6c8c11b0c21ec31c7c369a91a35050565b60038181548110610e9c57600080fd5b60009182526020909120600390910201805460018201546002909201546001600160a01b03909116925060ff1683565b610ed46110a6565b610f15848484848080601f01602080910402602001604051908101604052809392919081815260200183838082843760009201919091525061114392505050565b50505050565b60007f0000000000000000000000000000000000000000000000000000000000000000604051631aab3f0d60e11b8152306004820152600060248201526001600160a01b0391909116906335567e1a90604401602060405180830381865afa158015610f8b573d6000803e3d6000fd5b505050506040513d601f19601f82011682018060405250810190610faf9190611d9d565b905090565b6002546001600160a01b031633146110255760405162461bcd60e51b815260206004820152602e60248201527f4f6e6c79207468652067616d65207061796d61737465722063616e2063616c6c60448201526d103a3434b990333ab731ba34b7b760911b60648201526084016103d1565b600354811061106c5760405162461bcd60e51b8152602060048201526013602482015272496e646578206f7574206f6620626f756e647360681b60448201526064016103d1565b60006003828154811061108157611081611c1e565b60009182526020909120600390910201600201805460ff191691151591909117905550565b336001600160a01b037f00000000000000000000000000000000000000000000000000000000000000001614806110e757506002546001600160a01b031633145b6111415760405162461bcd60e51b815260206004820152602560248201527f43616c6c6572206973206e6f7420456e747279506f696e74206f72207061796d60448201526430b9ba32b960d91b60648201526084016103d1565b565b600080846001600160a01b0316848460405161115f9190611dda565b60006040518083038185875af1925050503d806000811461119c576040519150601f19603f3d011682016040523d82523d6000602084013e6111a1565b606091505b50915091508161048157805160208201fd5b610564611326565b7f4910fdfa16fed3260ed0e7147f7cc6da11a60208b5b9406d12a635614ffd91435460ff16156111ee57610c59836113c4565b826001600160a01b03166352d1902d6040518163ffffffff1660e01b8152600401602060405180830381865afa925050508015611248575060408051601f3d908101601f1916820190925261124591810190611d9d565b60015b6112ab5760405162461bcd60e51b815260206004820152602e60248201527f45524331393637557067726164653a206e657720696d706c656d656e7461746960448201526d6f6e206973206e6f74205555505360901b60648201526084016103d1565b600080516020611e40833981519152811461131a5760405162461bcd60e51b815260206004820152602960248201527f45524331393637557067726164653a20756e737570706f727465642070726f786044820152681a58589b195555525160ba1b60648201526084016103d1565b50610c59838383611460565b336001600160a01b037f000000000000000000000000000000000000000000000000000000000000000016146111415760405162461bcd60e51b815260206004820152601c60248201527f6163636f756e743a206e6f742066726f6d20456e747279506f696e740000000060448201526064016103d1565b60008060006113ad8585611485565b915091506113ba816114ca565b5090505b92915050565b6001600160a01b0381163b6114315760405162461bcd60e51b815260206004820152602d60248201527f455243313936373a206e657720696d706c656d656e746174696f6e206973206e60448201526c1bdd08184818dbdb9d1c9858dd609a1b60648201526084016103d1565b600080516020611e4083398151915280546001600160a01b0319166001600160a01b0392909216919091179055565b61146983611614565b6000825111806114765750805b15610c5957610f158383611654565b60008082516041036114bb5760208301516040840151606085015160001a6114af87828585611679565b945094505050506114c3565b506000905060025b9250929050565b60008160048111156114de576114de611df6565b036114e65750565b60018160048111156114fa576114fa611df6565b036115475760405162461bcd60e51b815260206004820152601860248201527f45434453413a20696e76616c6964207369676e6174757265000000000000000060448201526064016103d1565b600281600481111561155b5761155b611df6565b036115a85760405162461bcd60e51b815260206004820152601f60248201527f45434453413a20696e76616c6964207369676e6174757265206c656e6774680060448201526064016103d1565b60038160048111156115bc576115bc611df6565b036105645760405162461bcd60e51b815260206004820152602260248201527f45434453413a20696e76616c6964207369676e6174757265202773272076616c604482015261756560f01b60648201526084016103d1565b61161d816113c4565b6040516001600160a01b038216907fbc7cd75a20ee27fd9adebab32041f755214dbc6bffa90cc0225b39da2e5c2d3b90600090a250565b60606106d68383604051806060016040528060278152602001611e606027913961173d565b6000807f7fffffffffffffffffffffffffffffff5d576e7357a4501ddfe92f46681b20a08311156116b05750600090506003611734565b6040805160008082526020820180845289905260ff881692820192909252606081018690526080810185905260019060a0016020604051602081039080840390855afa158015611704573d6000803e3d6000fd5b5050604051601f1901519150506001600160a01b03811661172d57600060019250925050611734565b9150600090505b94509492505050565b6060600080856001600160a01b03168560405161175a9190611dda565b600060405180830381855af49150503d8060008114611795576040519150601f19603f3d011682016040523d82523d6000602084013e61179a565b606091505b50915091506117ab868383876117b5565b9695505050505050565b6060831561182457825160000361181d576001600160a01b0385163b61181d5760405162461bcd60e51b815260206004820152601d60248201527f416464726573733a2063616c6c20746f206e6f6e2d636f6e747261637400000060448201526064016103d1565b508161182e565b61182e8383611836565b949350505050565b8151156118465781518083602001fd5b8060405162461bcd60e51b81526004016103d19190611e0c565b80356001600160a01b038116811461187757600080fd5b919050565b60008083601f84011261188e57600080fd5b50813567ffffffffffffffff8111156118a657600080fd5b6020830191508360208285010111156114c357600080fd5b6000806000806000608086880312156118d657600080fd5b6118df86611860565b94506118ed60208701611860565b935060408601359250606086013567ffffffffffffffff81111561191057600080fd5b61191c8882890161187c565b969995985093965092949392505050565b60008083601f84011261193f57600080fd5b50813567ffffffffffffffff81111561195757600080fd5b6020830191508360208260051b85010111156114c357600080fd5b6000806000806040858703121561198857600080fd5b843567ffffffffffffffff808211156119a057600080fd5b6119ac8883890161192d565b909650945060208701359150808211156119c557600080fd5b506119d28782880161192d565b95989497509550505050565b6000602082840312156119f057600080fd5b6106d682611860565b600080600060608486031215611a0e57600080fd5b833567ffffffffffffffff811115611a2557600080fd5b84016101608187031215611a3857600080fd5b95602085013595506040909401359392505050565b634e487b7160e01b600052604160045260246000fd5b60008060408385031215611a7657600080fd5b611a7f83611860565b9150602083013567ffffffffffffffff80821115611a9c57600080fd5b818501915085601f830112611ab057600080fd5b813581811115611ac257611ac2611a4d565b604051601f8201601f19908116603f01168101908382118183101715611aea57611aea611a4d565b81604052828152886020848701011115611b0357600080fd5b8260208601602083013760006020848301015280955050505050509250929050565b60008060408385031215611b3857600080fd5b82359150611b4860208401611860565b90509250929050565b600080600060608486031215611b6657600080fd5b611b6f84611860565b925060208401359150611b8460408501611860565b90509250925092565b60008060408385031215611ba057600080fd5b611ba983611860565b946020939093013593505050565b600060208284031215611bc957600080fd5b5035919050565b60008060008060608587031215611be657600080fd5b611bef85611860565b935060208501359250604085013567ffffffffffffffff811115611c1257600080fd5b6119d28782880161187c565b634e487b7160e01b600052603260045260246000fd5b6000808335601e19843603018112611c4b57600080fd5b83018035915067ffffffffffffffff821115611c6657600080fd5b6020019150368190038213156114c357600080fd5b634e487b7160e01b600052601160045260246000fd5b600060018201611ca357611ca3611c7b565b5060010190565b6020808252602c908201527f46756e6374696f6e206d7573742062652063616c6c6564207468726f7567682060408201526b19195b1959d85d1958d85b1b60a21b606082015260800190565b6020808252602c908201527f46756e6374696f6e206d7573742062652063616c6c6564207468726f7567682060408201526b6163746976652070726f787960a01b606082015260800190565b8183823760009101908152919050565b818103818111156113be576113be611c7b565b634e487b7160e01b600052603160045260246000fd5b600060208284031215611d8d57600080fd5b815180151581146106d657600080fd5b600060208284031215611daf57600080fd5b5051919050565b60005b83811015611dd1578181015183820152602001611db9565b50506000910152565b60008251611dec818460208701611db6565b9190910192915050565b634e487b7160e01b600052602160045260246000fd5b6020815260008251806020840152611e2b816040850160208701611db6565b601f01601f1916919091016040019291505056fe360894a13ba1a3210667c828492db98dca3e2076cc3735a920a3ca505d382bbc416464726573733a206c6f772d6c6576656c2064656c65676174652063616c6c206661696c6564a2646970667358221220ef857318bca0e3835c5bd8259ebb6439aa1f895c5dbf975de47500caa37173bb64736f6c63430008110033",
  "linkReferences": {},
  "deployedLinkReferences": {}
}