{
  "_format": "hh-sol-artifact-1",
  "contractName": "NFTAuction",
  "sourceName": "contracts/NFTAuction.sol",
  "abi": [
    {
      "inputs": [
        {
          "internalType": "address",
          "name": "_governanceToken",
          "type": "address"
        },
        {
          "internalType": "address",
          "name": "initialOwner",
          "type": "address"
        }
      ],
      "stateMutability": "nonpayable",
      "type": "constructor"
    },
    {
      "anonymous": false,
      "inputs": [
        {
          "indexed": false,
          "internalType": "uint256",
          "name": "auctionId",
          "type": "uint256"
        }
      ],
      "name": "AuctionCancelled",
      "type": "event"
    },
    {
      "anonymous": false,
      "inputs": [
        {
          "indexed": false,
          "internalType": "uint256",
          "name": "auctionId",
          "type": "uint256"
        },
        {
          "indexed": false,
          "internalType": "address",
          "name": "seller",
          "type": "address"
        },
        {
          "indexed": false,
          "internalType": "address",
          "name": "nftContract",
          "type": "address"
        },
        {
          "indexed": false,
          "internalType": "uint256",
          "name": "tokenId",
          "type": "uint256"
        },
        {
          "indexed": false,
          "internalType": "uint256",
          "name": "minEthAmount",
          "type": "uint256"
        },
        {
          "indexed": false,
          "internalType": "uint256",
          "name": "minTokenAmount",
          "type": "uint256"
        },
        {
          "indexed": false,
          "internalType": "uint256",
          "name": "endTime",
          "type": "uint256"
        }
      ],
      "name": "AuctionCreated",
      "type": "event"
    },
    {
      "anonymous": false,
      "inputs": [
        {
          "indexed": false,
          "internalType": "uint256",
          "name": "auctionId",
          "type": "uint256"
        },
        {
          "indexed": false,
          "internalType": "address",
          "name": "winner",
          "type": "address"
        },
        {
          "indexed": false,
          "internalType": "uint256",
          "name": "ethAmount",
          "type": "uint256"
        },
        {
          "indexed": false,
          "internalType": "uint256",
          "name": "tokenAmount",
          "type": "uint256"
        }
      ],
      "name": "AuctionEnded",
      "type": "event"
    },
    {
      "anonymous": false,
      "inputs": [
        {
          "indexed": false,
          "internalType": "uint256",
          "name": "auctionId",
          "type": "uint256"
        },
        {
          "indexed": false,
          "internalType": "address",
          "name": "bidder",
          "type": "address"
        },
        {
          "indexed": false,
          "internalType": "uint256",
          "name": "ethAmount",
          "type": "uint256"
        },
        {
          "indexed": false,
          "internalType": "uint256",
          "name": "tokenAmount",
          "type": "uint256"
        }
      ],
      "name": "BidPlaced",
      "type": "event"
    },
    {
      "anonymous": false,
      "inputs": [
        {
          "indexed": false,
          "internalType": "uint256",
          "name": "auctionId",
          "type": "uint256"
        },
        {
          "indexed": false,
          "internalType": "address",
          "name": "seller",
          "type": "address"
        },
        {
          "indexed": false,
          "internalType": "uint256",
          "name": "ethAmount",
          "type": "uint256"
        },
        {
          "indexed": false,
          "internalType": "uint256",
          "name": "tokenAmount",
          "type": "uint256"
        }
      ],
      "name": "FundsClaimed",
      "type": "event"
    },
    {
      "anonymous": false,
      "inputs": [
        {
          "indexed": false,
          "internalType": "uint256",
          "name": "auctionId",
          "type": "uint256"
        },
        {
          "indexed": false,
          "internalType": "address",
          "name": "winner",
          "type": "address"
        }
      ],
      "name": "NFTClaimed",
      "type": "event"
    },
    {
      "anonymous": false,
      "inputs": [
        {
          "indexed": true,
          "internalType": "address",
          "name": "previousOwner",
          "type": "address"
        },
        {
          "indexed": true,
          "internalType": "address",
          "name": "newOwner",
          "type": "address"
        }
      ],
      "name": "OwnershipTransferred",
      "type": "event"
    },
    {
      "inputs": [],
      "name": "auctionCounter",
      "outputs": [
        {
          "internalType": "uint256",
          "name": "",
          "type": "uint256"
        }
      ],
      "stateMutability": "view",
      "type": "function"
    },
    {
      "inputs": [
        {
          "internalType": "uint256",
          "name": "",
          "type": "uint256"
        }
      ],
      "name": "auctions",
      "outputs": [
        {
          "internalType": "address",
          "name": "seller",
          "type": "address"
        },
        {
          "internalType": "address",
          "name": "nftContract",
          "type": "address"
        },
        {
          "internalType": "uint256",
          "name": "tokenId",
          "type": "uint256"
        },
        {
          "internalType": "uint256",
          "name": "minEthAmount",
          "type": "uint256"
        },
        {
          "internalType": "uint256",
          "name": "minTokenAmount",
          "type": "uint256"
        },
        {
          "internalType": "uint256",
          "name": "endTime",
          "type": "uint256"
        },
        {
          "internalType": "address",
          "name": "highestBidder",
          "type": "address"
        },
        {
          "internalType": "uint256",
          "name": "highestEthBid",
          "type": "uint256"
        },
        {
          "internalType": "uint256",
          "name": "highestTokenBid",
          "type": "uint256"
        },
        {
          "internalType": "bool",
          "name": "ended",
          "type": "bool"
        },
        {
          "internalType": "bool",
          "name": "claimed",
          "type": "bool"
        }
      ],
      "stateMutability": "view",
      "type": "function"
    },
    {
      "inputs": [
        {
          "internalType": "uint256",
          "name": "auctionId",
          "type": "uint256"
        }
      ],
      "name": "cancelAuction",
      "outputs": [],
      "stateMutability": "nonpayable",
      "type": "function"
    },
    {
      "inputs": [
        {
          "internalType": "uint256",
          "name": "auctionId",
          "type": "uint256"
        }
      ],
      "name": "claimFunds",
      "outputs": [],
      "stateMutability": "nonpayable",
      "type": "function"
    },
    {
      "inputs": [
        {
          "internalType": "uint256",
          "name": "auctionId",
          "type": "uint256"
        }
      ],
      "name": "claimNFT",
      "outputs": [],
      "stateMutability": "nonpayable",
      "type": "function"
    },
    {
      "inputs": [
        {
          "internalType": "address",
          "name": "nftContract",
          "type": "address"
        },
        {
          "internalType": "uint256",
          "name": "tokenId",
          "type": "uint256"
        },
        {
          "internalType": "uint256",
          "name": "minEthAmount",
          "type": "uint256"
        },
        {
          "internalType": "uint256",
          "name": "minTokenAmount",
          "type": "uint256"
        },
        {
          "internalType": "uint256",
          "name": "duration",
          "type": "uint256"
        }
      ],
      "name": "createAuction",
      "outputs": [
        {
          "internalType": "uint256",
          "name": "auctionId",
          "type": "uint256"
        }
      ],
      "stateMutability": "nonpayable",
      "type": "function"
    },
    {
      "inputs": [
        {
          "internalType": "uint256",
          "name": "auctionId",
          "type": "uint256"
        }
      ],
      "name": "endAuction",
      "outputs": [],
      "stateMutability": "nonpayable",
      "type": "function"
    },
    {
      "inputs": [],
      "name": "governanceToken",
      "outputs": [
        {
          "internalType": "contract IERC20",
          "name": "",
          "type": "address"
        }
      ],
      "stateMutability": "view",
      "type": "function"
    },
    {
      "inputs": [],
      "name": "owner",
      "outputs": [
        {
          "internalType": "address",
          "name": "",
          "type": "address"
        }
      ],
      "stateMutability": "view",
      "type": "function"
    },
    {
      "inputs": [
        {
          "internalType": "uint256",
          "name": "auctionId",
          "type": "uint256"
        },
        {
          "internalType": "uint256",
          "name": "tokenAmount",
          "type": "uint256"
        }
      ],
      "name": "placeBid",
      "outputs": [],
      "stateMutability": "payable",
      "type": "function"
    },
    {
      "inputs": [],
      "name": "renounceOwnership",
      "outputs": [],
      "stateMutability": "nonpayable",
      "type": "function"
    },
    {
      "inputs": [
        {
          "internalType": "uint256",
          "name": "",
          "type": "uint256"
        },
        {
          "internalType": "address",
          "name": "",
          "type": "address"
        }
      ],
      "name": "tokenBids",
      "outputs": [
        {
          "internalType": "uint256",
          "name": "",
          "type": "uint256"
        }
      ],
      "stateMutability": "view",
      "type": "function"
    },
    {
      "inputs": [
        {
          "internalType": "address",
          "name": "newOwner",
          "type": "address"
        }
      ],
      "name": "transferOwnership",
      "outputs": [],
      "stateMutability": "nonpayable",
      "type": "function"
    }
  ],
  "bytecode": "0x60806040523480156200001157600080fd5b5060405162001785380380620017858339810160408190526200003491620000e1565b6001600055620000443362000072565b600280546001600160a01b0319166001600160a01b0384161790556200006a8162000072565b505062000119565b600180546001600160a01b038381166001600160a01b0319831681179093556040519116919082907f8be0079c531659141344cd1fd0a4f28419497f9722a3daafe3b4186f6b6457e090600090a35050565b80516001600160a01b0381168114620000dc57600080fd5b919050565b60008060408385031215620000f557600080fd5b6200010083620000c4565b91506200011060208401620000c4565b90509250929050565b61165c80620001296000396000f3fe6080604052600436106100c25760003560e01c8063961c9ae41161007f578063b9a2de3a11610059578063b9a2de3a146102d8578063f2fde38b146102f8578063f96dae0a14610318578063fe5c873a1461033857600080fd5b8063961c9ae41461028257806396b5a755146102a2578063a7e76644146102c257600080fd5b80631b55e338146100c757806323a5e27b146100e9578063571a26a01461013457806357c90de514610228578063715018a61461023b5780638da5cb5b14610250575b600080fd5b3480156100d357600080fd5b506100e76100e2366004611484565b610358565b005b3480156100f557600080fd5b506101216101043660046114b9565b600560209081526000928352604080842090915290825290205481565b6040519081526020015b60405180910390f35b34801561014057600080fd5b506101bd61014f366004611484565b600360208190526000918252604090912080546001820154600283015493830154600484015460058501546006860154600787015460088801546009909801546001600160a01b03978816999688169896979596949593949390921692909160ff808216916101009004168b565b604080516001600160a01b039c8d1681529a8c1660208c01528a01989098526060890196909652608088019490945260a087019290925290951660c085015260e08401949094526101008301939093529115156101208201529015156101408201526101600161012b565b6100e76102363660046114e5565b6105fa565b34801561024757600080fd5b506100e7610a57565b34801561025c57600080fd5b506001546001600160a01b03165b6040516001600160a01b03909116815260200161012b565b34801561028e57600080fd5b5061012161029d366004611507565b610a6b565b3480156102ae57600080fd5b506100e76102bd366004611484565b610d53565b3480156102ce57600080fd5b5061012160045481565b3480156102e457600080fd5b506100e76102f3366004611484565b61102f565b34801561030457600080fd5b506100e7610313366004611549565b611128565b34801561032457600080fd5b5060025461026a906001600160a01b031681565b34801561034457600080fd5b506100e7610353366004611484565b61119e565b61036061137f565b6000818152600360205260409020600981015460ff166103be5760405162461bcd60e51b81526020600482015260146024820152734c65696c616f206e616f20656e6365727261646f60601b60448201526064015b60405180910390fd5b80546001600160a01b031633146104225760405162461bcd60e51b815260206004820152602260248201527f4170656e6173206f2076656e6465646f7220706f64652072656976696e64696360448201526130b960f11b60648201526084016103b5565b600781018054600883018054600093849055908390558354604051929391926001600160a01b039091169084908381818185875af1925050503d8060008114610487576040519150601f19603f3d011682016040523d82523d6000602084013e61048c565b606091505b50509050806104d35760405162461bcd60e51b815260206004820152601360248201527208cc2d8d0c240c2de40cadcecd2c2e4408aa89606b1b60448201526064016103b5565b600254845460405163a9059cbb60e01b81526001600160a01b0391821660048201526024810185905291169063a9059cbb906044016020604051808303816000875af1158015610527573d6000803e3d6000fd5b505050506040513d601f19601f8201168201806040525081019061054b919061156b565b6105975760405162461bcd60e51b815260206004820152601a60248201527f46616c686120616f207472616e73666572697220746f6b656e7300000000000060448201526064016103b5565b8354604080518781526001600160a01b0390921660208301528101849052606081018390527ffa45b377144b58daa8abd179ea0781ee34ff3ab46955375786d6a962445707f29060800160405180910390a1505050506105f76001600055565b50565b61060261137f565b6000828152600360205260409020600981015460ff16156106355760405162461bcd60e51b81526004016103b59061158d565b8060050154421061067a5760405162461bcd60e51b815260206004820152600f60248201526e4c65696c616f20657870697261646f60881b60448201526064016103b5565b80600301543410156106c15760405162461bcd60e51b815260206004820152601060248201526f45544820696e737566696369656e746560801b60448201526064016103b5565b806004015482101561070c5760405162461bcd60e51b8152602060048201526014602482015273546f6b656e7320696e737566696369656e74657360601b60448201526064016103b5565b6000816007015434118061073157508160070154341480156107315750816008015483115b9050806107805760405162461bcd60e51b815260206004820152601760248201527f4c616e636520696e666572696f7220616f20617475616c00000000000000000060448201526064016103b5565b6002546040516323b872dd60e01b81526001600160a01b03909116906323b872dd906107b4903390309088906004016115ba565b6020604051808303816000875af11580156107d3573d6000803e3d6000fd5b505050506040513d601f19601f820116820180604052508101906107f7919061156b565b6108435760405162461bcd60e51b815260206004820181905260248201527f46616c6861206e61207472616e73666572656e63696120646520746f6b656e7360448201526064016103b5565b60068201546001600160a01b0316156109c157600682015460078301546040516000926001600160a01b031691908381818185875af1925050503d80600081146108a9576040519150601f19603f3d011682016040523d82523d6000602084013e6108ae565b606091505b50509050806108f75760405162461bcd60e51b815260206004820152601560248201527408cc2d8d0c240c2de40c8caecded8eccae4408aa89605b1b60448201526064016103b5565b6002546006840154600885015460405163a9059cbb60e01b81526001600160a01b039283166004820152602481019190915291169063a9059cbb906044016020604051808303816000875af1158015610954573d6000803e3d6000fd5b505050506040513d601f19601f82011682018060405250810190610978919061156b565b6109bf5760405162461bcd60e51b815260206004820152601860248201527746616c686120616f206465766f6c76657220746f6b656e7360401b60448201526064016103b5565b505b6006820180546001600160a01b031916339081179091553460078401819055600884018590556000868152600560209081526040808320858452825291829020879055815188815290810193909352820152606081018490527f51db8e23b3f4479b162fd48823b8402895442b8f6cfd94f66239391881ec7b6f9060800160405180910390a15050610a536001600055565b5050565b610a5f6113d8565b610a696000611432565b565b6000808211610abc5760405162461bcd60e51b815260206004820152601f60248201527f4475726163616f206465766520736572206d61696f7220717565207a65726f0060448201526064016103b5565b6040516323b872dd60e01b81526001600160a01b038716906323b872dd90610aec90339030908a906004016115ba565b600060405180830381600087803b158015610b0657600080fd5b505af1158015610b1a573d6000803e3d6000fd5b505060048054925090506000610b2f836115f4565b9091555090506000610b41834261160d565b9050604051806101600160405280336001600160a01b03168152602001886001600160a01b0316815260200187815260200186815260200185815260200182815260200160006001600160a01b031681526020016000815260200160008152602001600015158152602001600015158152506003600084815260200190815260200160002060008201518160000160006101000a8154816001600160a01b0302191690836001600160a01b0316021790555060208201518160010160006101000a8154816001600160a01b0302191690836001600160a01b0316021790555060408201518160020155606082015181600301556080820151816004015560a0820151816005015560c08201518160060160006101000a8154816001600160a01b0302191690836001600160a01b0316021790555060e0820151816007015561010082015181600801556101208201518160090160006101000a81548160ff0219169083151502179055506101408201518160090160016101000a81548160ff0219169083151502179055509050507fcaf0ae751fb2b122e8718bf7c0d4b7584d1418a853a4d0cdaba45418d3da138b82338989898987604051610d4197969594939291909687526001600160a01b0395861660208801529390941660408601526060850191909152608084015260a083019190915260c082015260e00190565b60405180910390a15095945050505050565b610d5b61137f565b6000818152600360205260409020600981015460ff1615610d8e5760405162461bcd60e51b81526004016103b59061158d565b80546001600160a01b0316331480610db1575060068101546001600160a01b0316155b610dee5760405162461bcd60e51b815260206004820152600e60248201526d4e616f206175746f72697a61646f60901b60448201526064016103b5565b60098101805460ff1916600117905560068101546001600160a01b031615610f7b57600681015460078201546040516000926001600160a01b031691908381818185875af1925050503d8060008114610e63576040519150601f19603f3d011682016040523d82523d6000602084013e610e68565b606091505b5050905080610eb15760405162461bcd60e51b815260206004820152601560248201527408cc2d8d0c240c2de40c8caecded8eccae4408aa89605b1b60448201526064016103b5565b6002546006830154600884015460405163a9059cbb60e01b81526001600160a01b039283166004820152602481019190915291169063a9059cbb906044016020604051808303816000875af1158015610f0e573d6000803e3d6000fd5b505050506040513d601f19601f82011682018060405250810190610f32919061156b565b610f795760405162461bcd60e51b815260206004820152601860248201527746616c686120616f206465766f6c76657220746f6b656e7360401b60448201526064016103b5565b505b6001810154815460028301546040516323b872dd60e01b81526001600160a01b03938416936323b872dd93610fb993309392909116916004016115ba565b600060405180830381600087803b158015610fd357600080fd5b505af1158015610fe7573d6000803e3d6000fd5b505050507f2809c7e17bf978fbc7194c0a694b638c4215e9140cacc6c38ca36010b45697df8260405161101c91815260200190565b60405180910390a1506105f76001600055565b61103761137f565b6000818152600360205260409020600981015460ff161561106a5760405162461bcd60e51b81526004016103b59061158d565b80600501544210156110be5760405162461bcd60e51b815260206004820152601960248201527f4c65696c616f2061696e646120656d20616e64616d656e746f0000000000000060448201526064016103b5565b60098101805460ff19166001179055600681015460078201546008830154604080518681526001600160a01b03909416602085015283019190915260608201527fe9ba83469fc8ee4260dd274fd43b5a54f2df813ad21c4637d53084d1f3866b379060800161101c565b6111306113d8565b6001600160a01b0381166111955760405162461bcd60e51b815260206004820152602660248201527f4f776e61626c653a206e6577206f776e657220697320746865207a65726f206160448201526564647265737360d01b60648201526084016103b5565b6105f781611432565b6111a661137f565b6000818152600360205260409020600981015460ff166111ff5760405162461bcd60e51b81526020600482015260146024820152734c65696c616f206e616f20656e6365727261646f60601b60448201526064016103b5565b60068101546001600160a01b031633146112665760405162461bcd60e51b815260206004820152602260248201527f4170656e6173206f2076656e6365646f7220706f64652072656976696e64696360448201526130b960f11b60648201526084016103b5565b6009810154610100900460ff16156112b65760405162461bcd60e51b81526020600482015260136024820152724e4654206a612072656976696e64696361646f60681b60448201526064016103b5565b60098101805461ff0019166101001790556001810154600682015460028301546040516323b872dd60e01b81526001600160a01b03938416936323b872dd936113099330939190921691906004016115ba565b600060405180830381600087803b15801561132357600080fd5b505af1158015611337573d6000803e3d6000fd5b505050506006810154604080518481526001600160a01b0390921660208301527fec5f0dee1fc3c7beab746dbd5883eee3f1c9bc07fe02dd318c553c5243f52fea910161101c565b6002600054036113d15760405162461bcd60e51b815260206004820152601f60248201527f5265656e7472616e637947756172643a207265656e7472616e742063616c6c0060448201526064016103b5565b6002600055565b6001546001600160a01b03163314610a695760405162461bcd60e51b815260206004820181905260248201527f4f776e61626c653a2063616c6c6572206973206e6f7420746865206f776e657260448201526064016103b5565b600180546001600160a01b038381166001600160a01b0319831681179093556040519116919082907f8be0079c531659141344cd1fd0a4f28419497f9722a3daafe3b4186f6b6457e090600090a35050565b60006020828403121561149657600080fd5b5035919050565b80356001600160a01b03811681146114b457600080fd5b919050565b600080604083850312156114cc57600080fd5b823591506114dc6020840161149d565b90509250929050565b600080604083850312156114f857600080fd5b50508035926020909101359150565b600080600080600060a0868803121561151f57600080fd5b6115288661149d565b97602087013597506040870135966060810135965060800135945092505050565b60006020828403121561155b57600080fd5b6115648261149d565b9392505050565b60006020828403121561157d57600080fd5b8151801515811461156457600080fd5b6020808252601390820152724c65696c616f206a6120656e6365727261646f60681b604082015260600190565b6001600160a01b039384168152919092166020820152604081019190915260600190565b634e487b7160e01b600052601160045260246000fd5b600060018201611606576116066115de565b5060010190565b80820180821115611620576116206115de565b9291505056fea2646970667358221220cd50140ae1be92a7df30add6262226101d47ea87d078ef8133d51c29d3e6e41164736f6c63430008110033",
  "linkReferences": {},
  "deployedLinkReferences": {}
}