{
  "_format": "hh-sol-artifact-1",
  "contractName": "SponsorPaymaster",
  "sourceName": "contracts/SponsorPaymaster.sol",
  "abi": [
    {
      "inputs": [
        {
          "internalType": "contract IEntryPoint",
          "name": "_entryPoint",
          "type": "address"
        }
      ],
      "stateMutability": "nonpayable",
      "type": "constructor"
    },
    {
      "anonymous": false,
      "inputs": [
        {
          "indexed": true,
          "internalType": "address",
          "name": "account",
          "type": "address"
        }
      ],
      "name": "AddressSponsored",
      "type": "event"
    },
    {
      "anonymous": false,
      "inputs": [
        {
          "indexed": true,
          "internalType": "address",
          "name": "account",
          "type": "address"
        }
      ],
      "name": "AddressUnsponsored",
      "type": "event"
    },
    {
      "anonymous": false,
      "inputs": [
        {
          "indexed": true,
          "internalType": "address",
          "name": "app",
          "type": "address"
        }
      ],
      "name": "AppSponsored",
      "type": "event"
    },
    {
      "anonymous": false,
      "inputs": [
        {
          "indexed": true,
          "internalType": "address",
          "name": "app",
          "type": "address"
        }
      ],
      "name": "AppUnsponsored",
      "type": "event"
    },
    {
      "anonymous": false,
      "inputs": [
        {
          "indexed": false,
          "internalType": "uint256",
          "name": "dailyLimit",
          "type": "uint256"
        },
        {
          "indexed": false,
          "internalType": "uint256",
          "name": "txLimit",
          "type": "uint256"
        }
      ],
      "name": "DefaultLimitsUpdated",
      "type": "event"
    },
    {
      "anonymous": false,
      "inputs": [
        {
          "indexed": true,
          "internalType": "address",
          "name": "account",
          "type": "address"
        },
        {
          "indexed": true,
          "internalType": "address",
          "name": "app",
          "type": "address"
        },
        {
          "indexed": false,
          "internalType": "uint256",
          "name": "gasUsed",
          "type": "uint256"
        }
      ],
      "name": "GasSponsored",
      "type": "event"
    },
    {
      "anonymous": false,
      "inputs": [
        {
          "indexed": true,
          "internalType": "address",
          "name": "previousOwner",
          "type": "address"
        },
        {
          "indexed": true,
          "internalType": "address",
          "name": "newOwner",
          "type": "address"
        }
      ],
      "name": "OwnershipTransferred",
      "type": "event"
    },
    {
      "anonymous": false,
      "inputs": [
        {
          "indexed": true,
          "internalType": "address",
          "name": "funder",
          "type": "address"
        },
        {
          "indexed": false,
          "internalType": "uint256",
          "name": "amount",
          "type": "uint256"
        }
      ],
      "name": "PaymasterFunded",
      "type": "event"
    },
    {
      "anonymous": false,
      "inputs": [
        {
          "indexed": true,
          "internalType": "address",
          "name": "subject",
          "type": "address"
        },
        {
          "indexed": false,
          "internalType": "uint256",
          "name": "dailyLimit",
          "type": "uint256"
        },
        {
          "indexed": false,
          "internalType": "uint256",
          "name": "txLimit",
          "type": "uint256"
        },
        {
          "indexed": false,
          "internalType": "bool",
          "name": "isApp",
          "type": "bool"
        }
      ],
      "name": "SponsorLimitUpdated",
      "type": "event"
    },
    {
      "inputs": [
        {
          "internalType": "uint256",
          "name": "amount",
          "type": "uint256"
        }
      ],
      "name": "addDepositToEntryPoint",
      "outputs": [],
      "stateMutability": "payable",
      "type": "function"
    },
    {
      "inputs": [
        {
          "internalType": "uint32",
          "name": "unstakeDelaySec",
          "type": "uint32"
        }
      ],
      "name": "addStake",
      "outputs": [],
      "stateMutability": "payable",
      "type": "function"
    },
    {
      "inputs": [
        {
          "internalType": "address",
          "name": "",
          "type": "address"
        }
      ],
      "name": "addressLimits",
      "outputs": [
        {
          "internalType": "uint256",
          "name": "dailyLimit",
          "type": "uint256"
        },
        {
          "internalType": "uint256",
          "name": "txLimit",
          "type": "uint256"
        },
        {
          "internalType": "uint256",
          "name": "usedToday",
          "type": "uint256"
        },
        {
          "internalType": "uint256",
          "name": "lastReset",
          "type": "uint256"
        }
      ],
      "stateMutability": "view",
      "type": "function"
    },
    {
      "inputs": [
        {
          "internalType": "address",
          "name": "",
          "type": "address"
        }
      ],
      "name": "appLimits",
      "outputs": [
        {
          "internalType": "uint256",
          "name": "dailyLimit",
          "type": "uint256"
        },
        {
          "internalType": "uint256",
          "name": "txLimit",
          "type": "uint256"
        },
        {
          "internalType": "uint256",
          "name": "usedToday",
          "type": "uint256"
        },
        {
          "internalType": "uint256",
          "name": "lastReset",
          "type": "uint256"
        }
      ],
      "stateMutability": "view",
      "type": "function"
    },
    {
      "inputs": [],
      "name": "defaultDailyLimit",
      "outputs": [
        {
          "internalType": "uint256",
          "name": "",
          "type": "uint256"
        }
      ],
      "stateMutability": "view",
      "type": "function"
    },
    {
      "inputs": [],
      "name": "defaultTxLimit",
      "outputs": [
        {
          "internalType": "uint256",
          "name": "",
          "type": "uint256"
        }
      ],
      "stateMutability": "view",
      "type": "function"
    },
    {
      "inputs": [],
      "name": "deposit",
      "outputs": [],
      "stateMutability": "payable",
      "type": "function"
    },
    {
      "inputs": [],
      "name": "entryPoint",
      "outputs": [
        {
          "internalType": "contract IEntryPoint",
          "name": "",
          "type": "address"
        }
      ],
      "stateMutability": "view",
      "type": "function"
    },
    {
      "inputs": [],
      "name": "getDeposit",
      "outputs": [
        {
          "internalType": "uint256",
          "name": "",
          "type": "uint256"
        }
      ],
      "stateMutability": "view",
      "type": "function"
    },
    {
      "inputs": [],
      "name": "owner",
      "outputs": [
        {
          "internalType": "address",
          "name": "",
          "type": "address"
        }
      ],
      "stateMutability": "view",
      "type": "function"
    },
    {
      "inputs": [
        {
          "internalType": "enum IPaymaster.PostOpMode",
          "name": "mode",
          "type": "uint8"
        },
        {
          "internalType": "bytes",
          "name": "context",
          "type": "bytes"
        },
        {
          "internalType": "uint256",
          "name": "actualGasCost",
          "type": "uint256"
        }
      ],
      "name": "postOp",
      "outputs": [],
      "stateMutability": "nonpayable",
      "type": "function"
    },
    {
      "inputs": [],
      "name": "renounceOwnership",
      "outputs": [],
      "stateMutability": "nonpayable",
      "type": "function"
    },
    {
      "inputs": [
        {
          "internalType": "uint256",
          "name": "newDailyLimit",
          "type": "uint256"
        },
        {
          "internalType": "uint256",
          "name": "newTxLimit",
          "type": "uint256"
        }
      ],
      "name": "setDefaultLimits",
      "outputs": [],
      "stateMutability": "nonpayable",
      "type": "function"
    },
    {
      "inputs": [
        {
          "internalType": "address",
          "name": "account",
          "type": "address"
        }
      ],
      "name": "sponsorAddress",
      "outputs": [],
      "stateMutability": "nonpayable",
      "type": "function"
    },
    {
      "inputs": [
        {
          "internalType": "address",
          "name": "account",
          "type": "address"
        },
        {
          "internalType": "uint256",
          "name": "dailyLimit",
          "type": "uint256"
        },
        {
          "internalType": "uint256",
          "name": "txLimit",
          "type": "uint256"
        }
      ],
      "name": "sponsorAddressWithLimits",
      "outputs": [],
      "stateMutability": "nonpayable",
      "type": "function"
    },
    {
      "inputs": [
        {
          "internalType": "address",
          "name": "app",
          "type": "address"
        }
      ],
      "name": "sponsorApp",
      "outputs": [],
      "stateMutability": "nonpayable",
      "type": "function"
    },
    {
      "inputs": [
        {
          "internalType": "address",
          "name": "app",
          "type": "address"
        },
        {
          "internalType": "uint256",
          "name": "dailyLimit",
          "type": "uint256"
        },
        {
          "internalType": "uint256",
          "name": "txLimit",
          "type": "uint256"
        }
      ],
      "name": "sponsorAppWithLimits",
      "outputs": [],
      "stateMutability": "nonpayable",
      "type": "function"
    },
    {
      "inputs": [
        {
          "internalType": "address",
          "name": "",
          "type": "address"
        }
      ],
      "name": "sponsoredAddresses",
      "outputs": [
        {
          "internalType": "bool",
          "name": "",
          "type": "bool"
        }
      ],
      "stateMutability": "view",
      "type": "function"
    },
    {
      "inputs": [
        {
          "internalType": "address",
          "name": "",
          "type": "address"
        }
      ],
      "name": "sponsoredApps",
      "outputs": [
        {
          "internalType": "bool",
          "name": "",
          "type": "bool"
        }
      ],
      "stateMutability": "view",
      "type": "function"
    },
    {
      "inputs": [
        {
          "internalType": "address",
          "name": "newOwner",
          "type": "address"
        }
      ],
      "name": "transferOwnership",
      "outputs": [],
      "stateMutability": "nonpayable",
      "type": "function"
    },
    {
      "inputs": [],
      "name": "unlockStake",
      "outputs": [],
      "stateMutability": "nonpayable",
      "type": "function"
    },
    {
      "inputs": [
        {
          "internalType": "address",
          "name": "account",
          "type": "address"
        }
      ],
      "name": "unsponsorAddress",
      "outputs": [],
      "stateMutability": "nonpayable",
      "type": "function"
    },
    {
      "inputs": [
        {
          "internalType": "address",
          "name": "app",
          "type": "address"
        }
      ],
      "name": "unsponsorApp",
      "outputs": [],
      "stateMutability": "nonpayable",
      "type": "function"
    },
    {
      "inputs": [
        {
          "internalType": "address",
          "name": "account",
          "type": "address"
        },
        {
          "internalType": "uint256",
          "name": "dailyLimit",
          "type": "uint256"
        },
        {
          "internalType": "uint256",
          "name": "txLimit",
          "type": "uint256"
        }
      ],
      "name": "updateAddressLimits",
      "outputs": [],
      "stateMutability": "nonpayable",
      "type": "function"
    },
    {
      "inputs": [
        {
          "internalType": "address",
          "name": "app",
          "type": "address"
        },
        {
          "internalType": "uint256",
          "name": "dailyLimit",
          "type": "uint256"
        },
        {
          "internalType": "uint256",
          "name": "txLimit",
          "type": "uint256"
        }
      ],
      "name": "updateAppLimits",
      "outputs": [],
      "stateMutability": "nonpayable",
      "type": "function"
    },
    {
      "inputs": [
        {
          "components": [
            {
              "internalType": "address",
              "name": "sender",
              "type": "address"
            },
            {
              "internalType": "uint256",
              "name": "nonce",
              "type": "uint256"
            },
            {
              "internalType": "bytes",
              "name": "initCode",
              "type": "bytes"
            },
            {
              "internalType": "bytes",
              "name": "callData",
              "type": "bytes"
            },
            {
              "internalType": "uint256",
              "name": "callGasLimit",
              "type": "uint256"
            },
            {
              "internalType": "uint256",
              "name": "verificationGasLimit",
              "type": "uint256"
            },
            {
              "internalType": "uint256",
              "name": "preVerificationGas",
              "type": "uint256"
            },
            {
              "internalType": "uint256",
              "name": "maxFeePerGas",
              "type": "uint256"
            },
            {
              "internalType": "uint256",
              "name": "maxPriorityFeePerGas",
              "type": "uint256"
            },
            {
              "internalType": "bytes",
              "name": "paymasterAndData",
              "type": "bytes"
            },
            {
              "internalType": "bytes",
              "name": "signature",
              "type": "bytes"
            }
          ],
          "internalType": "struct UserOperation",
          "name": "userOp",
          "type": "tuple"
        },
        {
          "internalType": "bytes32",
          "name": "userOpHash",
          "type": "bytes32"
        },
        {
          "internalType": "uint256",
          "name": "maxCost",
          "type": "uint256"
        }
      ],
      "name": "validatePaymasterUserOp",
      "outputs": [
        {
          "internalType": "bytes",
          "name": "context",
          "type": "bytes"
        },
        {
          "internalType": "uint256",
          "name": "validationData",
          "type": "uint256"
        }
      ],
      "stateMutability": "nonpayable",
      "type": "function"
    },
    {
      "inputs": [
        {
          "internalType": "uint256",
          "name": "amount",
          "type": "uint256"
        }
      ],
      "name": "withdrawFromEntryPoint",
      "outputs": [],
      "stateMutability": "nonpayable",
      "type": "function"
    },
    {
      "inputs": [
        {
          "internalType": "address payable",
          "name": "recipient",
          "type": "address"
        },
        {
          "internalType": "uint256",
          "name": "amount",
          "type": "uint256"
        }
      ],
      "name": "withdrawFunds",
      "outputs": [],
      "stateMutability": "nonpayable",
      "type": "function"
    },
    {
      "inputs": [
        {
          "internalType": "address payable",
          "name": "withdrawAddress",
          "type": "address"
        }
      ],
      "name": "withdrawStake",
      "outputs": [],
      "stateMutability": "nonpayable",
      "type": "function"
    },
    {
      "inputs": [
        {
          "internalType": "address payable",
          "name": "withdrawAddress",
          "type": "address"
        },
        {
          "internalType": "uint256",
          "name": "amount",
          "type": "uint256"
        }
      ],
      "name": "withdrawTo",
      "outputs": [],
      "stateMutability": "nonpayable",
      "type": "function"
    },
    {
      "stateMutability": "payable",
      "type": "receive"
    }
  ],
  "bytecode": "0x60a060405267016345785d8a0000600555662386f26fc100006006553480156200002857600080fd5b5060405162001e8c38038062001e8c8339810160408190526200004b91620000ba565b8062000057336200006a565b6001600160a01b031660805250620000ec565b600080546001600160a01b038381166001600160a01b0319831681178455604051919092169283917f8be0079c531659141344cd1fd0a4f28419497f9722a3daafe3b4186f6b6457e09190a35050565b600060208284031215620000cd57600080fd5b81516001600160a01b0381168114620000e557600080fd5b9392505050565b608051611d37620001556000396000818161047d0152818161066c015281816107c60152818161096401528181610bb901528181610c3901528181610c7c01528181610e5d01528181610ea401528181610fe6015281816113b801526116420152611d376000f3fe6080604052600436106101d15760003560e01c8063b0d691fe116100f7578063cae51d4711610095578063e514ca7511610064578063e514ca75146105bc578063f2fde38b146105dc578063f465c77e146105fc578063fbcd84061461062a57600080fd5b8063cae51d4714610532578063cfc2b22214610574578063d0e30db014610594578063d1a6e4991461059c57600080fd5b8063c1075329116100d1578063c1075329146104c7578063c23a5cea146104e7578063c399ec8814610507578063c76b08881461051c57600080fd5b8063b0d691fe1461046b578063b333aab11461049f578063bb9fe6bf146104b257600080fd5b8063584373201161016f5780638da5cb5b1161013e5780638da5cb5b14610395578063939561c9146103c7578063a9a23409146103e7578063aa36b8901461040757600080fd5b806358437320146103205780636b1a999914610340578063715018a6146103605780637560961f1461037557600080fd5b806326704dd4116101ab57806326704dd4146102675780633ab40c1b146102875780633c06c1bb146102b057806345afdb51146102f057600080fd5b80630396cb60146102125780630597d83114610227578063205c28781461024757600080fd5b3661020d5760405134815233907fb2097ab3550c8bc1e581acecec9827cfa285137c2311429263ab8e6cdb814a739060200160405180910390a2005b600080fd5b610225610220366004611948565b61064a565b005b34801561023357600080fd5b5061022561024236600461198a565b6106d5565b34801561025357600080fd5b506102256102623660046119bf565b610798565b34801561027357600080fd5b5061022561028236600461198a565b61080a565b34801561029357600080fd5b5061029d60065481565b6040519081526020015b60405180910390f35b3480156102bc57600080fd5b506102e06102cb3660046119eb565b60026020526000908152604090205460ff1681565b60405190151581526020016102a7565b3480156102fc57600080fd5b506102e061030b3660046119eb565b60016020526000908152604090205460ff1681565b34801561032c57600080fd5b5061022561033b366004611a08565b61090b565b34801561034c57600080fd5b5061022561035b366004611a2a565b61095a565b34801561036c57600080fd5b50610225610a07565b34801561038157600080fd5b506102256103903660046119eb565b610a1b565b3480156103a157600080fd5b506000546001600160a01b03165b6040516001600160a01b0390911681526020016102a7565b3480156103d357600080fd5b506102256103e236600461198a565b610a6c565b3480156103f357600080fd5b50610225610402366004611a43565b610b67565b34801561041357600080fd5b5061044b6104223660046119eb565b600360208190526000918252604090912080546001820154600283015492909301549092919084565b6040805194855260208501939093529183015260608201526080016102a7565b34801561047757600080fd5b506103af7f000000000000000000000000000000000000000000000000000000000000000081565b6102256104ad366004611a2a565b610b81565b3480156104be57600080fd5b50610225610c72565b3480156104d357600080fd5b506102256104e23660046119bf565b610ce9565b3480156104f357600080fd5b506102256105023660046119eb565b610e36565b34801561051357600080fd5b5061029d610e8c565b34801561052857600080fd5b5061029d60055481565b34801561053e57600080fd5b5061044b61054d3660046119eb565b60046020526000908152604090208054600182015460028301546003909301549192909184565b34801561058057600080fd5b5061022561058f36600461198a565b610f1c565b610225610fd1565b3480156105a857600080fd5b506102256105b73660046119eb565b611033565b3480156105c857600080fd5b506102256105d73660046119eb565b611125565b3480156105e857600080fd5b506102256105f73660046119eb565b611216565b34801561060857600080fd5b5061061c610617366004611ad2565b61128f565b6040516102a7929190611b11565b34801561063657600080fd5b506102256106453660046119eb565b6112b2565b610652611303565b604051621cb65b60e51b815263ffffffff821660048201527f00000000000000000000000000000000000000000000000000000000000000006001600160a01b031690630396cb609034906024016000604051808303818588803b1580156106b957600080fd5b505af11580156106cd573d6000803e3d6000fd5b505050505050565b6106dd611303565b6001600160a01b03831660009081526002602052604090205460ff1661073e5760405162461bcd60e51b8152602060048201526011602482015270105c1c081b9bdd081cdc1bdb9cdbdc9959607a1b60448201526064015b60405180910390fd5b6001600160a01b0383166000818152600460209081526040918290208581556001908101859055825186815291820185905291810191909152600080516020611ce2833981519152906060015b60405180910390a2505050565b6107a0611303565b60405163040b850f60e31b81526001600160a01b038381166004830152602482018390527f0000000000000000000000000000000000000000000000000000000000000000169063205c287890604401600060405180830381600087803b1580156106b957600080fd5b610812611303565b6001600160a01b0383166108385760405162461bcd60e51b815260040161073590611b66565b6001600160a01b0383166000818152600260208181526040808420805460ff19166001908117909155815160808101835288815280840188815281840187815242606084019081528989526004909652848820925183559051928201929092559051938101939093559051600390920191909155517febee85f6954667ef3d58cff82863962a4b4203846564aeb3e0edad6cfa568cfa9190a260408051838152602081018390526001918101919091526001600160a01b03841690600080516020611ce28339815191529060600161078b565b610913611303565b6005829055600681905560408051838152602081018390527f5fa26bc15387a83f361b29c343c84bf1ea81a7e4a664769474c232b20e3e8fe7910160405180910390a15050565b610962611303565b7f00000000000000000000000000000000000000000000000000000000000000006001600160a01b031663205c28786109a36000546001600160a01b031690565b6040516001600160e01b031960e084901b1681526001600160a01b039091166004820152602481018490526044015b600060405180830381600087803b1580156109ec57600080fd5b505af1158015610a00573d6000803e3d6000fd5b5050505050565b610a0f611303565b610a19600061135d565b565b610a23611303565b6001600160a01b038116600081815260016020526040808220805460ff19169055517fa5775cc47f140947c6594cbc64f42a1fe2278c06081218c81ddf94ed186f5f959190a250565b610a74611303565b6001600160a01b038316610a9a5760405162461bcd60e51b815260040161073590611b66565b6001600160a01b0383166000818152600160208181526040808420805460ff19168417905580516080810182528781528083018781528183018681524260608401908152888852600395869052848820935184559151958301959095559351600282015592519290910191909155517f7a9ddc8aa87dd99ff6af16766176f565ea050cb4db6d50d211bff1cad7051dfb9190a260408051838152602081018390526000918101919091526001600160a01b03841690600080516020611ce28339815191529060600161078b565b610b6f6113ad565b610b7b8484848461141d565b50505050565b610b89611303565b6000803411610b985781610b9a565b345b905034600003610c245760405163b760faf960e01b81523060048201527f00000000000000000000000000000000000000000000000000000000000000006001600160a01b03169063b760faf99083906024015b6000604051808303818588803b158015610c0757600080fd5b505af1158015610c1b573d6000803e3d6000fd5b50505050505050565b60405163b760faf960e01b81523060048201527f00000000000000000000000000000000000000000000000000000000000000006001600160a01b03169063b760faf9908390602401610bee565b610c7a611303565b7f00000000000000000000000000000000000000000000000000000000000000006001600160a01b031663bb9fe6bf6040518163ffffffff1660e01b8152600401600060405180830381600087803b158015610cd557600080fd5b505af1158015610b7b573d6000803e3d6000fd5b610cf1611303565b6001600160a01b038216610d475760405162461bcd60e51b815260206004820152601f60248201527f43616e6e6f7420776974686472617720746f207a65726f2061646472657373006044820152606401610735565b47811115610d8e5760405162461bcd60e51b8152602060048201526014602482015273496e73756666696369656e742062616c616e636560601b6044820152606401610735565b6000826001600160a01b03168260405160006040518083038185875af1925050503d8060008114610ddb576040519150601f19603f3d011682016040523d82523d6000602084013e610de0565b606091505b5050905080610e315760405162461bcd60e51b815260206004820152601860248201527f4661696c656420746f2077697468647261772066756e647300000000000000006044820152606401610735565b505050565b610e3e611303565b60405163611d2e7560e11b81526001600160a01b0382811660048301527f0000000000000000000000000000000000000000000000000000000000000000169063c23a5cea906024016109d2565b6040516370a0823160e01b81523060048201526000907f00000000000000000000000000000000000000000000000000000000000000006001600160a01b0316906370a0823190602401602060405180830381865afa158015610ef3573d6000803e3d6000fd5b505050506040513d601f19601f82011682018060405250810190610f179190611b9d565b905090565b610f24611303565b6001600160a01b03831660009081526001602052604090205460ff16610f845760405162461bcd60e51b81526020600482015260156024820152741059191c995cdcc81b9bdd081cdc1bdb9cdbdc9959605a1b6044820152606401610735565b6001600160a01b03831660008181526003602090815260408083208681556001018590558051868152918201859052810191909152600080516020611ce28339815191529060600161078b565b60405163b760faf960e01b81523060048201527f00000000000000000000000000000000000000000000000000000000000000006001600160a01b03169063b760faf99034906024016000604051808303818588803b1580156109ec57600080fd5b61103b611303565b6001600160a01b0381166110615760405162461bcd60e51b815260040161073590611b66565b6001600160a01b0381166000908152600260209081526040808320805460ff19166001179055600490915281205490036110ee576040805160808101825260055481526006546020808301918252600083850181815242606086019081526001600160a01b0388168352600490935294902092518355905160018301559151600282015590516003909101555b6040516001600160a01b038216907febee85f6954667ef3d58cff82863962a4b4203846564aeb3e0edad6cfa568cfa90600090a250565b61112d611303565b6001600160a01b0381166111535760405162461bcd60e51b815260040161073590611b66565b6001600160a01b0381166000908152600160208181526040808420805460ff19169093179092556003905281205490036111df576040805160808101825260055481526006546020808301918252600083850181815242606086019081526001600160a01b03881683526003938490529590912093518455915160018401559051600283015591519101555b6040516001600160a01b038216907f7a9ddc8aa87dd99ff6af16766176f565ea050cb4db6d50d211bff1cad7051dfb90600090a250565b61121e611303565b6001600160a01b0381166112835760405162461bcd60e51b815260206004820152602660248201527f4f776e61626c653a206e6577206f776e657220697320746865207a65726f206160448201526564647265737360d01b6064820152608401610735565b61128c8161135d565b50565b6060600061129b6113ad565b6112a6858585611549565b91509150935093915050565b6112ba611303565b6001600160a01b038116600081815260026020526040808220805460ff19169055517f1268fd7beee5bd2734f4ae796348e757406e36f14052e38d366593af807084a19190a250565b6000546001600160a01b03163314610a195760405162461bcd60e51b815260206004820181905260248201527f4f776e61626c653a2063616c6c6572206973206e6f7420746865206f776e65726044820152606401610735565b600080546001600160a01b038381166001600160a01b0319831681178455604051919092169283917f8be0079c531659141344cd1fd0a4f28419497f9722a3daafe3b4186f6b6457e09190a35050565b336001600160a01b037f00000000000000000000000000000000000000000000000000000000000000001614610a195760405162461bcd60e51b815260206004820152601560248201527414d95b99195c881b9bdd08115b9d1c9e541bda5b9d605a1b6044820152606401610735565b6000808061142d85870187611bb6565b925092509250808410156114f3576001600160a01b03831660009081526001602052604090205460ff1615611497576114668482611c0d565b6001600160a01b03841660009081526003602052604081206002018054909190611491908490611c0d565b90915550505b6001600160a01b03821660009081526002602052604090205460ff16156114f3576114c28482611c0d565b6001600160a01b038316600090815260046020526040812060020180549091906114ed908490611c0d565b90915550505b816001600160a01b0316836001600160a01b03167fc9991e76367ebf3387530c533ae59ea7535aa764f043134baaf8b3dd3ad706268660405161153891815260200190565b60405180910390a350505050505050565b606060008061155b60208701876119eb565b9050600061156887611754565b6001600160a01b038084166000908152600160209081526040808320549385168352600290915290205491925060ff908116911681806115a55750805b6116075760405162461bcd60e51b815260206004820152602d60248201527f53706f6e736f725061796d61737465723a2073656e646572206f72206170702060448201526c1b9bdd081cdc1bdb9cdbdc9959609a1b6064820152608401610735565b811561161957611619848860006117e6565b801561162b5761162b838860016117e6565b6040516370a0823160e01b815230600482015287907f00000000000000000000000000000000000000000000000000000000000000006001600160a01b0316906370a0823190602401602060405180830381865afa158015611691573d6000803e3d6000fd5b505050506040513d601f19601f820116820180604052508101906116b59190611b9d565b10156117125760405162461bcd60e51b815260206004820152602660248201527f53706f6e736f725061796d61737465723a20696e73756666696369656e742064604482015265195c1bdcda5d60d21b6064820152608401610735565b5050604080516001600160a01b039384166020820152919092168183015260608082019590955281518082039095018552608001905250909360009350915050565b600036816117656060850185611c26565b9092509050602481101561177d575060009392505050565b600061178c6004828486611c74565b61179591611c9e565b90506324f16c0560e11b6001600160e01b03198216016117bb57600483013593506117de565b63e7204c3960e01b6001600160e01b03198216016117de57506000949350505050565b505050919050565b60008161180a576001600160a01b0384166000908152600360205260409020611823565b6001600160a01b03841660009081526004602052604090205b90508060030154620151806118389190611cce565b42111561184d57600060028201554260038201555b80600101548311156118ba5760405162461bcd60e51b815260206004820152603060248201527f53706f6e736f725061796d61737465723a207472616e73616374696f6e20636f60448201526f1cdd08195e18d959591cc81b1a5b5a5d60821b6064820152608401610735565b805460028201546118cc908590611cce565b11156119295760405162461bcd60e51b815260206004820152602660248201527f53706f6e736f725061796d61737465723a206461696c79206c696d697420657860448201526518d95959195960d21b6064820152608401610735565b8281600201600082825461193d9190611cce565b909155505050505050565b60006020828403121561195a57600080fd5b813563ffffffff8116811461196e57600080fd5b9392505050565b6001600160a01b038116811461128c57600080fd5b60008060006060848603121561199f57600080fd5b83356119aa81611975565b95602085013595506040909401359392505050565b600080604083850312156119d257600080fd5b82356119dd81611975565b946020939093013593505050565b6000602082840312156119fd57600080fd5b813561196e81611975565b60008060408385031215611a1b57600080fd5b50508035926020909101359150565b600060208284031215611a3c57600080fd5b5035919050565b60008060008060608587031215611a5957600080fd5b843560038110611a6857600080fd5b9350602085013567ffffffffffffffff80821115611a8557600080fd5b818701915087601f830112611a9957600080fd5b813581811115611aa857600080fd5b886020828501011115611aba57600080fd5b95986020929092019750949560400135945092505050565b600080600060608486031215611ae757600080fd5b833567ffffffffffffffff811115611afe57600080fd5b840161016081870312156119aa57600080fd5b604081526000835180604084015260005b81811015611b3f5760208187018101516060868401015201611b22565b506000606082850101526060601f19601f8301168401019150508260208301529392505050565b6020808252601b908201527f43616e6e6f742073706f6e736f72207a65726f20616464726573730000000000604082015260600190565b600060208284031215611baf57600080fd5b5051919050565b600080600060608486031215611bcb57600080fd5b8335611bd681611975565b92506020840135611be681611975565b929592945050506040919091013590565b634e487b7160e01b600052601160045260246000fd5b81810381811115611c2057611c20611bf7565b92915050565b6000808335601e19843603018112611c3d57600080fd5b83018035915067ffffffffffffffff821115611c5857600080fd5b602001915036819003821315611c6d57600080fd5b9250929050565b60008085851115611c8457600080fd5b83861115611c9157600080fd5b5050820193919092039150565b6001600160e01b03198135818116916004851015611cc65780818660040360031b1b83161692505b505092915050565b80820180821115611c2057611c20611bf756fe8a4d3cd1e7b97838bdd2d314833c8b9dad576667cd7dc955de1646c7bec8e2a2a2646970667358221220ce0946820fb78ff5cc8994908d35e21a121002c32f26ae854626fd5934a501f964736f6c63430008110033",
  "linkReferences": {},
  "deployedLinkReferences": {}
}