{
  "_format": "hh-sol-artifact-1",
  "contractName": "AuctionNFT",
  "sourceName": "contracts/AuctionNFT.sol",
  "abi": [
    {
      "inputs": [],
      "stateMutability": "nonpayable",
      "type": "constructor"
    },
    {
      "anonymous": false,
      "inputs": [
        {
          "indexed": true,
          "internalType": "address",
          "name": "owner",
          "type": "address"
        },
        {
          "indexed": true,
          "internalType": "address",
          "name": "approved",
          "type": "address"
        },
        {
          "indexed": true,
          "internalType": "uint256",
          "name": "tokenId",
          "type": "uint256"
        }
      ],
      "name": "Approval",
      "type": "event"
    },
    {
      "anonymous": false,
      "inputs": [
        {
          "indexed": true,
          "internalType": "address",
          "name": "owner",
          "type": "address"
        },
        {
          "indexed": true,
          "internalType": "address",
          "name": "operator",
          "type": "address"
        },
        {
          "indexed": false,
          "internalType": "bool",
          "name": "approved",
          "type": "bool"
        }
      ],
      "name": "ApprovalForAll",
      "type": "event"
    },
    {
      "anonymous": false,
      "inputs": [
        {
          "indexed": false,
          "internalType": "uint256",
          "name": "_fromTokenId",
          "type": "uint256"
        },
        {
          "indexed": false,
          "internalType": "uint256",
          "name": "_toTokenId",
          "type": "uint256"
        }
      ],
      "name": "BatchMetadataUpdate",
      "type": "event"
    },
    {
      "anonymous": false,
      "inputs": [
        {
          "indexed": false,
          "internalType": "uint256",
          "name": "_tokenId",
          "type": "uint256"
        }
      ],
      "name": "MetadataUpdate",
      "type": "event"
    },
    {
      "anonymous": false,
      "inputs": [
        {
          "indexed": true,
          "internalType": "uint256",
          "name": "tokenId",
          "type": "uint256"
        },
        {
          "indexed": false,
          "internalType": "string",
          "name": "name",
          "type": "string"
        },
        {
          "indexed": false,
          "internalType": "string",
          "name": "uri",
          "type": "string"
        }
      ],
      "name": "NFTCreated",
      "type": "event"
    },
    {
      "anonymous": false,
      "inputs": [
        {
          "indexed": true,
          "internalType": "address",
          "name": "previousOwner",
          "type": "address"
        },
        {
          "indexed": true,
          "internalType": "address",
          "name": "newOwner",
          "type": "address"
        }
      ],
      "name": "OwnershipTransferred",
      "type": "event"
    },
    {
      "anonymous": false,
      "inputs": [
        {
          "indexed": true,
          "internalType": "address",
          "name": "from",
          "type": "address"
        },
        {
          "indexed": true,
          "internalType": "address",
          "name": "to",
          "type": "address"
        },
        {
          "indexed": true,
          "internalType": "uint256",
          "name": "tokenId",
          "type": "uint256"
        }
      ],
      "name": "Transfer",
      "type": "event"
    },
    {
      "inputs": [
        {
          "internalType": "address",
          "name": "to",
          "type": "address"
        },
        {
          "internalType": "uint256",
          "name": "tokenId",
          "type": "uint256"
        }
      ],
      "name": "approve",
      "outputs": [],
      "stateMutability": "nonpayable",
      "type": "function"
    },
    {
      "inputs": [
        {
          "internalType": "address",
          "name": "owner",
          "type": "address"
        }
      ],
      "name": "balanceOf",
      "outputs": [
        {
          "internalType": "uint256",
          "name": "",
          "type": "uint256"
        }
      ],
      "stateMutability": "view",
      "type": "function"
    },
    {
      "inputs": [
        {
          "internalType": "address",
          "name": "to",
          "type": "address"
        },
        {
          "internalType": "uint256",
          "name": "count",
          "type": "uint256"
        },
        {
          "internalType": "string",
          "name": "baseURI",
          "type": "string"
        }
      ],
      "name": "createBatch",
      "outputs": [
        {
          "internalType": "uint256[]",
          "name": "",
          "type": "uint256[]"
        }
      ],
      "stateMutability": "nonpayable",
      "type": "function"
    },
    {
      "inputs": [
        {
          "internalType": "address",
          "name": "to",
          "type": "address"
        },
        {
          "internalType": "string",
          "name": "name",
          "type": "string"
        },
        {
          "internalType": "string",
          "name": "tokenURI",
          "type": "string"
        }
      ],
      "name": "createNFT",
      "outputs": [
        {
          "internalType": "uint256",
          "name": "",
          "type": "uint256"
        }
      ],
      "stateMutability": "nonpayable",
      "type": "function"
    },
    {
      "inputs": [
        {
          "internalType": "uint256",
          "name": "tokenId",
          "type": "uint256"
        }
      ],
      "name": "getApproved",
      "outputs": [
        {
          "internalType": "address",
          "name": "",
          "type": "address"
        }
      ],
      "stateMutability": "view",
      "type": "function"
    },
    {
      "inputs": [
        {
          "internalType": "address",
          "name": "owner",
          "type": "address"
        },
        {
          "internalType": "address",
          "name": "operator",
          "type": "address"
        }
      ],
      "name": "isApprovedForAll",
      "outputs": [
        {
          "internalType": "bool",
          "name": "",
          "type": "bool"
        }
      ],
      "stateMutability": "view",
      "type": "function"
    },
    {
      "inputs": [],
      "name": "name",
      "outputs": [
        {
          "internalType": "string",
          "name": "",
          "type": "string"
        }
      ],
      "stateMutability": "view",
      "type": "function"
    },
    {
      "inputs": [],
      "name": "owner",
      "outputs": [
        {
          "internalType": "address",
          "name": "",
          "type": "address"
        }
      ],
      "stateMutability": "view",
      "type": "function"
    },
    {
      "inputs": [
        {
          "internalType": "uint256",
          "name": "tokenId",
          "type": "uint256"
        }
      ],
      "name": "ownerOf",
      "outputs": [
        {
          "internalType": "address",
          "name": "",
          "type": "address"
        }
      ],
      "stateMutability": "view",
      "type": "function"
    },
    {
      "inputs": [],
      "name": "renounceOwnership",
      "outputs": [],
      "stateMutability": "nonpayable",
      "type": "function"
    },
    {
      "inputs": [
        {
          "internalType": "address",
          "name": "from",
          "type": "address"
        },
        {
          "internalType": "address",
          "name": "to",
          "type": "address"
        },
        {
          "internalType": "uint256",
          "name": "tokenId",
          "type": "uint256"
        }
      ],
      "name": "safeTransferFrom",
      "outputs": [],
      "stateMutability": "nonpayable",
      "type": "function"
    },
    {
      "inputs": [
        {
          "internalType": "address",
          "name": "from",
          "type": "address"
        },
        {
          "internalType": "address",
          "name": "to",
          "type": "address"
        },
        {
          "internalType": "uint256",
          "name": "tokenId",
          "type": "uint256"
        },
        {
          "internalType": "bytes",
          "name": "data",
          "type": "bytes"
        }
      ],
      "name": "safeTransferFrom",
      "outputs": [],
      "stateMutability": "nonpayable",
      "type": "function"
    },
    {
      "inputs": [
        {
          "internalType": "address",
          "name": "operator",
          "type": "address"
        },
        {
          "internalType": "bool",
          "name": "approved",
          "type": "bool"
        }
      ],
      "name": "setApprovalForAll",
      "outputs": [],
      "stateMutability": "nonpayable",
      "type": "function"
    },
    {
      "inputs": [
        {
          "internalType": "bytes4",
          "name": "interfaceId",
          "type": "bytes4"
        }
      ],
      "name": "supportsInterface",
      "outputs": [
        {
          "internalType": "bool",
          "name": "",
          "type": "bool"
        }
      ],
      "stateMutability": "view",
      "type": "function"
    },
    {
      "inputs": [],
      "name": "symbol",
      "outputs": [
        {
          "internalType": "string",
          "name": "",
          "type": "string"
        }
      ],
      "stateMutability": "view",
      "type": "function"
    },
    {
      "inputs": [
        {
          "internalType": "uint256",
          "name": "tokenId",
          "type": "uint256"
        }
      ],
      "name": "tokenURI",
      "outputs": [
        {
          "internalType": "string",
          "name": "",
          "type": "string"
        }
      ],
      "stateMutability": "view",
      "type": "function"
    },
    {
      "inputs": [
        {
          "internalType": "address",
          "name": "from",
          "type": "address"
        },
        {
          "internalType": "address",
          "name": "to",
          "type": "address"
        },
        {
          "internalType": "uint256",
          "name": "tokenId",
          "type": "uint256"
        }
      ],
      "name": "transferFrom",
      "outputs": [],
      "stateMutability": "nonpayable",
      "type": "function"
    },
    {
      "inputs": [
        {
          "internalType": "address",
          "name": "newOwner",
          "type": "address"
        }
      ],
      "name": "transferOwnership",
      "outputs": [],
      "stateMutability": "nonpayable",
      "type": "function"
    }
  ],
  "bytecode": "0x60806040523480156200001157600080fd5b506040518060400160405280600b81526020016a105d58dd1a5bdb8813919560aa1b815250604051806040016040528060048152602001631053919560e21b815250816000908162000064919062000191565b50600162000073828262000191565b505050620000906200008a6200009660201b60201c565b6200009a565b6200025d565b3390565b600780546001600160a01b038381166001600160a01b0319831681179093556040519116919082907f8be0079c531659141344cd1fd0a4f28419497f9722a3daafe3b4186f6b6457e090600090a35050565b634e487b7160e01b600052604160045260246000fd5b600181811c908216806200011757607f821691505b6020821081036200013857634e487b7160e01b600052602260045260246000fd5b50919050565b601f8211156200018c57600081815260208120601f850160051c81016020861015620001675750805b601f850160051c820191505b81811015620001885782815560010162000173565b5050505b505050565b81516001600160401b03811115620001ad57620001ad620000ec565b620001c581620001be845462000102565b846200013e565b602080601f831160018114620001fd5760008415620001e45750858301515b600019600386901b1c1916600185901b17855562000188565b600085815260208120601f198616915b828110156200022e578886015182559484019460019091019084016200020d565b50858210156200024d5787850151600019600388901b60f8161c191681555b5050505050600190811b01905550565b611cc2806200026d6000396000f3fe608060405234801561001057600080fd5b50600436106101165760003560e01c806370a08231116100a2578063a22cb46511610071578063a22cb46514610246578063b88d4fde14610259578063c87b56dd1461026c578063e985e9c51461027f578063f2fde38b1461029257600080fd5b806370a0823114610212578063715018a6146102255780638da5cb5b1461022d57806395d89b411461023e57600080fd5b80630b564a7c116100e95780630b564a7c1461019857806323b872dd146101b957806342842e0e146101cc5780635382cff2146101df5780636352211e146101ff57600080fd5b806301ffc9a71461011b57806306fdde0314610143578063081812fc14610158578063095ea7b314610183575b600080fd5b61012e6101293660046114c4565b6102a5565b60405190151581526020015b60405180910390f35b61014b6102d0565b60405161013a9190611531565b61016b610166366004611544565b610362565b6040516001600160a01b03909116815260200161013a565b610196610191366004611579565b610389565b005b6101ab6101a636600461164f565b6104a3565b60405190815260200161013a565b6101966101c73660046116c3565b61051e565b6101966101da3660046116c3565b61054f565b6101f26101ed3660046116ff565b61056a565b60405161013a919061174c565b61016b61020d366004611544565b6106c2565b6101ab610220366004611790565b610722565b6101966107a8565b6007546001600160a01b031661016b565b61014b6107bc565b6101966102543660046117ab565b6107cb565b6101966102673660046117e7565b6107da565b61014b61027a366004611544565b610812565b61012e61028d366004611863565b610922565b6101966102a0366004611790565b610950565b60006001600160e01b03198216632483248360e11b14806102ca57506102ca826109c9565b92915050565b6060600080546102df90611896565b80601f016020809104026020016040519081016040528092919081815260200182805461030b90611896565b80156103585780601f1061032d57610100808354040283529160200191610358565b820191906000526020600020905b81548152906001019060200180831161033b57829003601f168201915b5050505050905090565b600061036d82610a19565b506000908152600460205260409020546001600160a01b031690565b6000610394826106c2565b9050806001600160a01b0316836001600160a01b0316036104065760405162461bcd60e51b815260206004820152602160248201527f4552433732313a20617070726f76616c20746f2063757272656e74206f776e656044820152603960f91b60648201526084015b60405180910390fd5b336001600160a01b038216148061042257506104228133610922565b6104945760405162461bcd60e51b815260206004820152603d60248201527f4552433732313a20617070726f76652063616c6c6572206973206e6f7420746f60448201527f6b656e206f776e6572206f7220617070726f76656420666f7220616c6c00000060648201526084016103fd565b61049e8383610a78565b505050565b60006104ad610ae6565b6104bb600880546001019055565b60006104c660085490565b90506104d28582610b40565b6104dc8184610ccb565b807f0508f820196a2b92c4bbd740d48c93c17741bfb305d1c06cd8f2d63803dc9626858560405161050e9291906118d0565b60405180910390a2949350505050565b6105283382610d96565b6105445760405162461bcd60e51b81526004016103fd906118fe565b61049e838383610df4565b61049e838383604051806020016040528060008152506107da565b6060610574610ae6565b60008367ffffffffffffffff81111561058f5761058f6115a3565b6040519080825280602002602001820160405280156105b8578160200160208202803683370190505b50905060005b848110156106b9576105d4600880546001019055565b60006105df60085490565b90506105eb8782610b40565b61061e81866105f984610f58565b60405160200161060a92919061194b565b604051602081830303815290604052610ccb565b8083838151811061063157610631611987565b602002602001018181525050807f0508f820196a2b92c4bbd740d48c93c17741bfb305d1c06cd8f2d63803dc962661066883610f58565b604051602001610678919061199d565b60405160208183030381529060405261069084610812565b60405161069e9291906118d0565b60405180910390a250806106b1816119e0565b9150506105be565b50949350505050565b6000818152600260205260408120546001600160a01b0316806102ca5760405162461bcd60e51b8152602060048201526018602482015277115490cdcc8c4e881a5b9d985b1a59081d1bdad95b88125160421b60448201526064016103fd565b60006001600160a01b03821661078c5760405162461bcd60e51b815260206004820152602960248201527f4552433732313a2061646472657373207a65726f206973206e6f7420612076616044820152683634b21037bbb732b960b91b60648201526084016103fd565b506001600160a01b031660009081526003602052604090205490565b6107b0610ae6565b6107ba600061107b565b565b6060600180546102df90611896565b6107d63383836110cd565b5050565b6107e43383610d96565b6108005760405162461bcd60e51b81526004016103fd906118fe565b61080c8484848461119b565b50505050565b606061081d82610a19565b6000828152600660205260408120805461083690611896565b80601f016020809104026020016040519081016040528092919081815260200182805461086290611896565b80156108af5780601f10610884576101008083540402835291602001916108af565b820191906000526020600020905b81548152906001019060200180831161089257829003601f168201915b5050505050905060006108cd60408051602081019091526000815290565b905080516000036108df575092915050565b8151156109115780826040516020016108f99291906119f9565b60405160208183030381529060405292505050919050565b61091a846111ce565b949350505050565b6001600160a01b03918216600090815260056020908152604080832093909416825291909152205460ff1690565b610958610ae6565b6001600160a01b0381166109bd5760405162461bcd60e51b815260206004820152602660248201527f4f776e61626c653a206e6577206f776e657220697320746865207a65726f206160448201526564647265737360d01b60648201526084016103fd565b6109c68161107b565b50565b60006001600160e01b031982166380ac58cd60e01b14806109fa57506001600160e01b03198216635b5e139f60e01b145b806102ca57506301ffc9a760e01b6001600160e01b03198316146102ca565b6000818152600260205260409020546001600160a01b03166109c65760405162461bcd60e51b8152602060048201526018602482015277115490cdcc8c4e881a5b9d985b1a59081d1bdad95b88125160421b60448201526064016103fd565b600081815260046020526040902080546001600160a01b0319166001600160a01b0384169081179091558190610aad826106c2565b6001600160a01b03167f8c5be1e5ebec7d5bd14f71427d1e84f3dd0314c0f7b2291e5b200ac8c7c3b92560405160405180910390a45050565b6007546001600160a01b031633146107ba5760405162461bcd60e51b815260206004820181905260248201527f4f776e61626c653a2063616c6c6572206973206e6f7420746865206f776e657260448201526064016103fd565b6001600160a01b038216610b965760405162461bcd60e51b815260206004820181905260248201527f4552433732313a206d696e7420746f20746865207a65726f206164647265737360448201526064016103fd565b6000818152600260205260409020546001600160a01b031615610bfb5760405162461bcd60e51b815260206004820152601c60248201527f4552433732313a20746f6b656e20616c7265616479206d696e7465640000000060448201526064016103fd565b6000818152600260205260409020546001600160a01b031615610c605760405162461bcd60e51b815260206004820152601c60248201527f4552433732313a20746f6b656e20616c7265616479206d696e7465640000000060448201526064016103fd565b6001600160a01b038216600081815260036020908152604080832080546001019055848352600290915280822080546001600160a01b0319168417905551839291907fddf252ad1be2c89b69c2b068fc378daa952ba7f163c4a11628f55a4df523b3ef908290a45050565b6000828152600260205260409020546001600160a01b0316610d465760405162461bcd60e51b815260206004820152602e60248201527f45524337323155524953746f726167653a2055524920736574206f66206e6f6e60448201526d32bc34b9ba32b73a103a37b5b2b760911b60648201526084016103fd565b6000828152600660205260409020610d5e8282611a76565b506040518281527ff8e1a15aba9398e019f0b49df1a4fde98ee17ae345cb5f6b5e2c27f5033e8ce79060200160405180910390a15050565b600080610da2836106c2565b9050806001600160a01b0316846001600160a01b03161480610dc95750610dc98185610922565b8061091a5750836001600160a01b0316610de284610362565b6001600160a01b031614949350505050565b826001600160a01b0316610e07826106c2565b6001600160a01b031614610e2d5760405162461bcd60e51b81526004016103fd90611b36565b6001600160a01b038216610e8f5760405162461bcd60e51b8152602060048201526024808201527f4552433732313a207472616e7366657220746f20746865207a65726f206164646044820152637265737360e01b60648201526084016103fd565b826001600160a01b0316610ea2826106c2565b6001600160a01b031614610ec85760405162461bcd60e51b81526004016103fd90611b36565b600081815260046020908152604080832080546001600160a01b03199081169091556001600160a01b0387811680865260038552838620805460001901905590871680865283862080546001019055868652600290945282852080549092168417909155905184937fddf252ad1be2c89b69c2b068fc378daa952ba7f163c4a11628f55a4df523b3ef91a4505050565b606081600003610f7f5750506040805180820190915260018152600360fc1b602082015290565b8160005b8115610fa95780610f93816119e0565b9150610fa29050600a83611b7b565b9150610f83565b60008167ffffffffffffffff811115610fc457610fc46115a3565b6040519080825280601f01601f191660200182016040528015610fee576020820181803683370190505b509050815b85156106b957611004600182611b9d565b90506000611013600a88611b7b565b61101e90600a611bb0565b6110289088611b9d565b611033906030611bc7565b905060008160f81b90508084848151811061105057611050611987565b60200101906001600160f81b031916908160001a905350611072600a89611b7b565b97505050610ff3565b600780546001600160a01b038381166001600160a01b0319831681179093556040519116919082907f8be0079c531659141344cd1fd0a4f28419497f9722a3daafe3b4186f6b6457e090600090a35050565b816001600160a01b0316836001600160a01b03160361112e5760405162461bcd60e51b815260206004820152601960248201527f4552433732313a20617070726f766520746f2063616c6c65720000000000000060448201526064016103fd565b6001600160a01b03838116600081815260056020908152604080832094871680845294825291829020805460ff191686151590811790915591519182527f17307eab39ab6107e8899845ad3d59bd9653f200f220920489ca2b5937696c31910160405180910390a3505050565b6111a6848484610df4565b6111b284848484611242565b61080c5760405162461bcd60e51b81526004016103fd90611be0565b60606111d982610a19565b60006111f060408051602081019091526000815290565b90506000815111611210576040518060200160405280600081525061123b565b8061121a84611343565b60405160200161122b9291906119f9565b6040516020818303038152906040525b9392505050565b60006001600160a01b0384163b1561133857604051630a85bd0160e11b81526001600160a01b0385169063150b7a0290611286903390899088908890600401611c32565b6020604051808303816000875af19250505080156112c1575060408051601f3d908101601f191682019092526112be91810190611c6f565b60015b61131e573d8080156112ef576040519150601f19603f3d011682016040523d82523d6000602084013e6112f4565b606091505b5080516000036113165760405162461bcd60e51b81526004016103fd90611be0565b805181602001fd5b6001600160e01b031916630a85bd0160e11b14905061091a565b506001949350505050565b60606000611350836113d6565b600101905060008167ffffffffffffffff811115611370576113706115a3565b6040519080825280601f01601f19166020018201604052801561139a576020820181803683370190505b5090508181016020015b600019016f181899199a1a9b1b9c1cb0b131b232b360811b600a86061a8153600a85049450846113a457509392505050565b60008072184f03e93ff9f4daa797ed6e38ed64bf6a1f0160401b83106114155772184f03e93ff9f4daa797ed6e38ed64bf6a1f0160401b830492506040015b6d04ee2d6d415b85acef81000000008310611441576d04ee2d6d415b85acef8100000000830492506020015b662386f26fc10000831061145f57662386f26fc10000830492506010015b6305f5e1008310611477576305f5e100830492506008015b612710831061148b57612710830492506004015b6064831061149d576064830492506002015b600a83106102ca5760010192915050565b6001600160e01b0319811681146109c657600080fd5b6000602082840312156114d657600080fd5b813561123b816114ae565b60005b838110156114fc5781810151838201526020016114e4565b50506000910152565b6000815180845261151d8160208601602086016114e1565b601f01601f19169290920160200192915050565b60208152600061123b6020830184611505565b60006020828403121561155657600080fd5b5035919050565b80356001600160a01b038116811461157457600080fd5b919050565b6000806040838503121561158c57600080fd5b6115958361155d565b946020939093013593505050565b634e487b7160e01b600052604160045260246000fd5b600067ffffffffffffffff808411156115d4576115d46115a3565b604051601f8501601f19908116603f011681019082821181831017156115fc576115fc6115a3565b8160405280935085815286868601111561161557600080fd5b858560208301376000602087830101525050509392505050565b600082601f83011261164057600080fd5b61123b838335602085016115b9565b60008060006060848603121561166457600080fd5b61166d8461155d565b9250602084013567ffffffffffffffff8082111561168a57600080fd5b6116968783880161162f565b935060408601359150808211156116ac57600080fd5b506116b98682870161162f565b9150509250925092565b6000806000606084860312156116d857600080fd5b6116e18461155d565b92506116ef6020850161155d565b9150604084013590509250925092565b60008060006060848603121561171457600080fd5b61171d8461155d565b925060208401359150604084013567ffffffffffffffff81111561174057600080fd5b6116b98682870161162f565b6020808252825182820181905260009190848201906040850190845b8181101561178457835183529284019291840191600101611768565b50909695505050505050565b6000602082840312156117a257600080fd5b61123b8261155d565b600080604083850312156117be57600080fd5b6117c78361155d565b9150602083013580151581146117dc57600080fd5b809150509250929050565b600080600080608085870312156117fd57600080fd5b6118068561155d565b93506118146020860161155d565b925060408501359150606085013567ffffffffffffffff81111561183757600080fd5b8501601f8101871361184857600080fd5b611857878235602084016115b9565b91505092959194509250565b6000806040838503121561187657600080fd5b61187f8361155d565b915061188d6020840161155d565b90509250929050565b600181811c908216806118aa57607f821691505b6020821081036118ca57634e487b7160e01b600052602260045260246000fd5b50919050565b6040815260006118e36040830185611505565b82810360208401526118f58185611505565b95945050505050565b6020808252602d908201527f4552433732313a2063616c6c6572206973206e6f7420746f6b656e206f776e6560408201526c1c881bdc88185c1c1c9bdd9959609a1b606082015260800190565b6000835161195d8184602088016114e1565b602f60f81b908301908152835161197b8160018401602088016114e1565b01600101949350505050565b634e487b7160e01b600052603260045260246000fd5b644e4654202360d81b8152600082516119bd8160058501602087016114e1565b9190910160050192915050565b634e487b7160e01b600052601160045260246000fd5b6000600182016119f2576119f26119ca565b5060010190565b60008351611a0b8184602088016114e1565b835190830190611a1f8183602088016114e1565b01949350505050565b601f82111561049e57600081815260208120601f850160051c81016020861015611a4f5750805b601f850160051c820191505b81811015611a6e57828155600101611a5b565b505050505050565b815167ffffffffffffffff811115611a9057611a906115a3565b611aa481611a9e8454611896565b84611a28565b602080601f831160018114611ad95760008415611ac15750858301515b600019600386901b1c1916600185901b178555611a6e565b600085815260208120601f198616915b82811015611b0857888601518255948401946001909101908401611ae9565b5085821015611b265787850151600019600388901b60f8161c191681555b5050505050600190811b01905550565b60208082526025908201527f4552433732313a207472616e736665722066726f6d20696e636f72726563742060408201526437bbb732b960d91b606082015260800190565b600082611b9857634e487b7160e01b600052601260045260246000fd5b500490565b818103818111156102ca576102ca6119ca565b80820281158282048414176102ca576102ca6119ca565b60ff81811683821601908111156102ca576102ca6119ca565b60208082526032908201527f4552433732313a207472616e7366657220746f206e6f6e20455243373231526560408201527131b2b4bb32b91034b6b83632b6b2b73a32b960711b606082015260800190565b6001600160a01b0385811682528416602082015260408101839052608060608201819052600090611c6590830184611505565b9695505050505050565b600060208284031215611c8157600080fd5b815161123b816114ae56fea2646970667358221220ec598d7a34679c01c3a33ec2a7bd231641d1b18a732286fc7e6615afb6542bda64736f6c63430008110033",
  "linkReferences": {},
  "deployedLinkReferences": {}
}