{
  "_format": "hh-sol-artifact-1",
  "contractName": "ComplexNFTAuction",
  "sourceName": "contracts/ComplexNFTAuction.sol",
  "abi": [
    {
      "inputs": [
        {
          "internalType": "address",
          "name": "_govToken",
          "type": "address"
        }
      ],
      "stateMutability": "nonpayable",
      "type": "constructor"
    },
    {
      "anonymous": false,
      "inputs": [
        {
          "indexed": true,
          "internalType": "uint256",
          "name": "auctionId",
          "type": "uint256"
        }
      ],
      "name": "AuctionCancelled",
      "type": "event"
    },
    {
      "anonymous": false,
      "inputs": [
        {
          "indexed": true,
          "internalType": "uint256",
          "name": "auctionId",
          "type": "uint256"
        },
        {
          "indexed": true,
          "internalType": "uint256",
          "name": "tokenId",
          "type": "uint256"
        },
        {
          "indexed": true,
          "internalType": "address",
          "name": "nftContract",
          "type": "address"
        },
        {
          "indexed": false,
          "internalType": "uint256",
          "name": "startingPrice",
          "type": "uint256"
        },
        {
          "indexed": false,
          "internalType": "uint256",
          "name": "minTokenAmount",
          "type": "uint256"
        },
        {
          "indexed": false,
          "internalType": "uint256",
          "name": "endTime",
          "type": "uint256"
        }
      ],
      "name": "AuctionCreated",
      "type": "event"
    },
    {
      "anonymous": false,
      "inputs": [
        {
          "indexed": true,
          "internalType": "uint256",
          "name": "auctionId",
          "type": "uint256"
        },
        {
          "indexed": true,
          "internalType": "address",
          "name": "winner",
          "type": "address"
        },
        {
          "indexed": false,
          "internalType": "uint256",
          "name": "ethAmount",
          "type": "uint256"
        },
        {
          "indexed": false,
          "internalType": "uint256",
          "name": "tokenAmount",
          "type": "uint256"
        }
      ],
      "name": "AuctionFinalized",
      "type": "event"
    },
    {
      "anonymous": false,
      "inputs": [
        {
          "indexed": true,
          "internalType": "uint256",
          "name": "auctionId",
          "type": "uint256"
        },
        {
          "indexed": true,
          "internalType": "address",
          "name": "bidder",
          "type": "address"
        },
        {
          "indexed": false,
          "internalType": "uint256",
          "name": "ethAmount",
          "type": "uint256"
        },
        {
          "indexed": false,
          "internalType": "uint256",
          "name": "tokenAmount",
          "type": "uint256"
        }
      ],
      "name": "BidPlaced",
      "type": "event"
    },
    {
      "anonymous": false,
      "inputs": [
        {
          "indexed": false,
          "internalType": "uint256",
          "name": "newRatio",
          "type": "uint256"
        }
      ],
      "name": "BurnRatioChanged",
      "type": "event"
    },
    {
      "anonymous": false,
      "inputs": [
        {
          "indexed": true,
          "internalType": "address",
          "name": "previousOwner",
          "type": "address"
        },
        {
          "indexed": true,
          "internalType": "address",
          "name": "newOwner",
          "type": "address"
        }
      ],
      "name": "OwnershipTransferred",
      "type": "event"
    },
    {
      "inputs": [],
      "name": "PERCENTAGE_BASE",
      "outputs": [
        {
          "internalType": "uint256",
          "name": "",
          "type": "uint256"
        }
      ],
      "stateMutability": "view",
      "type": "function"
    },
    {
      "inputs": [],
      "name": "PLATFORM_FEE",
      "outputs": [
        {
          "internalType": "uint256",
          "name": "",
          "type": "uint256"
        }
      ],
      "stateMutability": "view",
      "type": "function"
    },
    {
      "inputs": [
        {
          "internalType": "uint256",
          "name": "",
          "type": "uint256"
        },
        {
          "internalType": "uint256",
          "name": "",
          "type": "uint256"
        }
      ],
      "name": "auctionBids",
      "outputs": [
        {
          "internalType": "address",
          "name": "bidder",
          "type": "address"
        },
        {
          "internalType": "uint256",
          "name": "ethAmount",
          "type": "uint256"
        },
        {
          "internalType": "uint256",
          "name": "tokenAmount",
          "type": "uint256"
        },
        {
          "internalType": "uint256",
          "name": "timestamp",
          "type": "uint256"
        }
      ],
      "stateMutability": "view",
      "type": "function"
    },
    {
      "inputs": [],
      "name": "auctionIdCounter",
      "outputs": [
        {
          "internalType": "uint256",
          "name": "",
          "type": "uint256"
        }
      ],
      "stateMutability": "view",
      "type": "function"
    },
    {
      "inputs": [
        {
          "internalType": "uint256",
          "name": "",
          "type": "uint256"
        }
      ],
      "name": "auctions",
      "outputs": [
        {
          "internalType": "uint256",
          "name": "tokenId",
          "type": "uint256"
        },
        {
          "internalType": "address",
          "name": "nftContract",
          "type": "address"
        },
        {
          "internalType": "address payable",
          "name": "seller",
          "type": "address"
        },
        {
          "internalType": "uint256",
          "name": "startingPrice",
          "type": "uint256"
        },
        {
          "internalType": "uint256",
          "name": "minTokenAmount",
          "type": "uint256"
        },
        {
          "internalType": "uint256",
          "name": "endTime",
          "type": "uint256"
        },
        {
          "internalType": "bool",
          "name": "active",
          "type": "bool"
        },
        {
          "internalType": "address payable",
          "name": "highestBidder",
          "type": "address"
        },
        {
          "internalType": "uint256",
          "name": "highestEthBid",
          "type": "uint256"
        },
        {
          "internalType": "uint256",
          "name": "highestTokenBid",
          "type": "uint256"
        }
      ],
      "stateMutability": "view",
      "type": "function"
    },
    {
      "inputs": [],
      "name": "burnRatio",
      "outputs": [
        {
          "internalType": "uint256",
          "name": "",
          "type": "uint256"
        }
      ],
      "stateMutability": "view",
      "type": "function"
    },
    {
      "inputs": [
        {
          "internalType": "uint256",
          "name": "auctionId",
          "type": "uint256"
        }
      ],
      "name": "cancelAuction",
      "outputs": [],
      "stateMutability": "nonpayable",
      "type": "function"
    },
    {
      "inputs": [
        {
          "internalType": "uint256",
          "name": "tokenId",
          "type": "uint256"
        },
        {
          "internalType": "address",
          "name": "nftContract",
          "type": "address"
        },
        {
          "internalType": "uint256",
          "name": "startingPrice",
          "type": "uint256"
        },
        {
          "internalType": "uint256",
          "name": "minTokenAmount",
          "type": "uint256"
        },
        {
          "internalType": "uint256",
          "name": "duration",
          "type": "uint256"
        }
      ],
      "name": "createAuction",
      "outputs": [
        {
          "internalType": "uint256",
          "name": "",
          "type": "uint256"
        }
      ],
      "stateMutability": "nonpayable",
      "type": "function"
    },
    {
      "inputs": [
        {
          "internalType": "uint256",
          "name": "auctionId",
          "type": "uint256"
        }
      ],
      "name": "finalizeAuction",
      "outputs": [],
      "stateMutability": "nonpayable",
      "type": "function"
    },
    {
      "inputs": [
        {
          "internalType": "uint256",
          "name": "offset",
          "type": "uint256"
        },
        {
          "internalType": "uint256",
          "name": "limit",
          "type": "uint256"
        }
      ],
      "name": "getActiveAuctions",
      "outputs": [
        {
          "internalType": "uint256[]",
          "name": "",
          "type": "uint256[]"
        }
      ],
      "stateMutability": "view",
      "type": "function"
    },
    {
      "inputs": [
        {
          "internalType": "uint256",
          "name": "auctionId",
          "type": "uint256"
        }
      ],
      "name": "getAuction",
      "outputs": [
        {
          "internalType": "uint256",
          "name": "tokenId",
          "type": "uint256"
        },
        {
          "internalType": "address",
          "name": "nftContract",
          "type": "address"
        },
        {
          "internalType": "address",
          "name": "seller",
          "type": "address"
        },
        {
          "internalType": "uint256",
          "name": "startingPrice",
          "type": "uint256"
        },
        {
          "internalType": "uint256",
          "name": "minTokenAmount",
          "type": "uint256"
        },
        {
          "internalType": "uint256",
          "name": "endTime",
          "type": "uint256"
        },
        {
          "internalType": "bool",
          "name": "active",
          "type": "bool"
        },
        {
          "internalType": "address",
          "name": "highestBidder",
          "type": "address"
        },
        {
          "internalType": "uint256",
          "name": "highestEthBid",
          "type": "uint256"
        },
        {
          "internalType": "uint256",
          "name": "highestTokenBid",
          "type": "uint256"
        }
      ],
      "stateMutability": "view",
      "type": "function"
    },
    {
      "inputs": [
        {
          "internalType": "uint256",
          "name": "auctionId",
          "type": "uint256"
        }
      ],
      "name": "getAuctionBids",
      "outputs": [
        {
          "components": [
            {
              "internalType": "address",
              "name": "bidder",
              "type": "address"
            },
            {
              "internalType": "uint256",
              "name": "ethAmount",
              "type": "uint256"
            },
            {
              "internalType": "uint256",
              "name": "tokenAmount",
              "type": "uint256"
            },
            {
              "internalType": "uint256",
              "name": "timestamp",
              "type": "uint256"
            }
          ],
          "internalType": "struct ComplexNFTAuction.Bid[]",
          "name": "",
          "type": "tuple[]"
        }
      ],
      "stateMutability": "view",
      "type": "function"
    },
    {
      "inputs": [],
      "name": "govToken",
      "outputs": [
        {
          "internalType": "contract IERC20",
          "name": "",
          "type": "address"
        }
      ],
      "stateMutability": "view",
      "type": "function"
    },
    {
      "inputs": [],
      "name": "owner",
      "outputs": [
        {
          "internalType": "address",
          "name": "",
          "type": "address"
        }
      ],
      "stateMutability": "view",
      "type": "function"
    },
    {
      "inputs": [
        {
          "internalType": "uint256",
          "name": "auctionId",
          "type": "uint256"
        },
        {
          "internalType": "uint256",
          "name": "tokenAmount",
          "type": "uint256"
        }
      ],
      "name": "placeBid",
      "outputs": [],
      "stateMutability": "payable",
      "type": "function"
    },
    {
      "inputs": [
        {
          "internalType": "uint256",
          "name": "auctionId",
          "type": "uint256"
        },
        {
          "internalType": "uint256",
          "name": "ethAmount",
          "type": "uint256"
        },
        {
          "internalType": "uint256",
          "name": "tokenAmount",
          "type": "uint256"
        }
      ],
      "name": "placeBidComplex",
      "outputs": [],
      "stateMutability": "nonpayable",
      "type": "function"
    },
    {
      "inputs": [],
      "name": "renounceOwnership",
      "outputs": [],
      "stateMutability": "nonpayable",
      "type": "function"
    },
    {
      "inputs": [
        {
          "internalType": "uint256",
          "name": "newRatio",
          "type": "uint256"
        }
      ],
      "name": "setBurnRatio",
      "outputs": [],
      "stateMutability": "nonpayable",
      "type": "function"
    },
    {
      "inputs": [
        {
          "internalType": "address",
          "name": "newOwner",
          "type": "address"
        }
      ],
      "name": "transferOwnership",
      "outputs": [],
      "stateMutability": "nonpayable",
      "type": "function"
    },
    {
      "inputs": [],
      "name": "withdrawFees",
      "outputs": [],
      "stateMutability": "nonpayable",
      "type": "function"
    },
    {
      "stateMutability": "payable",
      "type": "receive"
    }
  ],
  "bytecode": "0x60806040526113886006553480156200001757600080fd5b506040516200253f3803806200253f8339810160408190526200003a91620000c2565b60016000556200004a3362000070565b600280546001600160a01b0319166001600160a01b0392909216919091179055620000f4565b600180546001600160a01b038381166001600160a01b0319831681179093556040519116919082907f8be0079c531659141344cd1fd0a4f28419497f9722a3daafe3b4186f6b6457e090600090a35050565b600060208284031215620000d557600080fd5b81516001600160a01b0381168114620000ed57600080fd5b9392505050565b61243b80620001046000396000f3fe6080604052600436106101235760003560e01c8063715018a6116100a05780639370131f116100645780639370131f1461045b57806396b5a7551461047b578063de0794ef1461049b578063e8083863146104b1578063f2fde38b146104d157600080fd5b8063715018a61461037257806378bd79351461038757806387c13943146104075780638874c3891461041d5780638da5cb5b1461043d57600080fd5b80635192c82c116100e75780635192c82c146101f4578063571a26a01461020a57806357c90de5146102e85780635f93de49146102fb57806370b4768e1461034557600080fd5b806305268cff1461012f5780630a1c33581461016c578063309026d11461019957806334fbc9a1146101bb578063476343ee146101df57600080fd5b3661012a57005b600080fd5b34801561013b57600080fd5b5060025461014f906001600160a01b031681565b6040516001600160a01b0390911681526020015b60405180910390f35b34801561017857600080fd5b5061018c610187366004611fcf565b6104f1565b6040516101639190611ff1565b3480156101a557600080fd5b506101b96101b4366004612035565b610644565b005b3480156101c757600080fd5b506101d16101f481565b604051908152602001610163565b3480156101eb57600080fd5b506101b9610bd7565b34801561020057600080fd5b506101d160065481565b34801561021657600080fd5b50610288610225366004612061565b600360208190526000918252604090912080546001820154600283015493830154600484015460058501546006860154600787015460089097015495976001600160a01b03958616979086169694959394929360ff83169361010090930416918a565b604080519a8b526001600160a01b03998a1660208c0152978916978a01979097526060890195909552608088019390935260a0870191909152151560c086015290921660e084015261010083019190915261012082015261014001610163565b6101b96102f6366004611fcf565b610c1b565b34801561030757600080fd5b5061031b610316366004611fcf565b6110ec565b604080516001600160a01b0390951685526020850193909352918301526060820152608001610163565b34801561035157600080fd5b50610365610360366004612061565b61113c565b604051610163919061207a565b34801561037e57600080fd5b506101b96111d9565b34801561039357600080fd5b506102886103a2366004612061565b600090815260036020819052604090912080546001820154600283015493830154600484015460058501546006860154600787015460089097015495986001600160a01b039586169886169794969395929460ff831694610100909304909316929190565b34801561041357600080fd5b506101d161271081565b34801561042957600080fd5b506101d1610438366004612103565b6111ed565b34801561044957600080fd5b506001546001600160a01b031661014f565b34801561046757600080fd5b506101b9610476366004612061565b6115a0565b34801561048757600080fd5b506101b9610496366004612061565b611635565b3480156104a757600080fd5b506101d160055481565b3480156104bd57600080fd5b506101b96104cc366004612061565b61180d565b3480156104dd57600080fd5b506101b96104ec366004612149565b611b65565b60606000805b60055481101561053b5760008181526003602052604090206006015460ff1615610529578161052581612181565b9250505b8061053381612181565b9150506104f7565b50610546848261219a565b8311156105685783811161055b576000610565565b610565848261219a565b92505b60008367ffffffffffffffff811115610583576105836121ad565b6040519080825280602002602001820160405280156105ac578160200160208202803683370190505b5090506000805b600554811080156105c357508582105b156106375760008181526003602052604090206006015460ff16156106255786156105fa57866105f2816121c3565b975050610625565b80838361060681612181565b945081518110610618576106186121da565b6020026020010181815250505b8061062f81612181565b9150506105b3565b5090925050505b92915050565b61064c611bdb565b6000838152600360205260409020600681015460ff166106875760405162461bcd60e51b815260040161067e906121f0565b60405180910390fd5b806005015442106106cd5760405162461bcd60e51b815260206004820152601060248201526f4c65696c616f20656e6365727261646f60801b604482015260640161067e565b60028101546001600160a01b031633036107295760405162461bcd60e51b815260206004820152601b60248201527f56656e6465646f72206e616f20706f646520646172206c616e63650000000000604482015260640161067e565b806003015483101561074d5760405162461bcd60e51b815260040161067e9061221f565b80600401548210156107715760405162461bcd60e51b815260040161067e90612262565b806007015483118061079457508060070154831480156107945750806008015482115b6107b05760405162461bcd60e51b815260040161067e906122a3565b6002546040516370a0823160e01b815233600482015283916001600160a01b0316906370a0823190602401602060405180830381865afa1580156107f8573d6000803e3d6000fd5b505050506040513d601f19601f8201168201806040525081019061081c91906122e7565b101561086a5760405162461bcd60e51b815260206004820152601c60248201527f53616c646f20646520746f6b656e7320696e737566696369656e746500000000604482015260640161067e565b600254604051636eb1769f60e11b815233600482015230602482015283916001600160a01b03169063dd62ed3e90604401602060405180830381865afa1580156108b8573d6000803e3d6000fd5b505050506040513d601f19601f820116820180604052508101906108dc91906122e7565b101561092a5760405162461bcd60e51b815260206004820181905260248201527f4170726f766163616f20646520746f6b656e7320696e737566696369656e7465604482015260640161067e565b600681015461010090046001600160a01b0316156109b357600681015460078201546040516101009092046001600160a01b0316916108fc82150291906000818181858888f19350505050158015610986573d6000803e3d6000fd5b50600681015460088201546002546109b3926001600160a01b039182169261010090910490911690611c34565b600681018054610100600160a81b03191633610100810291909117909155600782018490556008820183905531831115610a285760405162461bcd60e51b815260206004820152601660248201527553616c646f2045544820696e737566696369656e746560501b604482015260640161067e565b604051600090309085908381818185875af1925050503d8060008114610a6a576040519150601f19603f3d011682016040523d82523d6000602084013e610a6f565b606091505b5050905080610ac05760405162461bcd60e51b815260206004820152601b60248201527f7472616e73666572656e636961206465204554482066616c686f750000000000604482015260640161067e565b600254610ad8906001600160a01b0316333086611c97565b600085815260046020818152604080842081516080810183523381528084018a81529281018981524260608301818152845460018082018755958a529690982092519590960290910180546001600160a01b0319166001600160a01b039095169490941784559151908301555160028201559151600390920191909155600583015461025891610b679161219a565b1015610b8957610258826005016000828254610b839190612300565b90915550505b6040805185815260208101859052339187917f51db8e23b3f4479b162fd48823b8402895442b8f6cfd94f66239391881ec7b6f910160405180910390a35050610bd26001600055565b505050565b610bdf611cbe565b6001546040516001600160a01b03909116904780156108fc02916000818181858888f19350505050158015610c18573d6000803e3d6000fd5b50565b610c23611bdb565b6000828152600360205260409020600681015460ff16610c7d5760405162461bcd60e51b815260206004820152601560248201527441756374696f6e206973206e6f742061637469766560581b604482015260640161067e565b80600501544210610cc35760405162461bcd60e51b815260206004820152601060248201526f4c65696c616f20656e6365727261646f60801b604482015260640161067e565b60028101546001600160a01b03163303610d1f5760405162461bcd60e51b815260206004820152601b60248201527f56656e6465646f72206e616f20706f646520646172206c616e63650000000000604482015260640161067e565b8060030154341015610d435760405162461bcd60e51b815260040161067e9061221f565b8060040154821015610d675760405162461bcd60e51b815260040161067e90612262565b8060070154341180610d8a5750806007015434148015610d8a5750806008015482115b610da65760405162461bcd60e51b815260040161067e906122a3565b6002546040516370a0823160e01b815233600482015283916001600160a01b0316906370a0823190602401602060405180830381865afa158015610dee573d6000803e3d6000fd5b505050506040513d601f19601f82011682018060405250810190610e1291906122e7565b1015610e605760405162461bcd60e51b815260206004820152601c60248201527f53616c646f20646520746f6b656e7320696e737566696369656e746500000000604482015260640161067e565b600254604051636eb1769f60e11b815233600482015230602482015283916001600160a01b03169063dd62ed3e90604401602060405180830381865afa158015610eae573d6000803e3d6000fd5b505050506040513d601f19601f82011682018060405250810190610ed291906122e7565b1015610f205760405162461bcd60e51b815260206004820181905260248201527f4170726f766163616f20646520746f6b656e7320696e737566696369656e7465604482015260640161067e565b600681015461010090046001600160a01b031615610fa957600681015460078201546040516101009092046001600160a01b0316916108fc82150291906000818181858888f19350505050158015610f7c573d6000803e3d6000fd5b5060068101546008820154600254610fa9926001600160a01b039182169261010090910490911690611c34565b600681018054610100600160a81b0319163361010081029190911790915534600783015560088201839055600254610fee916001600160a01b03909116903085611c97565b60008381526004602081815260408084208151608081018352338152348185019081529281018881524260608301818152845460018082018755958a529690982092519590960290910180546001600160a01b0319166001600160a01b03909516949094178455915190830155516002820155915160039092019190915560058201546102589161107e9161219a565b10156110a05761025881600501600082825461109a9190612300565b90915550505b6040805134815260208101849052339185917f51db8e23b3f4479b162fd48823b8402895442b8f6cfd94f66239391881ec7b6f910160405180910390a3506110e86001600055565b5050565b6004602052816000526040600020818154811061110857600080fd5b600091825260209091206004909102018054600182015460028301546003909301546001600160a01b039092169450925084565b606060046000838152602001908152602001600020805480602002602001604051908101604052809291908181526020016000905b828210156111ce576000848152602090819020604080516080810182526004860290920180546001600160a01b03168352600180820154848601526002820154928401929092526003015460608301529083529092019101611171565b505050509050919050565b6111e1611cbe565b6111eb6000611d18565b565b600080841161124f5760405162461bcd60e51b815260206004820152602860248201527f5374617274696e67207072696365206d7573742062652067726561746572207460448201526768616e207a65726f60c01b606482015260840161067e565b600083116112ae5760405162461bcd60e51b815260206004820152602660248201527f546f6b656e20616d6f756e74206d7573742062652067726561746572207468616044820152656e207a65726f60d01b606482015260840161067e565b610e108210156113005760405162461bcd60e51b815260206004820152601a60248201527f4d696e696d756d206475726174696f6e206973203120686f7572000000000000604482015260640161067e565b62278d008211156113535760405162461bcd60e51b815260206004820152601b60248201527f4d6178696d756d206475726174696f6e20697320333020646179730000000000604482015260640161067e565b6040516323b872dd60e01b81526001600160a01b038616906323b872dd9061138390339030908b90600401612313565b600060405180830381600087803b15801561139d57600080fd5b505af11580156113b1573d6000803e3d6000fd5b505060058054600093509150826113c783612181565b90915550905060006113d98442612300565b9050604051806101400160405280898152602001886001600160a01b03168152602001336001600160a01b0316815260200187815260200186815260200182815260200160011515815260200160006001600160a01b03168152602001600081526020016000815250600360008481526020019081526020016000206000820151816000015560208201518160010160006101000a8154816001600160a01b0302191690836001600160a01b0316021790555060408201518160020160006101000a8154816001600160a01b0302191690836001600160a01b03160217905550606082015181600301556080820151816004015560a0820151816005015560c08201518160060160006101000a81548160ff02191690831515021790555060e08201518160060160016101000a8154816001600160a01b0302191690836001600160a01b0316021790555061010082015181600701556101208201518160080155905050866001600160a01b031688837f56102b55f8c4ba831c7d439c06939c7e1fe545abbd4f8a71737c2a9b0f7e858489898660405161158d939291909283526020830191909152604082015260600190565b60405180910390a4509695505050505050565b6115a8611cbe565b6127108111156115fa5760405162461bcd60e51b815260206004820152601b60248201527f52617a616f206e616f20706f6465206578636564657220313030250000000000604482015260640161067e565b60068190556040518181527f1feb96ca3e3f1beb16ab86471a086e0b3d80f96e6f99f770a06b7117ef78c2079060200160405180910390a150565b6000818152600360205260409020600681015460ff166116675760405162461bcd60e51b815260040161067e906121f0565b60028101546001600160a01b031633148061168c57506001546001600160a01b031633145b6116d85760405162461bcd60e51b815260206004820152601860248201527f4170656e61732076656e6465646f72206f752061646d696e0000000000000000604482015260640161067e565b60068101805460ff191690556001810154600282015482546040516323b872dd60e01b81526001600160a01b03938416936323b872dd936117229330939290911691600401612313565b600060405180830381600087803b15801561173c57600080fd5b505af1158015611750573d6000803e3d6000fd5b505050600682015461010090046001600160a01b03161590506117de57600681015460078201546040516101009092046001600160a01b0316916108fc82150291906000818181858888f193505050501580156117b1573d6000803e3d6000fd5b50600681015460088201546002546117de926001600160a01b039182169261010090910490911690611c34565b60405182907f2809c7e17bf978fbc7194c0a694b638c4215e9140cacc6c38ca36010b45697df90600090a25050565b611815611bdb565b6000818152600360205260409020600681015460ff166118475760405162461bcd60e51b815260040161067e906121f0565b80600501544210158061186457506001546001600160a01b031633145b8061187b575060028101546001600160a01b031633145b6118c75760405162461bcd60e51b815260206004820152601a60248201527f4c65696c616f2061696e6461206e616f20656e6365727261646f000000000000604482015260640161067e565b60068101805460ff19169081905561010090046001600160a01b031615611abe5760006127106101f483600701546118ff9190612337565b611909919061234e565b9050600081836007015461191d919061219a565b6001840154600685015485546040516323b872dd60e01b81529394506001600160a01b03928316936323b872dd9361196393309361010090910490911691600401612313565b600060405180830381600087803b15801561197d57600080fd5b505af1158015611991573d6000803e3d6000fd5b50505060028401546040516001600160a01b03909116915082156108fc029083906000818181858888f193505050501580156119d1573d6000803e3d6000fd5b5060006127106006546127106119e7919061219a565b85600801546119f69190612337565b611a00919061234e565b90506000818560080154611a14919061219a565b90508115611a3b576002808601549054611a3b916001600160a01b03918216911684611c34565b8015611a5a57600254611a5a906001600160a01b031661dead83611c34565b6006850154600786015460088701546040805192835260208301919091526101009092046001600160a01b03169188917f8fe48cb2788518c502edabdec52a7efc6f23c59ea723e715f57d5fb39990b326910160405180910390a350505050611b5a565b6001810154600282015482546040516323b872dd60e01b81526001600160a01b03938416936323b872dd93611afc9330939290911691600401612313565b600060405180830381600087803b158015611b1657600080fd5b505af1158015611b2a573d6000803e3d6000fd5b50506040518492507f2809c7e17bf978fbc7194c0a694b638c4215e9140cacc6c38ca36010b45697df9150600090a25b50610c186001600055565b611b6d611cbe565b6001600160a01b038116611bd25760405162461bcd60e51b815260206004820152602660248201527f4f776e61626c653a206e6577206f776e657220697320746865207a65726f206160448201526564647265737360d01b606482015260840161067e565b610c1881611d18565b600260005403611c2d5760405162461bcd60e51b815260206004820152601f60248201527f5265656e7472616e637947756172643a207265656e7472616e742063616c6c00604482015260640161067e565b6002600055565b6040516001600160a01b038316602482015260448101829052610bd290849063a9059cbb60e01b906064015b60408051601f198184030181529190526020810180516001600160e01b03166001600160e01b031990931692909217909152611d6a565b611cb8846323b872dd60e01b858585604051602401611c6093929190612313565b50505050565b6001546001600160a01b031633146111eb5760405162461bcd60e51b815260206004820181905260248201527f4f776e61626c653a2063616c6c6572206973206e6f7420746865206f776e6572604482015260640161067e565b600180546001600160a01b038381166001600160a01b0319831681179093556040519116919082907f8be0079c531659141344cd1fd0a4f28419497f9722a3daafe3b4186f6b6457e090600090a35050565b6000611dbf826040518060400160405280602081526020017f5361666545524332303a206c6f772d6c6576656c2063616c6c206661696c6564815250856001600160a01b0316611e3f9092919063ffffffff16565b9050805160001480611de0575080806020019051810190611de09190612370565b610bd25760405162461bcd60e51b815260206004820152602a60248201527f5361666545524332303a204552433230206f7065726174696f6e20646964206e6044820152691bdd081cdd58d8d9595960b21b606482015260840161067e565b6060611e4e8484600085611e56565b949350505050565b606082471015611eb75760405162461bcd60e51b815260206004820152602660248201527f416464726573733a20696e73756666696369656e742062616c616e636520666f6044820152651c8818d85b1b60d21b606482015260840161067e565b600080866001600160a01b03168587604051611ed391906123b6565b60006040518083038185875af1925050503d8060008114611f10576040519150601f19603f3d011682016040523d82523d6000602084013e611f15565b606091505b5091509150611f2687838387611f31565b979650505050505050565b60608315611fa0578251600003611f99576001600160a01b0385163b611f995760405162461bcd60e51b815260206004820152601d60248201527f416464726573733a2063616c6c20746f206e6f6e2d636f6e7472616374000000604482015260640161067e565b5081611e4e565b611e4e8383815115611fb55781518083602001fd5b8060405162461bcd60e51b815260040161067e91906123d2565b60008060408385031215611fe257600080fd5b50508035926020909101359150565b6020808252825182820181905260009190848201906040850190845b818110156120295783518352928401929184019160010161200d565b50909695505050505050565b60008060006060848603121561204a57600080fd5b505081359360208301359350604090920135919050565b60006020828403121561207357600080fd5b5035919050565b602080825282518282018190526000919060409081850190868401855b828110156120da57815180516001600160a01b03168552868101518786015285810151868601526060908101519085015260809093019290850190600101612097565b5091979650505050505050565b80356001600160a01b03811681146120fe57600080fd5b919050565b600080600080600060a0868803121561211b57600080fd5b8535945061212b602087016120e7565b94979496505050506040830135926060810135926080909101359150565b60006020828403121561215b57600080fd5b612164826120e7565b9392505050565b634e487b7160e01b600052601160045260246000fd5b6000600182016121935761219361216b565b5060010190565b8181038181111561063e5761063e61216b565b634e487b7160e01b600052604160045260246000fd5b6000816121d2576121d261216b565b506000190190565b634e487b7160e01b600052603260045260246000fd5b6020808252601590820152744c65696c616f206e616f206573746120617469766f60581b604082015260600190565b60208082526023908201527f4c616e636520656d204554482061626169786f20646f20707265636f206d696e604082015262696d6f60e81b606082015260800190565b60208082526021908201527f5175616e74696461646520646520746f6b656e7320696e737566696369656e746040820152606560f81b606082015260800190565b60208082526024908201527f4c616e6365206e616f20737570657261206f206d61696f72206c616e636520616040820152631d1d585b60e21b606082015260800190565b6000602082840312156122f957600080fd5b5051919050565b8082018082111561063e5761063e61216b565b6001600160a01b039384168152919092166020820152604081019190915260600190565b808202811582820484141761063e5761063e61216b565b60008261236b57634e487b7160e01b600052601260045260246000fd5b500490565b60006020828403121561238257600080fd5b8151801515811461216457600080fd5b60005b838110156123ad578181015183820152602001612395565b50506000910152565b600082516123c8818460208701612392565b9190910192915050565b60208152600082518060208401526123f1816040850160208701612392565b601f01601f1916919091016040019291505056fea2646970667358221220e75efe1b1d26b4ce299bdb11f3b36a396104b7e0dca71418aca83a1bd84e942f64736f6c63430008110033",
  "linkReferences": {},
  "deployedLinkReferences": {}
}